{
  "contractName": "AlienERC721",
  "abi": [
    {
      "inputs": [
        {
          "internalType": "address",
          "name": "_AlienToken",
          "type": "address"
        }
      ],
      "stateMutability": "nonpayable",
      "type": "constructor"
    },
    {
      "anonymous": false,
      "inputs": [
        {
          "indexed": false,
          "internalType": "address",
          "name": "owner",
          "type": "address"
        },
        {
          "indexed": false,
          "internalType": "uint256",
          "name": "alienId",
          "type": "uint256"
        },
        {
          "indexed": false,
          "internalType": "uint32",
          "name": "mumId",
          "type": "uint32"
        },
        {
          "indexed": false,
          "internalType": "uint32",
          "name": "dadId",
          "type": "uint32"
        },
        {
          "indexed": false,
          "internalType": "uint256",
          "name": "genes",
          "type": "uint256"
        }
      ],
      "name": "AlienMinted",
      "type": "event"
    },
    {
      "anonymous": false,
      "inputs": [
        {
          "indexed": true,
          "internalType": "address",
          "name": "owner",
          "type": "address"
        },
        {
          "indexed": true,
          "internalType": "address",
          "name": "approved",
          "type": "address"
        },
        {
          "indexed": true,
          "internalType": "uint256",
          "name": "tokenId",
          "type": "uint256"
        }
      ],
      "name": "Approval",
      "type": "event"
    },
    {
      "anonymous": false,
      "inputs": [
        {
          "indexed": true,
          "internalType": "address",
          "name": "owner",
          "type": "address"
        },
        {
          "indexed": true,
          "internalType": "address",
          "name": "operator",
          "type": "address"
        },
        {
          "indexed": false,
          "internalType": "bool",
          "name": "approved",
          "type": "bool"
        }
      ],
      "name": "ApprovalForAll",
      "type": "event"
    },
    {
      "anonymous": false,
      "inputs": [
        {
          "indexed": false,
          "internalType": "uint256",
          "name": "id",
          "type": "uint256"
        },
        {
          "indexed": false,
          "internalType": "string",
          "name": "name",
          "type": "string"
        },
        {
          "indexed": false,
          "internalType": "uint256",
          "name": "price",
          "type": "uint256"
        },
        {
          "indexed": false,
          "internalType": "uint256",
          "name": "points",
          "type": "uint256"
        }
      ],
      "name": "ItemCreated",
      "type": "event"
    },
    {
      "anonymous": false,
      "inputs": [
        {
          "indexed": true,
          "internalType": "address",
          "name": "previousOwner",
          "type": "address"
        },
        {
          "indexed": true,
          "internalType": "address",
          "name": "newOwner",
          "type": "address"
        }
      ],
      "name": "OwnershipTransferred",
      "type": "event"
    },
    {
      "anonymous": false,
      "inputs": [
        {
          "indexed": false,
          "internalType": "address",
          "name": "account",
          "type": "address"
        }
      ],
      "name": "Paused",
      "type": "event"
    },
    {
      "anonymous": false,
      "inputs": [
        {
          "indexed": true,
          "internalType": "bytes32",
          "name": "role",
          "type": "bytes32"
        },
        {
          "indexed": true,
          "internalType": "bytes32",
          "name": "previousAdminRole",
          "type": "bytes32"
        },
        {
          "indexed": true,
          "internalType": "bytes32",
          "name": "newAdminRole",
          "type": "bytes32"
        }
      ],
      "name": "RoleAdminChanged",
      "type": "event"
    },
    {
      "anonymous": false,
      "inputs": [
        {
          "indexed": true,
          "internalType": "bytes32",
          "name": "role",
          "type": "bytes32"
        },
        {
          "indexed": true,
          "internalType": "address",
          "name": "account",
          "type": "address"
        },
        {
          "indexed": true,
          "internalType": "address",
          "name": "sender",
          "type": "address"
        }
      ],
      "name": "RoleGranted",
      "type": "event"
    },
    {
      "anonymous": false,
      "inputs": [
        {
          "indexed": true,
          "internalType": "bytes32",
          "name": "role",
          "type": "bytes32"
        },
        {
          "indexed": true,
          "internalType": "address",
          "name": "account",
          "type": "address"
        },
        {
          "indexed": true,
          "internalType": "address",
          "name": "sender",
          "type": "address"
        }
      ],
      "name": "RoleRevoked",
      "type": "event"
    },
    {
      "anonymous": false,
      "inputs": [
        {
          "indexed": true,
          "internalType": "address",
          "name": "from",
          "type": "address"
        },
        {
          "indexed": true,
          "internalType": "address",
          "name": "to",
          "type": "address"
        },
        {
          "indexed": true,
          "internalType": "uint256",
          "name": "tokenId",
          "type": "uint256"
        }
      ],
      "name": "Transfer",
      "type": "event"
    },
    {
      "anonymous": false,
      "inputs": [
        {
          "indexed": false,
          "internalType": "address",
          "name": "account",
          "type": "address"
        }
      ],
      "name": "Unpaused",
      "type": "event"
    },
    {
      "inputs": [],
      "name": "DEFAULT_ADMIN_ROLE",
      "outputs": [
        {
          "internalType": "bytes32",
          "name": "",
          "type": "bytes32"
        }
      ],
      "stateMutability": "view",
      "type": "function"
    },
    {
      "inputs": [],
      "name": "MINTER_ROLE",
      "outputs": [
        {
          "internalType": "bytes32",
          "name": "",
          "type": "bytes32"
        }
      ],
      "stateMutability": "view",
      "type": "function"
    },
    {
      "inputs": [],
      "name": "OPERATOR_ROLE",
      "outputs": [
        {
          "internalType": "bytes32",
          "name": "",
          "type": "bytes32"
        }
      ],
      "stateMutability": "view",
      "type": "function"
    },
    {
      "inputs": [],
      "name": "PAUSER_ROLE",
      "outputs": [
        {
          "internalType": "bytes32",
          "name": "",
          "type": "bytes32"
        }
      ],
      "stateMutability": "view",
      "type": "function"
    },
    {
      "inputs": [
        {
          "internalType": "uint256",
          "name": "",
          "type": "uint256"
        }
      ],
      "name": "alienDetails",
      "outputs": [
        {
          "internalType": "uint256",
          "name": "genes",
          "type": "uint256"
        },
        {
          "internalType": "uint32",
          "name": "mumId",
          "type": "uint32"
        },
        {
          "internalType": "uint32",
          "name": "dadId",
          "type": "uint32"
        },
        {
          "internalType": "uint16",
          "name": "generation",
          "type": "uint16"
        }
      ],
      "stateMutability": "view",
      "type": "function"
    },
    {
      "inputs": [],
      "name": "aln",
      "outputs": [
        {
          "internalType": "contract IAlienToken",
          "name": "",
          "type": "address"
        }
      ],
      "stateMutability": "view",
      "type": "function"
    },
    {
      "inputs": [
        {
          "internalType": "address",
          "name": "to",
          "type": "address"
        },
        {
          "internalType": "uint256",
          "name": "tokenId",
          "type": "uint256"
        }
      ],
      "name": "approve",
      "outputs": [],
      "stateMutability": "nonpayable",
      "type": "function"
    },
    {
      "inputs": [
        {
          "internalType": "address",
          "name": "owner",
          "type": "address"
        }
      ],
      "name": "balanceOf",
      "outputs": [
        {
          "internalType": "uint256",
          "name": "",
          "type": "uint256"
        }
      ],
      "stateMutability": "view",
      "type": "function"
    },
    {
      "inputs": [],
      "name": "baseURI",
      "outputs": [
        {
          "internalType": "string",
          "name": "",
          "type": "string"
        }
      ],
      "stateMutability": "view",
      "type": "function"
    },
    {
      "inputs": [
        {
          "internalType": "uint256",
          "name": "tokenId",
          "type": "uint256"
        }
      ],
      "name": "burn",
      "outputs": [],
      "stateMutability": "nonpayable",
      "type": "function"
    },
    {
      "inputs": [],
      "name": "gameStopped",
      "outputs": [
        {
          "internalType": "bool",
          "name": "",
          "type": "bool"
        }
      ],
      "stateMutability": "view",
      "type": "function"
    },
    {
      "inputs": [
        {
          "internalType": "uint256",
          "name": "tokenId",
          "type": "uint256"
        }
      ],
      "name": "getApproved",
      "outputs": [
        {
          "internalType": "address",
          "name": "",
          "type": "address"
        }
      ],
      "stateMutability": "view",
      "type": "function"
    },
    {
      "inputs": [
        {
          "internalType": "bytes32",
          "name": "role",
          "type": "bytes32"
        }
      ],
      "name": "getRoleAdmin",
      "outputs": [
        {
          "internalType": "bytes32",
          "name": "",
          "type": "bytes32"
        }
      ],
      "stateMutability": "view",
      "type": "function"
    },
    {
      "inputs": [
        {
          "internalType": "bytes32",
          "name": "role",
          "type": "bytes32"
        },
        {
          "internalType": "uint256",
          "name": "index",
          "type": "uint256"
        }
      ],
      "name": "getRoleMember",
      "outputs": [
        {
          "internalType": "address",
          "name": "",
          "type": "address"
        }
      ],
      "stateMutability": "view",
      "type": "function"
    },
    {
      "inputs": [
        {
          "internalType": "bytes32",
          "name": "role",
          "type": "bytes32"
        }
      ],
      "name": "getRoleMemberCount",
      "outputs": [
        {
          "internalType": "uint256",
          "name": "",
          "type": "uint256"
        }
      ],
      "stateMutability": "view",
      "type": "function"
    },
    {
      "inputs": [
        {
          "internalType": "bytes32",
          "name": "role",
          "type": "bytes32"
        },
        {
          "internalType": "address",
          "name": "account",
          "type": "address"
        }
      ],
      "name": "grantRole",
      "outputs": [],
      "stateMutability": "nonpayable",
      "type": "function"
    },
    {
      "inputs": [
        {
          "internalType": "bytes32",
          "name": "role",
          "type": "bytes32"
        },
        {
          "internalType": "address",
          "name": "account",
          "type": "address"
        }
      ],
      "name": "hasRole",
      "outputs": [
        {
          "internalType": "bool",
          "name": "",
          "type": "bool"
        }
      ],
      "stateMutability": "view",
      "type": "function"
    },
    {
      "inputs": [
        {
          "internalType": "address",
          "name": "owner",
          "type": "address"
        },
        {
          "internalType": "address",
          "name": "operator",
          "type": "address"
        }
      ],
      "name": "isApprovedForAll",
      "outputs": [
        {
          "internalType": "bool",
          "name": "",
          "type": "bool"
        }
      ],
      "stateMutability": "view",
      "type": "function"
    },
    {
      "inputs": [
        {
          "internalType": "uint256",
          "name": "",
          "type": "uint256"
        }
      ],
      "name": "itemName",
      "outputs": [
        {
          "internalType": "string",
          "name": "",
          "type": "string"
        }
      ],
      "stateMutability": "view",
      "type": "function"
    },
    {
      "inputs": [
        {
          "internalType": "uint256",
          "name": "",
          "type": "uint256"
        }
      ],
      "name": "itemPoints",
      "outputs": [
        {
          "internalType": "uint256",
          "name": "",
          "type": "uint256"
        }
      ],
      "stateMutability": "view",
      "type": "function"
    },
    {
      "inputs": [
        {
          "internalType": "uint256",
          "name": "",
          "type": "uint256"
        }
      ],
      "name": "itemPrice",
      "outputs": [
        {
          "internalType": "uint256",
          "name": "",
          "type": "uint256"
        }
      ],
      "stateMutability": "view",
      "type": "function"
    },
    {
      "inputs": [
        {
          "internalType": "uint256",
          "name": "",
          "type": "uint256"
        }
      ],
      "name": "itemTimeExtension",
      "outputs": [
        {
          "internalType": "uint256",
          "name": "",
          "type": "uint256"
        }
      ],
      "stateMutability": "view",
      "type": "function"
    },
    {
      "inputs": [],
      "name": "name",
      "outputs": [
        {
          "internalType": "string",
          "name": "",
          "type": "string"
        }
      ],
      "stateMutability": "view",
      "type": "function"
    },
    {
      "inputs": [
        {
          "internalType": "address",
          "name": "",
          "type": "address"
        },
        {
          "internalType": "address",
          "name": "",
          "type": "address"
        },
        {
          "internalType": "uint256[]",
          "name": "",
          "type": "uint256[]"
        },
        {
          "internalType": "uint256[]",
          "name": "",
          "type": "uint256[]"
        },
        {
          "internalType": "bytes",
          "name": "",
          "type": "bytes"
        }
      ],
      "name": "onERC1155BatchReceived",
      "outputs": [
        {
          "internalType": "bytes4",
          "name": "",
          "type": "bytes4"
        }
      ],
      "stateMutability": "nonpayable",
      "type": "function"
    },
    {
      "inputs": [
        {
          "internalType": "address",
          "name": "",
          "type": "address"
        },
        {
          "internalType": "address",
          "name": "",
          "type": "address"
        },
        {
          "internalType": "uint256",
          "name": "",
          "type": "uint256"
        },
        {
          "internalType": "uint256",
          "name": "",
          "type": "uint256"
        },
        {
          "internalType": "bytes",
          "name": "",
          "type": "bytes"
        }
      ],
      "name": "onERC1155Received",
      "outputs": [
        {
          "internalType": "bytes4",
          "name": "",
          "type": "bytes4"
        }
      ],
      "stateMutability": "nonpayable",
      "type": "function"
    },
    {
      "inputs": [],
      "name": "owner",
      "outputs": [
        {
          "internalType": "address",
          "name": "",
          "type": "address"
        }
      ],
      "stateMutability": "view",
      "type": "function"
    },
    {
      "inputs": [
        {
          "internalType": "uint256",
          "name": "tokenId",
          "type": "uint256"
        }
      ],
      "name": "ownerOf",
      "outputs": [
        {
          "internalType": "address",
          "name": "",
          "type": "address"
        }
      ],
      "stateMutability": "view",
      "type": "function"
    },
    {
      "inputs": [],
      "name": "pause",
      "outputs": [],
      "stateMutability": "nonpayable",
      "type": "function"
    },
    {
      "inputs": [],
      "name": "paused",
      "outputs": [
        {
          "internalType": "bool",
          "name": "",
          "type": "bool"
        }
      ],
      "stateMutability": "view",
      "type": "function"
    },
    {
      "inputs": [
        {
          "internalType": "address",
          "name": "tokenAddress",
          "type": "address"
        },
        {
          "internalType": "uint256",
          "name": "tokenAmount",
          "type": "uint256"
        }
      ],
      "name": "recoverERC20",
      "outputs": [],
      "stateMutability": "nonpayable",
      "type": "function"
    },
    {
      "inputs": [],
      "name": "renounceOwnership",
      "outputs": [],
      "stateMutability": "nonpayable",
      "type": "function"
    },
    {
      "inputs": [
        {
          "internalType": "bytes32",
          "name": "role",
          "type": "bytes32"
        },
        {
          "internalType": "address",
          "name": "account",
          "type": "address"
        }
      ],
      "name": "renounceRole",
      "outputs": [],
      "stateMutability": "nonpayable",
      "type": "function"
    },
    {
      "inputs": [
        {
          "internalType": "bytes32",
          "name": "role",
          "type": "bytes32"
        },
        {
          "internalType": "address",
          "name": "account",
          "type": "address"
        }
      ],
      "name": "revokeRole",
      "outputs": [],
      "stateMutability": "nonpayable",
      "type": "function"
    },
    {
      "inputs": [
        {
          "internalType": "address",
          "name": "from",
          "type": "address"
        },
        {
          "internalType": "address",
          "name": "to",
          "type": "address"
        },
        {
          "internalType": "uint256",
          "name": "tokenId",
          "type": "uint256"
        }
      ],
      "name": "safeTransferFrom",
      "outputs": [],
      "stateMutability": "nonpayable",
      "type": "function"
    },
    {
      "inputs": [
        {
          "internalType": "address",
          "name": "from",
          "type": "address"
        },
        {
          "internalType": "address",
          "name": "to",
          "type": "address"
        },
        {
          "internalType": "uint256",
          "name": "tokenId",
          "type": "uint256"
        },
        {
          "internalType": "bytes",
          "name": "_data",
          "type": "bytes"
        }
      ],
      "name": "safeTransferFrom",
      "outputs": [],
      "stateMutability": "nonpayable",
      "type": "function"
    },
    {
      "inputs": [
        {
          "internalType": "address",
          "name": "operator",
          "type": "address"
        },
        {
          "internalType": "bool",
          "name": "approved",
          "type": "bool"
        }
      ],
      "name": "setApprovalForAll",
      "outputs": [],
      "stateMutability": "nonpayable",
      "type": "function"
    },
    {
      "inputs": [
        {
          "internalType": "bytes4",
          "name": "interfaceId",
          "type": "bytes4"
        }
      ],
      "name": "supportsInterface",
      "outputs": [
        {
          "internalType": "bool",
          "name": "",
          "type": "bool"
        }
      ],
      "stateMutability": "view",
      "type": "function"
    },
    {
      "inputs": [],
      "name": "symbol",
      "outputs": [
        {
          "internalType": "string",
          "name": "",
          "type": "string"
        }
      ],
      "stateMutability": "view",
      "type": "function"
    },
    {
      "inputs": [
        {
          "internalType": "uint256",
          "name": "",
          "type": "uint256"
        }
      ],
      "name": "timeAlienBorn",
      "outputs": [
        {
          "internalType": "uint256",
          "name": "",
          "type": "uint256"
        }
      ],
      "stateMutability": "view",
      "type": "function"
    },
    {
      "inputs": [
        {
          "internalType": "uint256",
          "name": "",
          "type": "uint256"
        }
      ],
      "name": "timeUntilStarving",
      "outputs": [
        {
          "internalType": "uint256",
          "name": "",
          "type": "uint256"
        }
      ],
      "stateMutability": "view",
      "type": "function"
    },
    {
      "inputs": [
        {
          "internalType": "uint256",
          "name": "index",
          "type": "uint256"
        }
      ],
      "name": "tokenByIndex",
      "outputs": [
        {
          "internalType": "uint256",
          "name": "",
          "type": "uint256"
        }
      ],
      "stateMutability": "view",
      "type": "function"
    },
    {
      "inputs": [
        {
          "internalType": "address",
          "name": "owner",
          "type": "address"
        },
        {
          "internalType": "uint256",
          "name": "index",
          "type": "uint256"
        }
      ],
      "name": "tokenOfOwnerByIndex",
      "outputs": [
        {
          "internalType": "uint256",
          "name": "",
          "type": "uint256"
        }
      ],
      "stateMutability": "view",
      "type": "function"
    },
    {
      "inputs": [
        {
          "internalType": "uint256",
          "name": "tokenId",
          "type": "uint256"
        }
      ],
      "name": "tokenURI",
      "outputs": [
        {
          "internalType": "string",
          "name": "",
          "type": "string"
        }
      ],
      "stateMutability": "view",
      "type": "function"
    },
    {
      "inputs": [],
      "name": "totalSupply",
      "outputs": [
        {
          "internalType": "uint256",
          "name": "",
          "type": "uint256"
        }
      ],
      "stateMutability": "view",
      "type": "function"
    },
    {
      "inputs": [
        {
          "internalType": "address",
          "name": "from",
          "type": "address"
        },
        {
          "internalType": "address",
          "name": "to",
          "type": "address"
        },
        {
          "internalType": "uint256",
          "name": "tokenId",
          "type": "uint256"
        }
      ],
      "name": "transferFrom",
      "outputs": [],
      "stateMutability": "nonpayable",
      "type": "function"
    },
    {
      "inputs": [
        {
          "internalType": "address",
          "name": "newOwner",
          "type": "address"
        }
      ],
      "name": "transferOwnership",
      "outputs": [],
      "stateMutability": "nonpayable",
      "type": "function"
    },
    {
      "inputs": [],
      "name": "unpause",
      "outputs": [],
      "stateMutability": "nonpayable",
      "type": "function"
    },
    {
      "inputs": [
        {
          "internalType": "address",
          "name": "player",
          "type": "address"
        }
      ],
      "name": "mint",
      "outputs": [],
      "stateMutability": "nonpayable",
      "type": "function"
    },
    {
      "inputs": [
        {
          "internalType": "bool",
          "name": "_pause",
          "type": "bool"
        }
      ],
      "name": "pauseGame",
      "outputs": [],
      "stateMutability": "nonpayable",
      "type": "function"
    },
    {
      "inputs": [
        {
          "internalType": "uint256",
          "name": "itemId",
          "type": "uint256"
        }
      ],
      "name": "itemExists",
      "outputs": [
        {
          "internalType": "bool",
          "name": "",
          "type": "bool"
        }
      ],
      "stateMutability": "view",
      "type": "function"
    },
    {
      "inputs": [
        {
          "internalType": "uint256",
          "name": "_nftId",
          "type": "uint256"
        }
      ],
      "name": "isAlienAlive",
      "outputs": [
        {
          "internalType": "bool",
          "name": "",
          "type": "bool"
        }
      ],
      "stateMutability": "view",
      "type": "function"
    },
    {
      "inputs": [
        {
          "internalType": "uint256",
          "name": "_itemId",
          "type": "uint256"
        }
      ],
      "name": "getItemInfo",
      "outputs": [
        {
          "internalType": "string",
          "name": "_name",
          "type": "string"
        },
        {
          "internalType": "uint256",
          "name": "_price",
          "type": "uint256"
        },
        {
          "internalType": "uint256",
          "name": "_points",
          "type": "uint256"
        },
        {
          "internalType": "uint256",
          "name": "_timeExtension",
          "type": "uint256"
        }
      ],
      "stateMutability": "view",
      "type": "function"
    },
    {
      "inputs": [
        {
          "internalType": "uint256",
          "name": "_id",
          "type": "uint256"
        },
        {
          "internalType": "uint256",
          "name": "_price",
          "type": "uint256"
        },
        {
          "internalType": "uint256",
          "name": "_points",
          "type": "uint256"
        },
        {
          "internalType": "string",
          "name": "_name",
          "type": "string"
        },
        {
          "internalType": "uint256",
          "name": "_timeExtension",
          "type": "uint256"
        }
      ],
      "name": "editItem",
      "outputs": [],
      "stateMutability": "nonpayable",
      "type": "function"
    },
    {
      "inputs": [
        {
          "internalType": "uint256",
          "name": "_nftId",
          "type": "uint256"
        }
      ],
      "name": "getAlien",
      "outputs": [
        {
          "internalType": "uint256",
          "name": "_genes",
          "type": "uint256"
        },
        {
          "internalType": "uint256",
          "name": "_timeAlienBorn",
          "type": "uint256"
        },
        {
          "internalType": "uint256",
          "name": "_mumId",
          "type": "uint256"
        },
        {
          "internalType": "uint256",
          "name": "_dadId",
          "type": "uint256"
        },
        {
          "internalType": "uint256",
          "name": "_generation",
          "type": "uint256"
        }
      ],
      "stateMutability": "view",
      "type": "function"
    },
    {
      "inputs": [
        {
          "internalType": "uint256",
          "name": "_genes",
          "type": "uint256"
        },
        {
          "internalType": "uint32",
          "name": "_mumId",
          "type": "uint32"
        },
        {
          "internalType": "uint32",
          "name": "_dadId",
          "type": "uint32"
        },
        {
          "internalType": "uint16",
          "name": "_generation",
          "type": "uint16"
        },
        {
          "internalType": "address",
          "name": "_owner",
          "type": "address"
        }
      ],
      "name": "createtAlien",
      "outputs": [],
      "stateMutability": "nonpayable",
      "type": "function"
    },
    {
      "inputs": [
        {
          "internalType": "address",
          "name": "_owner",
          "type": "address"
        },
        {
          "internalType": "uint256",
          "name": "_nftId",
          "type": "uint256"
        }
      ],
      "name": "isApprovedOwner",
      "outputs": [
        {
          "internalType": "bool",
          "name": "",
          "type": "bool"
        }
      ],
      "stateMutability": "view",
      "type": "function"
    },
    {
      "inputs": [
        {
          "internalType": "uint256",
          "name": "_la",
          "type": "uint256"
        },
        {
          "internalType": "uint256",
          "name": "_lb",
          "type": "uint256"
        },
        {
          "internalType": "uint256",
          "name": "_ra",
          "type": "uint256"
        },
        {
          "internalType": "uint256",
          "name": "_rb",
          "type": "uint256"
        }
      ],
      "name": "editCurves",
      "outputs": [],
      "stateMutability": "nonpayable",
      "type": "function"
    }
  ],
  "bytecode": "0x60806040526000601060006101000a81548160ff021916908315150217905550600260185560026019556006601a556007601b553480156200004057600080fd5b506040516200743338038062007433833981810160405260208110156200006657600080fd5b81019080805190602001909291905050506040518060400160405280600881526020017f416c69656e4e46540000000000000000000000000000000000000000000000008152506040518060400160405280600581526020017f414c4e46540000000000000000000000000000000000000000000000000000008152506040518060400160405280600f81526020017f687474703a6c6f63616c686f73742f00000000000000000000000000000000008152508282620001336301ffc9a760e01b6200045760201b60201c565b81600790805190602001906200014b9291906200192f565b508060089080519060200190620001649291906200192f565b506200017d6380ac58cd60e01b6200045760201b60201c565b62000195635b5e139f60e01b6200045760201b60201c565b620001ad63780e9d6360e01b6200045760201b60201c565b50506000600b60006101000a81548160ff0219169083151502179055506000620001dc6200056060201b60201c565b905080600b60016101000a81548173ffffffffffffffffffffffffffffffffffffffff021916908373ffffffffffffffffffffffffffffffffffffffff1602179055508073ffffffffffffffffffffffffffffffffffffffff16600073ffffffffffffffffffffffffffffffffffffffff167f8be0079c531659141344cd1fd0a4f28419497f9722a3daafe3b4186f6b6457e060405160405180910390a3506200029f6000801b620002936200056060201b60201c565b6200056860201b60201c565b620002f560405180807f4d494e5445525f524f4c45000000000000000000000000000000000000000000815250600b0190506040518091039020620002e96200056060201b60201c565b6200056860201b60201c565b6200034b60405180807f5041555345525f524f4c45000000000000000000000000000000000000000000815250600b01905060405180910390206200033f6200056060201b60201c565b6200056860201b60201c565b6200035c816200057e60201b60201c565b5050506200038063bc197c8160e01b63f23a6e6160e01b186200045760201b60201c565b620003d660405180807f4f50455241544f525f524f4c4500000000000000000000000000000000000000815250600d0190506040518091039020620003ca6200056060201b60201c565b6200056860201b60201c565b80600d60006101000a81548173ffffffffffffffffffffffffffffffffffffffff021916908373ffffffffffffffffffffffffffffffffffffffff1602179055506200044f60008060007fffffffffffffffffffffffffffffffffffffffffffffffffffffffffffffffff60006200059a60201b60201c565b5050620019de565b63ffffffff60e01b817bffffffffffffffffffffffffffffffffffffffffffffffffffffffff19161415620004f4576040517f08c379a000000000000000000000000000000000000000000000000000000000815260040180806020018281038252601c8152602001807f4552433136353a20696e76616c696420696e746572666163652069640000000081525060200191505060405180910390fd5b6001806000837bffffffffffffffffffffffffffffffffffffffffffffffffffffffff19167bffffffffffffffffffffffffffffffffffffffffffffffffffffffff1916815260200190815260200160002060006101000a81548160ff02191690831515021790555050565b600033905090565b6200057a82826200080560201b60201c565b5050565b80600a9080519060200190620005969291906200192f565b5050565b600060405180608001604052808781526020018663ffffffff1681526020018563ffffffff1681526020018461ffff1681525060116000620005e8600e620008a860201b620042cc1760201c565b81526020019081526020016000206000820151816000015560208201518160010160006101000a81548163ffffffff021916908363ffffffff16021790555060408201518160010160046101000a81548163ffffffff021916908363ffffffff16021790555060608201518160010160086101000a81548161ffff021916908361ffff1602179055509050506200068582620008b660201b60201c565b6200069c600e620008a860201b620042cc1760201c565b63ffffffff16620006b9600e620008a860201b620042cc1760201c565b14620006c457600080fd5b620006d462000a2260201b60201c565b73ffffffffffffffffffffffffffffffffffffffff168273ffffffffffffffffffffffffffffffffffffffff161462000732576200073160008362000725600e620008a860201b620042cc1760201c565b62000a4c60201b60201c565b5b7f190e965faf32f04a0bd16c35d90db68cfd344a647df4508f4a9a967b9dac0894826200076b600e620008a860201b620042cc1760201c565b87878a604051808673ffffffffffffffffffffffffffffffffffffffff1673ffffffffffffffffffffffffffffffffffffffff1681526020018581526020018463ffffffff1663ffffffff1681526020018363ffffffff1663ffffffff1681526020018281526020019550505050505060405180910390a1620007fa600e620008a860201b620042cc1760201c565b905095945050505050565b620008338160008085815260200190815260200160002060000162000adc60201b620048a81790919060201c565b15620008a457620008496200056060201b60201c565b73ffffffffffffffffffffffffffffffffffffffff168173ffffffffffffffffffffffffffffffffffffffff16837f2f8788117e7eff1d82e926ec794901d17c78024a50270940304540a733656f0d60405160405180910390a45b5050565b600081600001549050919050565b6200090c60405180807f4d494e5445525f524f4c45000000000000000000000000000000000000000000815250600b0190506040518091039020620009006200056060201b60201c565b62000b1460201b60201c565b62000963576040517f08c379a000000000000000000000000000000000000000000000000000000000815260040180806020018281038252602b81526020018062007359602b913960400191505060405180910390fd5b6200098062093a804262000b4c60201b620042441790919060201c565b601260006200099b600e620008a860201b620042cc1760201c565b8152602001908152602001600020819055504260136000620009c9600e620008a860201b620042cc1760201c565b81526020019081526020016000208190555062000a0881620009f7600e620008a860201b620042cc1760201c565b62000bd560201b620042da1760201c565b62000a1f600e62000de960201b620044ce1760201c565b50565b6000600b60019054906101000a900473ffffffffffffffffffffffffffffffffffffffff16905090565b62000a6d62000a606200056060201b60201c565b8262000dff60201b60201c565b62000ac4576040517f08c379a0000000000000000000000000000000000000000000000000000000008152600401808060200182810382526031815260200180620074026031913960400191505060405180910390fd5b62000ad783838362000f1760201b60201c565b505050565b600062000b0c836000018373ffffffffffffffffffffffffffffffffffffffff1660001b6200118b60201b60201c565b905092915050565b600062000b44826000808681526020019081526020016000206000016200120560201b6200461d1790919060201c565b905092915050565b60008082840190508381101562000bcb576040517f08c379a000000000000000000000000000000000000000000000000000000000815260040180806020018281038252601b8152602001807f536166654d6174683a206164646974696f6e206f766572666c6f77000000000081525060200191505060405180910390fd5b8091505092915050565b600073ffffffffffffffffffffffffffffffffffffffff168273ffffffffffffffffffffffffffffffffffffffff16141562000c79576040517f08c379a00000000000000000000000000000000000000000000000000000000081526004018080602001828103825260208152602001807f4552433732313a206d696e7420746f20746865207a65726f206164647265737381525060200191505060405180910390fd5b62000c8a816200123d60201b60201c565b1562000cfe576040517f08c379a000000000000000000000000000000000000000000000000000000000815260040180806020018281038252601c8152602001807f4552433732313a20746f6b656e20616c7265616479206d696e7465640000000081525060200191505060405180910390fd5b62000d12600083836200126160201b60201c565b62000d6a81600260008573ffffffffffffffffffffffffffffffffffffffff1673ffffffffffffffffffffffffffffffffffffffff1681526020019081526020016000206200127e60201b620048591790919060201c565b5062000d8881836003620012a060201b62004873179092919060201c565b50808273ffffffffffffffffffffffffffffffffffffffff16600073ffffffffffffffffffffffffffffffffffffffff167fddf252ad1be2c89b69c2b068fc378daa952ba7f163c4a11628f55a4df523b3ef60405160405180910390a45050565b6001816000016000828254019250508190555050565b600062000e12826200123d60201b60201c565b62000e69576040517f08c379a000000000000000000000000000000000000000000000000000000000815260040180806020018281038252602c8152602001806200732d602c913960400191505060405180910390fd5b600062000e7c83620012dd60201b60201c565b90508073ffffffffffffffffffffffffffffffffffffffff168473ffffffffffffffffffffffffffffffffffffffff16148062000ef457508373ffffffffffffffffffffffffffffffffffffffff1662000edc846200131c60201b60201c565b73ffffffffffffffffffffffffffffffffffffffff16145b8062000f0e575062000f0d8185620013c160201b60201c565b5b91505092915050565b8273ffffffffffffffffffffffffffffffffffffffff1662000f3f82620012dd60201b60201c565b73ffffffffffffffffffffffffffffffffffffffff161462000fad576040517f08c379a0000000000000000000000000000000000000000000000000000000008152600401808060200182810382526029815260200180620073d96029913960400191505060405180910390fd5b600073ffffffffffffffffffffffffffffffffffffffff168273ffffffffffffffffffffffffffffffffffffffff16141562001035576040517f08c379a0000000000000000000000000000000000000000000000000000000008152600401808060200182810382526024815260200180620073096024913960400191505060405180910390fd5b620010488383836200126160201b60201c565b6200105b6000826200145560201b60201c565b620010b381600260008673ffffffffffffffffffffffffffffffffffffffff1673ffffffffffffffffffffffffffffffffffffffff1681526020019081526020016000206200151660201b6200483f1790919060201c565b506200110c81600260008573ffffffffffffffffffffffffffffffffffffffff1673ffffffffffffffffffffffffffffffffffffffff1681526020019081526020016000206200127e60201b620048591790919060201c565b506200112a81836003620012a060201b62004873179092919060201c565b50808273ffffffffffffffffffffffffffffffffffffffff168473ffffffffffffffffffffffffffffffffffffffff167fddf252ad1be2c89b69c2b068fc378daa952ba7f163c4a11628f55a4df523b3ef60405160405180910390a4505050565b60006200119f83836200153860201b60201c565b620011fa578260000182908060018154018082558091505060019003906000526020600020016000909190919091505582600001805490508360010160008481526020019081526020016000208190555060019050620011ff565b600090505b92915050565b600062001235836000018373ffffffffffffffffffffffffffffffffffffffff1660001b6200153860201b60201c565b905092915050565b60006200125a8260036200155b60201b620048041790919060201c565b9050919050565b620012798383836200157d60201b62004dd01760201c565b505050565b600062001298836000018360001b6200118b60201b60201c565b905092915050565b6000620012d4846000018460001b8473ffffffffffffffffffffffffffffffffffffffff1660001b6200160260201b60201c565b90509392505050565b6000620013158260405180606001604052806029815260200162007384602991396003620016e160201b62004225179092919060201c565b9050919050565b60006200132f826200123d60201b60201c565b62001386576040517f08c379a000000000000000000000000000000000000000000000000000000000815260040180806020018281038252602c815260200180620073ad602c913960400191505060405180910390fd5b6005600083815260200190815260200160002060009054906101000a900473ffffffffffffffffffffffffffffffffffffffff169050919050565b6000600660008473ffffffffffffffffffffffffffffffffffffffff1673ffffffffffffffffffffffffffffffffffffffff16815260200190815260200160002060008373ffffffffffffffffffffffffffffffffffffffff1673ffffffffffffffffffffffffffffffffffffffff16815260200190815260200160002060009054906101000a900460ff16905092915050565b816005600083815260200190815260200160002060006101000a81548173ffffffffffffffffffffffffffffffffffffffff021916908373ffffffffffffffffffffffffffffffffffffffff160217905550808273ffffffffffffffffffffffffffffffffffffffff16620014d083620012dd60201b60201c565b73ffffffffffffffffffffffffffffffffffffffff167f8c5be1e5ebec7d5bd14f71427d1e84f3dd0314c0f7b2291e5b200ac8c7c3b92560405160405180910390a45050565b600062001530836000018360001b6200170860201b60201c565b905092915050565b600080836001016000848152602001908152602001600020541415905092915050565b600062001575836000018360001b620017f560201b60201c565b905092915050565b620015958383836200181860201b620051b61760201c565b620015a56200181d60201b60201c565b15620015fd576040517f08c379a000000000000000000000000000000000000000000000000000000000815260040180806020018281038252602b815260200180620072de602b913960400191505060405180910390fd5b505050565b6000808460010160008581526020019081526020016000205490506000811415620016ab57846000016040518060400160405280868152602001858152509080600181540180825580915050600190039060005260206000209060020201600090919091909150600082015181600001556020820151816001015550508460000180549050856001016000868152602001908152602001600020819055506001915050620016da565b82856000016001830381548110620016bf57fe5b90600052602060002090600202016001018190555060009150505b9392505050565b6000620016fc846000018460001b846200183460201b60201c565b60001c90509392505050565b60008083600101600084815260200190815260200160002054905060008114620017e957600060018203905060006001866000018054905003905060008660000182815481106200175557fe5b90600052602060002001549050808760000184815481106200177357fe5b9060005260206000200181905550600183018760010160008381526020019081526020016000208190555086600001805480620017ac57fe5b60019003818190600052602060002001600090559055866001016000878152602001908152602001600020600090556001945050505050620017ef565b60009150505b92915050565b600080836001016000848152602001908152602001600020541415905092915050565b505050565b6000600b60009054906101000a900460ff16905090565b60008084600101600085815260200190815260200160002054905060008114158390620018ff576040517f08c379a00000000000000000000000000000000000000000000000000000000081526004018080602001828103825283818151815260200191508051906020019080838360005b83811015620018c3578082015181840152602081019050620018a6565b50505050905090810190601f168015620018f15780820380516001836020036101000a031916815260200191505b509250505060405180910390fd5b508460000160018203815481106200191357fe5b9060005260206000209060020201600101549150509392505050565b828054600181600116156101000203166002900490600052602060002090601f016020900481019282601f106200197257805160ff1916838001178555620019a3565b82800160010185558215620019a3579182015b82811115620019a257825182559160200191906001019062001985565b5b509050620019b29190620019b6565b5090565b620019db91905b80821115620019d7576000816000905550600101620019bd565b5090565b90565b6158f080620019ee6000396000f3fe608060405234801561001057600080fd5b50600436106103835760003560e01c806377fe73e3116101de578063adcb005c1161010f578063d547741f116100ad578063f23a6e611161007c578063f23a6e6114611786578063f2fde38b146118e7578063f5b541a61461192b578063f8ef871c1461194957610383565b8063d547741f146115e2578063de7fe3e714611630578063e63ab1e9146116ec578063e985e9c51461170a57610383565b8063bc197c81116100e9578063bc197c8114611266578063c87b56dd146114db578063ca15c87314611582578063d5391393146115c457610383565b8063adcb005c146110c1578063b88d4fde14611103578063ba2692711461120857610383565b80639010d07c1161017c57806395d89b411161015657806395d89b4114610f2f57806399cc726d14610fb2578063a217fddf14611053578063a22cb4651461107157610383565b80639010d07c14610e0b578063902838d214610e8357806391d1485414610ec957610383565b80638652e49c116101b85780638652e49c14610ce75780638980f11f14610d295780638c07f75114610d775780638da5cb5b14610dc157610383565b806377fe73e314610c4b578063843bd64114610c975780638456cb5914610cdd57610383565b80633f4ba83a116102b85780636352211e1161025657806370a082311161023057806370a0823114610acb578063715018a614610b2357806371b3ea9714610b2d5780637310dc8a14610ba457610383565b80636352211e146109965780636a62784214610a045780636c0360eb14610a4857610383565b80634f53126a116102925780634f53126a146108865780634f6ccce7146108b65780635c975abb146108f85780635fb490e71461091a57610383565b80633f4ba83a146107e057806342842e0e146107ea57806342966c681461085857610383565b806319660d2111610325578063248a9ca3116102ff578063248a9ca3146106a05780632f2ff15d146106e25780632f745c591461073057806336568abe1461079257610383565b806319660d21146105ae5780632030c4b0146105f057806323b872dd1461063257610383565b8063081812fc11610361578063081812fc14610492578063095ea7b3146105005780630fd65feb1461054e57806318160ddd1461059057610383565b806301ffc9a7146103885780630430e405146103ed57806306fdde031461040f575b600080fd5b6103d36004803603602081101561039e57600080fd5b8101908080357bffffffffffffffffffffffffffffffffffffffffffffffffffffffff191690602001909291905050506119af565b604051808215151515815260200191505060405180910390f35b6103f5611a17565b604051808215151515815260200191505060405180910390f35b610417611a2a565b6040518080602001828103825283818151815260200191508051906020019080838360005b8381101561045757808201518184015260208101905061043c565b50505050905090810190601f1680156104845780820380516001836020036101000a031916815260200191505b509250505060405180910390f35b6104be600480360360208110156104a857600080fd5b8101908080359060200190929190505050611acc565b604051808273ffffffffffffffffffffffffffffffffffffffff1673ffffffffffffffffffffffffffffffffffffffff16815260200191505060405180910390f35b61054c6004803603604081101561051657600080fd5b81019080803573ffffffffffffffffffffffffffffffffffffffff16906020019092919080359060200190929190505050611b67565b005b61057a6004803603602081101561056457600080fd5b8101908080359060200190929190505050611cab565b6040518082815260200191505060405180910390f35b610598611cc3565b6040518082815260200191505060405180910390f35b6105da600480360360208110156105c457600080fd5b8101908080359060200190929190505050611cd4565b6040518082815260200191505060405180910390f35b61061c6004803603602081101561060657600080fd5b8101908080359060200190929190505050611cec565b6040518082815260200191505060405180910390f35b61069e6004803603606081101561064857600080fd5b81019080803573ffffffffffffffffffffffffffffffffffffffff169060200190929190803573ffffffffffffffffffffffffffffffffffffffff16906020019092919080359060200190929190505050611d04565b005b6106cc600480360360208110156106b657600080fd5b8101908080359060200190929190505050611d7a565b6040518082815260200191505060405180910390f35b61072e600480360360408110156106f857600080fd5b8101908080359060200190929190803573ffffffffffffffffffffffffffffffffffffffff169060200190929190505050611d99565b005b61077c6004803603604081101561074657600080fd5b81019080803573ffffffffffffffffffffffffffffffffffffffff16906020019092919080359060200190929190505050611e22565b6040518082815260200191505060405180910390f35b6107de600480360360408110156107a857600080fd5b8101908080359060200190929190803573ffffffffffffffffffffffffffffffffffffffff169060200190929190505050611e7d565b005b6107e8611f16565b005b6108566004803603606081101561080057600080fd5b81019080803573ffffffffffffffffffffffffffffffffffffffff169060200190929190803573ffffffffffffffffffffffffffffffffffffffff16906020019092919080359060200190929190505050611fbb565b005b6108846004803603602081101561086e57600080fd5b8101908080359060200190929190505050611fdb565b005b6108b46004803603602081101561089c57600080fd5b8101908080351515906020019092919050505061204d565b005b6108e2600480360360208110156108cc57600080fd5b8101908080359060200190929190505050612105565b6040518082815260200191505060405180910390f35b610900612128565b604051808215151515815260200191505060405180910390f35b610994600480360360a081101561093057600080fd5b8101908080359060200190929190803563ffffffff169060200190929190803563ffffffff169060200190929190803561ffff169060200190929190803573ffffffffffffffffffffffffffffffffffffffff16906020019092919050505061213f565b005b6109c2600480360360208110156109ac57600080fd5b8101908080359060200190929190505050612154565b604051808273ffffffffffffffffffffffffffffffffffffffff1673ffffffffffffffffffffffffffffffffffffffff16815260200191505060405180910390f35b610a4660048036036020811015610a1a57600080fd5b81019080803573ffffffffffffffffffffffffffffffffffffffff16906020019092919050505061218b565b005b610a5061229d565b6040518080602001828103825283818151815260200191508051906020019080838360005b83811015610a90578082015181840152602081019050610a75565b50505050905090810190601f168015610abd5780820380516001836020036101000a031916815260200191505b509250505060405180910390f35b610b0d60048036036020811015610ae157600080fd5b81019080803573ffffffffffffffffffffffffffffffffffffffff16906020019092919050505061233f565b6040518082815260200191505060405180910390f35b610b2b612414565b005b610b5960048036036020811015610b4357600080fd5b810190808035906020019092919050505061259f565b604051808581526020018463ffffffff1663ffffffff1681526020018363ffffffff1663ffffffff1681526020018261ffff1661ffff16815260200194505050505060405180910390f35b610bd060048036036020811015610bba57600080fd5b81019080803590602001909291905050506125fd565b6040518080602001828103825283818151815260200191508051906020019080838360005b83811015610c10578082015181840152602081019050610bf5565b50505050905090810190601f168015610c3d5780820380516001836020036101000a031916815260200191505b509250505060405180910390f35b610c9560048036036080811015610c6157600080fd5b81019080803590602001909291908035906020019092919080359060200190929190803590602001909291905050506126ad565b005b610cc360048036036020811015610cad57600080fd5b810190808035906020019092919050505061276a565b604051808215151515815260200191505060405180910390f35b610ce56127aa565b005b610d1360048036036020811015610cfd57600080fd5b810190808035906020019092919050505061284f565b6040518082815260200191505060405180910390f35b610d7560048036036040811015610d3f57600080fd5b81019080803573ffffffffffffffffffffffffffffffffffffffff16906020019092919080359060200190929190505050612867565b005b610d7f6129ff565b604051808273ffffffffffffffffffffffffffffffffffffffff1673ffffffffffffffffffffffffffffffffffffffff16815260200191505060405180910390f35b610dc9612a25565b604051808273ffffffffffffffffffffffffffffffffffffffff1673ffffffffffffffffffffffffffffffffffffffff16815260200191505060405180910390f35b610e4160048036036040811015610e2157600080fd5b810190808035906020019092919080359060200190929190505050612a4f565b604051808273ffffffffffffffffffffffffffffffffffffffff1673ffffffffffffffffffffffffffffffffffffffff16815260200191505060405180910390f35b610eaf60048036036020811015610e9957600080fd5b8101908080359060200190929190505050612a80565b604051808215151515815260200191505060405180910390f35b610f1560048036036040811015610edf57600080fd5b8101908080359060200190929190803573ffffffffffffffffffffffffffffffffffffffff169060200190929190505050612ac0565b604051808215151515815260200191505060405180910390f35b610f37612af1565b6040518080602001828103825283818151815260200191508051906020019080838360005b83811015610f77578082015181840152602081019050610f5c565b50505050905090810190601f168015610fa45780820380516001836020036101000a031916815260200191505b509250505060405180910390f35b611051600480360360a0811015610fc857600080fd5b810190808035906020019092919080359060200190929190803590602001909291908035906020019064010000000081111561100357600080fd5b82018360208201111561101557600080fd5b8035906020019184600183028401116401000000008311171561103757600080fd5b909192939192939080359060200190929190505050612b93565b005b61105b612ca1565b6040518082815260200191505060405180910390f35b6110bf6004803603604081101561108757600080fd5b81019080803573ffffffffffffffffffffffffffffffffffffffff169060200190929190803515159060200190929190505050612ca8565b005b6110ed600480360360208110156110d757600080fd5b8101908080359060200190929190505050612e60565b6040518082815260200191505060405180910390f35b6112066004803603608081101561111957600080fd5b81019080803573ffffffffffffffffffffffffffffffffffffffff169060200190929190803573ffffffffffffffffffffffffffffffffffffffff169060200190929190803590602001909291908035906020019064010000000081111561118057600080fd5b82018360208201111561119257600080fd5b803590602001918460018302840111640100000000831117156111b457600080fd5b91908080601f016020809104026020016040519081016040528093929190818152602001838380828437600081840152601f19601f820116905080830192505050505050509192919290505050612e78565b005b6112346004803603602081101561121e57600080fd5b8101908080359060200190929190505050612ef0565b604051808681526020018581526020018481526020018381526020018281526020019550505050505060405180910390f35b611487600480360360a081101561127c57600080fd5b81019080803573ffffffffffffffffffffffffffffffffffffffff169060200190929190803573ffffffffffffffffffffffffffffffffffffffff169060200190929190803590602001906401000000008111156112d957600080fd5b8201836020820111156112eb57600080fd5b8035906020019184602083028401116401000000008311171561130d57600080fd5b919080806020026020016040519081016040528093929190818152602001838360200280828437600081840152601f19601f8201169050808301925050505050505091929192908035906020019064010000000081111561136d57600080fd5b82018360208201111561137f57600080fd5b803590602001918460208302840111640100000000831117156113a157600080fd5b919080806020026020016040519081016040528093929190818152602001838360200280828437600081840152601f19601f8201169050808301925050505050505091929192908035906020019064010000000081111561140157600080fd5b82018360208201111561141357600080fd5b8035906020019184600183028401116401000000008311171561143557600080fd5b91908080601f016020809104026020016040519081016040528093929190818152602001838380828437600081840152601f19601f820116905080830192505050505050509192919290505050613023565b60405180827bffffffffffffffffffffffffffffffffffffffffffffffffffffffff19167bffffffffffffffffffffffffffffffffffffffffffffffffffffffff1916815260200191505060405180910390f35b611507600480360360208110156114f157600080fd5b8101908080359060200190929190505050613038565b6040518080602001828103825283818151815260200191508051906020019080838360005b8381101561154757808201518184015260208101905061152c565b50505050905090810190601f1680156115745780820380516001836020036101000a031916815260200191505b509250505060405180910390f35b6115ae6004803603602081101561159857600080fd5b8101908080359060200190929190505050613321565b6040518082815260200191505060405180910390f35b6115cc613347565b6040518082815260200191505060405180910390f35b61162e600480360360408110156115f857600080fd5b8101908080359060200190929190803573ffffffffffffffffffffffffffffffffffffffff169060200190929190505050613380565b005b61165c6004803603602081101561164657600080fd5b8101908080359060200190929190505050613409565b6040518080602001858152602001848152602001838152602001828103825286818151815260200191508051906020019080838360005b838110156116ae578082015181840152602081019050611693565b50505050905090810190601f1680156116db5780820380516001836020036101000a031916815260200191505b509550505050505060405180910390f35b6116f4613507565b6040518082815260200191505060405180910390f35b61176c6004803603604081101561172057600080fd5b81019080803573ffffffffffffffffffffffffffffffffffffffff169060200190929190803573ffffffffffffffffffffffffffffffffffffffff169060200190929190505050613540565b604051808215151515815260200191505060405180910390f35b611893600480360360a081101561179c57600080fd5b81019080803573ffffffffffffffffffffffffffffffffffffffff169060200190929190803573ffffffffffffffffffffffffffffffffffffffff16906020019092919080359060200190929190803590602001909291908035906020019064010000000081111561180d57600080fd5b82018360208201111561181f57600080fd5b8035906020019184600183028401116401000000008311171561184157600080fd5b91908080601f016020809104026020016040519081016040528093929190818152602001838380828437600081840152601f19601f8201169050808301925050505050505091929192905050506135d4565b60405180827bffffffffffffffffffffffffffffffffffffffffffffffffffffffff19167bffffffffffffffffffffffffffffffffffffffffffffffffffffffff1916815260200191505060405180910390f35b611929600480360360208110156118fd57600080fd5b81019080803573ffffffffffffffffffffffffffffffffffffffff1690602001909291905050506135e9565b005b6119336137f9565b6040518082815260200191505060405180910390f35b6119956004803603604081101561195f57600080fd5b81019080803573ffffffffffffffffffffffffffffffffffffffff16906020019092919080359060200190929190505050613832565b604051808215151515815260200191505060405180910390f35b600060016000837bffffffffffffffffffffffffffffffffffffffffffffffffffffffff19167bffffffffffffffffffffffffffffffffffffffffffffffffffffffff1916815260200190815260200160002060009054906101000a900460ff169050919050565b601060009054906101000a900460ff1681565b606060078054600181600116156101000203166002900480601f016020809104026020016040519081016040528092919081815260200182805460018160011615610100020316600290048015611ac25780601f10611a9757610100808354040283529160200191611ac2565b820191906000526020600020905b815481529060010190602001808311611aa557829003601f168201915b5050505050905090565b6000611ad782613846565b611b2c576040517f08c379a000000000000000000000000000000000000000000000000000000000815260040180806020018281038252602c815260200180615746602c913960400191505060405180910390fd5b6005600083815260200190815260200160002060009054906101000a900473ffffffffffffffffffffffffffffffffffffffff169050919050565b6000611b7282612154565b90508073ffffffffffffffffffffffffffffffffffffffff168373ffffffffffffffffffffffffffffffffffffffff161415611bf9576040517f08c379a00000000000000000000000000000000000000000000000000000000081526004018080602001828103825260218152602001806157ca6021913960400191505060405180910390fd5b8073ffffffffffffffffffffffffffffffffffffffff16611c18613863565b73ffffffffffffffffffffffffffffffffffffffff161480611c475750611c4681611c41613863565b613540565b5b611c9c576040517f08c379a00000000000000000000000000000000000000000000000000000000081526004018080602001828103825260388152602001806156996038913960400191505060405180910390fd5b611ca6838361386b565b505050565b60136020528060005260406000206000915090505481565b6000611ccf6003613924565b905090565b60176020528060005260406000206000915090505481565b60156020528060005260406000206000915090505481565b611d15611d0f613863565b82613939565b611d6a576040517f08c379a00000000000000000000000000000000000000000000000000000000081526004018080602001828103825260318152602001806157eb6031913960400191505060405180910390fd5b611d75838383613a2d565b505050565b6000806000838152602001908152602001600020600201549050919050565b611dbf60008084815260200190815260200160002060020154611dba613863565b612ac0565b611e14576040517f08c379a000000000000000000000000000000000000000000000000000000000815260040180806020018281038252602f815260200180615529602f913960400191505060405180910390fd5b611e1e8282613c70565b5050565b6000611e7582600260008673ffffffffffffffffffffffffffffffffffffffff1673ffffffffffffffffffffffffffffffffffffffff168152602001908152602001600020613d0390919063ffffffff16565b905092915050565b611e85613863565b73ffffffffffffffffffffffffffffffffffffffff168173ffffffffffffffffffffffffffffffffffffffff1614611f08576040517f08c379a000000000000000000000000000000000000000000000000000000000815260040180806020018281038252602f81526020018061588c602f913960400191505060405180910390fd5b611f128282613d1d565b5050565b611f5c60405180807f5041555345525f524f4c45000000000000000000000000000000000000000000815250600b0190506040518091039020611f57613863565b612ac0565b611fb1576040517f08c379a000000000000000000000000000000000000000000000000000000000815260040180806020018281038252604081526020018061584c6040913960400191505060405180910390fd5b611fb9613db0565b565b611fd683838360405180602001604052806000815250612e78565b505050565b611fec611fe6613863565b82613939565b612041576040517f08c379a000000000000000000000000000000000000000000000000000000000815260040180806020018281038252603081526020018061581c6030913960400191505060405180910390fd5b61204a81613eb9565b50565b61209360405180807f4f50455241544f525f524f4c4500000000000000000000000000000000000000815250600d019050604051809103902061208e613863565b612ac0565b6120e8576040517f08c379a000000000000000000000000000000000000000000000000000000000815260040180806020018281038252602d8152602001806154d1602d913960400191505060405180910390fd5b80601060006101000a81548160ff02191690831515021790555050565b60008061211c836003613ff390919063ffffffff16565b50905080915050919050565b6000600b60009054906101000a900460ff16905090565b61214c8585858585614022565b505050505050565b6000612184826040518060600160405280602981526020016156fb6029913960036142259092919063ffffffff16565b9050919050565b6121d160405180807f4d494e5445525f524f4c45000000000000000000000000000000000000000000815250600b01905060405180910390206121cc613863565b612ac0565b612226576040517f08c379a000000000000000000000000000000000000000000000000000000000815260040180806020018281038252602b81526020018061566e602b913960400191505060405180910390fd5b61223c62093a804261424490919063ffffffff16565b6012600061224a600e6142cc565b815260200190815260200160002081905550426013600061226b600e6142cc565b8152602001908152602001600020819055506122908161228b600e6142cc565b6142da565b61229a600e6144ce565b50565b6060600a8054600181600116156101000203166002900480601f0160208091040260200160405190810160405280929190818152602001828054600181600116156101000203166002900480156123355780601f1061230a57610100808354040283529160200191612335565b820191906000526020600020905b81548152906001019060200180831161231857829003601f168201915b5050505050905090565b60008073ffffffffffffffffffffffffffffffffffffffff168273ffffffffffffffffffffffffffffffffffffffff1614156123c6576040517f08c379a000000000000000000000000000000000000000000000000000000000815260040180806020018281038252602a8152602001806156d1602a913960400191505060405180910390fd5b61240d600260008473ffffffffffffffffffffffffffffffffffffffff1673ffffffffffffffffffffffffffffffffffffffff1681526020019081526020016000206144e4565b9050919050565b61241c613863565b73ffffffffffffffffffffffffffffffffffffffff16600b60019054906101000a900473ffffffffffffffffffffffffffffffffffffffff1673ffffffffffffffffffffffffffffffffffffffff16146124de576040517f08c379a00000000000000000000000000000000000000000000000000000000081526004018080602001828103825260208152602001807f4f776e61626c653a2063616c6c6572206973206e6f7420746865206f776e657281525060200191505060405180910390fd5b600073ffffffffffffffffffffffffffffffffffffffff16600b60019054906101000a900473ffffffffffffffffffffffffffffffffffffffff1673ffffffffffffffffffffffffffffffffffffffff167f8be0079c531659141344cd1fd0a4f28419497f9722a3daafe3b4186f6b6457e060405160405180910390a36000600b60016101000a81548173ffffffffffffffffffffffffffffffffffffffff021916908373ffffffffffffffffffffffffffffffffffffffff160217905550565b60116020528060005260406000206000915090508060000154908060010160009054906101000a900463ffffffff16908060010160049054906101000a900463ffffffff16908060010160089054906101000a900461ffff16905084565b60166020528060005260406000206000915090508054600181600116156101000203166002900480601f0160208091040260200160405190810160405280929190818152602001828054600181600116156101000203166002900480156126a55780601f1061267a576101008083540402835291602001916126a5565b820191906000526020600020905b81548152906001019060200180831161268857829003601f168201915b505050505081565b6126f360405180807f4f50455241544f525f524f4c4500000000000000000000000000000000000000815250600d01905060405180910390206126ee613863565b612ac0565b612748576040517f08c379a000000000000000000000000000000000000000000000000000000000815260040180806020018281038252602d8152602001806154d1602d913960400191505060405180910390fd5b836018819055508260198190555081601a8190555080601b8190555050505050565b6000806016600084815260200190815260200160002080546001816001161561010002031660029004905011156127a457600190506127a5565b5b919050565b6127f060405180807f5041555345525f524f4c45000000000000000000000000000000000000000000815250600b01905060405180910390206127eb613863565b612ac0565b612845576040517f08c379a000000000000000000000000000000000000000000000000000000000815260040180806020018281038252603e8152602001806155b0603e913960400191505060405180910390fd5b61284d6144f9565b565b60126020528060005260406000206000915090505481565b61286f613863565b73ffffffffffffffffffffffffffffffffffffffff16600b60019054906101000a900473ffffffffffffffffffffffffffffffffffffffff1673ffffffffffffffffffffffffffffffffffffffff1614612931576040517f08c379a00000000000000000000000000000000000000000000000000000000081526004018080602001828103825260208152602001807f4f776e61626c653a2063616c6c6572206973206e6f7420746865206f776e657281525060200191505060405180910390fd5b8173ffffffffffffffffffffffffffffffffffffffff1663a9059cbb612955612a25565b836040518363ffffffff1660e01b8152600401808373ffffffffffffffffffffffffffffffffffffffff1673ffffffffffffffffffffffffffffffffffffffff16815260200182815260200192505050602060405180830381600087803b1580156129bf57600080fd5b505af11580156129d3573d6000803e3d6000fd5b505050506040513d60208110156129e957600080fd5b8101908080519060200190929190505050505050565b600d60009054906101000a900473ffffffffffffffffffffffffffffffffffffffff1681565b6000600b60019054906101000a900473ffffffffffffffffffffffffffffffffffffffff16905090565b6000612a788260008086815260200190815260200160002060000161460390919063ffffffff16565b905092915050565b6000806012600084815260200190815260200160002054905060008114158015612aaa5750428110155b15612ab9576001915050612abb565b505b919050565b6000612ae98260008086815260200190815260200160002060000161461d90919063ffffffff16565b905092915050565b606060088054600181600116156101000203166002900480601f016020809104026020016040519081016040528092919081815260200182805460018160011615610100020316600290048015612b895780601f10612b5e57610100808354040283529160200191612b89565b820191906000526020600020905b815481529060010190602001808311612b6c57829003601f168201915b5050505050905090565b612bd960405180807f4f50455241544f525f524f4c4500000000000000000000000000000000000000815250600d0190506040518091039020612bd4613863565b612ac0565b612c2e576040517f08c379a000000000000000000000000000000000000000000000000000000000815260040180806020018281038252602d8152602001806154d1602d913960400191505060405180910390fd5b8460146000888152602001908152602001600020819055508360156000888152602001908152602001600020819055508282601660008981526020019081526020016000209190612c809291906153c1565b50806017600088815260200190815260200160002081905550505050505050565b6000801b81565b612cb0613863565b73ffffffffffffffffffffffffffffffffffffffff168273ffffffffffffffffffffffffffffffffffffffff161415612d51576040517f08c379a00000000000000000000000000000000000000000000000000000000081526004018080602001828103825260198152602001807f4552433732313a20617070726f766520746f2063616c6c65720000000000000081525060200191505060405180910390fd5b8060066000612d5e613863565b73ffffffffffffffffffffffffffffffffffffffff1673ffffffffffffffffffffffffffffffffffffffff16815260200190815260200160002060008473ffffffffffffffffffffffffffffffffffffffff1673ffffffffffffffffffffffffffffffffffffffff16815260200190815260200160002060006101000a81548160ff0219169083151502179055508173ffffffffffffffffffffffffffffffffffffffff16612e0b613863565b73ffffffffffffffffffffffffffffffffffffffff167f17307eab39ab6107e8899845ad3d59bd9653f200f220920489ca2b5937696c3183604051808215151515815260200191505060405180910390a35050565b60146020528060005260406000206000915090505481565b612e89612e83613863565b83613939565b612ede576040517f08c379a00000000000000000000000000000000000000000000000000000000081526004018080602001828103825260318152602001806157eb6031913960400191505060405180910390fd5b612eea8484848461464d565b50505050565b600080600080600080601160008881526020019081526020016000209050600060136000612f1e600e6142cc565b81526020019081526020016000205411612fa0576040517f08c379a00000000000000000000000000000000000000000000000000000000081526004018080602001828103825260178152602001807f74686520616c69656e20646f65736e277420657869737400000000000000000081525060200191505060405180910390fd5b8060000154955060136000612fb5600e6142cc565b81526020019081526020016000205494508060010160009054906101000a900463ffffffff1663ffffffff1693508060010160049054906101000a900463ffffffff1663ffffffff1692508060010160089054906101000a900461ffff1661ffff1691505091939590929450565b600063bc197c8160e01b905095945050505050565b606061304382613846565b613098576040517f08c379a000000000000000000000000000000000000000000000000000000000815260040180806020018281038252602f81526020018061579b602f913960400191505060405180910390fd5b6060600960008481526020019081526020016000208054600181600116156101000203166002900480601f0160208091040260200160405190810160405280929190818152602001828054600181600116156101000203166002900480156131415780601f1061311657610100808354040283529160200191613141565b820191906000526020600020905b81548152906001019060200180831161312457829003601f168201915b505050505090506000600a8054600181600116156101000203166002900490501415613170578091505061331c565b60008151111561324957600a8160405160200180838054600181600116156101000203166002900480156131db5780601f106131b95761010080835404028352918201916131db565b820191906000526020600020905b8154815290600101906020018083116131c7575b505082805190602001908083835b6020831061320c57805182526020820191506020810190506020830392506131e9565b6001836020036101000a0380198251168184511680821785525050505050509050019250505060405160208183030381529060405291505061331c565b600a613254846146bf565b60405160200180838054600181600116156101000203166002900480156132b25780601f106132905761010080835404028352918201916132b2565b820191906000526020600020905b81548152906001019060200180831161329e575b505082805190602001908083835b602083106132e357805182526020820191506020810190506020830392506132c0565b6001836020036101000a038019825116818451168082178552505050505050905001925050506040516020818303038152906040529150505b919050565b60006133406000808481526020019081526020016000206000016147ef565b9050919050565b60405180807f4d494e5445525f524f4c45000000000000000000000000000000000000000000815250600b019050604051809103902081565b6133a6600080848152602001908152602001600020600201546133a1613863565b612ac0565b6133fb576040517f08c379a000000000000000000000000000000000000000000000000000000000815260040180806020018281038252603081526020018061563e6030913960400191505060405180910390fd5b6134058282613d1d565b5050565b60606000806000601660008681526020019081526020016000208054600181600116156101000203166002900480601f0160208091040260200160405190810160405280929190818152602001828054600181600116156101000203166002900480156134b75780601f1061348c576101008083540402835291602001916134b7565b820191906000526020600020905b81548152906001019060200180831161349a57829003601f168201915b505050505093506014600086815260200190815260200160002054925060176000868152602001908152602001600020549050601560008681526020019081526020016000205491509193509193565b60405180807f5041555345525f524f4c45000000000000000000000000000000000000000000815250600b019050604051809103902081565b6000600660008473ffffffffffffffffffffffffffffffffffffffff1673ffffffffffffffffffffffffffffffffffffffff16815260200190815260200160002060008373ffffffffffffffffffffffffffffffffffffffff1673ffffffffffffffffffffffffffffffffffffffff16815260200190815260200160002060009054906101000a900460ff16905092915050565b600063f23a6e6160e01b905095945050505050565b6135f1613863565b73ffffffffffffffffffffffffffffffffffffffff16600b60019054906101000a900473ffffffffffffffffffffffffffffffffffffffff1673ffffffffffffffffffffffffffffffffffffffff16146136b3576040517f08c379a00000000000000000000000000000000000000000000000000000000081526004018080602001828103825260208152602001807f4f776e61626c653a2063616c6c6572206973206e6f7420746865206f776e657281525060200191505060405180910390fd5b600073ffffffffffffffffffffffffffffffffffffffff168173ffffffffffffffffffffffffffffffffffffffff161415613739576040517f08c379a000000000000000000000000000000000000000000000000000000000815260040180806020018281038252602681526020018061558a6026913960400191505060405180910390fd5b8073ffffffffffffffffffffffffffffffffffffffff16600b60019054906101000a900473ffffffffffffffffffffffffffffffffffffffff1673ffffffffffffffffffffffffffffffffffffffff167f8be0079c531659141344cd1fd0a4f28419497f9722a3daafe3b4186f6b6457e060405160405180910390a380600b60016101000a81548173ffffffffffffffffffffffffffffffffffffffff021916908373ffffffffffffffffffffffffffffffffffffffff16021790555050565b60405180807f4f50455241544f525f524f4c4500000000000000000000000000000000000000815250600d019050604051809103902081565b600061383e8383613939565b905092915050565b600061385c82600361480490919063ffffffff16565b9050919050565b600033905090565b816005600083815260200190815260200160002060006101000a81548173ffffffffffffffffffffffffffffffffffffffff021916908373ffffffffffffffffffffffffffffffffffffffff160217905550808273ffffffffffffffffffffffffffffffffffffffff166138de83612154565b73ffffffffffffffffffffffffffffffffffffffff167f8c5be1e5ebec7d5bd14f71427d1e84f3dd0314c0f7b2291e5b200ac8c7c3b92560405160405180910390a45050565b60006139328260000161481e565b9050919050565b600061394482613846565b613999576040517f08c379a000000000000000000000000000000000000000000000000000000000815260040180806020018281038252602c815260200180615612602c913960400191505060405180910390fd5b60006139a483612154565b90508073ffffffffffffffffffffffffffffffffffffffff168473ffffffffffffffffffffffffffffffffffffffff161480613a1357508373ffffffffffffffffffffffffffffffffffffffff166139fb84611acc565b73ffffffffffffffffffffffffffffffffffffffff16145b80613a245750613a238185613540565b5b91505092915050565b8273ffffffffffffffffffffffffffffffffffffffff16613a4d82612154565b73ffffffffffffffffffffffffffffffffffffffff1614613ab9576040517f08c379a00000000000000000000000000000000000000000000000000000000081526004018080602001828103825260298152602001806157726029913960400191505060405180910390fd5b600073ffffffffffffffffffffffffffffffffffffffff168273ffffffffffffffffffffffffffffffffffffffff161415613b3f576040517f08c379a00000000000000000000000000000000000000000000000000000000081526004018080602001828103825260248152602001806155ee6024913960400191505060405180910390fd5b613b4a83838361482f565b613b5560008261386b565b613ba681600260008673ffffffffffffffffffffffffffffffffffffffff1673ffffffffffffffffffffffffffffffffffffffff16815260200190815260200160002061483f90919063ffffffff16565b50613bf881600260008573ffffffffffffffffffffffffffffffffffffffff1673ffffffffffffffffffffffffffffffffffffffff16815260200190815260200160002061485990919063ffffffff16565b50613c0f818360036148739092919063ffffffff16565b50808273ffffffffffffffffffffffffffffffffffffffff168473ffffffffffffffffffffffffffffffffffffffff167fddf252ad1be2c89b69c2b068fc378daa952ba7f163c4a11628f55a4df523b3ef60405160405180910390a4505050565b613c97816000808581526020019081526020016000206000016148a890919063ffffffff16565b15613cff57613ca4613863565b73ffffffffffffffffffffffffffffffffffffffff168173ffffffffffffffffffffffffffffffffffffffff16837f2f8788117e7eff1d82e926ec794901d17c78024a50270940304540a733656f0d60405160405180910390a45b5050565b6000613d1283600001836148d8565b60001c905092915050565b613d448160008085815260200190815260200160002060000161495b90919063ffffffff16565b15613dac57613d51613863565b73ffffffffffffffffffffffffffffffffffffffff168173ffffffffffffffffffffffffffffffffffffffff16837ff6391f5c32d9c69d2a47ea670b442974b53935d1edc7fd64eb21e047a839171b60405160405180910390a45b5050565b600b60009054906101000a900460ff16613e32576040517f08c379a00000000000000000000000000000000000000000000000000000000081526004018080602001828103825260148152602001807f5061757361626c653a206e6f742070617573656400000000000000000000000081525060200191505060405180910390fd5b6000600b60006101000a81548160ff0219169083151502179055507f5db9ee0a495bf2e6ff9c91a7834c1ba4fdd244a5e8aa4e537bd38aeae4b073aa613e76613863565b604051808273ffffffffffffffffffffffffffffffffffffffff1673ffffffffffffffffffffffffffffffffffffffff16815260200191505060405180910390a1565b6000613ec482612154565b9050613ed28160008461482f565b613edd60008361386b565b60006009600084815260200190815260200160002080546001816001161561010002031660029004905014613f2c57600960008381526020019081526020016000206000613f2b9190615441565b5b613f7d82600260008473ffffffffffffffffffffffffffffffffffffffff1673ffffffffffffffffffffffffffffffffffffffff16815260200190815260200160002061483f90919063ffffffff16565b50613f9282600361498b90919063ffffffff16565b5081600073ffffffffffffffffffffffffffffffffffffffff168273ffffffffffffffffffffffffffffffffffffffff167fddf252ad1be2c89b69c2b068fc378daa952ba7f163c4a11628f55a4df523b3ef60405160405180910390a45050565b60008060008061400686600001866149a5565b915091508160001c8160001c8090509350935050509250929050565b600060405180608001604052808781526020018663ffffffff1681526020018563ffffffff1681526020018461ffff1681525060116000614063600e6142cc565b81526020019081526020016000206000820151816000015560208201518160010160006101000a81548163ffffffff021916908363ffffffff16021790555060408201518160010160046101000a81548163ffffffff021916908363ffffffff16021790555060608201518160010160086101000a81548161ffff021916908361ffff1602179055509050506140f88261218b565b614102600e6142cc565b63ffffffff16614112600e6142cc565b1461411c57600080fd5b614124612a25565b73ffffffffffffffffffffffffffffffffffffffff168273ffffffffffffffffffffffffffffffffffffffff161461416c5761416b600083614166600e6142cc565b611d04565b5b7f190e965faf32f04a0bd16c35d90db68cfd344a647df4508f4a9a967b9dac089482614198600e6142cc565b87878a604051808673ffffffffffffffffffffffffffffffffffffffff1673ffffffffffffffffffffffffffffffffffffffff1681526020018581526020018463ffffffff1663ffffffff1681526020018363ffffffff1663ffffffff1681526020018281526020019550505050505060405180910390a161421a600e6142cc565b905095945050505050565b6000614238846000018460001b84614a3e565b60001c90509392505050565b6000808284019050838110156142c2576040517f08c379a000000000000000000000000000000000000000000000000000000000815260040180806020018281038252601b8152602001807f536166654d6174683a206164646974696f6e206f766572666c6f77000000000081525060200191505060405180910390fd5b8091505092915050565b600081600001549050919050565b600073ffffffffffffffffffffffffffffffffffffffff168273ffffffffffffffffffffffffffffffffffffffff16141561437d576040517f08c379a00000000000000000000000000000000000000000000000000000000081526004018080602001828103825260208152602001807f4552433732313a206d696e7420746f20746865207a65726f206164647265737381525060200191505060405180910390fd5b61438681613846565b156143f9576040517f08c379a000000000000000000000000000000000000000000000000000000000815260040180806020018281038252601c8152602001807f4552433732313a20746f6b656e20616c7265616479206d696e7465640000000081525060200191505060405180910390fd5b6144056000838361482f565b61445681600260008573ffffffffffffffffffffffffffffffffffffffff1673ffffffffffffffffffffffffffffffffffffffff16815260200190815260200160002061485990919063ffffffff16565b5061446d818360036148739092919063ffffffff16565b50808273ffffffffffffffffffffffffffffffffffffffff16600073ffffffffffffffffffffffffffffffffffffffff167fddf252ad1be2c89b69c2b068fc378daa952ba7f163c4a11628f55a4df523b3ef60405160405180910390a45050565b6001816000016000828254019250508190555050565b60006144f282600001614b34565b9050919050565b600b60009054906101000a900460ff161561457c576040517f08c379a00000000000000000000000000000000000000000000000000000000081526004018080602001828103825260108152602001807f5061757361626c653a207061757365640000000000000000000000000000000081525060200191505060405180910390fd5b6001600b60006101000a81548160ff0219169083151502179055507f62e78cea01bee320cd4e420270b5ea74000d11b0c9f74754ebdbfc544b05a2586145c0613863565b604051808273ffffffffffffffffffffffffffffffffffffffff1673ffffffffffffffffffffffffffffffffffffffff16815260200191505060405180910390a1565b600061461283600001836148d8565b60001c905092915050565b6000614645836000018373ffffffffffffffffffffffffffffffffffffffff1660001b614b45565b905092915050565b614658848484613a2d565b61466484848484614b68565b6146b9576040517f08c379a00000000000000000000000000000000000000000000000000000000081526004018080602001828103825260328152602001806155586032913960400191505060405180910390fd5b50505050565b60606000821415614707576040518060400160405280600181526020017f300000000000000000000000000000000000000000000000000000000000000081525090506147ea565b600082905060005b60008214614731578080600101915050600a828161472957fe5b04915061470f565b6060816040519080825280601f01601f1916602001820160405280156147665781602001600182028038833980820191505090505b50905060006001830390508593505b600084146147e257600a848161478757fe5b0660300160f81b828280600190039350815181106147a157fe5b60200101907effffffffffffffffffffffffffffffffffffffffffffffffffffffffffffff1916908160001a905350600a84816147da57fe5b049350614775565b819450505050505b919050565b60006147fd82600001614b34565b9050919050565b6000614816836000018360001b614dad565b905092915050565b600081600001805490509050919050565b61483a838383614dd0565b505050565b6000614851836000018360001b614e3e565b905092915050565b600061486b836000018360001b614f26565b905092915050565b600061489f846000018460001b8473ffffffffffffffffffffffffffffffffffffffff1660001b614f96565b90509392505050565b60006148d0836000018373ffffffffffffffffffffffffffffffffffffffff1660001b614f26565b905092915050565b600081836000018054905011614939576040517f08c379a00000000000000000000000000000000000000000000000000000000081526004018080602001828103825260228152602001806154af6022913960400191505060405180910390fd5b82600001828154811061494857fe5b9060005260206000200154905092915050565b6000614983836000018373ffffffffffffffffffffffffffffffffffffffff1660001b614e3e565b905092915050565b600061499d836000018360001b615072565b905092915050565b60008082846000018054905011614a07576040517f08c379a00000000000000000000000000000000000000000000000000000000081526004018080602001828103825260228152602001806157246022913960400191505060405180910390fd5b6000846000018481548110614a1857fe5b906000526020600020906002020190508060000154816001015492509250509250929050565b60008084600101600085815260200190815260200160002054905060008114158390614b05576040517f08c379a00000000000000000000000000000000000000000000000000000000081526004018080602001828103825283818151815260200191508051906020019080838360005b83811015614aca578082015181840152602081019050614aaf565b50505050905090810190601f168015614af75780820380516001836020036101000a031916815260200191505b509250505060405180910390fd5b50846000016001820381548110614b1857fe5b9060005260206000209060020201600101549150509392505050565b600081600001805490509050919050565b600080836001016000848152602001908152602001600020541415905092915050565b6000614b898473ffffffffffffffffffffffffffffffffffffffff1661518b565b614b965760019050614da5565b6060614d2c63150b7a0260e01b614bab613863565b888787604051602401808573ffffffffffffffffffffffffffffffffffffffff1673ffffffffffffffffffffffffffffffffffffffff1681526020018473ffffffffffffffffffffffffffffffffffffffff1673ffffffffffffffffffffffffffffffffffffffff16815260200183815260200180602001828103825283818151815260200191508051906020019080838360005b83811015614c5b578082015181840152602081019050614c40565b50505050905090810190601f168015614c885780820380516001836020036101000a031916815260200191505b5095505050505050604051602081830303815290604052907bffffffffffffffffffffffffffffffffffffffffffffffffffffffff19166020820180517bffffffffffffffffffffffffffffffffffffffffffffffffffffffff8381831617835250505050604051806060016040528060328152602001615558603291398773ffffffffffffffffffffffffffffffffffffffff1661519e9092919063ffffffff16565b90506000818060200190516020811015614d4557600080fd5b8101908080519060200190929190505050905063150b7a0260e01b7bffffffffffffffffffffffffffffffffffffffffffffffffffffffff1916817bffffffffffffffffffffffffffffffffffffffffffffffffffffffff191614925050505b949350505050565b600080836001016000848152602001908152602001600020541415905092915050565b614ddb8383836151b6565b614de3612128565b15614e39576040517f08c379a000000000000000000000000000000000000000000000000000000000815260040180806020018281038252602b8152602001806154fe602b913960400191505060405180910390fd5b505050565b60008083600101600084815260200190815260200160002054905060008114614f1a5760006001820390506000600186600001805490500390506000866000018281548110614e8957fe5b9060005260206000200154905080876000018481548110614ea657fe5b9060005260206000200181905550600183018760010160008381526020019081526020016000208190555086600001805480614ede57fe5b60019003818190600052602060002001600090559055866001016000878152602001908152602001600020600090556001945050505050614f20565b60009150505b92915050565b6000614f328383614b45565b614f8b578260000182908060018154018082558091505060019003906000526020600020016000909190919091505582600001805490508360010160008481526020019081526020016000208190555060019050614f90565b600090505b92915050565b600080846001016000858152602001908152602001600020549050600081141561503d5784600001604051806040016040528086815260200185815250908060018154018082558091505060019003906000526020600020906002020160009091909190915060008201518160000155602082015181600101555050846000018054905085600101600086815260200190815260200160002081905550600191505061506b565b8285600001600183038154811061505057fe5b90600052602060002090600202016001018190555060009150505b9392505050565b6000808360010160008481526020019081526020016000205490506000811461517f57600060018203905060006001866000018054905003905060008660000182815481106150bd57fe5b90600052602060002090600202019050808760000184815481106150dd57fe5b906000526020600020906002020160008201548160000155600182015481600101559050506001830187600101600083600001548152602001908152602001600020819055508660000180548061513057fe5b6001900381819060005260206000209060020201600080820160009055600182016000905550509055866001016000878152602001908152602001600020600090556001945050505050615185565b60009150505b92915050565b600080823b905060008111915050919050565b60606151ad84846000856151bb565b90509392505050565b505050565b60606151c68561518b565b615238576040517f08c379a000000000000000000000000000000000000000000000000000000000815260040180806020018281038252601d8152602001807f416464726573733a2063616c6c20746f206e6f6e2d636f6e747261637400000081525060200191505060405180910390fd5b600060608673ffffffffffffffffffffffffffffffffffffffff1685876040518082805190602001908083835b602083106152885780518252602082019150602081019050602083039250615265565b6001836020036101000a03801982511681845116808217855250505050505090500191505060006040518083038185875af1925050503d80600081146152ea576040519150601f19603f3d011682016040523d82523d6000602084013e6152ef565b606091505b509150915081156153045780925050506153b9565b6000815111156153175780518082602001fd5b836040517f08c379a00000000000000000000000000000000000000000000000000000000081526004018080602001828103825283818151815260200191508051906020019080838360005b8381101561537e578082015181840152602081019050615363565b50505050905090810190601f1680156153ab5780820380516001836020036101000a031916815260200191505b509250505060405180910390fd5b949350505050565b828054600181600116156101000203166002900490600052602060002090601f016020900481019282601f1061540257803560ff1916838001178555615430565b82800160010185558215615430579182015b8281111561542f578235825591602001919060010190615414565b5b50905061543d9190615489565b5090565b50805460018160011615610100020316600290046000825580601f106154675750615486565b601f0160209004906000526020600020908101906154859190615489565b5b50565b6154ab91905b808211156154a757600081600090555060010161548f565b5090565b9056fe456e756d657261626c655365743a20696e646578206f7574206f6620626f756e6473526f6c65733a2063616c6c657220646f6573206e6f74206861766520746865204f50455241544f5220726f6c654552433732315061757361626c653a20746f6b656e207472616e73666572207768696c6520706175736564416363657373436f6e74726f6c3a2073656e646572206d75737420626520616e2061646d696e20746f206772616e744552433732313a207472616e7366657220746f206e6f6e20455243373231526563656976657220696d706c656d656e7465724f776e61626c653a206e6577206f776e657220697320746865207a65726f20616464726573734552433732315072657365744d696e7465725061757365724175746f49643a206d75737420686176652070617573657220726f6c6520746f2070617573654552433732313a207472616e7366657220746f20746865207a65726f20616464726573734552433732313a206f70657261746f7220717565727920666f72206e6f6e6578697374656e7420746f6b656e416363657373436f6e74726f6c3a2073656e646572206d75737420626520616e2061646d696e20746f207265766f6b65526f6c65733a2063616c6c657220646f6573206e6f74206861766520746865204d494e54455220726f6c654552433732313a20617070726f76652063616c6c6572206973206e6f74206f776e6572206e6f7220617070726f76656420666f7220616c6c4552433732313a2062616c616e636520717565727920666f7220746865207a65726f20616464726573734552433732313a206f776e657220717565727920666f72206e6f6e6578697374656e7420746f6b656e456e756d657261626c654d61703a20696e646578206f7574206f6620626f756e64734552433732313a20617070726f76656420717565727920666f72206e6f6e6578697374656e7420746f6b656e4552433732313a207472616e73666572206f6620746f6b656e2074686174206973206e6f74206f776e4552433732314d657461646174613a2055524920717565727920666f72206e6f6e6578697374656e7420746f6b656e4552433732313a20617070726f76616c20746f2063757272656e74206f776e65724552433732313a207472616e736665722063616c6c6572206973206e6f74206f776e6572206e6f7220617070726f7665644552433732314275726e61626c653a2063616c6c6572206973206e6f74206f776e6572206e6f7220617070726f7665644552433732315072657365744d696e7465725061757365724175746f49643a206d75737420686176652070617573657220726f6c6520746f20756e7061757365416363657373436f6e74726f6c3a2063616e206f6e6c792072656e6f756e636520726f6c657320666f722073656c66a26469706673582212200f7f5b8159419ac3d27db5cd543836e9eed611d7de5cf1a1a14bf7b31cd08b1164736f6c634300060200334552433732315061757361626c653a20746f6b656e207472616e73666572207768696c65207061757365644552433732313a207472616e7366657220746f20746865207a65726f20616464726573734552433732313a206f70657261746f7220717565727920666f72206e6f6e6578697374656e7420746f6b656e526f6c65733a2063616c6c657220646f6573206e6f74206861766520746865204d494e54455220726f6c654552433732313a206f776e657220717565727920666f72206e6f6e6578697374656e7420746f6b656e4552433732313a20617070726f76656420717565727920666f72206e6f6e6578697374656e7420746f6b656e4552433732313a207472616e73666572206f6620746f6b656e2074686174206973206e6f74206f776e4552433732313a207472616e736665722063616c6c6572206973206e6f74206f776e6572206e6f7220617070726f766564",
  "source": "pragma solidity ^0.6.0;\r\n\r\nimport \"./@openzeppelin/contracts/token/ERC721/ERC721.sol\";\r\nimport \"./@openzeppelin/contracts/token/ERC721/ERC721Burnable.sol\";\r\nimport \"./@openzeppelin/contracts/token/ERC721/IERC721.sol\";\r\nimport \"./@openzeppelin/contracts/presets/ERC721PresetMinterPauserAutoId.sol\";\r\nimport \"./@openzeppelin/contracts/token/ERC1155/IERC1155.sol\";\r\nimport \"./@openzeppelin/contracts/token/ERC1155/ERC1155Holder.sol\";\r\nimport \"./@openzeppelin/contracts/utils/Counters.sol\";\r\nimport \"./@openzeppelin/contracts/access/Ownable.sol\";\r\nimport \"./@openzeppelin/contracts/token/ERC20/IERC20.sol\";\r\n\r\nimport \"./interfaces/IAlienToken.sol\";\r\n//import \"./@openzeppelin/contracts/utils/EnumerableMap.sol\";\r\n// SPDX-License-Identifier: MIT\r\n\r\ncontract TokenRecover is Ownable {\r\n    /**\r\n     * @dev Remember that only owner can call so be careful when use on contracts generated from other contracts.\r\n     * @param tokenAddress The token contract address\r\n     * @param tokenAmount Number of tokens to be sent\r\n     */\r\n    function recoverERC20(address tokenAddress, uint256 tokenAmount)\r\n        public\r\n        onlyOwner\r\n    {\r\n        IERC20(tokenAddress).transfer(owner(), tokenAmount);\r\n    }\r\n}\r\n\r\n\r\n\r\n//ERC721\r\ncontract AlienERC721 is\r\n  Ownable,\r\n  ERC721PresetMinterPauserAutoId,\r\n  TokenRecover,\r\n  ERC1155Holder\r\n{\r\n  bytes32 public constant OPERATOR_ROLE = keccak256(\"OPERATOR_ROLE\");\r\n  IAlienToken public aln;\r\n\r\n  using Counters for Counters.Counter;\r\n  Counters.Counter private _tokenIds;\r\n  Counters.Counter private _itemIds;\r\n\r\n  bool public gameStopped = false;\r\n\r\n  struct AlienObj {\r\n    uint256 genes;\r\n    uint32 mumId;\r\n    uint32 dadId;\r\n    uint16 generation;\r\n  }\r\n\r\n  // Mapping from token ID to NFT struct details\r\n  mapping(uint256 => AlienObj) public alienDetails;\r\n  // Alien Time properties\r\n  mapping(uint256 => uint256) public timeUntilStarving;\r\n  mapping(uint256 => uint256) public timeAlienBorn;\r\n\r\n  // items/benefits for the Alien could be anything in the future.\r\n  mapping(uint256 => uint256) public itemPrice;\r\n  mapping(uint256 => uint256) public itemPoints;\r\n  mapping(uint256 => string) public itemName;\r\n  mapping(uint256 => uint256) public itemTimeExtension;\r\n\r\n\r\n  constructor(address _AlienToken) public ERC721PresetMinterPauserAutoId(\r\n    \"AlienNFT\",\r\n     \"ALNFT\",\r\n     \"http:localhost/\"\r\n     ) {\r\n    _setupRole(OPERATOR_ROLE, _msgSender());\r\n    aln = IAlienToken(_AlienToken);\r\n    // We are creating the first alien at index 0\r\n    _createtAlien(0, 0, 0, uint16(-1), address(0));\r\n  }\r\n\r\n  event AlienMinted(\r\n    address owner,\r\n    uint256 alienId,\r\n    uint32 mumId,\r\n    uint32 dadId,\r\n    uint256 genes\r\n  );\r\n  event ItemCreated(\r\n    uint256 id,\r\n    string name,\r\n    uint256 price,\r\n    uint256 points\r\n  );\r\n\r\n  modifier notPaused() {\r\n      require(!gameStopped, \"Contract is paused\");\r\n      _;\r\n  }\r\n\r\n  modifier onlyOperator() {\r\n      require(\r\n          hasRole(OPERATOR_ROLE, _msgSender()),\r\n          \"Roles: caller does not have the OPERATOR role\"\r\n      );\r\n      _;\r\n  }\r\n\r\n  modifier onlyMinter() {\r\n      require(\r\n          hasRole(MINTER_ROLE, _msgSender()),\r\n          \"Roles: caller does not have the MINTER role\"\r\n      );\r\n      _;\r\n  }\r\n\r\n  function _createtAlien(\r\n      uint256 _genes,\r\n      uint32 _mumId,\r\n      uint32 _dadId,\r\n      uint16 _generation,\r\n      address _owner\r\n      ) internal returns (uint256) {\r\n\r\n      alienDetails[_tokenIds.current()] = AlienObj(\r\n        uint256(_genes),\r\n        uint32(_mumId),\r\n        uint32(_dadId),\r\n        uint16(_generation)\r\n      );\r\n      mint(_owner);\r\n\r\n      // It's probably never going to happen, 4 billion cats is A LOT, but\r\n      // let's just be 100% sure we never let this happen.\r\n      require(_tokenIds.current() == uint256(uint32(_tokenIds.current())));\r\n\r\n      if(_owner != owner()){\r\n          transferFrom(address(0), _owner, _tokenIds.current());\r\n      }\r\n\r\n      emit AlienMinted(_owner, _tokenIds.current(), _mumId, _dadId, _genes);\r\n      return _tokenIds.current();\r\n    }\r\n\r\n  function mint(address player) public override onlyMinter{\r\n    //pet minted has 7 days until it starves at first\r\n    timeUntilStarving[_tokenIds.current()] = block.timestamp.add(7 days);\r\n    timeAlienBorn[_tokenIds.current()] = block.timestamp;\r\n\r\n    super._mint(player, _tokenIds.current());\r\n    _tokenIds.increment();\r\n  }\r\n\r\n  // in case a bug happens or we upgrade to another smart contract\r\n  function pauseGame(bool _pause) external onlyOperator {\r\n      gameStopped = _pause;\r\n  }\r\n\r\n\r\n\r\n  function itemExists(uint256 itemId) public view returns (bool) {\r\n      if (bytes(itemName[itemId]).length > 0) {\r\n          return true;\r\n      }\r\n  }\r\n  // check that Alien didn't starve\r\n  function isAlienAlive(uint256 _nftId) public view returns (bool) {\r\n    uint256 _timeUntilStarving = timeUntilStarving[_nftId];\r\n    if (_timeUntilStarving != 0 && _timeUntilStarving >= block.timestamp) {\r\n      return true;\r\n    }\r\n  }\r\n\r\n  function getItemInfo(uint256 _itemId)\r\n      public\r\n      view\r\n      returns (\r\n          string memory _name,\r\n          uint256 _price,\r\n          uint256 _points,\r\n          uint256 _timeExtension\r\n      )\r\n  {\r\n      _name = itemName[_itemId];\r\n      _price = itemPrice[_itemId];\r\n      _timeExtension = itemTimeExtension[_itemId];\r\n      _points = itemPoints[_itemId];\r\n  }\r\n  // edit specific item in case token goes up in value and the price for items gets to expensive for normal users.\r\n  function editItem(\r\n      uint256 _id,\r\n      uint256 _price,\r\n      uint256 _points,\r\n      string calldata _name,\r\n      uint256 _timeExtension\r\n  ) external onlyOperator {\r\n      itemPrice[_id] = _price;\r\n      itemPoints[_id] = _points;\r\n      itemName[_id] = _name;\r\n      itemTimeExtension[_id] = _timeExtension;\r\n  }\r\n\r\n  function getAlien(uint256 _nftId) public view returns(\r\n    uint256 _genes,\r\n    uint256 _timeAlienBorn,\r\n    uint256 _mumId,\r\n    uint256 _dadId,\r\n    uint256 _generation\r\n    ){\r\n      AlienObj storage alien = alienDetails[_nftId];\r\n\r\n      require(timeAlienBorn[_tokenIds.current()] > 0, \"the alien doesn't exist\");\r\n\r\n      _genes = uint256(alien.genes);\r\n      _timeAlienBorn = uint256(timeAlienBorn[_tokenIds.current()]);\r\n      _mumId = uint256(alien.mumId);\r\n      _dadId = uint256(alien.dadId);\r\n      _generation = uint256(alien.generation);\r\n  }\r\n\r\n  function createtAlien(\r\n      uint256 _genes,\r\n      uint32 _mumId,\r\n      uint32 _dadId,\r\n      uint16 _generation,\r\n      address _owner\r\n      ) external {\r\n        _createtAlien(_genes, _mumId, _dadId, _generation, _owner);\r\n  }\r\n  function isApprovedOwner(address _owner, uint256 _nftId) public view returns (bool){\r\n    return _isApprovedOrOwner(_owner, _nftId);\r\n  }\r\n  function editCurves(\r\n    uint256 _la,\r\n    uint256 _lb,\r\n    uint256 _ra,\r\n    uint256 _rb\r\n    ) external onlyOperator {\r\n      la = _la;\r\n      lb = _lb;\r\n      ra = _ra;\r\n      rb = _rb;\r\n  }\r\n  uint256 la = 2;\r\n  uint256 lb = 2;\r\n  uint256 ra = 6;\r\n  uint256 rb = 7;\r\n\r\n}\r\n",
  "sourcePath": "D:\\IOTT\\cryptoaliens\\solidity\\contracts\\AlienERC721.sol",
  "compiler": {
    "name": "solc",
    "version": "0.6.2+commit.bacdbe57.Emscripten.clang"
  },
  "schemaVersion": "3.2.0",
  "updatedAt": "2020-11-27T21:39:00.669Z",
  "devdoc": {
    "methods": {
      "approve(address,uint256)": {
        "details": "See {IERC721-approve}."
      },
      "balanceOf(address)": {
        "details": "See {IERC721-balanceOf}."
      },
      "baseURI()": {
        "details": "Returns the base URI set via {_setBaseURI}. This will be automatically added as a prefix in {tokenURI} to each token's URI, or to the token ID if no specific URI is set for that token ID."
      },
      "burn(uint256)": {
        "details": "Burns `tokenId`. See {ERC721-_burn}.     * Requirements:     * - The caller must own `tokenId` or be an approved operator."
      },
      "getApproved(uint256)": {
        "details": "See {IERC721-getApproved}."
      },
      "getRoleAdmin(bytes32)": {
        "details": "Returns the admin role that controls `role`. See {grantRole} and {revokeRole}.     * To change a role's admin, use {_setRoleAdmin}."
      },
      "getRoleMember(bytes32,uint256)": {
        "details": "Returns one of the accounts that have `role`. `index` must be a value between 0 and {getRoleMemberCount}, non-inclusive.     * Role bearers are not sorted in any particular way, and their ordering may change at any point.     * WARNING: When using {getRoleMember} and {getRoleMemberCount}, make sure you perform all queries on the same block. See the following https://forum.openzeppelin.com/t/iterating-over-elements-on-enumerableset-in-openzeppelin-contracts/2296[forum post] for more information."
      },
      "getRoleMemberCount(bytes32)": {
        "details": "Returns the number of accounts that have `role`. Can be used together with {getRoleMember} to enumerate all bearers of a role."
      },
      "grantRole(bytes32,address)": {
        "details": "Grants `role` to `account`.     * If `account` had not been already granted `role`, emits a {RoleGranted} event.     * Requirements:     * - the caller must have ``role``'s admin role."
      },
      "hasRole(bytes32,address)": {
        "details": "Returns `true` if `account` has been granted `role`."
      },
      "isApprovedForAll(address,address)": {
        "details": "See {IERC721-isApprovedForAll}."
      },
      "name()": {
        "details": "See {IERC721Metadata-name}."
      },
      "owner()": {
        "details": "Returns the address of the current owner."
      },
      "ownerOf(uint256)": {
        "details": "See {IERC721-ownerOf}."
      },
      "pause()": {
        "details": "Pauses all token transfers.     * See {ERC721Pausable} and {Pausable-_pause}.     * Requirements:     * - the caller must have the `PAUSER_ROLE`."
      },
      "paused()": {
        "details": "Returns true if the contract is paused, and false otherwise."
      },
      "recoverERC20(address,uint256)": {
        "details": "Remember that only owner can call so be careful when use on contracts generated from other contracts.",
        "params": {
          "tokenAddress": "The token contract address",
          "tokenAmount": "Number of tokens to be sent"
        }
      },
      "renounceOwnership()": {
        "details": "Leaves the contract without owner. It will not be possible to call `onlyOwner` functions anymore. Can only be called by the current owner.     * NOTE: Renouncing ownership will leave the contract without an owner, thereby removing any functionality that is only available to the owner."
      },
      "renounceRole(bytes32,address)": {
        "details": "Revokes `role` from the calling account.     * Roles are often managed via {grantRole} and {revokeRole}: this function's purpose is to provide a mechanism for accounts to lose their privileges if they are compromised (such as when a trusted device is misplaced).     * If the calling account had been granted `role`, emits a {RoleRevoked} event.     * Requirements:     * - the caller must be `account`."
      },
      "revokeRole(bytes32,address)": {
        "details": "Revokes `role` from `account`.     * If `account` had been granted `role`, emits a {RoleRevoked} event.     * Requirements:     * - the caller must have ``role``'s admin role."
      },
      "safeTransferFrom(address,address,uint256)": {
        "details": "See {IERC721-safeTransferFrom}."
      },
      "safeTransferFrom(address,address,uint256,bytes)": {
        "details": "See {IERC721-safeTransferFrom}."
      },
      "setApprovalForAll(address,bool)": {
        "details": "See {IERC721-setApprovalForAll}."
      },
      "supportsInterface(bytes4)": {
        "details": "See {IERC165-supportsInterface}.     * Time complexity O(1), guaranteed to always use less than 30 000 gas."
      },
      "symbol()": {
        "details": "See {IERC721Metadata-symbol}."
      },
      "tokenByIndex(uint256)": {
        "details": "See {IERC721Enumerable-tokenByIndex}."
      },
      "tokenOfOwnerByIndex(address,uint256)": {
        "details": "See {IERC721Enumerable-tokenOfOwnerByIndex}."
      },
      "tokenURI(uint256)": {
        "details": "See {IERC721Metadata-tokenURI}."
      },
      "totalSupply()": {
        "details": "See {IERC721Enumerable-totalSupply}."
      },
      "transferFrom(address,address,uint256)": {
        "details": "See {IERC721-transferFrom}."
      },
      "transferOwnership(address)": {
        "details": "Transfers ownership of the contract to a new account (`newOwner`). Can only be called by the current owner."
      },
      "unpause()": {
        "details": "Unpauses all token transfers.     * See {ERC721Pausable} and {Pausable-_unpause}.     * Requirements:     * - the caller must have the `PAUSER_ROLE`."
      }
    }
  },
  "userdoc": {
    "methods": {}
  }
}