{
  "contractName": "AlienCore",
  "abi": [
    {
      "inputs": [
        {
          "internalType": "address",
          "name": "_AlienERC721",
          "type": "address"
        }
      ],
      "stateMutability": "nonpayable",
      "type": "constructor"
    },
    {
      "anonymous": false,
      "inputs": [
        {
          "indexed": false,
          "internalType": "string",
          "name": "TxType",
          "type": "string"
        },
        {
          "indexed": false,
          "internalType": "address",
          "name": "owner",
          "type": "address"
        },
        {
          "indexed": false,
          "internalType": "uint256",
          "name": "tokenId",
          "type": "uint256"
        }
      ],
      "name": "MarketTransaction",
      "type": "event"
    },
    {
      "anonymous": false,
      "inputs": [
        {
          "indexed": true,
          "internalType": "address",
          "name": "previousOwner",
          "type": "address"
        },
        {
          "indexed": true,
          "internalType": "address",
          "name": "newOwner",
          "type": "address"
        }
      ],
      "name": "OwnershipTransferred",
      "type": "event"
    },
    {
      "inputs": [],
      "name": "IAlienAddress",
      "outputs": [
        {
          "internalType": "address",
          "name": "",
          "type": "address"
        }
      ],
      "stateMutability": "view",
      "type": "function",
      "constant": true
    },
    {
      "inputs": [],
      "name": "aln721",
      "outputs": [
        {
          "internalType": "contract IAlienERC721",
          "name": "",
          "type": "address"
        }
      ],
      "stateMutability": "view",
      "type": "function",
      "constant": true
    },
    {
      "inputs": [
        {
          "internalType": "uint256",
          "name": "_tokenId",
          "type": "uint256"
        }
      ],
      "name": "buyAlien",
      "outputs": [],
      "stateMutability": "payable",
      "type": "function",
      "payable": true
    },
    {
      "inputs": [
        {
          "internalType": "uint256",
          "name": "_tokenId",
          "type": "uint256"
        }
      ],
      "name": "getOffer",
      "outputs": [
        {
          "internalType": "address",
          "name": "seller",
          "type": "address"
        },
        {
          "internalType": "uint256",
          "name": "price",
          "type": "uint256"
        },
        {
          "internalType": "uint256",
          "name": "index",
          "type": "uint256"
        },
        {
          "internalType": "uint256",
          "name": "tokenId",
          "type": "uint256"
        },
        {
          "internalType": "bool",
          "name": "active",
          "type": "bool"
        }
      ],
      "stateMutability": "view",
      "type": "function",
      "constant": true
    },
    {
      "inputs": [],
      "name": "owner",
      "outputs": [
        {
          "internalType": "address",
          "name": "",
          "type": "address"
        }
      ],
      "stateMutability": "view",
      "type": "function",
      "constant": true
    },
    {
      "inputs": [
        {
          "internalType": "uint256",
          "name": "_tokenId",
          "type": "uint256"
        }
      ],
      "name": "removeOffer",
      "outputs": [],
      "stateMutability": "nonpayable",
      "type": "function"
    },
    {
      "inputs": [],
      "name": "renounceOwnership",
      "outputs": [],
      "stateMutability": "nonpayable",
      "type": "function"
    },
    {
      "inputs": [
        {
          "internalType": "uint256",
          "name": "_price",
          "type": "uint256"
        },
        {
          "internalType": "uint256",
          "name": "_tokenId",
          "type": "uint256"
        }
      ],
      "name": "setOffer",
      "outputs": [],
      "stateMutability": "nonpayable",
      "type": "function"
    },
    {
      "inputs": [],
      "name": "totalOffers",
      "outputs": [
        {
          "internalType": "uint256",
          "name": "",
          "type": "uint256"
        }
      ],
      "stateMutability": "view",
      "type": "function",
      "constant": true
    },
    {
      "inputs": [
        {
          "internalType": "address",
          "name": "newOwner",
          "type": "address"
        }
      ],
      "name": "transferOwnership",
      "outputs": [],
      "stateMutability": "nonpayable",
      "type": "function"
    },
    {
      "inputs": [
        {
          "internalType": "uint256",
          "name": "_dadId",
          "type": "uint256"
        },
        {
          "internalType": "uint256",
          "name": "_mumId",
          "type": "uint256"
        }
      ],
      "name": "cloneAlien",
      "outputs": [
        {
          "internalType": "uint256",
          "name": "",
          "type": "uint256"
        }
      ],
      "stateMutability": "nonpayable",
      "type": "function"
    },
    {
      "inputs": [
        {
          "internalType": "uint256",
          "name": "genes",
          "type": "uint256"
        }
      ],
      "name": "createAlienGen0",
      "outputs": [
        {
          "internalType": "uint256",
          "name": "",
          "type": "uint256"
        }
      ],
      "stateMutability": "nonpayable",
      "type": "function"
    }
  ],
  "bytecode": "0x60806040523480156200001157600080fd5b506040516200256138038062002561833981810160405260208110156200003757600080fd5b810190808051906020019092919050505060006200005a620001b660201b60201c565b9050806000806101000a81548173ffffffffffffffffffffffffffffffffffffffff021916908373ffffffffffffffffffffffffffffffffffffffff1602179055508073ffffffffffffffffffffffffffffffffffffffff16600073ffffffffffffffffffffffffffffffffffffffff167f8be0079c531659141344cd1fd0a4f28419497f9722a3daafe3b4186f6b6457e060405160405180910390a35080600660006101000a81548173ffffffffffffffffffffffffffffffffffffffff021916908373ffffffffffffffffffffffffffffffffffffffff160217905550600660009054906101000a900473ffffffffffffffffffffffffffffffffffffffff16600160006101000a81548173ffffffffffffffffffffffffffffffffffffffff021916908373ffffffffffffffffffffffffffffffffffffffff160217905550620001ae6000620001be60201b60201c565b505062000426565b600033905090565b6000620001d0620001b660201b60201c565b73ffffffffffffffffffffffffffffffffffffffff16620001f6620003fd60201b60201c565b73ffffffffffffffffffffffffffffffffffffffff161462000280576040517f08c379a00000000000000000000000000000000000000000000000000000000081526004018080602001828103825260208152602001807f4f776e61626c653a2063616c6c6572206973206e6f7420746865206f776e657281525060200191505060405180910390fd5b600a60055410620002dd576040517f08c379a00000000000000000000000000000000000000000000000000000000081526004018080602001828103825260268152602001806200253b6026913960400191505060405180910390fd5b6005600081548092919060010191905055506000600160009054906101000a900473ffffffffffffffffffffffffffffffffffffffff1673ffffffffffffffffffffffffffffffffffffffff16632f782dda846000806000336040518663ffffffff1660e01b8152600401808681526020018581526020018481526020018381526020018273ffffffffffffffffffffffffffffffffffffffff1673ffffffffffffffffffffffffffffffffffffffff16815260200195505050505050602060405180830381600087803b158015620003b557600080fd5b505af1158015620003ca573d6000803e3d6000fd5b505050506040513d6020811015620003e157600080fd5b8101908080519060200190929190505050905080915050919050565b60008060009054906101000a900473ffffffffffffffffffffffffffffffffffffffff16905090565b61210580620004366000396000f3fe6080604052600436106100a75760003560e01c8063921a762011610064578063921a7620146102b257806393846ea71461030b578063941b055b1461033957806395a0f9c71461037e578063a9fd8ed1146103b9578063f2fde38b146103e4576100a7565b806318e0b13e146100ac578063242155cb146101035780634579268a14610152578063715018a6146101ed5780638da5cb5b146102045780638f4725a61461025b575b600080fd5b3480156100b857600080fd5b506100c1610435565b604051808273ffffffffffffffffffffffffffffffffffffffff1673ffffffffffffffffffffffffffffffffffffffff16815260200191505060405180910390f35b34801561010f57600080fd5b5061013c6004803603602081101561012657600080fd5b810190808035906020019092919050505061045b565b6040518082815260200191505060405180910390f35b34801561015e57600080fd5b5061018b6004803603602081101561017557600080fd5b8101908080359060200190929190505050610684565b604051808673ffffffffffffffffffffffffffffffffffffffff1673ffffffffffffffffffffffffffffffffffffffff168152602001858152602001848152602001838152602001821515151581526020019550505050505060405180910390f35b3480156101f957600080fd5b506102026106ff565b005b34801561021057600080fd5b5061021961086d565b604051808273ffffffffffffffffffffffffffffffffffffffff1673ffffffffffffffffffffffffffffffffffffffff16815260200191505060405180910390f35b34801561026757600080fd5b50610270610896565b604051808273ffffffffffffffffffffffffffffffffffffffff1673ffffffffffffffffffffffffffffffffffffffff16815260200191505060405180910390f35b3480156102be57600080fd5b506102f5600480360360408110156102d557600080fd5b8101908080359060200190929190803590602001909291905050506108bc565b6040518082815260200191505060405180910390f35b6103376004803603602081101561032157600080fd5b8101908080359060200190929190505050610e4a565b005b34801561034557600080fd5b5061037c6004803603604081101561035c57600080fd5b810190808035906020019092919080359060200190929190505050611279565b005b34801561038a57600080fd5b506103b7600480360360208110156103a157600080fd5b810190808035906020019092919050505061188e565b005b3480156103c557600080fd5b506103ce611b23565b6040518082815260200191505060405180910390f35b3480156103f057600080fd5b506104336004803603602081101561040757600080fd5b81019080803573ffffffffffffffffffffffffffffffffffffffff169060200190929190505050611b34565b005b600160009054906101000a900473ffffffffffffffffffffffffffffffffffffffff1681565b6000610465611d27565b73ffffffffffffffffffffffffffffffffffffffff1661048361086d565b73ffffffffffffffffffffffffffffffffffffffff161461050c576040517f08c379a00000000000000000000000000000000000000000000000000000000081526004018080602001828103825260208152602001807f4f776e61626c653a2063616c6c6572206973206e6f7420746865206f776e657281525060200191505060405180910390fd5b600a60055410610567576040517f08c379a00000000000000000000000000000000000000000000000000000000081526004018080602001828103825260268152602001806120346026913960400191505060405180910390fd5b6005600081548092919060010191905055506000600160009054906101000a900473ffffffffffffffffffffffffffffffffffffffff1673ffffffffffffffffffffffffffffffffffffffff16632f782dda846000806000336040518663ffffffff1660e01b8152600401808681526020018581526020018481526020018381526020018273ffffffffffffffffffffffffffffffffffffffff1673ffffffffffffffffffffffffffffffffffffffff16815260200195505050505050602060405180830381600087803b15801561063e57600080fd5b505af1158015610652573d6000803e3d6000fd5b505050506040513d602081101561066857600080fd5b8101908080519060200190929190505050905080915050919050565b6000806000806000806004600088815260200190815260200160002090508060000160009054906101000a900473ffffffffffffffffffffffffffffffffffffffff168160010154826002015483600301548460040160009054906101000a900460ff16849450955095509550955095505091939590929450565b610707611d27565b73ffffffffffffffffffffffffffffffffffffffff1661072561086d565b73ffffffffffffffffffffffffffffffffffffffff16146107ae576040517f08c379a00000000000000000000000000000000000000000000000000000000081526004018080602001828103825260208152602001807f4f776e61626c653a2063616c6c6572206973206e6f7420746865206f776e657281525060200191505060405180910390fd5b600073ffffffffffffffffffffffffffffffffffffffff166000809054906101000a900473ffffffffffffffffffffffffffffffffffffffff1673ffffffffffffffffffffffffffffffffffffffff167f8be0079c531659141344cd1fd0a4f28419497f9722a3daafe3b4186f6b6457e060405160405180910390a360008060006101000a81548173ffffffffffffffffffffffffffffffffffffffff021916908373ffffffffffffffffffffffffffffffffffffffff160217905550565b60008060009054906101000a900473ffffffffffffffffffffffffffffffffffffffff16905090565b600660009054906101000a900473ffffffffffffffffffffffffffffffffffffffff1681565b600060011515600160009054906101000a900473ffffffffffffffffffffffffffffffffffffffff1673ffffffffffffffffffffffffffffffffffffffff1663f8ef871c33866040518363ffffffff1660e01b8152600401808373ffffffffffffffffffffffffffffffffffffffff1673ffffffffffffffffffffffffffffffffffffffff1681526020018281526020019250505060206040518083038186803b15801561096957600080fd5b505afa15801561097d573d6000803e3d6000fd5b505050506040513d602081101561099357600080fd5b8101908080519060200190929190505050151514610a19576040517f08c379a000000000000000000000000000000000000000000000000000000000815260040180806020018281038252601e8152602001807f546865207573657220646f65736e2774206f776e2074686520746f6b656e000081525060200191505060405180910390fd5b60011515600160009054906101000a900473ffffffffffffffffffffffffffffffffffffffff1673ffffffffffffffffffffffffffffffffffffffff1663f8ef871c33856040518363ffffffff1660e01b8152600401808373ffffffffffffffffffffffffffffffffffffffff1673ffffffffffffffffffffffffffffffffffffffff1681526020018281526020019250505060206040518083038186803b158015610ac457600080fd5b505afa158015610ad8573d6000803e3d6000fd5b505050506040513d6020811015610aee57600080fd5b8101908080519060200190929190505050151514610b74576040517f08c379a000000000000000000000000000000000000000000000000000000000815260040180806020018281038252601e8152602001807f546865207573657220646f65736e2774206f776e2074686520746f6b656e000081525060200191505060405180910390fd5b600080600160009054906101000a900473ffffffffffffffffffffffffffffffffffffffff1673ffffffffffffffffffffffffffffffffffffffff1663ba269271866040518263ffffffff1660e01b81526004018082815260200191505060806040518083038186803b158015610bea57600080fd5b505afa158015610bfe573d6000803e3d6000fd5b505050506040513d6080811015610c1457600080fd5b8101908080519060200190929190805190602001909291908051906020019092919080519060200190929190505050935050509150600080600160009054906101000a900473ffffffffffffffffffffffffffffffffffffffff1673ffffffffffffffffffffffffffffffffffffffff1663ba269271876040518263ffffffff1660e01b81526004018082815260200191505060806040518083038186803b158015610cbf57600080fd5b505afa158015610cd3573d6000803e3d6000fd5b505050506040513d6080811015610ce957600080fd5b81019080805190602001909291908051906020019092919080519060200190929190805190602001909291905050509350505091506000610d2a8584611d2f565b90506000610d388584611e6e565b90506000600160009054906101000a900473ffffffffffffffffffffffffffffffffffffffff1673ffffffffffffffffffffffffffffffffffffffff16632f782dda848b8d86336040518663ffffffff1660e01b8152600401808681526020018581526020018481526020018381526020018273ffffffffffffffffffffffffffffffffffffffff1673ffffffffffffffffffffffffffffffffffffffff16815260200195505050505050602060405180830381600087803b158015610dfd57600080fd5b505af1158015610e11573d6000803e3d6000fd5b505050506040513d6020811015610e2757600080fd5b810190808051906020019092919050505090508097505050505050505092915050565b610e52611f91565b600460008381526020019081526020016000206040518060a00160405290816000820160009054906101000a900473ffffffffffffffffffffffffffffffffffffffff1673ffffffffffffffffffffffffffffffffffffffff1673ffffffffffffffffffffffffffffffffffffffff1681526020016001820154815260200160028201548152602001600382015481526020016004820160009054906101000a900460ff161515151581525050905080602001513414610f5d576040517f08c379a000000000000000000000000000000000000000000000000000000000815260040180806020018281038252602e815260200180612080602e913960400191505060405180910390fd5b600115158160800151151514610fdb576040517f08c379a00000000000000000000000000000000000000000000000000000000081526004018080602001828103825260128152602001807f6e6f206f6666657220697320616374697665000000000000000000000000000081525060200191505060405180910390fd5b60046000838152602001908152602001600020600080820160006101000a81549073ffffffffffffffffffffffffffffffffffffffff02191690556001820160009055600282016000905560038201600090556004820160006101000a81549060ff021916905550506000600382604001518154811061105757fe5b906000526020600020906005020160040160006101000a81548160ff021916908315150217905550806000015173ffffffffffffffffffffffffffffffffffffffff166108fc82602001519081150290604051600060405180830381858888f193505050501580156110cd573d6000803e3d6000fd5b50600160009054906101000a900473ffffffffffffffffffffffffffffffffffffffff1673ffffffffffffffffffffffffffffffffffffffff166323b872dd826000015133856040518463ffffffff1660e01b8152600401808473ffffffffffffffffffffffffffffffffffffffff1673ffffffffffffffffffffffffffffffffffffffff1681526020018373ffffffffffffffffffffffffffffffffffffffff1673ffffffffffffffffffffffffffffffffffffffff1681526020018281526020019350505050600060405180830381600087803b1580156111af57600080fd5b505af11580156111c3573d6000803e3d6000fd5b505050506111d16002611ec7565b7fd99e4fad9ad6313b1feb588fa8e605e3a9873172f2024330c35dd2b4041a4386338360405180806020018473ffffffffffffffffffffffffffffffffffffffff1673ffffffffffffffffffffffffffffffffffffffff168152602001838152602001828103825260098152602001807f42757920416c69656e0000000000000000000000000000000000000000000000815250602001935050505060405180910390a15050565b3373ffffffffffffffffffffffffffffffffffffffff16600160009054906101000a900473ffffffffffffffffffffffffffffffffffffffff1673ffffffffffffffffffffffffffffffffffffffff16636352211e836040518263ffffffff1660e01b81526004018082815260200191505060206040518083038186803b15801561130357600080fd5b505afa158015611317573d6000803e3d6000fd5b505050506040513d602081101561132d57600080fd5b810190808051906020019092919050505073ffffffffffffffffffffffffffffffffffffffff16146113c7576040517f08c379a000000000000000000000000000000000000000000000000000000000815260040180806020018281038252601b8152602001807f6f6e6c79206f776e65722063616e2073656c6c20746f6b656e4964000000000081525060200191505060405180910390fd5b600015156004600083815260200190815260200160002060040160009054906101000a900460ff16151514611464576040517f08c379a00000000000000000000000000000000000000000000000000000000081526004018080602001828103825260148152602001807f6f6666657220616c72656164792065786973747300000000000000000000000081525060200191505060405180910390fd5b600160009054906101000a900473ffffffffffffffffffffffffffffffffffffffff1673ffffffffffffffffffffffffffffffffffffffff1663e985e9c533306040518363ffffffff1660e01b8152600401808373ffffffffffffffffffffffffffffffffffffffff1673ffffffffffffffffffffffffffffffffffffffff1681526020018273ffffffffffffffffffffffffffffffffffffffff1673ffffffffffffffffffffffffffffffffffffffff1681526020019250505060206040518083038186803b15801561153757600080fd5b505afa15801561154b573d6000803e3d6000fd5b505050506040513d602081101561156157600080fd5b81019080805190602001909291905050506115e4576040517f08c379a00000000000000000000000000000000000000000000000000000000081526004018080602001828103825260188152602001807f636f6e7472616374206973206e6f7420617070726f766564000000000000000081525060200191505060405180910390fd5b6000821161163d576040517f08c379a00000000000000000000000000000000000000000000000000000000081526004018080602001828103825260228152602001806120ae6022913960400191505060405180910390fd5b611645611f91565b6040518060a001604052803373ffffffffffffffffffffffffffffffffffffffff1681526020018481526020016003805490508152602001838152602001600115158152509050806004600084815260200190815260200160002060008201518160000160006101000a81548173ffffffffffffffffffffffffffffffffffffffff021916908373ffffffffffffffffffffffffffffffffffffffff16021790555060208201518160010155604082015181600201556060820151816003015560808201518160040160006101000a81548160ff021916908315150217905550905050600381908060018154018082558091505060019003906000526020600020906005020160009091909190915060008201518160000160006101000a81548173ffffffffffffffffffffffffffffffffffffffff021916908373ffffffffffffffffffffffffffffffffffffffff16021790555060208201518160010155604082015181600201556060820151816003015560808201518160040160006101000a81548160ff02191690831515021790555050506117e56002611eea565b7fd99e4fad9ad6313b1feb588fa8e605e3a9873172f2024330c35dd2b4041a4386338360405180806020018473ffffffffffffffffffffffffffffffffffffffff1673ffffffffffffffffffffffffffffffffffffffff1681526020018381526020018281038252600c8152602001807f437265617465206f666665720000000000000000000000000000000000000000815250602001935050505060405180910390a1505050565b611896611f91565b600460008381526020019081526020016000206040518060a00160405290816000820160009054906101000a900473ffffffffffffffffffffffffffffffffffffffff1673ffffffffffffffffffffffffffffffffffffffff1673ffffffffffffffffffffffffffffffffffffffff1681526020016001820154815260200160028201548152602001600382015481526020016004820160009054906101000a900460ff16151515158152505090503373ffffffffffffffffffffffffffffffffffffffff16816000015173ffffffffffffffffffffffffffffffffffffffff16146119cd576040517f08c379a0000000000000000000000000000000000000000000000000000000008152600401808060200182810382526038815260200180611ffc6038913960400191505060405180910390fd5b600060038260400151815481106119e057fe5b906000526020600020906005020160040160006101000a81548160ff02191690831515021790555060046000838152602001908152602001600020600080820160006101000a81549073ffffffffffffffffffffffffffffffffffffffff02191690556001820160009055600282016000905560038201600090556004820160006101000a81549060ff02191690555050611a7b6002611ec7565b7fd99e4fad9ad6313b1feb588fa8e605e3a9873172f2024330c35dd2b4041a4386338360405180806020018473ffffffffffffffffffffffffffffffffffffffff1673ffffffffffffffffffffffffffffffffffffffff1681526020018381526020018281038252600c8152602001807f52656d6f7665206f666665720000000000000000000000000000000000000000815250602001935050505060405180910390a15050565b6000611b2f6002611f00565b905090565b611b3c611d27565b73ffffffffffffffffffffffffffffffffffffffff16611b5a61086d565b73ffffffffffffffffffffffffffffffffffffffff1614611be3576040517f08c379a00000000000000000000000000000000000000000000000000000000081526004018080602001828103825260208152602001807f4f776e61626c653a2063616c6c6572206973206e6f7420746865206f776e657281525060200191505060405180910390fd5b600073ffffffffffffffffffffffffffffffffffffffff168173ffffffffffffffffffffffffffffffffffffffff161415611c69576040517f08c379a000000000000000000000000000000000000000000000000000000000815260040180806020018281038252602681526020018061205a6026913960400191505060405180910390fd5b8073ffffffffffffffffffffffffffffffffffffffff166000809054906101000a900473ffffffffffffffffffffffffffffffffffffffff1673ffffffffffffffffffffffffffffffffffffffff167f8be0079c531659141344cd1fd0a4f28419497f9722a3daafe3b4186f6b6457e060405160405180910390a3806000806101000a81548173ffffffffffffffffffffffffffffffffffffffff021916908373ffffffffffffffffffffffffffffffffffffffff16021790555050565b600033905090565b600080611d3a611fd8565b600060079050600060ff4281611d4c57fe5b0690506000809050600190505b60808111611de5576000818360ff161614611d965760648781611d7857fe5b0660ff16848460088110611d8857fe5b602002018181525050611dba565b60648881611da057fe5b0660ff16848460088110611db057fe5b6020020181815250505b60648781611dc457fe5b04965060648881611dd157fe5b049750600183039250600281029050611d59565b600060078360ff1681611df457fe5b06905060638360ff1681611e0457fe5b0660ff16858260ff1660088110611e1757fe5b602002018181525050600091505b6008821015611e5f57848260088110611e3a57fe5b60200201518601955060078214611e52576064860295505b8180600101925050611e25565b85965050505050505092915050565b6000806000905082841015611e955760018301905060028181611e8d57fe5b049050611ebd565b82841115611eb55760018401905060028181611ead57fe5b049050611ebc565b6001830190505b5b8091505092915050565b611edf60018260000154611f0e90919063ffffffff16565b816000018190555050565b6001816000016000828254019250508190555050565b600081600001549050919050565b600082821115611f86576040517f08c379a000000000000000000000000000000000000000000000000000000000815260040180806020018281038252601e8152602001807f536166654d6174683a207375627472616374696f6e206f766572666c6f77000081525060200191505060405180910390fd5b818303905092915050565b6040518060a00160405280600073ffffffffffffffffffffffffffffffffffffffff1681526020016000815260200160008152602001600081526020016000151581525090565b60405180610100016040528060089060208202803883398082019150509050509056fe596f752073686f756c64206f776e2074686520616c69656e20746f2062652061626c6520746f2072656d6f76652074686973206f666665724d6178696d756d20616d6f756e74206f6620616c69656e732047656e203020726561636865644f776e61626c653a206e6577206f776e657220697320746865207a65726f206164647265737354686520707269636520616d6f756e74206d757374206265207468652073616d65206173207468652070726963656f66666572207072696365206d7573742062652067726561746572207468616e2030a26469706673582212208e7d49ada76b86fbb0ede922c9c7e77e58a7ace70bbf87e3190dbbfa97e98eae64736f6c634300060200334d6178696d756d20616d6f756e74206f6620616c69656e732047656e20302072656163686564",
  "source": "// SPDX-License-Identifier: MIT\r\npragma solidity ^0.6.0;\r\n\r\nimport \"@openzeppelin/contracts/access/Ownable.sol\";\r\nimport \"./AlienMarketPlace.sol\";\r\n\r\n\r\ncontract AlienCore is Ownable, AlienMarketPlace{\r\n\r\n  uint256 private constant CREATION_LIMIT_GEN0 = 10;\r\n  // Counts the number of cats the contract owner has created.\r\n  uint256 private gen0Counter;\r\n  address public IAlienAddress;\r\n\r\n  constructor(address _AlienERC721) public {\r\n    IAlienAddress = _AlienERC721;\r\n    aln721 = IAlienERC721(IAlienAddress);\r\n    // We are creating the first alien at index 0\r\n    createAlienGen0(0);\r\n\r\n  }\r\n/*\r\n*       we get a\r\n*\r\n*       Basic binary operation\r\n*\r\n*       >>> '{0:08b}'.format(255 & 1)\r\n*       '00000001'\r\n*       >>> '{0:08b}'.format(255 & 2)\r\n*       '00000010'\r\n*       >>> '{0:08b}'.format(255 & 4)\r\n*       '00000100'\r\n*       >>> '{0:08b}'.format(255 & 8)\r\n*       '00001000'\r\n*       >>> '{0:08b}'.format(255 & 16)\r\n*       '00010000'\r\n*       >>> '{0:08b}'.format(255 & 32)\r\n*       '00100000'\r\n*       >>> '{0:08b}'.format(255 & 64)\r\n*       '01000000'\r\n*       >>> '{0:08b}'.format(255 & 128)\r\n*       '10000000'\r\n*\r\n*       So we use a mask on our random number to check if we will use the mumID or the dadId\r\n*\r\n*       For example 205 is 11001101 in binary So\r\n*       mum - mum - dad -dad -mum - mum - dad - mum\r\n*\r\n*/\r\nfunction getGenesKid(uint256 _Dadgenes, uint256 _Mumgenes) internal view returns (uint256){\r\n    uint256 _geneKid;\r\n    uint256 [8] memory geneArray;\r\n    uint256 index = 7;\r\n    uint8 random = uint8(now % 255);\r\n    uint256 i = 0;\r\n\r\n    for(i = 1; i <= 128; i=i*2){\r\n        /* We are */\r\n        if(random & i != 0){\r\n            geneArray[index] = uint8(_Mumgenes % 100);\r\n        } else {\r\n            geneArray[index] = uint8(_Dadgenes % 100);\r\n        }\r\n        _Mumgenes /= 100;\r\n        _Dadgenes /= 100;\r\n      index -= 1;\r\n    }\r\n\r\n    /* Add a random parameter in a random place */\r\n    uint8 newGeneIndex =  random % 7;\r\n    geneArray[newGeneIndex] = random % 99;\r\n\r\n    /* We reverse the DNa in the right order */\r\n    for (i = 0 ; i < 8; i++ ){\r\n      _geneKid += geneArray[i];\r\n      if(i != 7){\r\n          _geneKid *= 100;\r\n      }\r\n    }\r\n    return _geneKid;\r\n  }\r\n\r\n  function getGenerationKid(uint256 _DadGeneration, uint256 _MumGeneration) internal pure returns (uint256){\r\n    uint256 _kidGen = 0;\r\n    if (_DadGeneration < _MumGeneration){\r\n      _kidGen = _MumGeneration + 1;\r\n      _kidGen /= 2;\r\n    } else if (_DadGeneration > _MumGeneration){\r\n      _kidGen = _DadGeneration + 1;\r\n      _kidGen /= 2;\r\n    } else{\r\n      _kidGen = _MumGeneration + 1;\r\n    }\r\n    return _kidGen;\r\n  }\r\n\r\n  function cloneAlien(uint256 _dadId, uint256 _mumId) public returns(uint256){\r\n      require(aln721.isApprovedOwner(msg.sender, _dadId) == true, \"The user doesn't own the token\");\r\n      require(aln721.isApprovedOwner(msg.sender, _mumId) == true, \"The user doesn't own the token\");\r\n\r\n      (uint256 Dadgenes,,,uint256 DadGeneration ) = aln721.getAlien(_dadId);\r\n      (uint256 Mumgenes,,,uint256 MumGeneration ) = aln721.getAlien(_mumId);\r\n\r\n      uint256 _geneKid = getGenesKid(Dadgenes, Mumgenes);\r\n      uint256 _kidGen = getGenerationKid(DadGeneration, MumGeneration);\r\n\r\n      uint256 _newAlien = aln721.createAlien(_geneKid, _mumId, _dadId, _kidGen, msg.sender);\r\n      return _newAlien;\r\n  }\r\n\r\n  function createAlienGen0(uint256 genes) public onlyOwner returns(uint256){\r\n      require(gen0Counter < CREATION_LIMIT_GEN0, \"Maximum amount of aliens Gen 0 reached\");\r\n      gen0Counter++;\r\n      uint256 _newAlien = aln721.createAlien(genes, 0, 0, 0, msg.sender);\r\n      //Gen0 have no owners they are own by the contract\r\n      return _newAlien;\r\n  }\r\n\r\n}\r\n",
  "sourcePath": "D:\\github\\cryptoaliens\\solidity\\contracts\\AlienCore.sol",
  "compiler": {
    "name": "solc",
    "version": "0.6.2+commit.bacdbe57.Emscripten.clang"
  },
  "schemaVersion": "3.2.0",
  "updatedAt": "2021-02-17T01:07:09.618Z",
  "networkType": "ethereum",
  "devdoc": {
    "methods": {
      "owner()": {
        "details": "Returns the address of the current owner."
      },
      "removeOffer(uint256)": {
        "params": {
          "_tokenId": "the token ID for the cat we remove from marketplace "
        }
      },
      "renounceOwnership()": {
        "details": "Leaves the contract without owner. It will not be possible to call `onlyOwner` functions anymore. Can only be called by the current owner.      * NOTE: Renouncing ownership will leave the contract without an owner, thereby removing any functionality that is only available to the owner."
      },
      "setOffer(uint256,uint256)": {
        "params": {
          "_price": "the ethereum price in wei",
          "_tokenId": "the token ID to set offer for "
        }
      },
      "transferOwnership(address)": {
        "details": "Transfers ownership of the contract to a new account (`newOwner`). Can only be called by the current owner."
      }
    }
  },
  "userdoc": {
    "methods": {
      "removeOffer(uint256)": {
        "notice": "removes cat of tokenId from the Adopt Kitties marketplace"
      },
      "setOffer(uint256,uint256)": {
        "notice": "Creates a new offer for _tokenId for the price _price."
      }
    }
  }
}