{
  "contractName": "AlienMarketPlace",
  "abi": [
    {
      "inputs": [
        {
          "internalType": "address",
          "name": "_AlienERC721",
          "type": "address"
        }
      ],
      "stateMutability": "nonpayable",
      "type": "constructor"
    },
    {
      "anonymous": false,
      "inputs": [
        {
          "indexed": false,
          "internalType": "string",
          "name": "TxType",
          "type": "string"
        },
        {
          "indexed": false,
          "internalType": "address",
          "name": "owner",
          "type": "address"
        },
        {
          "indexed": false,
          "internalType": "uint256",
          "name": "tokenId",
          "type": "uint256"
        }
      ],
      "name": "MarketTransaction",
      "type": "event"
    },
    {
      "anonymous": false,
      "inputs": [
        {
          "indexed": true,
          "internalType": "address",
          "name": "previousOwner",
          "type": "address"
        },
        {
          "indexed": true,
          "internalType": "address",
          "name": "newOwner",
          "type": "address"
        }
      ],
      "name": "OwnershipTransferred",
      "type": "event"
    },
    {
      "inputs": [],
      "name": "IAlienNFT",
      "outputs": [
        {
          "internalType": "address",
          "name": "",
          "type": "address"
        }
      ],
      "stateMutability": "view",
      "type": "function",
      "constant": true
    },
    {
      "inputs": [],
      "name": "aln721",
      "outputs": [
        {
          "internalType": "contract IAlienERC721",
          "name": "",
          "type": "address"
        }
      ],
      "stateMutability": "view",
      "type": "function",
      "constant": true
    },
    {
      "inputs": [],
      "name": "owner",
      "outputs": [
        {
          "internalType": "address",
          "name": "",
          "type": "address"
        }
      ],
      "stateMutability": "view",
      "type": "function",
      "constant": true
    },
    {
      "inputs": [],
      "name": "renounceOwnership",
      "outputs": [],
      "stateMutability": "nonpayable",
      "type": "function"
    },
    {
      "inputs": [
        {
          "internalType": "address",
          "name": "newOwner",
          "type": "address"
        }
      ],
      "name": "transferOwnership",
      "outputs": [],
      "stateMutability": "nonpayable",
      "type": "function"
    },
    {
      "inputs": [],
      "name": "totalOffers",
      "outputs": [
        {
          "internalType": "uint256",
          "name": "",
          "type": "uint256"
        }
      ],
      "stateMutability": "view",
      "type": "function",
      "constant": true
    },
    {
      "inputs": [
        {
          "internalType": "uint256",
          "name": "_tokenId",
          "type": "uint256"
        }
      ],
      "name": "getOffer",
      "outputs": [
        {
          "internalType": "address",
          "name": "seller",
          "type": "address"
        },
        {
          "internalType": "uint256",
          "name": "price",
          "type": "uint256"
        },
        {
          "internalType": "uint256",
          "name": "index",
          "type": "uint256"
        },
        {
          "internalType": "uint256",
          "name": "tokenId",
          "type": "uint256"
        },
        {
          "internalType": "bool",
          "name": "active",
          "type": "bool"
        }
      ],
      "stateMutability": "view",
      "type": "function",
      "constant": true
    },
    {
      "inputs": [
        {
          "internalType": "uint256",
          "name": "_price",
          "type": "uint256"
        },
        {
          "internalType": "uint256",
          "name": "_tokenId",
          "type": "uint256"
        }
      ],
      "name": "setOffer",
      "outputs": [],
      "stateMutability": "nonpayable",
      "type": "function"
    },
    {
      "inputs": [
        {
          "internalType": "uint256",
          "name": "_tokenId",
          "type": "uint256"
        }
      ],
      "name": "removeOffer",
      "outputs": [],
      "stateMutability": "nonpayable",
      "type": "function"
    },
    {
      "inputs": [
        {
          "internalType": "uint256",
          "name": "_tokenId",
          "type": "uint256"
        }
      ],
      "name": "buyAlien",
      "outputs": [],
      "stateMutability": "payable",
      "type": "function",
      "payable": true
    }
  ],
  "bytecode": "0x608060405234801561001057600080fd5b506040516118623803806118628339818101604052602081101561003357600080fd5b8101908080519060200190929190505050600061005461019c60201b60201c565b9050806000806101000a81548173ffffffffffffffffffffffffffffffffffffffff021916908373ffffffffffffffffffffffffffffffffffffffff1602179055508073ffffffffffffffffffffffffffffffffffffffff16600073ffffffffffffffffffffffffffffffffffffffff167f8be0079c531659141344cd1fd0a4f28419497f9722a3daafe3b4186f6b6457e060405160405180910390a35080600360006101000a81548173ffffffffffffffffffffffffffffffffffffffff021916908373ffffffffffffffffffffffffffffffffffffffff160217905550600360009054906101000a900473ffffffffffffffffffffffffffffffffffffffff16600160006101000a81548173ffffffffffffffffffffffffffffffffffffffff021916908373ffffffffffffffffffffffffffffffffffffffff160217905550506101a4565b600033905090565b6116af806101b36000396000f3fe6080604052600436106100915760003560e01c806393846ea71161005957806393846ea71461024d578063941b055b1461027b57806395a0f9c7146102c0578063a9fd8ed1146102fb578063f2fde38b1461032657610091565b806318e0b13e146100965780634579268a146100ed578063715018a6146101885780638da5cb5b1461019f5780639134f73c146101f6575b600080fd5b3480156100a257600080fd5b506100ab610377565b604051808273ffffffffffffffffffffffffffffffffffffffff1673ffffffffffffffffffffffffffffffffffffffff16815260200191505060405180910390f35b3480156100f957600080fd5b506101266004803603602081101561011057600080fd5b810190808035906020019092919050505061039d565b604051808673ffffffffffffffffffffffffffffffffffffffff1673ffffffffffffffffffffffffffffffffffffffff168152602001858152602001848152602001838152602001821515151581526020019550505050505060405180910390f35b34801561019457600080fd5b5061019d610418565b005b3480156101ab57600080fd5b506101b4610586565b604051808273ffffffffffffffffffffffffffffffffffffffff1673ffffffffffffffffffffffffffffffffffffffff16815260200191505060405180910390f35b34801561020257600080fd5b5061020b6105af565b604051808273ffffffffffffffffffffffffffffffffffffffff1673ffffffffffffffffffffffffffffffffffffffff16815260200191505060405180910390f35b6102796004803603602081101561026357600080fd5b81019080803590602001909291905050506105d5565b005b34801561028757600080fd5b506102be6004803603604081101561029e57600080fd5b810190808035906020019092919080359060200190929190505050610a04565b005b3480156102cc57600080fd5b506102f9600480360360208110156102e357600080fd5b8101908080359060200190929190505050611019565b005b34801561030757600080fd5b506103106112ae565b6040518082815260200191505060405180910390f35b34801561033257600080fd5b506103756004803603602081101561034957600080fd5b81019080803573ffffffffffffffffffffffffffffffffffffffff1690602001909291905050506112bf565b005b600160009054906101000a900473ffffffffffffffffffffffffffffffffffffffff1681565b6000806000806000806005600088815260200190815260200160002090508060000160009054906101000a900473ffffffffffffffffffffffffffffffffffffffff168160010154826002015483600301548460040160009054906101000a900460ff16849450955095509550955095505091939590929450565b6104206114b2565b73ffffffffffffffffffffffffffffffffffffffff1661043e610586565b73ffffffffffffffffffffffffffffffffffffffff16146104c7576040517f08c379a00000000000000000000000000000000000000000000000000000000081526004018080602001828103825260208152602001807f4f776e61626c653a2063616c6c6572206973206e6f7420746865206f776e657281525060200191505060405180910390fd5b600073ffffffffffffffffffffffffffffffffffffffff166000809054906101000a900473ffffffffffffffffffffffffffffffffffffffff1673ffffffffffffffffffffffffffffffffffffffff167f8be0079c531659141344cd1fd0a4f28419497f9722a3daafe3b4186f6b6457e060405160405180910390a360008060006101000a81548173ffffffffffffffffffffffffffffffffffffffff021916908373ffffffffffffffffffffffffffffffffffffffff160217905550565b60008060009054906101000a900473ffffffffffffffffffffffffffffffffffffffff16905090565b600360009054906101000a900473ffffffffffffffffffffffffffffffffffffffff1681565b6105dd611584565b600560008381526020019081526020016000206040518060a00160405290816000820160009054906101000a900473ffffffffffffffffffffffffffffffffffffffff1673ffffffffffffffffffffffffffffffffffffffff1673ffffffffffffffffffffffffffffffffffffffff1681526020016001820154815260200160028201548152602001600382015481526020016004820160009054906101000a900460ff1615151515815250509050806020015134146106e8576040517f08c379a000000000000000000000000000000000000000000000000000000000815260040180806020018281038252602e81526020018061162a602e913960400191505060405180910390fd5b600115158160800151151514610766576040517f08c379a00000000000000000000000000000000000000000000000000000000081526004018080602001828103825260128152602001807f6e6f206f6666657220697320616374697665000000000000000000000000000081525060200191505060405180910390fd5b60056000838152602001908152602001600020600080820160006101000a81549073ffffffffffffffffffffffffffffffffffffffff02191690556001820160009055600282016000905560038201600090556004820160006101000a81549060ff02191690555050600060048260400151815481106107e257fe5b906000526020600020906005020160040160006101000a81548160ff021916908315150217905550806000015173ffffffffffffffffffffffffffffffffffffffff166108fc82602001519081150290604051600060405180830381858888f19350505050158015610858573d6000803e3d6000fd5b50600160009054906101000a900473ffffffffffffffffffffffffffffffffffffffff1673ffffffffffffffffffffffffffffffffffffffff166323b872dd826000015133856040518463ffffffff1660e01b8152600401808473ffffffffffffffffffffffffffffffffffffffff1673ffffffffffffffffffffffffffffffffffffffff1681526020018373ffffffffffffffffffffffffffffffffffffffff1673ffffffffffffffffffffffffffffffffffffffff1681526020018281526020019350505050600060405180830381600087803b15801561093a57600080fd5b505af115801561094e573d6000803e3d6000fd5b5050505061095c60026114ba565b7fd99e4fad9ad6313b1feb588fa8e605e3a9873172f2024330c35dd2b4041a4386338360405180806020018473ffffffffffffffffffffffffffffffffffffffff1673ffffffffffffffffffffffffffffffffffffffff168152602001838152602001828103825260098152602001807f42757920416c69656e0000000000000000000000000000000000000000000000815250602001935050505060405180910390a15050565b3373ffffffffffffffffffffffffffffffffffffffff16600160009054906101000a900473ffffffffffffffffffffffffffffffffffffffff1673ffffffffffffffffffffffffffffffffffffffff16636352211e836040518263ffffffff1660e01b81526004018082815260200191505060206040518083038186803b158015610a8e57600080fd5b505afa158015610aa2573d6000803e3d6000fd5b505050506040513d6020811015610ab857600080fd5b810190808051906020019092919050505073ffffffffffffffffffffffffffffffffffffffff1614610b52576040517f08c379a000000000000000000000000000000000000000000000000000000000815260040180806020018281038252601b8152602001807f6f6e6c79206f776e65722063616e2073656c6c20746f6b656e4964000000000081525060200191505060405180910390fd5b600015156005600083815260200190815260200160002060040160009054906101000a900460ff16151514610bef576040517f08c379a00000000000000000000000000000000000000000000000000000000081526004018080602001828103825260148152602001807f6f6666657220616c72656164792065786973747300000000000000000000000081525060200191505060405180910390fd5b600160009054906101000a900473ffffffffffffffffffffffffffffffffffffffff1673ffffffffffffffffffffffffffffffffffffffff1663e985e9c533306040518363ffffffff1660e01b8152600401808373ffffffffffffffffffffffffffffffffffffffff1673ffffffffffffffffffffffffffffffffffffffff1681526020018273ffffffffffffffffffffffffffffffffffffffff1673ffffffffffffffffffffffffffffffffffffffff1681526020019250505060206040518083038186803b158015610cc257600080fd5b505afa158015610cd6573d6000803e3d6000fd5b505050506040513d6020811015610cec57600080fd5b8101908080519060200190929190505050610d6f576040517f08c379a00000000000000000000000000000000000000000000000000000000081526004018080602001828103825260188152602001807f636f6e7472616374206973206e6f7420617070726f766564000000000000000081525060200191505060405180910390fd5b60008211610dc8576040517f08c379a00000000000000000000000000000000000000000000000000000000081526004018080602001828103825260228152602001806116586022913960400191505060405180910390fd5b610dd0611584565b6040518060a001604052803373ffffffffffffffffffffffffffffffffffffffff1681526020018481526020016004805490508152602001838152602001600115158152509050806005600084815260200190815260200160002060008201518160000160006101000a81548173ffffffffffffffffffffffffffffffffffffffff021916908373ffffffffffffffffffffffffffffffffffffffff16021790555060208201518160010155604082015181600201556060820151816003015560808201518160040160006101000a81548160ff021916908315150217905550905050600481908060018154018082558091505060019003906000526020600020906005020160009091909190915060008201518160000160006101000a81548173ffffffffffffffffffffffffffffffffffffffff021916908373ffffffffffffffffffffffffffffffffffffffff16021790555060208201518160010155604082015181600201556060820151816003015560808201518160040160006101000a81548160ff0219169083151502179055505050610f7060026114dd565b7fd99e4fad9ad6313b1feb588fa8e605e3a9873172f2024330c35dd2b4041a4386338360405180806020018473ffffffffffffffffffffffffffffffffffffffff1673ffffffffffffffffffffffffffffffffffffffff1681526020018381526020018281038252600c8152602001807f437265617465206f666665720000000000000000000000000000000000000000815250602001935050505060405180910390a1505050565b611021611584565b600560008381526020019081526020016000206040518060a00160405290816000820160009054906101000a900473ffffffffffffffffffffffffffffffffffffffff1673ffffffffffffffffffffffffffffffffffffffff1673ffffffffffffffffffffffffffffffffffffffff1681526020016001820154815260200160028201548152602001600382015481526020016004820160009054906101000a900460ff16151515158152505090503373ffffffffffffffffffffffffffffffffffffffff16816000015173ffffffffffffffffffffffffffffffffffffffff1614611158576040517f08c379a00000000000000000000000000000000000000000000000000000000081526004018080602001828103825260388152602001806115cc6038913960400191505060405180910390fd5b6000600482604001518154811061116b57fe5b906000526020600020906005020160040160006101000a81548160ff02191690831515021790555060056000838152602001908152602001600020600080820160006101000a81549073ffffffffffffffffffffffffffffffffffffffff02191690556001820160009055600282016000905560038201600090556004820160006101000a81549060ff0219169055505061120660026114ba565b7fd99e4fad9ad6313b1feb588fa8e605e3a9873172f2024330c35dd2b4041a4386338360405180806020018473ffffffffffffffffffffffffffffffffffffffff1673ffffffffffffffffffffffffffffffffffffffff1681526020018381526020018281038252600c8152602001807f52656d6f7665206f666665720000000000000000000000000000000000000000815250602001935050505060405180910390a15050565b60006112ba60026114f3565b905090565b6112c76114b2565b73ffffffffffffffffffffffffffffffffffffffff166112e5610586565b73ffffffffffffffffffffffffffffffffffffffff161461136e576040517f08c379a00000000000000000000000000000000000000000000000000000000081526004018080602001828103825260208152602001807f4f776e61626c653a2063616c6c6572206973206e6f7420746865206f776e657281525060200191505060405180910390fd5b600073ffffffffffffffffffffffffffffffffffffffff168173ffffffffffffffffffffffffffffffffffffffff1614156113f4576040517f08c379a00000000000000000000000000000000000000000000000000000000081526004018080602001828103825260268152602001806116046026913960400191505060405180910390fd5b8073ffffffffffffffffffffffffffffffffffffffff166000809054906101000a900473ffffffffffffffffffffffffffffffffffffffff1673ffffffffffffffffffffffffffffffffffffffff167f8be0079c531659141344cd1fd0a4f28419497f9722a3daafe3b4186f6b6457e060405160405180910390a3806000806101000a81548173ffffffffffffffffffffffffffffffffffffffff021916908373ffffffffffffffffffffffffffffffffffffffff16021790555050565b600033905090565b6114d26001826000015461150190919063ffffffff16565b816000018190555050565b6001816000016000828254019250508190555050565b600081600001549050919050565b600082821115611579576040517f08c379a000000000000000000000000000000000000000000000000000000000815260040180806020018281038252601e8152602001807f536166654d6174683a207375627472616374696f6e206f766572666c6f77000081525060200191505060405180910390fd5b818303905092915050565b6040518060a00160405280600073ffffffffffffffffffffffffffffffffffffffff168152602001600081526020016000815260200160008152602001600015158152509056fe596f752073686f756c64206f776e2074686520616c69656e20746f2062652061626c6520746f2072656d6f76652074686973206f666665724f776e61626c653a206e6577206f776e657220697320746865207a65726f206164647265737354686520707269636520616d6f756e74206d757374206265207468652073616d65206173207468652070726963656f66666572207072696365206d7573742062652067726561746572207468616e2030a2646970667358221220e87514bf28a925a64e4650884b43589062292c34f1e611c63715f3bf4a74a41264736f6c63430006020033",
  "source": "// SPDX-License-Identifier: MIT\r\npragma solidity ^0.6.0;\r\n\r\nimport \"@openzeppelin/contracts/utils/Counters.sol\";\r\nimport \"@openzeppelin/contracts/access/Ownable.sol\";\r\nimport \"./interfaces/IAlienERC721.sol\";\r\nimport \"./interfaces/IAlienMarketPlace.sol\";\r\n\r\ncontract AlienMarketPlace is Ownable, IAlienMarketPlace{\r\n\r\n  IAlienERC721 public aln721;\r\n  using Counters for Counters.Counter;\r\n  Counters.Counter private activeOffers;\r\n  address public IAlienNFT;\r\n\r\n  constructor(address _AlienERC721) public {\r\n    IAlienNFT = _AlienERC721;\r\n    aln721 = IAlienERC721(IAlienNFT);\r\n  }\r\n\r\n  struct Offer {\r\n      address payable seller;\r\n      uint256 price;\r\n      uint256 index;\r\n      uint256 tokenId;\r\n      bool active;\r\n  }\r\n  Offer[] offers;\r\n\r\n  mapping (uint256 => Offer) tokenIdToOffer;\r\n\r\n  event MarketTransaction(string TxType, address owner, uint256 tokenId);\r\n\r\n  function totalOffers() public view override returns(uint256) {\r\n    return activeOffers.current();\r\n  }\r\n\r\n  function getOffer(uint256 _tokenId)\r\n      public\r\n      view\r\n      override\r\n      returns\r\n  (\r\n    address seller,\r\n    uint256 price,\r\n    uint256 index,\r\n    uint256 tokenId,\r\n    bool active\r\n  ) {\r\n      Offer storage _offer = tokenIdToOffer[_tokenId];\r\n      return (\r\n          _offer.seller,\r\n          _offer.price,\r\n          _offer.index,\r\n          _offer.tokenId,\r\n          _offer.active\r\n      );\r\n  }\r\n\r\n  /** @notice Creates a new offer for _tokenId for the price _price.\r\n  * @param _price the ethereum price in wei\r\n  * @param _tokenId the token ID to set offer for */\r\n  function setOffer(uint256 _price, uint256 _tokenId)\r\n    public\r\n    override\r\n  {\r\n    // only owner can create offer\r\n    require(aln721.ownerOf(_tokenId) == msg.sender, \"only owner can sell tokenId\");\r\n    //There can only be one active offer for a token at a time\r\n    require(tokenIdToOffer[_tokenId].active == false, \"offer already exists\");\r\n    //Marketplace contract (this) needs to be an approved operator when the offer is created\r\n    require(aln721.isApprovedForAll(msg.sender, address(this)), \"contract is not approved\");\r\n    //Offer price must be greater than 0\r\n    require(_price > 0, \"offer price must be greater than 0\");\r\n\r\n    Offer memory _offer = Offer({\r\n        seller: msg.sender,\r\n        price: _price,\r\n        index: offers.length,\r\n        tokenId: _tokenId,\r\n        active: true\r\n    });\r\n\r\n    tokenIdToOffer[_tokenId] = _offer; //update mapping\r\n    offers.push(_offer); //update array\r\n\r\n    activeOffers.increment(); // adds 1 to the activeOffers tracker.\r\n\r\n    emit MarketTransaction(\"Create offer\", msg.sender, _tokenId);\r\n  }\r\n\r\n  /** @notice removes cat of tokenId from the Adopt Kitties marketplace\r\n  * @param _tokenId the token ID for the cat we remove from marketplace */\r\n  function removeOffer(uint256 _tokenId)\r\n    public\r\n    override\r\n  {\r\n    Offer memory _offer = tokenIdToOffer[_tokenId];\r\n    require(_offer.seller == msg.sender, \"You should own the alien to be able to remove this offer\");\r\n\r\n    //change the offer active status from offers array with index tokenIdToOffer[_tokenId].index\r\n    offers[_offer.index].active = false;\r\n    //now delete it from the mapping\r\n    delete tokenIdToOffer[_tokenId];\r\n\r\n    // substract 1 to the activeOffers tracker.\r\n    activeOffers.decrement();\r\n\r\n    emit MarketTransaction(\"Remove offer\", msg.sender, _tokenId);\r\n  }\r\n\r\n  function buyAlien(uint256 _tokenId)\r\n    public\r\n    payable\r\n    override\r\n  {\r\n    Offer memory _offer = tokenIdToOffer[_tokenId];\r\n    require(msg.value == _offer.price, \"The price amount must be the same as the price\");\r\n    //There must be an active _offer for _tokenId\r\n    require(_offer.active == true, \"no offer is active\");\r\n\r\n    delete tokenIdToOffer[_tokenId];\r\n    offers[_offer.index].active = false;\r\n\r\n    _offer.seller.transfer(_offer.price);\r\n    aln721.transferFrom(_offer.seller, msg.sender, _tokenId);\r\n    // substract 1 to the activeOffers tracker.\r\n    activeOffers.decrement();\r\n\r\n    emit MarketTransaction(\"Buy Alien\", msg.sender, _tokenId);\r\n  }\r\n\r\n\r\n}\r\n",
  "sourcePath": "D:\\github\\cryptoaliens\\solidity\\contracts\\AlienMarketPlace.sol",
  "compiler": {
    "name": "solc",
    "version": "0.6.2+commit.bacdbe57.Emscripten.clang"
  },
  "schemaVersion": "3.2.0",
  "updatedAt": "2021-02-18T04:57:23.286Z",
  "networkType": "ethereum",
  "devdoc": {
    "methods": {
      "owner()": {
        "details": "Returns the address of the current owner."
      },
      "removeOffer(uint256)": {
        "params": {
          "_tokenId": "the token ID for the cat we remove from marketplace "
        }
      },
      "renounceOwnership()": {
        "details": "Leaves the contract without owner. It will not be possible to call `onlyOwner` functions anymore. Can only be called by the current owner.      * NOTE: Renouncing ownership will leave the contract without an owner, thereby removing any functionality that is only available to the owner."
      },
      "setOffer(uint256,uint256)": {
        "params": {
          "_price": "the ethereum price in wei",
          "_tokenId": "the token ID to set offer for "
        }
      },
      "transferOwnership(address)": {
        "details": "Transfers ownership of the contract to a new account (`newOwner`). Can only be called by the current owner."
      }
    }
  },
  "userdoc": {
    "methods": {
      "removeOffer(uint256)": {
        "notice": "removes cat of tokenId from the Adopt Kitties marketplace"
      },
      "setOffer(uint256,uint256)": {
        "notice": "Creates a new offer for _tokenId for the price _price."
      }
    }
  }
}