{
  "contractName": "AlienERC721",
  "abi": [
    {
      "inputs": [
        {
          "internalType": "address",
          "name": "_AlienToken",
          "type": "address"
        }
      ],
      "stateMutability": "nonpayable",
      "type": "constructor"
    },
    {
      "anonymous": false,
      "inputs": [
        {
          "indexed": false,
          "internalType": "address",
          "name": "owner",
          "type": "address"
        },
        {
          "indexed": false,
          "internalType": "uint256",
          "name": "alienId",
          "type": "uint256"
        },
        {
          "indexed": false,
          "internalType": "uint32",
          "name": "mumId",
          "type": "uint32"
        },
        {
          "indexed": false,
          "internalType": "uint32",
          "name": "dadId",
          "type": "uint32"
        },
        {
          "indexed": false,
          "internalType": "uint256",
          "name": "genes",
          "type": "uint256"
        }
      ],
      "name": "AlienMinted",
      "type": "event"
    },
    {
      "anonymous": false,
      "inputs": [
        {
          "indexed": true,
          "internalType": "address",
          "name": "owner",
          "type": "address"
        },
        {
          "indexed": true,
          "internalType": "address",
          "name": "approved",
          "type": "address"
        },
        {
          "indexed": true,
          "internalType": "uint256",
          "name": "tokenId",
          "type": "uint256"
        }
      ],
      "name": "Approval",
      "type": "event"
    },
    {
      "anonymous": false,
      "inputs": [
        {
          "indexed": true,
          "internalType": "address",
          "name": "owner",
          "type": "address"
        },
        {
          "indexed": true,
          "internalType": "address",
          "name": "operator",
          "type": "address"
        },
        {
          "indexed": false,
          "internalType": "bool",
          "name": "approved",
          "type": "bool"
        }
      ],
      "name": "ApprovalForAll",
      "type": "event"
    },
    {
      "anonymous": false,
      "inputs": [
        {
          "indexed": true,
          "internalType": "address",
          "name": "previousOwner",
          "type": "address"
        },
        {
          "indexed": true,
          "internalType": "address",
          "name": "newOwner",
          "type": "address"
        }
      ],
      "name": "OwnershipTransferred",
      "type": "event"
    },
    {
      "anonymous": false,
      "inputs": [
        {
          "indexed": false,
          "internalType": "address",
          "name": "account",
          "type": "address"
        }
      ],
      "name": "Paused",
      "type": "event"
    },
    {
      "anonymous": false,
      "inputs": [
        {
          "indexed": true,
          "internalType": "bytes32",
          "name": "role",
          "type": "bytes32"
        },
        {
          "indexed": true,
          "internalType": "bytes32",
          "name": "previousAdminRole",
          "type": "bytes32"
        },
        {
          "indexed": true,
          "internalType": "bytes32",
          "name": "newAdminRole",
          "type": "bytes32"
        }
      ],
      "name": "RoleAdminChanged",
      "type": "event"
    },
    {
      "anonymous": false,
      "inputs": [
        {
          "indexed": true,
          "internalType": "bytes32",
          "name": "role",
          "type": "bytes32"
        },
        {
          "indexed": true,
          "internalType": "address",
          "name": "account",
          "type": "address"
        },
        {
          "indexed": true,
          "internalType": "address",
          "name": "sender",
          "type": "address"
        }
      ],
      "name": "RoleGranted",
      "type": "event"
    },
    {
      "anonymous": false,
      "inputs": [
        {
          "indexed": true,
          "internalType": "bytes32",
          "name": "role",
          "type": "bytes32"
        },
        {
          "indexed": true,
          "internalType": "address",
          "name": "account",
          "type": "address"
        },
        {
          "indexed": true,
          "internalType": "address",
          "name": "sender",
          "type": "address"
        }
      ],
      "name": "RoleRevoked",
      "type": "event"
    },
    {
      "anonymous": false,
      "inputs": [
        {
          "indexed": true,
          "internalType": "address",
          "name": "from",
          "type": "address"
        },
        {
          "indexed": true,
          "internalType": "address",
          "name": "to",
          "type": "address"
        },
        {
          "indexed": true,
          "internalType": "uint256",
          "name": "tokenId",
          "type": "uint256"
        }
      ],
      "name": "Transfer",
      "type": "event"
    },
    {
      "anonymous": false,
      "inputs": [
        {
          "indexed": false,
          "internalType": "address",
          "name": "account",
          "type": "address"
        }
      ],
      "name": "Unpaused",
      "type": "event"
    },
    {
      "inputs": [],
      "name": "DEFAULT_ADMIN_ROLE",
      "outputs": [
        {
          "internalType": "bytes32",
          "name": "",
          "type": "bytes32"
        }
      ],
      "stateMutability": "view",
      "type": "function",
      "constant": true
    },
    {
      "inputs": [],
      "name": "MINTER_ROLE",
      "outputs": [
        {
          "internalType": "bytes32",
          "name": "",
          "type": "bytes32"
        }
      ],
      "stateMutability": "view",
      "type": "function",
      "constant": true
    },
    {
      "inputs": [],
      "name": "OPERATOR_ROLE",
      "outputs": [
        {
          "internalType": "bytes32",
          "name": "",
          "type": "bytes32"
        }
      ],
      "stateMutability": "view",
      "type": "function",
      "constant": true
    },
    {
      "inputs": [],
      "name": "PAUSER_ROLE",
      "outputs": [
        {
          "internalType": "bytes32",
          "name": "",
          "type": "bytes32"
        }
      ],
      "stateMutability": "view",
      "type": "function",
      "constant": true
    },
    {
      "inputs": [
        {
          "internalType": "uint256",
          "name": "",
          "type": "uint256"
        }
      ],
      "name": "alienDetails",
      "outputs": [
        {
          "internalType": "uint256",
          "name": "genes",
          "type": "uint256"
        },
        {
          "internalType": "uint32",
          "name": "mumId",
          "type": "uint32"
        },
        {
          "internalType": "uint32",
          "name": "dadId",
          "type": "uint32"
        },
        {
          "internalType": "uint16",
          "name": "generation",
          "type": "uint16"
        }
      ],
      "stateMutability": "view",
      "type": "function",
      "constant": true
    },
    {
      "inputs": [],
      "name": "aln",
      "outputs": [
        {
          "internalType": "contract IAlienToken",
          "name": "",
          "type": "address"
        }
      ],
      "stateMutability": "view",
      "type": "function",
      "constant": true
    },
    {
      "inputs": [
        {
          "internalType": "address",
          "name": "to",
          "type": "address"
        },
        {
          "internalType": "uint256",
          "name": "tokenId",
          "type": "uint256"
        }
      ],
      "name": "approve",
      "outputs": [],
      "stateMutability": "nonpayable",
      "type": "function"
    },
    {
      "inputs": [
        {
          "internalType": "address",
          "name": "owner",
          "type": "address"
        }
      ],
      "name": "balanceOf",
      "outputs": [
        {
          "internalType": "uint256",
          "name": "",
          "type": "uint256"
        }
      ],
      "stateMutability": "view",
      "type": "function",
      "constant": true
    },
    {
      "inputs": [],
      "name": "baseURI",
      "outputs": [
        {
          "internalType": "string",
          "name": "",
          "type": "string"
        }
      ],
      "stateMutability": "view",
      "type": "function",
      "constant": true
    },
    {
      "inputs": [
        {
          "internalType": "uint256",
          "name": "tokenId",
          "type": "uint256"
        }
      ],
      "name": "burn",
      "outputs": [],
      "stateMutability": "nonpayable",
      "type": "function"
    },
    {
      "inputs": [],
      "name": "gameStopped",
      "outputs": [
        {
          "internalType": "bool",
          "name": "",
          "type": "bool"
        }
      ],
      "stateMutability": "view",
      "type": "function",
      "constant": true
    },
    {
      "inputs": [
        {
          "internalType": "uint256",
          "name": "tokenId",
          "type": "uint256"
        }
      ],
      "name": "getApproved",
      "outputs": [
        {
          "internalType": "address",
          "name": "",
          "type": "address"
        }
      ],
      "stateMutability": "view",
      "type": "function",
      "constant": true
    },
    {
      "inputs": [
        {
          "internalType": "bytes32",
          "name": "role",
          "type": "bytes32"
        }
      ],
      "name": "getRoleAdmin",
      "outputs": [
        {
          "internalType": "bytes32",
          "name": "",
          "type": "bytes32"
        }
      ],
      "stateMutability": "view",
      "type": "function",
      "constant": true
    },
    {
      "inputs": [
        {
          "internalType": "bytes32",
          "name": "role",
          "type": "bytes32"
        },
        {
          "internalType": "uint256",
          "name": "index",
          "type": "uint256"
        }
      ],
      "name": "getRoleMember",
      "outputs": [
        {
          "internalType": "address",
          "name": "",
          "type": "address"
        }
      ],
      "stateMutability": "view",
      "type": "function",
      "constant": true
    },
    {
      "inputs": [
        {
          "internalType": "bytes32",
          "name": "role",
          "type": "bytes32"
        }
      ],
      "name": "getRoleMemberCount",
      "outputs": [
        {
          "internalType": "uint256",
          "name": "",
          "type": "uint256"
        }
      ],
      "stateMutability": "view",
      "type": "function",
      "constant": true
    },
    {
      "inputs": [
        {
          "internalType": "bytes32",
          "name": "role",
          "type": "bytes32"
        },
        {
          "internalType": "address",
          "name": "account",
          "type": "address"
        }
      ],
      "name": "grantRole",
      "outputs": [],
      "stateMutability": "nonpayable",
      "type": "function"
    },
    {
      "inputs": [
        {
          "internalType": "bytes32",
          "name": "role",
          "type": "bytes32"
        },
        {
          "internalType": "address",
          "name": "account",
          "type": "address"
        }
      ],
      "name": "hasRole",
      "outputs": [
        {
          "internalType": "bool",
          "name": "",
          "type": "bool"
        }
      ],
      "stateMutability": "view",
      "type": "function",
      "constant": true
    },
    {
      "inputs": [
        {
          "internalType": "address",
          "name": "owner",
          "type": "address"
        },
        {
          "internalType": "address",
          "name": "operator",
          "type": "address"
        }
      ],
      "name": "isApprovedForAll",
      "outputs": [
        {
          "internalType": "bool",
          "name": "",
          "type": "bool"
        }
      ],
      "stateMutability": "view",
      "type": "function",
      "constant": true
    },
    {
      "inputs": [],
      "name": "name",
      "outputs": [
        {
          "internalType": "string",
          "name": "",
          "type": "string"
        }
      ],
      "stateMutability": "view",
      "type": "function",
      "constant": true
    },
    {
      "inputs": [
        {
          "internalType": "address",
          "name": "",
          "type": "address"
        },
        {
          "internalType": "address",
          "name": "",
          "type": "address"
        },
        {
          "internalType": "uint256[]",
          "name": "",
          "type": "uint256[]"
        },
        {
          "internalType": "uint256[]",
          "name": "",
          "type": "uint256[]"
        },
        {
          "internalType": "bytes",
          "name": "",
          "type": "bytes"
        }
      ],
      "name": "onERC1155BatchReceived",
      "outputs": [
        {
          "internalType": "bytes4",
          "name": "",
          "type": "bytes4"
        }
      ],
      "stateMutability": "nonpayable",
      "type": "function"
    },
    {
      "inputs": [
        {
          "internalType": "address",
          "name": "",
          "type": "address"
        },
        {
          "internalType": "address",
          "name": "",
          "type": "address"
        },
        {
          "internalType": "uint256",
          "name": "",
          "type": "uint256"
        },
        {
          "internalType": "uint256",
          "name": "",
          "type": "uint256"
        },
        {
          "internalType": "bytes",
          "name": "",
          "type": "bytes"
        }
      ],
      "name": "onERC1155Received",
      "outputs": [
        {
          "internalType": "bytes4",
          "name": "",
          "type": "bytes4"
        }
      ],
      "stateMutability": "nonpayable",
      "type": "function"
    },
    {
      "inputs": [],
      "name": "owner",
      "outputs": [
        {
          "internalType": "address",
          "name": "",
          "type": "address"
        }
      ],
      "stateMutability": "view",
      "type": "function",
      "constant": true
    },
    {
      "inputs": [
        {
          "internalType": "uint256",
          "name": "tokenId",
          "type": "uint256"
        }
      ],
      "name": "ownerOf",
      "outputs": [
        {
          "internalType": "address",
          "name": "",
          "type": "address"
        }
      ],
      "stateMutability": "view",
      "type": "function",
      "constant": true
    },
    {
      "inputs": [],
      "name": "pause",
      "outputs": [],
      "stateMutability": "nonpayable",
      "type": "function"
    },
    {
      "inputs": [],
      "name": "paused",
      "outputs": [
        {
          "internalType": "bool",
          "name": "",
          "type": "bool"
        }
      ],
      "stateMutability": "view",
      "type": "function",
      "constant": true
    },
    {
      "inputs": [],
      "name": "renounceOwnership",
      "outputs": [],
      "stateMutability": "nonpayable",
      "type": "function"
    },
    {
      "inputs": [
        {
          "internalType": "bytes32",
          "name": "role",
          "type": "bytes32"
        },
        {
          "internalType": "address",
          "name": "account",
          "type": "address"
        }
      ],
      "name": "renounceRole",
      "outputs": [],
      "stateMutability": "nonpayable",
      "type": "function"
    },
    {
      "inputs": [
        {
          "internalType": "bytes32",
          "name": "role",
          "type": "bytes32"
        },
        {
          "internalType": "address",
          "name": "account",
          "type": "address"
        }
      ],
      "name": "revokeRole",
      "outputs": [],
      "stateMutability": "nonpayable",
      "type": "function"
    },
    {
      "inputs": [
        {
          "internalType": "address",
          "name": "from",
          "type": "address"
        },
        {
          "internalType": "address",
          "name": "to",
          "type": "address"
        },
        {
          "internalType": "uint256",
          "name": "tokenId",
          "type": "uint256"
        }
      ],
      "name": "safeTransferFrom",
      "outputs": [],
      "stateMutability": "nonpayable",
      "type": "function"
    },
    {
      "inputs": [
        {
          "internalType": "address",
          "name": "from",
          "type": "address"
        },
        {
          "internalType": "address",
          "name": "to",
          "type": "address"
        },
        {
          "internalType": "uint256",
          "name": "tokenId",
          "type": "uint256"
        },
        {
          "internalType": "bytes",
          "name": "_data",
          "type": "bytes"
        }
      ],
      "name": "safeTransferFrom",
      "outputs": [],
      "stateMutability": "nonpayable",
      "type": "function"
    },
    {
      "inputs": [
        {
          "internalType": "address",
          "name": "operator",
          "type": "address"
        },
        {
          "internalType": "bool",
          "name": "approved",
          "type": "bool"
        }
      ],
      "name": "setApprovalForAll",
      "outputs": [],
      "stateMutability": "nonpayable",
      "type": "function"
    },
    {
      "inputs": [
        {
          "internalType": "bytes4",
          "name": "interfaceId",
          "type": "bytes4"
        }
      ],
      "name": "supportsInterface",
      "outputs": [
        {
          "internalType": "bool",
          "name": "",
          "type": "bool"
        }
      ],
      "stateMutability": "view",
      "type": "function",
      "constant": true
    },
    {
      "inputs": [],
      "name": "symbol",
      "outputs": [
        {
          "internalType": "string",
          "name": "",
          "type": "string"
        }
      ],
      "stateMutability": "view",
      "type": "function",
      "constant": true
    },
    {
      "inputs": [
        {
          "internalType": "uint256",
          "name": "",
          "type": "uint256"
        }
      ],
      "name": "timeAlienBorn",
      "outputs": [
        {
          "internalType": "uint256",
          "name": "",
          "type": "uint256"
        }
      ],
      "stateMutability": "view",
      "type": "function",
      "constant": true
    },
    {
      "inputs": [
        {
          "internalType": "uint256",
          "name": "",
          "type": "uint256"
        }
      ],
      "name": "timeUntilStarving",
      "outputs": [
        {
          "internalType": "uint256",
          "name": "",
          "type": "uint256"
        }
      ],
      "stateMutability": "view",
      "type": "function",
      "constant": true
    },
    {
      "inputs": [
        {
          "internalType": "uint256",
          "name": "index",
          "type": "uint256"
        }
      ],
      "name": "tokenByIndex",
      "outputs": [
        {
          "internalType": "uint256",
          "name": "",
          "type": "uint256"
        }
      ],
      "stateMutability": "view",
      "type": "function",
      "constant": true
    },
    {
      "inputs": [
        {
          "internalType": "address",
          "name": "owner",
          "type": "address"
        },
        {
          "internalType": "uint256",
          "name": "index",
          "type": "uint256"
        }
      ],
      "name": "tokenOfOwnerByIndex",
      "outputs": [
        {
          "internalType": "uint256",
          "name": "",
          "type": "uint256"
        }
      ],
      "stateMutability": "view",
      "type": "function",
      "constant": true
    },
    {
      "inputs": [
        {
          "internalType": "uint256",
          "name": "tokenId",
          "type": "uint256"
        }
      ],
      "name": "tokenURI",
      "outputs": [
        {
          "internalType": "string",
          "name": "",
          "type": "string"
        }
      ],
      "stateMutability": "view",
      "type": "function",
      "constant": true
    },
    {
      "inputs": [],
      "name": "totalSupply",
      "outputs": [
        {
          "internalType": "uint256",
          "name": "",
          "type": "uint256"
        }
      ],
      "stateMutability": "view",
      "type": "function",
      "constant": true
    },
    {
      "inputs": [
        {
          "internalType": "address",
          "name": "from",
          "type": "address"
        },
        {
          "internalType": "address",
          "name": "to",
          "type": "address"
        },
        {
          "internalType": "uint256",
          "name": "tokenId",
          "type": "uint256"
        }
      ],
      "name": "transferFrom",
      "outputs": [],
      "stateMutability": "nonpayable",
      "type": "function"
    },
    {
      "inputs": [
        {
          "internalType": "address",
          "name": "newOwner",
          "type": "address"
        }
      ],
      "name": "transferOwnership",
      "outputs": [],
      "stateMutability": "nonpayable",
      "type": "function"
    },
    {
      "inputs": [],
      "name": "unpause",
      "outputs": [],
      "stateMutability": "nonpayable",
      "type": "function"
    },
    {
      "inputs": [
        {
          "internalType": "address",
          "name": "player",
          "type": "address"
        }
      ],
      "name": "mint",
      "outputs": [],
      "stateMutability": "nonpayable",
      "type": "function"
    },
    {
      "inputs": [
        {
          "internalType": "bool",
          "name": "_pause",
          "type": "bool"
        }
      ],
      "name": "pauseGame",
      "outputs": [],
      "stateMutability": "nonpayable",
      "type": "function"
    },
    {
      "inputs": [
        {
          "internalType": "uint256",
          "name": "_nftId",
          "type": "uint256"
        }
      ],
      "name": "isAlienAlive",
      "outputs": [
        {
          "internalType": "bool",
          "name": "",
          "type": "bool"
        }
      ],
      "stateMutability": "view",
      "type": "function",
      "constant": true
    },
    {
      "inputs": [
        {
          "internalType": "uint256",
          "name": "_nftId",
          "type": "uint256"
        }
      ],
      "name": "getAlien",
      "outputs": [
        {
          "internalType": "uint256",
          "name": "_genes",
          "type": "uint256"
        },
        {
          "internalType": "uint256",
          "name": "_timeAlienBorn",
          "type": "uint256"
        },
        {
          "internalType": "uint256",
          "name": "_mumId",
          "type": "uint256"
        },
        {
          "internalType": "uint256",
          "name": "_dadId",
          "type": "uint256"
        },
        {
          "internalType": "uint256",
          "name": "_generation",
          "type": "uint256"
        }
      ],
      "stateMutability": "view",
      "type": "function",
      "constant": true
    },
    {
      "inputs": [
        {
          "internalType": "uint256",
          "name": "_genes",
          "type": "uint256"
        },
        {
          "internalType": "uint32",
          "name": "_mumId",
          "type": "uint32"
        },
        {
          "internalType": "uint32",
          "name": "_dadId",
          "type": "uint32"
        },
        {
          "internalType": "uint16",
          "name": "_generation",
          "type": "uint16"
        },
        {
          "internalType": "address",
          "name": "_owner",
          "type": "address"
        }
      ],
      "name": "createtAlien",
      "outputs": [],
      "stateMutability": "nonpayable",
      "type": "function"
    },
    {
      "inputs": [
        {
          "internalType": "address",
          "name": "_owner",
          "type": "address"
        },
        {
          "internalType": "uint256",
          "name": "_nftId",
          "type": "uint256"
        }
      ],
      "name": "isApprovedOwner",
      "outputs": [
        {
          "internalType": "bool",
          "name": "",
          "type": "bool"
        }
      ],
      "stateMutability": "view",
      "type": "function",
      "constant": true
    }
  ],
  "bytecode": "0x60806040526000601160006101000a81548160ff0219169083151502179055503480156200002c57600080fd5b506040516200697a3803806200697a833981810160405260208110156200005257600080fd5b81019080805190602001909291905050506040518060400160405280600881526020017f416c69656e4e46540000000000000000000000000000000000000000000000008152506040518060400160405280600581526020017f414c4e46540000000000000000000000000000000000000000000000000000008152506040518060400160405280600f81526020017f687474703a6c6f63616c686f73742f000000000000000000000000000000000081525082826000620001196200044160201b60201c565b9050806000806101000a81548173ffffffffffffffffffffffffffffffffffffffff021916908373ffffffffffffffffffffffffffffffffffffffff1602179055508073ffffffffffffffffffffffffffffffffffffffff16600073ffffffffffffffffffffffffffffffffffffffff167f8be0079c531659141344cd1fd0a4f28419497f9722a3daafe3b4186f6b6457e060405160405180910390a350620001cf6301ffc9a760e01b6200044960201b60201c565b8160089080519060200190620001e79291906200191b565b508060099080519060200190620002009291906200191b565b50620002196380ac58cd60e01b6200044960201b60201c565b62000231635b5e139f60e01b6200044960201b60201c565b6200024963780e9d6360e01b6200044960201b60201c565b50506000600c60006101000a81548160ff0219169083151502179055506200028a6000801b6200027e6200044160201b60201c565b6200055360201b60201c565b620002e060405180807f4d494e5445525f524f4c45000000000000000000000000000000000000000000815250600b0190506040518091039020620002d46200044160201b60201c565b6200055360201b60201c565b6200033660405180807f5041555345525f524f4c45000000000000000000000000000000000000000000815250600b01905060405180910390206200032a6200044160201b60201c565b6200055360201b60201c565b62000347816200056960201b60201c565b5050506200036b63bc197c8160e01b63f23a6e6160e01b186200044960201b60201c565b620003c160405180807f4f50455241544f525f524f4c4500000000000000000000000000000000000000815250600d0190506040518091039020620003b56200044160201b60201c565b6200055360201b60201c565b80600e60006101000a81548173ffffffffffffffffffffffffffffffffffffffff021916908373ffffffffffffffffffffffffffffffffffffffff1602179055506200043960008060007fffffffffffffffffffffffffffffffffffffffffffffffffffffffffffffffff336200058560201b60201c565b5050620019ca565b600033905090565b63ffffffff60e01b817bffffffffffffffffffffffffffffffffffffffffffffffffffffffff19161415620004e6576040517f08c379a000000000000000000000000000000000000000000000000000000000815260040180806020018281038252601c8152602001807f4552433136353a20696e76616c696420696e746572666163652069640000000081525060200191505060405180910390fd5b600160026000837bffffffffffffffffffffffffffffffffffffffffffffffffffffffff19167bffffffffffffffffffffffffffffffffffffffffffffffffffffffff1916815260200190815260200160002060006101000a81548160ff02191690831515021790555050565b620005658282620007f060201b60201c565b5050565b80600b9080519060200190620005819291906200191b565b5050565b600060405180608001604052808781526020018663ffffffff1681526020018563ffffffff1681526020018461ffff1681525060126000620005d3600f6200089460201b620038a71760201c565b81526020019081526020016000206000820151816000015560208201518160010160006101000a81548163ffffffff021916908363ffffffff16021790555060408201518160010160046101000a81548163ffffffff021916908363ffffffff16021790555060608201518160010160086101000a81548161ffff021916908361ffff1602179055509050506200067082620008a260201b60201c565b62000687600f6200089460201b620038a71760201c565b63ffffffff16620006a4600f6200089460201b620038a71760201c565b14620006af57600080fd5b620006bf62000a0e60201b60201c565b73ffffffffffffffffffffffffffffffffffffffff168273ffffffffffffffffffffffffffffffffffffffff16146200071d576200071c60008362000710600f6200089460201b620038a71760201c565b62000a3760201b60201c565b5b7f190e965faf32f04a0bd16c35d90db68cfd344a647df4508f4a9a967b9dac08948262000756600f6200089460201b620038a71760201c565b87878a604051808673ffffffffffffffffffffffffffffffffffffffff1673ffffffffffffffffffffffffffffffffffffffff1681526020018581526020018463ffffffff1663ffffffff1681526020018363ffffffff1663ffffffff1681526020018281526020019550505050505060405180910390a1620007e5600f6200089460201b620038a71760201c565b905095945050505050565b6200081f816001600085815260200190815260200160002060000162000ac760201b62003e831790919060201c565b156200089057620008356200044160201b60201c565b73ffffffffffffffffffffffffffffffffffffffff168173ffffffffffffffffffffffffffffffffffffffff16837f2f8788117e7eff1d82e926ec794901d17c78024a50270940304540a733656f0d60405160405180910390a45b5050565b600081600001549050919050565b620008f860405180807f4d494e5445525f524f4c45000000000000000000000000000000000000000000815250600b0190506040518091039020620008ec6200044160201b60201c565b62000aff60201b60201c565b6200094f576040517f08c379a000000000000000000000000000000000000000000000000000000000815260040180806020018281038252602b815260200180620068a0602b913960400191505060405180910390fd5b6200096c62093a804262000b3860201b6200381f1790919060201c565b6013600062000987600f6200089460201b620038a71760201c565b8152602001908152602001600020819055504260146000620009b5600f6200089460201b620038a71760201c565b815260200190815260200160002081905550620009f481620009e3600f6200089460201b620038a71760201c565b62000bc160201b620038b51760201c565b62000a0b600f62000dd560201b62003aa91760201c565b50565b60008060009054906101000a900473ffffffffffffffffffffffffffffffffffffffff16905090565b62000a5862000a4b6200044160201b60201c565b8262000deb60201b60201c565b62000aaf576040517f08c379a0000000000000000000000000000000000000000000000000000000008152600401808060200182810382526031815260200180620069496031913960400191505060405180910390fd5b62000ac283838362000f0360201b60201c565b505050565b600062000af7836000018373ffffffffffffffffffffffffffffffffffffffff1660001b6200117760201b60201c565b905092915050565b600062000b308260016000868152602001908152602001600020600001620011f160201b62003bf81790919060201c565b905092915050565b60008082840190508381101562000bb7576040517f08c379a000000000000000000000000000000000000000000000000000000000815260040180806020018281038252601b8152602001807f536166654d6174683a206164646974696f6e206f766572666c6f77000000000081525060200191505060405180910390fd5b8091505092915050565b600073ffffffffffffffffffffffffffffffffffffffff168273ffffffffffffffffffffffffffffffffffffffff16141562000c65576040517f08c379a00000000000000000000000000000000000000000000000000000000081526004018080602001828103825260208152602001807f4552433732313a206d696e7420746f20746865207a65726f206164647265737381525060200191505060405180910390fd5b62000c76816200122960201b60201c565b1562000cea576040517f08c379a000000000000000000000000000000000000000000000000000000000815260040180806020018281038252601c8152602001807f4552433732313a20746f6b656e20616c7265616479206d696e7465640000000081525060200191505060405180910390fd5b62000cfe600083836200124d60201b60201c565b62000d5681600360008573ffffffffffffffffffffffffffffffffffffffff1673ffffffffffffffffffffffffffffffffffffffff1681526020019081526020016000206200126a60201b62003e341790919060201c565b5062000d74818360046200128c60201b62003e4e179092919060201c565b50808273ffffffffffffffffffffffffffffffffffffffff16600073ffffffffffffffffffffffffffffffffffffffff167fddf252ad1be2c89b69c2b068fc378daa952ba7f163c4a11628f55a4df523b3ef60405160405180910390a45050565b6001816000016000828254019250508190555050565b600062000dfe826200122960201b60201c565b62000e55576040517f08c379a000000000000000000000000000000000000000000000000000000000815260040180806020018281038252602c81526020018062006874602c913960400191505060405180910390fd5b600062000e6883620012c960201b60201c565b90508073ffffffffffffffffffffffffffffffffffffffff168473ffffffffffffffffffffffffffffffffffffffff16148062000ee057508373ffffffffffffffffffffffffffffffffffffffff1662000ec8846200130860201b60201c565b73ffffffffffffffffffffffffffffffffffffffff16145b8062000efa575062000ef98185620013ad60201b60201c565b5b91505092915050565b8273ffffffffffffffffffffffffffffffffffffffff1662000f2b82620012c960201b60201c565b73ffffffffffffffffffffffffffffffffffffffff161462000f99576040517f08c379a0000000000000000000000000000000000000000000000000000000008152600401808060200182810382526029815260200180620069206029913960400191505060405180910390fd5b600073ffffffffffffffffffffffffffffffffffffffff168273ffffffffffffffffffffffffffffffffffffffff16141562001021576040517f08c379a0000000000000000000000000000000000000000000000000000000008152600401808060200182810382526024815260200180620068506024913960400191505060405180910390fd5b620010348383836200124d60201b60201c565b620010476000826200144160201b60201c565b6200109f81600360008673ffffffffffffffffffffffffffffffffffffffff1673ffffffffffffffffffffffffffffffffffffffff1681526020019081526020016000206200150260201b62003e1a1790919060201c565b50620010f881600360008573ffffffffffffffffffffffffffffffffffffffff1673ffffffffffffffffffffffffffffffffffffffff1681526020019081526020016000206200126a60201b62003e341790919060201c565b5062001116818360046200128c60201b62003e4e179092919060201c565b50808273ffffffffffffffffffffffffffffffffffffffff168473ffffffffffffffffffffffffffffffffffffffff167fddf252ad1be2c89b69c2b068fc378daa952ba7f163c4a11628f55a4df523b3ef60405160405180910390a4505050565b60006200118b83836200152460201b60201c565b620011e6578260000182908060018154018082558091505060019003906000526020600020016000909190919091505582600001805490508360010160008481526020019081526020016000208190555060019050620011eb565b600090505b92915050565b600062001221836000018373ffffffffffffffffffffffffffffffffffffffff1660001b6200152460201b60201c565b905092915050565b6000620012468260046200154760201b62003ddf1790919060201c565b9050919050565b620012658383836200156960201b620043ab1760201c565b505050565b600062001284836000018360001b6200117760201b60201c565b905092915050565b6000620012c0846000018460001b8473ffffffffffffffffffffffffffffffffffffffff1660001b620015ee60201b60201c565b90509392505050565b60006200130182604051806060016040528060298152602001620068cb602991396004620016cd60201b62003800179092919060201c565b9050919050565b60006200131b826200122960201b60201c565b62001372576040517f08c379a000000000000000000000000000000000000000000000000000000000815260040180806020018281038252602c815260200180620068f4602c913960400191505060405180910390fd5b6006600083815260200190815260200160002060009054906101000a900473ffffffffffffffffffffffffffffffffffffffff169050919050565b6000600760008473ffffffffffffffffffffffffffffffffffffffff1673ffffffffffffffffffffffffffffffffffffffff16815260200190815260200160002060008373ffffffffffffffffffffffffffffffffffffffff1673ffffffffffffffffffffffffffffffffffffffff16815260200190815260200160002060009054906101000a900460ff16905092915050565b816006600083815260200190815260200160002060006101000a81548173ffffffffffffffffffffffffffffffffffffffff021916908373ffffffffffffffffffffffffffffffffffffffff160217905550808273ffffffffffffffffffffffffffffffffffffffff16620014bc83620012c960201b60201c565b73ffffffffffffffffffffffffffffffffffffffff167f8c5be1e5ebec7d5bd14f71427d1e84f3dd0314c0f7b2291e5b200ac8c7c3b92560405160405180910390a45050565b60006200151c836000018360001b620016f460201b60201c565b905092915050565b600080836001016000848152602001908152602001600020541415905092915050565b600062001561836000018360001b620017e160201b60201c565b905092915050565b620015818383836200180460201b620047911760201c565b620015916200180960201b60201c565b15620015e9576040517f08c379a000000000000000000000000000000000000000000000000000000000815260040180806020018281038252602b81526020018062006825602b913960400191505060405180910390fd5b505050565b60008084600101600085815260200190815260200160002054905060008114156200169757846000016040518060400160405280868152602001858152509080600181540180825580915050600190039060005260206000209060020201600090919091909150600082015181600001556020820151816001015550508460000180549050856001016000868152602001908152602001600020819055506001915050620016c6565b82856000016001830381548110620016ab57fe5b90600052602060002090600202016001018190555060009150505b9392505050565b6000620016e8846000018460001b846200182060201b60201c565b60001c90509392505050565b60008083600101600084815260200190815260200160002054905060008114620017d557600060018203905060006001866000018054905003905060008660000182815481106200174157fe5b90600052602060002001549050808760000184815481106200175f57fe5b90600052602060002001819055506001830187600101600083815260200190815260200160002081905550866000018054806200179857fe5b60019003818190600052602060002001600090559055866001016000878152602001908152602001600020600090556001945050505050620017db565b60009150505b92915050565b600080836001016000848152602001908152602001600020541415905092915050565b505050565b6000600c60009054906101000a900460ff16905090565b60008084600101600085815260200190815260200160002054905060008114158390620018eb576040517f08c379a00000000000000000000000000000000000000000000000000000000081526004018080602001828103825283818151815260200191508051906020019080838360005b83811015620018af57808201518184015260208101905062001892565b50505050905090810190601f168015620018dd5780820380516001836020036101000a031916815260200191505b509250505060405180910390fd5b50846000016001820381548110620018ff57fe5b9060005260206000209060020201600101549150509392505050565b828054600181600116156101000203166002900490600052602060002090601f016020900481019282601f106200195e57805160ff19168380011785556200198f565b828001600101855582156200198f579182015b828111156200198e57825182559160200191906001019062001971565b5b5090506200199e9190620019a2565b5090565b620019c791905b80821115620019c3576000816000905550600101620019a9565b5090565b90565b614e4b80620019da6000396000f3fe608060405234801561001057600080fd5b50600436106102a05760003560e01c806371b3ea9711610167578063ba269271116100ce578063e63ab1e911610087578063e63ab1e91461125f578063e985e9c51461127d578063f23a6e61146112f9578063f2fde38b1461145a578063f5b541a61461149e578063f8ef871c146114bc576102a0565b8063ba26927114610e37578063bc197c8114610e95578063c87b56dd1461110a578063ca15c873146111b1578063d5391393146111f3578063d547741f14611211576102a0565b8063902838d211610120578063902838d214610b9557806391d1485414610bdb57806395d89b4114610c41578063a217fddf14610cc4578063a22cb46514610ce2578063b88d4fde14610d32576102a0565b806371b3ea97146109c65780638456cb5914610a3d5780638652e49c14610a475780638c07f75114610a895780638da5cb5b14610ad35780639010d07c14610b1d576102a0565b80633f4ba83a1161020b5780635fb490e7116101c45780635fb490e7146107b35780636352211e1461082f5780636a6278421461089d5780636c0360eb146108e157806370a0823114610964578063715018a6146109bc576102a0565b80633f4ba83a1461067957806342842e0e1461068357806342966c68146106f15780634f53126a1461071f5780634f6ccce71461074f5780635c975abb14610791576102a0565b806318160ddd1161025d57806318160ddd146104ad57806323b872dd146104cb578063248a9ca3146105395780632f2ff15d1461057b5780632f745c59146105c957806336568abe1461062b576102a0565b806301ffc9a7146102a55780630430e4051461030a57806306fdde031461032c578063081812fc146103af578063095ea7b31461041d5780630fd65feb1461046b575b600080fd5b6102f0600480360360208110156102bb57600080fd5b8101908080357bffffffffffffffffffffffffffffffffffffffffffffffffffffffff19169060200190929190505050611522565b604051808215151515815260200191505060405180910390f35b61031261158a565b604051808215151515815260200191505060405180910390f35b61033461159d565b6040518080602001828103825283818151815260200191508051906020019080838360005b83811015610374578082015181840152602081019050610359565b50505050905090810190601f1680156103a15780820380516001836020036101000a031916815260200191505b509250505060405180910390f35b6103db600480360360208110156103c557600080fd5b810190808035906020019092919050505061163f565b604051808273ffffffffffffffffffffffffffffffffffffffff1673ffffffffffffffffffffffffffffffffffffffff16815260200191505060405180910390f35b6104696004803603604081101561043357600080fd5b81019080803573ffffffffffffffffffffffffffffffffffffffff169060200190929190803590602001909291905050506116da565b005b6104976004803603602081101561048157600080fd5b810190808035906020019092919050505061181e565b6040518082815260200191505060405180910390f35b6104b5611836565b6040518082815260200191505060405180910390f35b610537600480360360608110156104e157600080fd5b81019080803573ffffffffffffffffffffffffffffffffffffffff169060200190929190803573ffffffffffffffffffffffffffffffffffffffff16906020019092919080359060200190929190505050611847565b005b6105656004803603602081101561054f57600080fd5b81019080803590602001909291905050506118bd565b6040518082815260200191505060405180910390f35b6105c76004803603604081101561059157600080fd5b8101908080359060200190929190803573ffffffffffffffffffffffffffffffffffffffff1690602001909291905050506118dd565b005b610615600480360360408110156105df57600080fd5b81019080803573ffffffffffffffffffffffffffffffffffffffff16906020019092919080359060200190929190505050611967565b6040518082815260200191505060405180910390f35b6106776004803603604081101561064157600080fd5b8101908080359060200190929190803573ffffffffffffffffffffffffffffffffffffffff1690602001909291905050506119c2565b005b610681611a5b565b005b6106ef6004803603606081101561069957600080fd5b81019080803573ffffffffffffffffffffffffffffffffffffffff169060200190929190803573ffffffffffffffffffffffffffffffffffffffff16906020019092919080359060200190929190505050611b00565b005b61071d6004803603602081101561070757600080fd5b8101908080359060200190929190505050611b20565b005b61074d6004803603602081101561073557600080fd5b81019080803515159060200190929190505050611b92565b005b61077b6004803603602081101561076557600080fd5b8101908080359060200190929190505050611c4a565b6040518082815260200191505060405180910390f35b610799611c6d565b604051808215151515815260200191505060405180910390f35b61082d600480360360a08110156107c957600080fd5b8101908080359060200190929190803563ffffffff169060200190929190803563ffffffff169060200190929190803561ffff169060200190929190803573ffffffffffffffffffffffffffffffffffffffff169060200190929190505050611c84565b005b61085b6004803603602081101561084557600080fd5b8101908080359060200190929190505050611c99565b604051808273ffffffffffffffffffffffffffffffffffffffff1673ffffffffffffffffffffffffffffffffffffffff16815260200191505060405180910390f35b6108df600480360360208110156108b357600080fd5b81019080803573ffffffffffffffffffffffffffffffffffffffff169060200190929190505050611cd0565b005b6108e9611de2565b6040518080602001828103825283818151815260200191508051906020019080838360005b8381101561092957808201518184015260208101905061090e565b50505050905090810190601f1680156109565780820380516001836020036101000a031916815260200191505b509250505060405180910390f35b6109a66004803603602081101561097a57600080fd5b81019080803573ffffffffffffffffffffffffffffffffffffffff169060200190929190505050611e84565b6040518082815260200191505060405180910390f35b6109c4611f59565b005b6109f2600480360360208110156109dc57600080fd5b81019080803590602001909291905050506120e1565b604051808581526020018463ffffffff1663ffffffff1681526020018363ffffffff1663ffffffff1681526020018261ffff1661ffff16815260200194505050505060405180910390f35b610a4561213f565b005b610a7360048036036020811015610a5d57600080fd5b81019080803590602001909291905050506121e4565b6040518082815260200191505060405180910390f35b610a916121fc565b604051808273ffffffffffffffffffffffffffffffffffffffff1673ffffffffffffffffffffffffffffffffffffffff16815260200191505060405180910390f35b610adb612222565b604051808273ffffffffffffffffffffffffffffffffffffffff1673ffffffffffffffffffffffffffffffffffffffff16815260200191505060405180910390f35b610b5360048036036040811015610b3357600080fd5b81019080803590602001909291908035906020019092919050505061224b565b604051808273ffffffffffffffffffffffffffffffffffffffff1673ffffffffffffffffffffffffffffffffffffffff16815260200191505060405180910390f35b610bc160048036036020811015610bab57600080fd5b810190808035906020019092919050505061227d565b604051808215151515815260200191505060405180910390f35b610c2760048036036040811015610bf157600080fd5b8101908080359060200190929190803573ffffffffffffffffffffffffffffffffffffffff1690602001909291905050506122bd565b604051808215151515815260200191505060405180910390f35b610c496122ef565b6040518080602001828103825283818151815260200191508051906020019080838360005b83811015610c89578082015181840152602081019050610c6e565b50505050905090810190601f168015610cb65780820380516001836020036101000a031916815260200191505b509250505060405180910390f35b610ccc612391565b6040518082815260200191505060405180910390f35b610d3060048036036040811015610cf857600080fd5b81019080803573ffffffffffffffffffffffffffffffffffffffff169060200190929190803515159060200190929190505050612398565b005b610e3560048036036080811015610d4857600080fd5b81019080803573ffffffffffffffffffffffffffffffffffffffff169060200190929190803573ffffffffffffffffffffffffffffffffffffffff1690602001909291908035906020019092919080359060200190640100000000811115610daf57600080fd5b820183602082011115610dc157600080fd5b80359060200191846001830284011164010000000083111715610de357600080fd5b91908080601f016020809104026020016040519081016040528093929190818152602001838380828437600081840152601f19601f820116905080830192505050505050509192919290505050612550565b005b610e6360048036036020811015610e4d57600080fd5b81019080803590602001909291905050506125c8565b604051808681526020018581526020018481526020018381526020018281526020019550505050505060405180910390f35b6110b6600480360360a0811015610eab57600080fd5b81019080803573ffffffffffffffffffffffffffffffffffffffff169060200190929190803573ffffffffffffffffffffffffffffffffffffffff16906020019092919080359060200190640100000000811115610f0857600080fd5b820183602082011115610f1a57600080fd5b80359060200191846020830284011164010000000083111715610f3c57600080fd5b919080806020026020016040519081016040528093929190818152602001838360200280828437600081840152601f19601f82011690508083019250505050505050919291929080359060200190640100000000811115610f9c57600080fd5b820183602082011115610fae57600080fd5b80359060200191846020830284011164010000000083111715610fd057600080fd5b919080806020026020016040519081016040528093929190818152602001838360200280828437600081840152601f19601f8201169050808301925050505050505091929192908035906020019064010000000081111561103057600080fd5b82018360208201111561104257600080fd5b8035906020019184600183028401116401000000008311171561106457600080fd5b91908080601f016020809104026020016040519081016040528093929190818152602001838380828437600081840152601f19601f8201169050808301925050505050505091929192905050506126fb565b60405180827bffffffffffffffffffffffffffffffffffffffffffffffffffffffff19167bffffffffffffffffffffffffffffffffffffffffffffffffffffffff1916815260200191505060405180910390f35b6111366004803603602081101561112057600080fd5b8101908080359060200190929190505050612710565b6040518080602001828103825283818151815260200191508051906020019080838360005b8381101561117657808201518184015260208101905061115b565b50505050905090810190601f1680156111a35780820380516001836020036101000a031916815260200191505b509250505060405180910390f35b6111dd600480360360208110156111c757600080fd5b81019080803590602001909291905050506129f9565b6040518082815260200191505060405180910390f35b6111fb612a20565b6040518082815260200191505060405180910390f35b61125d6004803603604081101561122757600080fd5b8101908080359060200190929190803573ffffffffffffffffffffffffffffffffffffffff169060200190929190505050612a59565b005b611267612ae3565b6040518082815260200191505060405180910390f35b6112df6004803603604081101561129357600080fd5b81019080803573ffffffffffffffffffffffffffffffffffffffff169060200190929190803573ffffffffffffffffffffffffffffffffffffffff169060200190929190505050612b1c565b604051808215151515815260200191505060405180910390f35b611406600480360360a081101561130f57600080fd5b81019080803573ffffffffffffffffffffffffffffffffffffffff169060200190929190803573ffffffffffffffffffffffffffffffffffffffff16906020019092919080359060200190929190803590602001909291908035906020019064010000000081111561138057600080fd5b82018360208201111561139257600080fd5b803590602001918460018302840111640100000000831117156113b457600080fd5b91908080601f016020809104026020016040519081016040528093929190818152602001838380828437600081840152601f19601f820116905080830192505050505050509192919290505050612bb0565b60405180827bffffffffffffffffffffffffffffffffffffffffffffffffffffffff19167bffffffffffffffffffffffffffffffffffffffffffffffffffffffff1916815260200191505060405180910390f35b61149c6004803603602081101561147057600080fd5b81019080803573ffffffffffffffffffffffffffffffffffffffff169060200190929190505050612bc5565b005b6114a6612dd2565b6040518082815260200191505060405180910390f35b611508600480360360408110156114d257600080fd5b81019080803573ffffffffffffffffffffffffffffffffffffffff16906020019092919080359060200190929190505050612e0b565b604051808215151515815260200191505060405180910390f35b600060026000837bffffffffffffffffffffffffffffffffffffffffffffffffffffffff19167bffffffffffffffffffffffffffffffffffffffffffffffffffffffff1916815260200190815260200160002060009054906101000a900460ff169050919050565b601160009054906101000a900460ff1681565b606060088054600181600116156101000203166002900480601f0160208091040260200160405190810160405280929190818152602001828054600181600116156101000203166002900480156116355780601f1061160a57610100808354040283529160200191611635565b820191906000526020600020905b81548152906001019060200180831161161857829003601f168201915b5050505050905090565b600061164a82612e1f565b61169f576040517f08c379a000000000000000000000000000000000000000000000000000000000815260040180806020018281038252602c815260200180614ca1602c913960400191505060405180910390fd5b6006600083815260200190815260200160002060009054906101000a900473ffffffffffffffffffffffffffffffffffffffff169050919050565b60006116e582611c99565b90508073ffffffffffffffffffffffffffffffffffffffff168373ffffffffffffffffffffffffffffffffffffffff16141561176c576040517f08c379a0000000000000000000000000000000000000000000000000000000008152600401808060200182810382526021815260200180614d256021913960400191505060405180910390fd5b8073ffffffffffffffffffffffffffffffffffffffff1661178b612e3c565b73ffffffffffffffffffffffffffffffffffffffff1614806117ba57506117b9816117b4612e3c565b612b1c565b5b61180f576040517f08c379a0000000000000000000000000000000000000000000000000000000008152600401808060200182810382526038815260200180614bf46038913960400191505060405180910390fd5b6118198383612e44565b505050565b60146020528060005260406000206000915090505481565b60006118426004612efd565b905090565b611858611852612e3c565b82612f12565b6118ad576040517f08c379a0000000000000000000000000000000000000000000000000000000008152600401808060200182810382526031815260200180614d466031913960400191505060405180910390fd5b6118b8838383613006565b505050565b600060016000838152602001908152602001600020600201549050919050565b61190460016000848152602001908152602001600020600201546118ff612e3c565b6122bd565b611959576040517f08c379a000000000000000000000000000000000000000000000000000000000815260040180806020018281038252602f815260200180614a84602f913960400191505060405180910390fd5b6119638282613249565b5050565b60006119ba82600360008673ffffffffffffffffffffffffffffffffffffffff1673ffffffffffffffffffffffffffffffffffffffff1681526020019081526020016000206132dd90919063ffffffff16565b905092915050565b6119ca612e3c565b73ffffffffffffffffffffffffffffffffffffffff168173ffffffffffffffffffffffffffffffffffffffff1614611a4d576040517f08c379a000000000000000000000000000000000000000000000000000000000815260040180806020018281038252602f815260200180614de7602f913960400191505060405180910390fd5b611a5782826132f7565b5050565b611aa160405180807f5041555345525f524f4c45000000000000000000000000000000000000000000815250600b0190506040518091039020611a9c612e3c565b6122bd565b611af6576040517f08c379a0000000000000000000000000000000000000000000000000000000008152600401808060200182810382526040815260200180614da76040913960400191505060405180910390fd5b611afe61338b565b565b611b1b83838360405180602001604052806000815250612550565b505050565b611b31611b2b612e3c565b82612f12565b611b86576040517f08c379a0000000000000000000000000000000000000000000000000000000008152600401808060200182810382526030815260200180614d776030913960400191505060405180910390fd5b611b8f81613494565b50565b611bd860405180807f4f50455241544f525f524f4c4500000000000000000000000000000000000000815250600d0190506040518091039020611bd3612e3c565b6122bd565b611c2d576040517f08c379a000000000000000000000000000000000000000000000000000000000815260040180806020018281038252602d815260200180614a2c602d913960400191505060405180910390fd5b80601160006101000a81548160ff02191690831515021790555050565b600080611c618360046135ce90919063ffffffff16565b50905080915050919050565b6000600c60009054906101000a900460ff16905090565b611c9185858585856135fd565b505050505050565b6000611cc982604051806060016040528060298152602001614c566029913960046138009092919063ffffffff16565b9050919050565b611d1660405180807f4d494e5445525f524f4c45000000000000000000000000000000000000000000815250600b0190506040518091039020611d11612e3c565b6122bd565b611d6b576040517f08c379a000000000000000000000000000000000000000000000000000000000815260040180806020018281038252602b815260200180614bc9602b913960400191505060405180910390fd5b611d8162093a804261381f90919063ffffffff16565b60136000611d8f600f6138a7565b8152602001908152602001600020819055504260146000611db0600f6138a7565b815260200190815260200160002081905550611dd581611dd0600f6138a7565b6138b5565b611ddf600f613aa9565b50565b6060600b8054600181600116156101000203166002900480601f016020809104026020016040519081016040528092919081815260200182805460018160011615610100020316600290048015611e7a5780601f10611e4f57610100808354040283529160200191611e7a565b820191906000526020600020905b815481529060010190602001808311611e5d57829003601f168201915b5050505050905090565b60008073ffffffffffffffffffffffffffffffffffffffff168273ffffffffffffffffffffffffffffffffffffffff161415611f0b576040517f08c379a000000000000000000000000000000000000000000000000000000000815260040180806020018281038252602a815260200180614c2c602a913960400191505060405180910390fd5b611f52600360008473ffffffffffffffffffffffffffffffffffffffff1673ffffffffffffffffffffffffffffffffffffffff168152602001908152602001600020613abf565b9050919050565b611f61612e3c565b73ffffffffffffffffffffffffffffffffffffffff166000809054906101000a900473ffffffffffffffffffffffffffffffffffffffff1673ffffffffffffffffffffffffffffffffffffffff1614612022576040517f08c379a00000000000000000000000000000000000000000000000000000000081526004018080602001828103825260208152602001807f4f776e61626c653a2063616c6c6572206973206e6f7420746865206f776e657281525060200191505060405180910390fd5b600073ffffffffffffffffffffffffffffffffffffffff166000809054906101000a900473ffffffffffffffffffffffffffffffffffffffff1673ffffffffffffffffffffffffffffffffffffffff167f8be0079c531659141344cd1fd0a4f28419497f9722a3daafe3b4186f6b6457e060405160405180910390a360008060006101000a81548173ffffffffffffffffffffffffffffffffffffffff021916908373ffffffffffffffffffffffffffffffffffffffff160217905550565b60126020528060005260406000206000915090508060000154908060010160009054906101000a900463ffffffff16908060010160049054906101000a900463ffffffff16908060010160089054906101000a900461ffff16905084565b61218560405180807f5041555345525f524f4c45000000000000000000000000000000000000000000815250600b0190506040518091039020612180612e3c565b6122bd565b6121da576040517f08c379a000000000000000000000000000000000000000000000000000000000815260040180806020018281038252603e815260200180614b0b603e913960400191505060405180910390fd5b6121e2613ad4565b565b60136020528060005260406000206000915090505481565b600e60009054906101000a900473ffffffffffffffffffffffffffffffffffffffff1681565b60008060009054906101000a900473ffffffffffffffffffffffffffffffffffffffff16905090565b60006122758260016000868152602001908152602001600020600001613bde90919063ffffffff16565b905092915050565b60008060136000848152602001908152602001600020549050600081141580156122a75750428110155b156122b65760019150506122b8565b505b919050565b60006122e78260016000868152602001908152602001600020600001613bf890919063ffffffff16565b905092915050565b606060098054600181600116156101000203166002900480601f0160208091040260200160405190810160405280929190818152602001828054600181600116156101000203166002900480156123875780601f1061235c57610100808354040283529160200191612387565b820191906000526020600020905b81548152906001019060200180831161236a57829003601f168201915b5050505050905090565b6000801b81565b6123a0612e3c565b73ffffffffffffffffffffffffffffffffffffffff168273ffffffffffffffffffffffffffffffffffffffff161415612441576040517f08c379a00000000000000000000000000000000000000000000000000000000081526004018080602001828103825260198152602001807f4552433732313a20617070726f766520746f2063616c6c65720000000000000081525060200191505060405180910390fd5b806007600061244e612e3c565b73ffffffffffffffffffffffffffffffffffffffff1673ffffffffffffffffffffffffffffffffffffffff16815260200190815260200160002060008473ffffffffffffffffffffffffffffffffffffffff1673ffffffffffffffffffffffffffffffffffffffff16815260200190815260200160002060006101000a81548160ff0219169083151502179055508173ffffffffffffffffffffffffffffffffffffffff166124fb612e3c565b73ffffffffffffffffffffffffffffffffffffffff167f17307eab39ab6107e8899845ad3d59bd9653f200f220920489ca2b5937696c3183604051808215151515815260200191505060405180910390a35050565b61256161255b612e3c565b83612f12565b6125b6576040517f08c379a0000000000000000000000000000000000000000000000000000000008152600401808060200182810382526031815260200180614d466031913960400191505060405180910390fd5b6125c284848484613c28565b50505050565b6000806000806000806012600088815260200190815260200160002090506000601460006125f6600f6138a7565b81526020019081526020016000205411612678576040517f08c379a00000000000000000000000000000000000000000000000000000000081526004018080602001828103825260178152602001807f74686520616c69656e20646f65736e277420657869737400000000000000000081525060200191505060405180910390fd5b806000015495506014600061268d600f6138a7565b81526020019081526020016000205494508060010160009054906101000a900463ffffffff1663ffffffff1693508060010160049054906101000a900463ffffffff1663ffffffff1692508060010160089054906101000a900461ffff1661ffff1691505091939590929450565b600063bc197c8160e01b905095945050505050565b606061271b82612e1f565b612770576040517f08c379a000000000000000000000000000000000000000000000000000000000815260040180806020018281038252602f815260200180614cf6602f913960400191505060405180910390fd5b6060600a60008481526020019081526020016000208054600181600116156101000203166002900480601f0160208091040260200160405190810160405280929190818152602001828054600181600116156101000203166002900480156128195780601f106127ee57610100808354040283529160200191612819565b820191906000526020600020905b8154815290600101906020018083116127fc57829003601f168201915b505050505090506000600b805460018160011615610100020316600290049050141561284857809150506129f4565b60008151111561292157600b8160405160200180838054600181600116156101000203166002900480156128b35780601f106128915761010080835404028352918201916128b3565b820191906000526020600020905b81548152906001019060200180831161289f575b505082805190602001908083835b602083106128e457805182526020820191506020810190506020830392506128c1565b6001836020036101000a038019825116818451168082178552505050505050905001925050506040516020818303038152906040529150506129f4565b600b61292c84613c9a565b604051602001808380546001816001161561010002031660029004801561298a5780601f1061296857610100808354040283529182019161298a565b820191906000526020600020905b815481529060010190602001808311612976575b505082805190602001908083835b602083106129bb5780518252602082019150602081019050602083039250612998565b6001836020036101000a038019825116818451168082178552505050505050905001925050506040516020818303038152906040529150505b919050565b6000612a1960016000848152602001908152602001600020600001613dca565b9050919050565b60405180807f4d494e5445525f524f4c45000000000000000000000000000000000000000000815250600b019050604051809103902081565b612a806001600084815260200190815260200160002060020154612a7b612e3c565b6122bd565b612ad5576040517f08c379a0000000000000000000000000000000000000000000000000000000008152600401808060200182810382526030815260200180614b996030913960400191505060405180910390fd5b612adf82826132f7565b5050565b60405180807f5041555345525f524f4c45000000000000000000000000000000000000000000815250600b019050604051809103902081565b6000600760008473ffffffffffffffffffffffffffffffffffffffff1673ffffffffffffffffffffffffffffffffffffffff16815260200190815260200160002060008373ffffffffffffffffffffffffffffffffffffffff1673ffffffffffffffffffffffffffffffffffffffff16815260200190815260200160002060009054906101000a900460ff16905092915050565b600063f23a6e6160e01b905095945050505050565b612bcd612e3c565b73ffffffffffffffffffffffffffffffffffffffff166000809054906101000a900473ffffffffffffffffffffffffffffffffffffffff1673ffffffffffffffffffffffffffffffffffffffff1614612c8e576040517f08c379a00000000000000000000000000000000000000000000000000000000081526004018080602001828103825260208152602001807f4f776e61626c653a2063616c6c6572206973206e6f7420746865206f776e657281525060200191505060405180910390fd5b600073ffffffffffffffffffffffffffffffffffffffff168173ffffffffffffffffffffffffffffffffffffffff161415612d14576040517f08c379a0000000000000000000000000000000000000000000000000000000008152600401808060200182810382526026815260200180614ae56026913960400191505060405180910390fd5b8073ffffffffffffffffffffffffffffffffffffffff166000809054906101000a900473ffffffffffffffffffffffffffffffffffffffff1673ffffffffffffffffffffffffffffffffffffffff167f8be0079c531659141344cd1fd0a4f28419497f9722a3daafe3b4186f6b6457e060405160405180910390a3806000806101000a81548173ffffffffffffffffffffffffffffffffffffffff021916908373ffffffffffffffffffffffffffffffffffffffff16021790555050565b60405180807f4f50455241544f525f524f4c4500000000000000000000000000000000000000815250600d019050604051809103902081565b6000612e178383612f12565b905092915050565b6000612e35826004613ddf90919063ffffffff16565b9050919050565b600033905090565b816006600083815260200190815260200160002060006101000a81548173ffffffffffffffffffffffffffffffffffffffff021916908373ffffffffffffffffffffffffffffffffffffffff160217905550808273ffffffffffffffffffffffffffffffffffffffff16612eb783611c99565b73ffffffffffffffffffffffffffffffffffffffff167f8c5be1e5ebec7d5bd14f71427d1e84f3dd0314c0f7b2291e5b200ac8c7c3b92560405160405180910390a45050565b6000612f0b82600001613df9565b9050919050565b6000612f1d82612e1f565b612f72576040517f08c379a000000000000000000000000000000000000000000000000000000000815260040180806020018281038252602c815260200180614b6d602c913960400191505060405180910390fd5b6000612f7d83611c99565b90508073ffffffffffffffffffffffffffffffffffffffff168473ffffffffffffffffffffffffffffffffffffffff161480612fec57508373ffffffffffffffffffffffffffffffffffffffff16612fd48461163f565b73ffffffffffffffffffffffffffffffffffffffff16145b80612ffd5750612ffc8185612b1c565b5b91505092915050565b8273ffffffffffffffffffffffffffffffffffffffff1661302682611c99565b73ffffffffffffffffffffffffffffffffffffffff1614613092576040517f08c379a0000000000000000000000000000000000000000000000000000000008152600401808060200182810382526029815260200180614ccd6029913960400191505060405180910390fd5b600073ffffffffffffffffffffffffffffffffffffffff168273ffffffffffffffffffffffffffffffffffffffff161415613118576040517f08c379a0000000000000000000000000000000000000000000000000000000008152600401808060200182810382526024815260200180614b496024913960400191505060405180910390fd5b613123838383613e0a565b61312e600082612e44565b61317f81600360008673ffffffffffffffffffffffffffffffffffffffff1673ffffffffffffffffffffffffffffffffffffffff168152602001908152602001600020613e1a90919063ffffffff16565b506131d181600360008573ffffffffffffffffffffffffffffffffffffffff1673ffffffffffffffffffffffffffffffffffffffff168152602001908152602001600020613e3490919063ffffffff16565b506131e881836004613e4e9092919063ffffffff16565b50808273ffffffffffffffffffffffffffffffffffffffff168473ffffffffffffffffffffffffffffffffffffffff167fddf252ad1be2c89b69c2b068fc378daa952ba7f163c4a11628f55a4df523b3ef60405160405180910390a4505050565b6132718160016000858152602001908152602001600020600001613e8390919063ffffffff16565b156132d95761327e612e3c565b73ffffffffffffffffffffffffffffffffffffffff168173ffffffffffffffffffffffffffffffffffffffff16837f2f8788117e7eff1d82e926ec794901d17c78024a50270940304540a733656f0d60405160405180910390a45b5050565b60006132ec8360000183613eb3565b60001c905092915050565b61331f8160016000858152602001908152602001600020600001613f3690919063ffffffff16565b156133875761332c612e3c565b73ffffffffffffffffffffffffffffffffffffffff168173ffffffffffffffffffffffffffffffffffffffff16837ff6391f5c32d9c69d2a47ea670b442974b53935d1edc7fd64eb21e047a839171b60405160405180910390a45b5050565b600c60009054906101000a900460ff1661340d576040517f08c379a00000000000000000000000000000000000000000000000000000000081526004018080602001828103825260148152602001807f5061757361626c653a206e6f742070617573656400000000000000000000000081525060200191505060405180910390fd5b6000600c60006101000a81548160ff0219169083151502179055507f5db9ee0a495bf2e6ff9c91a7834c1ba4fdd244a5e8aa4e537bd38aeae4b073aa613451612e3c565b604051808273ffffffffffffffffffffffffffffffffffffffff1673ffffffffffffffffffffffffffffffffffffffff16815260200191505060405180910390a1565b600061349f82611c99565b90506134ad81600084613e0a565b6134b8600083612e44565b6000600a60008481526020019081526020016000208054600181600116156101000203166002900490501461350757600a60008381526020019081526020016000206000613506919061499c565b5b61355882600360008473ffffffffffffffffffffffffffffffffffffffff1673ffffffffffffffffffffffffffffffffffffffff168152602001908152602001600020613e1a90919063ffffffff16565b5061356d826004613f6690919063ffffffff16565b5081600073ffffffffffffffffffffffffffffffffffffffff168273ffffffffffffffffffffffffffffffffffffffff167fddf252ad1be2c89b69c2b068fc378daa952ba7f163c4a11628f55a4df523b3ef60405160405180910390a45050565b6000806000806135e18660000186613f80565b915091508160001c8160001c8090509350935050509250929050565b600060405180608001604052808781526020018663ffffffff1681526020018563ffffffff1681526020018461ffff168152506012600061363e600f6138a7565b81526020019081526020016000206000820151816000015560208201518160010160006101000a81548163ffffffff021916908363ffffffff16021790555060408201518160010160046101000a81548163ffffffff021916908363ffffffff16021790555060608201518160010160086101000a81548161ffff021916908361ffff1602179055509050506136d382611cd0565b6136dd600f6138a7565b63ffffffff166136ed600f6138a7565b146136f757600080fd5b6136ff612222565b73ffffffffffffffffffffffffffffffffffffffff168273ffffffffffffffffffffffffffffffffffffffff161461374757613746600083613741600f6138a7565b611847565b5b7f190e965faf32f04a0bd16c35d90db68cfd344a647df4508f4a9a967b9dac089482613773600f6138a7565b87878a604051808673ffffffffffffffffffffffffffffffffffffffff1673ffffffffffffffffffffffffffffffffffffffff1681526020018581526020018463ffffffff1663ffffffff1681526020018363ffffffff1663ffffffff1681526020018281526020019550505050505060405180910390a16137f5600f6138a7565b905095945050505050565b6000613813846000018460001b84614019565b60001c90509392505050565b60008082840190508381101561389d576040517f08c379a000000000000000000000000000000000000000000000000000000000815260040180806020018281038252601b8152602001807f536166654d6174683a206164646974696f6e206f766572666c6f77000000000081525060200191505060405180910390fd5b8091505092915050565b600081600001549050919050565b600073ffffffffffffffffffffffffffffffffffffffff168273ffffffffffffffffffffffffffffffffffffffff161415613958576040517f08c379a00000000000000000000000000000000000000000000000000000000081526004018080602001828103825260208152602001807f4552433732313a206d696e7420746f20746865207a65726f206164647265737381525060200191505060405180910390fd5b61396181612e1f565b156139d4576040517f08c379a000000000000000000000000000000000000000000000000000000000815260040180806020018281038252601c8152602001807f4552433732313a20746f6b656e20616c7265616479206d696e7465640000000081525060200191505060405180910390fd5b6139e060008383613e0a565b613a3181600360008573ffffffffffffffffffffffffffffffffffffffff1673ffffffffffffffffffffffffffffffffffffffff168152602001908152602001600020613e3490919063ffffffff16565b50613a4881836004613e4e9092919063ffffffff16565b50808273ffffffffffffffffffffffffffffffffffffffff16600073ffffffffffffffffffffffffffffffffffffffff167fddf252ad1be2c89b69c2b068fc378daa952ba7f163c4a11628f55a4df523b3ef60405160405180910390a45050565b6001816000016000828254019250508190555050565b6000613acd8260000161410f565b9050919050565b600c60009054906101000a900460ff1615613b57576040517f08c379a00000000000000000000000000000000000000000000000000000000081526004018080602001828103825260108152602001807f5061757361626c653a207061757365640000000000000000000000000000000081525060200191505060405180910390fd5b6001600c60006101000a81548160ff0219169083151502179055507f62e78cea01bee320cd4e420270b5ea74000d11b0c9f74754ebdbfc544b05a258613b9b612e3c565b604051808273ffffffffffffffffffffffffffffffffffffffff1673ffffffffffffffffffffffffffffffffffffffff16815260200191505060405180910390a1565b6000613bed8360000183613eb3565b60001c905092915050565b6000613c20836000018373ffffffffffffffffffffffffffffffffffffffff1660001b614120565b905092915050565b613c33848484613006565b613c3f84848484614143565b613c94576040517f08c379a0000000000000000000000000000000000000000000000000000000008152600401808060200182810382526032815260200180614ab36032913960400191505060405180910390fd5b50505050565b60606000821415613ce2576040518060400160405280600181526020017f30000000000000000000000000000000000000000000000000000000000000008152509050613dc5565b600082905060005b60008214613d0c578080600101915050600a8281613d0457fe5b049150613cea565b6060816040519080825280601f01601f191660200182016040528015613d415781602001600182028038833980820191505090505b50905060006001830390508593505b60008414613dbd57600a8481613d6257fe5b0660300160f81b82828060019003935081518110613d7c57fe5b60200101907effffffffffffffffffffffffffffffffffffffffffffffffffffffffffffff1916908160001a905350600a8481613db557fe5b049350613d50565b819450505050505b919050565b6000613dd88260000161410f565b9050919050565b6000613df1836000018360001b614388565b905092915050565b600081600001805490509050919050565b613e158383836143ab565b505050565b6000613e2c836000018360001b614419565b905092915050565b6000613e46836000018360001b614501565b905092915050565b6000613e7a846000018460001b8473ffffffffffffffffffffffffffffffffffffffff1660001b614571565b90509392505050565b6000613eab836000018373ffffffffffffffffffffffffffffffffffffffff1660001b614501565b905092915050565b600081836000018054905011613f14576040517f08c379a0000000000000000000000000000000000000000000000000000000008152600401808060200182810382526022815260200180614a0a6022913960400191505060405180910390fd5b826000018281548110613f2357fe5b9060005260206000200154905092915050565b6000613f5e836000018373ffffffffffffffffffffffffffffffffffffffff1660001b614419565b905092915050565b6000613f78836000018360001b61464d565b905092915050565b60008082846000018054905011613fe2576040517f08c379a0000000000000000000000000000000000000000000000000000000008152600401808060200182810382526022815260200180614c7f6022913960400191505060405180910390fd5b6000846000018481548110613ff357fe5b906000526020600020906002020190508060000154816001015492509250509250929050565b600080846001016000858152602001908152602001600020549050600081141583906140e0576040517f08c379a00000000000000000000000000000000000000000000000000000000081526004018080602001828103825283818151815260200191508051906020019080838360005b838110156140a557808201518184015260208101905061408a565b50505050905090810190601f1680156140d25780820380516001836020036101000a031916815260200191505b509250505060405180910390fd5b508460000160018203815481106140f357fe5b9060005260206000209060020201600101549150509392505050565b600081600001805490509050919050565b600080836001016000848152602001908152602001600020541415905092915050565b60006141648473ffffffffffffffffffffffffffffffffffffffff16614766565b6141715760019050614380565b606061430763150b7a0260e01b614186612e3c565b888787604051602401808573ffffffffffffffffffffffffffffffffffffffff1673ffffffffffffffffffffffffffffffffffffffff1681526020018473ffffffffffffffffffffffffffffffffffffffff1673ffffffffffffffffffffffffffffffffffffffff16815260200183815260200180602001828103825283818151815260200191508051906020019080838360005b8381101561423657808201518184015260208101905061421b565b50505050905090810190601f1680156142635780820380516001836020036101000a031916815260200191505b5095505050505050604051602081830303815290604052907bffffffffffffffffffffffffffffffffffffffffffffffffffffffff19166020820180517bffffffffffffffffffffffffffffffffffffffffffffffffffffffff8381831617835250505050604051806060016040528060328152602001614ab3603291398773ffffffffffffffffffffffffffffffffffffffff166147799092919063ffffffff16565b9050600081806020019051602081101561432057600080fd5b8101908080519060200190929190505050905063150b7a0260e01b7bffffffffffffffffffffffffffffffffffffffffffffffffffffffff1916817bffffffffffffffffffffffffffffffffffffffffffffffffffffffff191614925050505b949350505050565b600080836001016000848152602001908152602001600020541415905092915050565b6143b6838383614791565b6143be611c6d565b15614414576040517f08c379a000000000000000000000000000000000000000000000000000000000815260040180806020018281038252602b815260200180614a59602b913960400191505060405180910390fd5b505050565b600080836001016000848152602001908152602001600020549050600081146144f5576000600182039050600060018660000180549050039050600086600001828154811061446457fe5b906000526020600020015490508087600001848154811061448157fe5b90600052602060002001819055506001830187600101600083815260200190815260200160002081905550866000018054806144b957fe5b600190038181906000526020600020016000905590558660010160008781526020019081526020016000206000905560019450505050506144fb565b60009150505b92915050565b600061450d8383614120565b61456657826000018290806001815401808255809150506001900390600052602060002001600090919091909150558260000180549050836001016000848152602001908152602001600020819055506001905061456b565b600090505b92915050565b600080846001016000858152602001908152602001600020549050600081141561461857846000016040518060400160405280868152602001858152509080600181540180825580915050600190039060005260206000209060020201600090919091909150600082015181600001556020820151816001015550508460000180549050856001016000868152602001908152602001600020819055506001915050614646565b8285600001600183038154811061462b57fe5b90600052602060002090600202016001018190555060009150505b9392505050565b6000808360010160008481526020019081526020016000205490506000811461475a576000600182039050600060018660000180549050039050600086600001828154811061469857fe5b90600052602060002090600202019050808760000184815481106146b857fe5b906000526020600020906002020160008201548160000155600182015481600101559050506001830187600101600083600001548152602001908152602001600020819055508660000180548061470b57fe5b6001900381819060005260206000209060020201600080820160009055600182016000905550509055866001016000878152602001908152602001600020600090556001945050505050614760565b60009150505b92915050565b600080823b905060008111915050919050565b60606147888484600085614796565b90509392505050565b505050565b60606147a185614766565b614813576040517f08c379a000000000000000000000000000000000000000000000000000000000815260040180806020018281038252601d8152602001807f416464726573733a2063616c6c20746f206e6f6e2d636f6e747261637400000081525060200191505060405180910390fd5b600060608673ffffffffffffffffffffffffffffffffffffffff1685876040518082805190602001908083835b602083106148635780518252602082019150602081019050602083039250614840565b6001836020036101000a03801982511681845116808217855250505050505090500191505060006040518083038185875af1925050503d80600081146148c5576040519150601f19603f3d011682016040523d82523d6000602084013e6148ca565b606091505b509150915081156148df578092505050614994565b6000815111156148f25780518082602001fd5b836040517f08c379a00000000000000000000000000000000000000000000000000000000081526004018080602001828103825283818151815260200191508051906020019080838360005b8381101561495957808201518184015260208101905061493e565b50505050905090810190601f1680156149865780820380516001836020036101000a031916815260200191505b509250505060405180910390fd5b949350505050565b50805460018160011615610100020316600290046000825580601f106149c257506149e1565b601f0160209004906000526020600020908101906149e091906149e4565b5b50565b614a0691905b80821115614a025760008160009055506001016149ea565b5090565b9056fe456e756d657261626c655365743a20696e646578206f7574206f6620626f756e6473526f6c65733a2063616c6c657220646f6573206e6f74206861766520746865204f50455241544f5220726f6c654552433732315061757361626c653a20746f6b656e207472616e73666572207768696c6520706175736564416363657373436f6e74726f6c3a2073656e646572206d75737420626520616e2061646d696e20746f206772616e744552433732313a207472616e7366657220746f206e6f6e20455243373231526563656976657220696d706c656d656e7465724f776e61626c653a206e6577206f776e657220697320746865207a65726f20616464726573734552433732315072657365744d696e7465725061757365724175746f49643a206d75737420686176652070617573657220726f6c6520746f2070617573654552433732313a207472616e7366657220746f20746865207a65726f20616464726573734552433732313a206f70657261746f7220717565727920666f72206e6f6e6578697374656e7420746f6b656e416363657373436f6e74726f6c3a2073656e646572206d75737420626520616e2061646d696e20746f207265766f6b65526f6c65733a2063616c6c657220646f6573206e6f74206861766520746865204d494e54455220726f6c654552433732313a20617070726f76652063616c6c6572206973206e6f74206f776e6572206e6f7220617070726f76656420666f7220616c6c4552433732313a2062616c616e636520717565727920666f7220746865207a65726f20616464726573734552433732313a206f776e657220717565727920666f72206e6f6e6578697374656e7420746f6b656e456e756d657261626c654d61703a20696e646578206f7574206f6620626f756e64734552433732313a20617070726f76656420717565727920666f72206e6f6e6578697374656e7420746f6b656e4552433732313a207472616e73666572206f6620746f6b656e2074686174206973206e6f74206f776e4552433732314d657461646174613a2055524920717565727920666f72206e6f6e6578697374656e7420746f6b656e4552433732313a20617070726f76616c20746f2063757272656e74206f776e65724552433732313a207472616e736665722063616c6c6572206973206e6f74206f776e6572206e6f7220617070726f7665644552433732314275726e61626c653a2063616c6c6572206973206e6f74206f776e6572206e6f7220617070726f7665644552433732315072657365744d696e7465725061757365724175746f49643a206d75737420686176652070617573657220726f6c6520746f20756e7061757365416363657373436f6e74726f6c3a2063616e206f6e6c792072656e6f756e636520726f6c657320666f722073656c66a264697066735822122035a808253d5d7e5ffc6c27e6a890329bef3f002d6da16ece982db97f7823bea664736f6c634300060200334552433732315061757361626c653a20746f6b656e207472616e73666572207768696c65207061757365644552433732313a207472616e7366657220746f20746865207a65726f20616464726573734552433732313a206f70657261746f7220717565727920666f72206e6f6e6578697374656e7420746f6b656e526f6c65733a2063616c6c657220646f6573206e6f74206861766520746865204d494e54455220726f6c654552433732313a206f776e657220717565727920666f72206e6f6e6578697374656e7420746f6b656e4552433732313a20617070726f76656420717565727920666f72206e6f6e6578697374656e7420746f6b656e4552433732313a207472616e73666572206f6620746f6b656e2074686174206973206e6f74206f776e4552433732313a207472616e736665722063616c6c6572206973206e6f74206f776e6572206e6f7220617070726f766564",
  "source": "pragma solidity ^0.6.0;\r\n\r\nimport \"./@openzeppelin/contracts/token/ERC721/ERC721.sol\";\r\nimport \"./@openzeppelin/contracts/token/ERC721/ERC721Burnable.sol\";\r\nimport \"./@openzeppelin/contracts/token/ERC721/IERC721.sol\";\r\nimport \"./@openzeppelin/contracts/presets/ERC721PresetMinterPauserAutoId.sol\";\r\nimport \"./@openzeppelin/contracts/token/ERC1155/IERC1155.sol\";\r\nimport \"./@openzeppelin/contracts/token/ERC1155/ERC1155Holder.sol\";\r\nimport \"./@openzeppelin/contracts/utils/Counters.sol\";\r\nimport \"./@openzeppelin/contracts/access/Ownable.sol\";\r\nimport \"./@openzeppelin/contracts/token/ERC20/IERC20.sol\";\r\n\r\nimport \"./interfaces/IAlienToken.sol\";\r\n// SPDX-License-Identifier: MIT\r\n//ERC721\r\ncontract AlienERC721 is\r\n  Ownable,\r\n  ERC721PresetMinterPauserAutoId,\r\n  ERC1155Holder\r\n{\r\n  bytes32 public constant OPERATOR_ROLE = keccak256(\"OPERATOR_ROLE\");\r\n  IAlienToken public aln;\r\n\r\n  using Counters for Counters.Counter;\r\n  Counters.Counter private _tokenIds;\r\n  Counters.Counter private _itemIds;\r\n\r\n  bool public gameStopped = false;\r\n\r\n  struct AlienObj {\r\n    uint256 genes;\r\n    uint32 mumId;\r\n    uint32 dadId;\r\n    uint16 generation;\r\n  }\r\n\r\n  // Mapping from token ID to NFT struct details\r\n  mapping(uint256 => AlienObj) public alienDetails;\r\n  // Alien Time properties\r\n  mapping(uint256 => uint256) public timeUntilStarving;\r\n  mapping(uint256 => uint256) public timeAlienBorn;\r\n\r\n  constructor(address _AlienToken) public ERC721PresetMinterPauserAutoId(\r\n    \"AlienNFT\",\r\n     \"ALNFT\",\r\n     \"http:localhost/\"\r\n     ) {\r\n    _setupRole(OPERATOR_ROLE, _msgSender());\r\n    aln = IAlienToken(_AlienToken);\r\n    // We are creating the first alien at index 0\r\n    _createtAlien(0, 0, 0, uint16(-1), msg.sender);\r\n  }\r\n\r\n  event AlienMinted(\r\n    address owner,\r\n    uint256 alienId,\r\n    uint32 mumId,\r\n    uint32 dadId,\r\n    uint256 genes\r\n  );\r\n\r\n  modifier notPaused() {\r\n      require(!gameStopped, \"Contract is paused\");\r\n      _;\r\n  }\r\n\r\n  modifier onlyOperator() {\r\n      require(\r\n          hasRole(OPERATOR_ROLE, _msgSender()),\r\n          \"Roles: caller does not have the OPERATOR role\"\r\n      );\r\n      _;\r\n  }\r\n\r\n  modifier onlyMinter() {\r\n      require(\r\n          hasRole(MINTER_ROLE, _msgSender()),\r\n          \"Roles: caller does not have the MINTER role\"\r\n      );\r\n      _;\r\n  }\r\n\r\n  function _createtAlien(\r\n      uint256 _genes,\r\n      uint32 _mumId,\r\n      uint32 _dadId,\r\n      uint16 _generation,\r\n      address _owner\r\n      ) internal returns (uint256) {\r\n\r\n      alienDetails[_tokenIds.current()] = AlienObj(\r\n        uint256(_genes),\r\n        uint32(_mumId),\r\n        uint32(_dadId),\r\n        uint16(_generation)\r\n      );\r\n      mint(_owner);\r\n\r\n      // It's probably never going to happen, 4 billion cats is A LOT, but\r\n      // let's just be 100% sure we never let this happen.\r\n      require(_tokenIds.current() == uint256(uint32(_tokenIds.current())));\r\n\r\n      if(_owner != owner()){\r\n          transferFrom(address(0), _owner, _tokenIds.current());\r\n      }\r\n\r\n      emit AlienMinted(_owner, _tokenIds.current(), _mumId, _dadId, _genes);\r\n      return _tokenIds.current();\r\n    }\r\n\r\n  function mint(address player) public override onlyMinter{\r\n    //pet minted has 7 days until it starves at first\r\n    timeUntilStarving[_tokenIds.current()] = block.timestamp.add(7 days);\r\n    timeAlienBorn[_tokenIds.current()] = block.timestamp;\r\n\r\n    super._mint(player, _tokenIds.current());\r\n    _tokenIds.increment();\r\n  }\r\n\r\n  // in case a bug happens or we upgrade to another smart contract\r\n  function pauseGame(bool _pause) external onlyOperator {\r\n      gameStopped = _pause;\r\n  }\r\n\r\n  // check that Alien didn't starve\r\n  function isAlienAlive(uint256 _nftId) public view returns (bool) {\r\n    uint256 _timeUntilStarving = timeUntilStarving[_nftId];\r\n    if (_timeUntilStarving != 0 && _timeUntilStarving >= block.timestamp) {\r\n      return true;\r\n    }\r\n  }\r\n\r\n  function getAlien(uint256 _nftId) public view returns(\r\n    uint256 _genes,\r\n    uint256 _timeAlienBorn,\r\n    uint256 _mumId,\r\n    uint256 _dadId,\r\n    uint256 _generation\r\n    ){\r\n      AlienObj storage alien = alienDetails[_nftId];\r\n\r\n      require(timeAlienBorn[_tokenIds.current()] > 0, \"the alien doesn't exist\");\r\n\r\n      _genes = uint256(alien.genes);\r\n      _timeAlienBorn = uint256(timeAlienBorn[_tokenIds.current()]);\r\n      _mumId = uint256(alien.mumId);\r\n      _dadId = uint256(alien.dadId);\r\n      _generation = uint256(alien.generation);\r\n  }\r\n\r\n  function createtAlien(\r\n      uint256 _genes,\r\n      uint32 _mumId,\r\n      uint32 _dadId,\r\n      uint16 _generation,\r\n      address _owner\r\n      ) external {\r\n        _createtAlien(_genes, _mumId, _dadId, _generation, _owner);\r\n  }\r\n  function isApprovedOwner(address _owner, uint256 _nftId) public view returns (bool){\r\n    return _isApprovedOrOwner(_owner, _nftId);\r\n  }\r\n\r\n}\r\n",
  "sourcePath": "C:/Users/TC/OneDrive/Documentos/GitHub/cryptoaliens/solidity/contracts/AlienERC721.sol",
  "compiler": {
    "name": "solc",
    "version": "0.6.2+commit.bacdbe57.Emscripten.clang"
  },
  "schemaVersion": "3.3.2",
  "updatedAt": "2021-01-08T09:44:12.405Z",
  "networkType": "ethereum",
  "devdoc": {
    "methods": {
      "approve(address,uint256)": {
        "details": "See {IERC721-approve}."
      },
      "balanceOf(address)": {
        "details": "See {IERC721-balanceOf}."
      },
      "baseURI()": {
        "details": "Returns the base URI set via {_setBaseURI}. This will be automatically added as a prefix in {tokenURI} to each token's URI, or to the token ID if no specific URI is set for that token ID."
      },
      "burn(uint256)": {
        "details": "Burns `tokenId`. See {ERC721-_burn}.      * Requirements:      * - The caller must own `tokenId` or be an approved operator."
      },
      "getApproved(uint256)": {
        "details": "See {IERC721-getApproved}."
      },
      "getRoleAdmin(bytes32)": {
        "details": "Returns the admin role that controls `role`. See {grantRole} and {revokeRole}.      * To change a role's admin, use {_setRoleAdmin}."
      },
      "getRoleMember(bytes32,uint256)": {
        "details": "Returns one of the accounts that have `role`. `index` must be a value between 0 and {getRoleMemberCount}, non-inclusive.      * Role bearers are not sorted in any particular way, and their ordering may change at any point.      * WARNING: When using {getRoleMember} and {getRoleMemberCount}, make sure you perform all queries on the same block. See the following https://forum.openzeppelin.com/t/iterating-over-elements-on-enumerableset-in-openzeppelin-contracts/2296[forum post] for more information."
      },
      "getRoleMemberCount(bytes32)": {
        "details": "Returns the number of accounts that have `role`. Can be used together with {getRoleMember} to enumerate all bearers of a role."
      },
      "grantRole(bytes32,address)": {
        "details": "Grants `role` to `account`.      * If `account` had not been already granted `role`, emits a {RoleGranted} event.      * Requirements:      * - the caller must have ``role``'s admin role."
      },
      "hasRole(bytes32,address)": {
        "details": "Returns `true` if `account` has been granted `role`."
      },
      "isApprovedForAll(address,address)": {
        "details": "See {IERC721-isApprovedForAll}."
      },
      "name()": {
        "details": "See {IERC721Metadata-name}."
      },
      "owner()": {
        "details": "Returns the address of the current owner."
      },
      "ownerOf(uint256)": {
        "details": "See {IERC721-ownerOf}."
      },
      "pause()": {
        "details": "Pauses all token transfers.      * See {ERC721Pausable} and {Pausable-_pause}.      * Requirements:      * - the caller must have the `PAUSER_ROLE`."
      },
      "paused()": {
        "details": "Returns true if the contract is paused, and false otherwise."
      },
      "renounceOwnership()": {
        "details": "Leaves the contract without owner. It will not be possible to call `onlyOwner` functions anymore. Can only be called by the current owner.      * NOTE: Renouncing ownership will leave the contract without an owner, thereby removing any functionality that is only available to the owner."
      },
      "renounceRole(bytes32,address)": {
        "details": "Revokes `role` from the calling account.      * Roles are often managed via {grantRole} and {revokeRole}: this function's purpose is to provide a mechanism for accounts to lose their privileges if they are compromised (such as when a trusted device is misplaced).      * If the calling account had been granted `role`, emits a {RoleRevoked} event.      * Requirements:      * - the caller must be `account`."
      },
      "revokeRole(bytes32,address)": {
        "details": "Revokes `role` from `account`.      * If `account` had been granted `role`, emits a {RoleRevoked} event.      * Requirements:      * - the caller must have ``role``'s admin role."
      },
      "safeTransferFrom(address,address,uint256)": {
        "details": "See {IERC721-safeTransferFrom}."
      },
      "safeTransferFrom(address,address,uint256,bytes)": {
        "details": "See {IERC721-safeTransferFrom}."
      },
      "setApprovalForAll(address,bool)": {
        "details": "See {IERC721-setApprovalForAll}."
      },
      "supportsInterface(bytes4)": {
        "details": "See {IERC165-supportsInterface}.      * Time complexity O(1), guaranteed to always use less than 30 000 gas."
      },
      "symbol()": {
        "details": "See {IERC721Metadata-symbol}."
      },
      "tokenByIndex(uint256)": {
        "details": "See {IERC721Enumerable-tokenByIndex}."
      },
      "tokenOfOwnerByIndex(address,uint256)": {
        "details": "See {IERC721Enumerable-tokenOfOwnerByIndex}."
      },
      "tokenURI(uint256)": {
        "details": "See {IERC721Metadata-tokenURI}."
      },
      "totalSupply()": {
        "details": "See {IERC721Enumerable-totalSupply}."
      },
      "transferFrom(address,address,uint256)": {
        "details": "See {IERC721-transferFrom}."
      },
      "transferOwnership(address)": {
        "details": "Transfers ownership of the contract to a new account (`newOwner`). Can only be called by the current owner."
      },
      "unpause()": {
        "details": "Unpauses all token transfers.      * See {ERC721Pausable} and {Pausable-_unpause}.      * Requirements:      * - the caller must have the `PAUSER_ROLE`."
      }
    }
  },
  "userdoc": {
    "methods": {}
  }
}