{
  "contractName": "AlienERC721",
  "abi": [
    {
      "inputs": [],
      "stateMutability": "nonpayable",
      "type": "constructor"
    },
    {
      "anonymous": false,
      "inputs": [
        {
          "indexed": false,
          "internalType": "address",
          "name": "owner",
          "type": "address"
        },
        {
          "indexed": false,
          "internalType": "uint256",
          "name": "alienId",
          "type": "uint256"
        },
        {
          "indexed": false,
          "internalType": "uint32",
          "name": "mumId",
          "type": "uint32"
        },
        {
          "indexed": false,
          "internalType": "uint32",
          "name": "dadId",
          "type": "uint32"
        },
        {
          "indexed": false,
          "internalType": "uint256",
          "name": "genes",
          "type": "uint256"
        }
      ],
      "name": "AlienMinted",
      "type": "event"
    },
    {
      "anonymous": false,
      "inputs": [
        {
          "indexed": true,
          "internalType": "address",
          "name": "owner",
          "type": "address"
        },
        {
          "indexed": true,
          "internalType": "address",
          "name": "approved",
          "type": "address"
        },
        {
          "indexed": true,
          "internalType": "uint256",
          "name": "tokenId",
          "type": "uint256"
        }
      ],
      "name": "Approval",
      "type": "event"
    },
    {
      "anonymous": false,
      "inputs": [
        {
          "indexed": true,
          "internalType": "address",
          "name": "owner",
          "type": "address"
        },
        {
          "indexed": true,
          "internalType": "address",
          "name": "operator",
          "type": "address"
        },
        {
          "indexed": false,
          "internalType": "bool",
          "name": "approved",
          "type": "bool"
        }
      ],
      "name": "ApprovalForAll",
      "type": "event"
    },
    {
      "anonymous": false,
      "inputs": [
        {
          "indexed": true,
          "internalType": "address",
          "name": "previousOwner",
          "type": "address"
        },
        {
          "indexed": true,
          "internalType": "address",
          "name": "newOwner",
          "type": "address"
        }
      ],
      "name": "OwnershipTransferred",
      "type": "event"
    },
    {
      "anonymous": false,
      "inputs": [
        {
          "indexed": false,
          "internalType": "address",
          "name": "account",
          "type": "address"
        }
      ],
      "name": "Paused",
      "type": "event"
    },
    {
      "anonymous": false,
      "inputs": [
        {
          "indexed": true,
          "internalType": "bytes32",
          "name": "role",
          "type": "bytes32"
        },
        {
          "indexed": true,
          "internalType": "bytes32",
          "name": "previousAdminRole",
          "type": "bytes32"
        },
        {
          "indexed": true,
          "internalType": "bytes32",
          "name": "newAdminRole",
          "type": "bytes32"
        }
      ],
      "name": "RoleAdminChanged",
      "type": "event"
    },
    {
      "anonymous": false,
      "inputs": [
        {
          "indexed": true,
          "internalType": "bytes32",
          "name": "role",
          "type": "bytes32"
        },
        {
          "indexed": true,
          "internalType": "address",
          "name": "account",
          "type": "address"
        },
        {
          "indexed": true,
          "internalType": "address",
          "name": "sender",
          "type": "address"
        }
      ],
      "name": "RoleGranted",
      "type": "event"
    },
    {
      "anonymous": false,
      "inputs": [
        {
          "indexed": true,
          "internalType": "bytes32",
          "name": "role",
          "type": "bytes32"
        },
        {
          "indexed": true,
          "internalType": "address",
          "name": "account",
          "type": "address"
        },
        {
          "indexed": true,
          "internalType": "address",
          "name": "sender",
          "type": "address"
        }
      ],
      "name": "RoleRevoked",
      "type": "event"
    },
    {
      "anonymous": false,
      "inputs": [
        {
          "indexed": true,
          "internalType": "address",
          "name": "from",
          "type": "address"
        },
        {
          "indexed": true,
          "internalType": "address",
          "name": "to",
          "type": "address"
        },
        {
          "indexed": true,
          "internalType": "uint256",
          "name": "tokenId",
          "type": "uint256"
        }
      ],
      "name": "Transfer",
      "type": "event"
    },
    {
      "anonymous": false,
      "inputs": [
        {
          "indexed": false,
          "internalType": "address",
          "name": "account",
          "type": "address"
        }
      ],
      "name": "Unpaused",
      "type": "event"
    },
    {
      "inputs": [],
      "name": "DEFAULT_ADMIN_ROLE",
      "outputs": [
        {
          "internalType": "bytes32",
          "name": "",
          "type": "bytes32"
        }
      ],
      "stateMutability": "view",
      "type": "function",
      "constant": true
    },
    {
      "inputs": [],
      "name": "MINTER_ROLE",
      "outputs": [
        {
          "internalType": "bytes32",
          "name": "",
          "type": "bytes32"
        }
      ],
      "stateMutability": "view",
      "type": "function",
      "constant": true
    },
    {
      "inputs": [],
      "name": "OPERATOR_ROLE",
      "outputs": [
        {
          "internalType": "bytes32",
          "name": "",
          "type": "bytes32"
        }
      ],
      "stateMutability": "view",
      "type": "function",
      "constant": true
    },
    {
      "inputs": [],
      "name": "PAUSER_ROLE",
      "outputs": [
        {
          "internalType": "bytes32",
          "name": "",
          "type": "bytes32"
        }
      ],
      "stateMutability": "view",
      "type": "function",
      "constant": true
    },
    {
      "inputs": [
        {
          "internalType": "uint256",
          "name": "",
          "type": "uint256"
        }
      ],
      "name": "alienDetails",
      "outputs": [
        {
          "internalType": "uint256",
          "name": "genes",
          "type": "uint256"
        },
        {
          "internalType": "uint32",
          "name": "mumId",
          "type": "uint32"
        },
        {
          "internalType": "uint32",
          "name": "dadId",
          "type": "uint32"
        },
        {
          "internalType": "uint16",
          "name": "generation",
          "type": "uint16"
        }
      ],
      "stateMutability": "view",
      "type": "function",
      "constant": true
    },
    {
      "inputs": [
        {
          "internalType": "address",
          "name": "to",
          "type": "address"
        },
        {
          "internalType": "uint256",
          "name": "tokenId",
          "type": "uint256"
        }
      ],
      "name": "approve",
      "outputs": [],
      "stateMutability": "nonpayable",
      "type": "function"
    },
    {
      "inputs": [
        {
          "internalType": "address",
          "name": "owner",
          "type": "address"
        }
      ],
      "name": "balanceOf",
      "outputs": [
        {
          "internalType": "uint256",
          "name": "",
          "type": "uint256"
        }
      ],
      "stateMutability": "view",
      "type": "function",
      "constant": true
    },
    {
      "inputs": [],
      "name": "baseURI",
      "outputs": [
        {
          "internalType": "string",
          "name": "",
          "type": "string"
        }
      ],
      "stateMutability": "view",
      "type": "function",
      "constant": true
    },
    {
      "inputs": [
        {
          "internalType": "uint256",
          "name": "tokenId",
          "type": "uint256"
        }
      ],
      "name": "burn",
      "outputs": [],
      "stateMutability": "nonpayable",
      "type": "function"
    },
    {
      "inputs": [],
      "name": "gameStopped",
      "outputs": [
        {
          "internalType": "bool",
          "name": "",
          "type": "bool"
        }
      ],
      "stateMutability": "view",
      "type": "function",
      "constant": true
    },
    {
      "inputs": [
        {
          "internalType": "uint256",
          "name": "tokenId",
          "type": "uint256"
        }
      ],
      "name": "getApproved",
      "outputs": [
        {
          "internalType": "address",
          "name": "",
          "type": "address"
        }
      ],
      "stateMutability": "view",
      "type": "function",
      "constant": true
    },
    {
      "inputs": [
        {
          "internalType": "bytes32",
          "name": "role",
          "type": "bytes32"
        }
      ],
      "name": "getRoleAdmin",
      "outputs": [
        {
          "internalType": "bytes32",
          "name": "",
          "type": "bytes32"
        }
      ],
      "stateMutability": "view",
      "type": "function",
      "constant": true
    },
    {
      "inputs": [
        {
          "internalType": "bytes32",
          "name": "role",
          "type": "bytes32"
        },
        {
          "internalType": "uint256",
          "name": "index",
          "type": "uint256"
        }
      ],
      "name": "getRoleMember",
      "outputs": [
        {
          "internalType": "address",
          "name": "",
          "type": "address"
        }
      ],
      "stateMutability": "view",
      "type": "function",
      "constant": true
    },
    {
      "inputs": [
        {
          "internalType": "bytes32",
          "name": "role",
          "type": "bytes32"
        }
      ],
      "name": "getRoleMemberCount",
      "outputs": [
        {
          "internalType": "uint256",
          "name": "",
          "type": "uint256"
        }
      ],
      "stateMutability": "view",
      "type": "function",
      "constant": true
    },
    {
      "inputs": [
        {
          "internalType": "bytes32",
          "name": "role",
          "type": "bytes32"
        },
        {
          "internalType": "address",
          "name": "account",
          "type": "address"
        }
      ],
      "name": "grantRole",
      "outputs": [],
      "stateMutability": "nonpayable",
      "type": "function"
    },
    {
      "inputs": [
        {
          "internalType": "bytes32",
          "name": "role",
          "type": "bytes32"
        },
        {
          "internalType": "address",
          "name": "account",
          "type": "address"
        }
      ],
      "name": "hasRole",
      "outputs": [
        {
          "internalType": "bool",
          "name": "",
          "type": "bool"
        }
      ],
      "stateMutability": "view",
      "type": "function",
      "constant": true
    },
    {
      "inputs": [
        {
          "internalType": "address",
          "name": "owner",
          "type": "address"
        },
        {
          "internalType": "address",
          "name": "operator",
          "type": "address"
        }
      ],
      "name": "isApprovedForAll",
      "outputs": [
        {
          "internalType": "bool",
          "name": "",
          "type": "bool"
        }
      ],
      "stateMutability": "view",
      "type": "function",
      "constant": true
    },
    {
      "inputs": [],
      "name": "name",
      "outputs": [
        {
          "internalType": "string",
          "name": "",
          "type": "string"
        }
      ],
      "stateMutability": "view",
      "type": "function",
      "constant": true
    },
    {
      "inputs": [
        {
          "internalType": "address",
          "name": "",
          "type": "address"
        },
        {
          "internalType": "address",
          "name": "",
          "type": "address"
        },
        {
          "internalType": "uint256[]",
          "name": "",
          "type": "uint256[]"
        },
        {
          "internalType": "uint256[]",
          "name": "",
          "type": "uint256[]"
        },
        {
          "internalType": "bytes",
          "name": "",
          "type": "bytes"
        }
      ],
      "name": "onERC1155BatchReceived",
      "outputs": [
        {
          "internalType": "bytes4",
          "name": "",
          "type": "bytes4"
        }
      ],
      "stateMutability": "nonpayable",
      "type": "function"
    },
    {
      "inputs": [
        {
          "internalType": "address",
          "name": "",
          "type": "address"
        },
        {
          "internalType": "address",
          "name": "",
          "type": "address"
        },
        {
          "internalType": "uint256",
          "name": "",
          "type": "uint256"
        },
        {
          "internalType": "uint256",
          "name": "",
          "type": "uint256"
        },
        {
          "internalType": "bytes",
          "name": "",
          "type": "bytes"
        }
      ],
      "name": "onERC1155Received",
      "outputs": [
        {
          "internalType": "bytes4",
          "name": "",
          "type": "bytes4"
        }
      ],
      "stateMutability": "nonpayable",
      "type": "function"
    },
    {
      "inputs": [],
      "name": "owner",
      "outputs": [
        {
          "internalType": "address",
          "name": "",
          "type": "address"
        }
      ],
      "stateMutability": "view",
      "type": "function",
      "constant": true
    },
    {
      "inputs": [
        {
          "internalType": "uint256",
          "name": "tokenId",
          "type": "uint256"
        }
      ],
      "name": "ownerOf",
      "outputs": [
        {
          "internalType": "address",
          "name": "",
          "type": "address"
        }
      ],
      "stateMutability": "view",
      "type": "function",
      "constant": true
    },
    {
      "inputs": [],
      "name": "pause",
      "outputs": [],
      "stateMutability": "nonpayable",
      "type": "function"
    },
    {
      "inputs": [],
      "name": "paused",
      "outputs": [
        {
          "internalType": "bool",
          "name": "",
          "type": "bool"
        }
      ],
      "stateMutability": "view",
      "type": "function",
      "constant": true
    },
    {
      "inputs": [],
      "name": "renounceOwnership",
      "outputs": [],
      "stateMutability": "nonpayable",
      "type": "function"
    },
    {
      "inputs": [
        {
          "internalType": "bytes32",
          "name": "role",
          "type": "bytes32"
        },
        {
          "internalType": "address",
          "name": "account",
          "type": "address"
        }
      ],
      "name": "renounceRole",
      "outputs": [],
      "stateMutability": "nonpayable",
      "type": "function"
    },
    {
      "inputs": [
        {
          "internalType": "bytes32",
          "name": "role",
          "type": "bytes32"
        },
        {
          "internalType": "address",
          "name": "account",
          "type": "address"
        }
      ],
      "name": "revokeRole",
      "outputs": [],
      "stateMutability": "nonpayable",
      "type": "function"
    },
    {
      "inputs": [
        {
          "internalType": "address",
          "name": "from",
          "type": "address"
        },
        {
          "internalType": "address",
          "name": "to",
          "type": "address"
        },
        {
          "internalType": "uint256",
          "name": "tokenId",
          "type": "uint256"
        }
      ],
      "name": "safeTransferFrom",
      "outputs": [],
      "stateMutability": "nonpayable",
      "type": "function"
    },
    {
      "inputs": [
        {
          "internalType": "address",
          "name": "from",
          "type": "address"
        },
        {
          "internalType": "address",
          "name": "to",
          "type": "address"
        },
        {
          "internalType": "uint256",
          "name": "tokenId",
          "type": "uint256"
        },
        {
          "internalType": "bytes",
          "name": "_data",
          "type": "bytes"
        }
      ],
      "name": "safeTransferFrom",
      "outputs": [],
      "stateMutability": "nonpayable",
      "type": "function"
    },
    {
      "inputs": [
        {
          "internalType": "address",
          "name": "operator",
          "type": "address"
        },
        {
          "internalType": "bool",
          "name": "approved",
          "type": "bool"
        }
      ],
      "name": "setApprovalForAll",
      "outputs": [],
      "stateMutability": "nonpayable",
      "type": "function"
    },
    {
      "inputs": [
        {
          "internalType": "bytes4",
          "name": "interfaceId",
          "type": "bytes4"
        }
      ],
      "name": "supportsInterface",
      "outputs": [
        {
          "internalType": "bool",
          "name": "",
          "type": "bool"
        }
      ],
      "stateMutability": "view",
      "type": "function",
      "constant": true
    },
    {
      "inputs": [],
      "name": "symbol",
      "outputs": [
        {
          "internalType": "string",
          "name": "",
          "type": "string"
        }
      ],
      "stateMutability": "view",
      "type": "function",
      "constant": true
    },
    {
      "inputs": [
        {
          "internalType": "uint256",
          "name": "",
          "type": "uint256"
        }
      ],
      "name": "timeAlienBorn",
      "outputs": [
        {
          "internalType": "uint256",
          "name": "",
          "type": "uint256"
        }
      ],
      "stateMutability": "view",
      "type": "function",
      "constant": true
    },
    {
      "inputs": [
        {
          "internalType": "uint256",
          "name": "",
          "type": "uint256"
        }
      ],
      "name": "timeUntilStarving",
      "outputs": [
        {
          "internalType": "uint256",
          "name": "",
          "type": "uint256"
        }
      ],
      "stateMutability": "view",
      "type": "function",
      "constant": true
    },
    {
      "inputs": [
        {
          "internalType": "uint256",
          "name": "index",
          "type": "uint256"
        }
      ],
      "name": "tokenByIndex",
      "outputs": [
        {
          "internalType": "uint256",
          "name": "",
          "type": "uint256"
        }
      ],
      "stateMutability": "view",
      "type": "function",
      "constant": true
    },
    {
      "inputs": [
        {
          "internalType": "address",
          "name": "owner",
          "type": "address"
        },
        {
          "internalType": "uint256",
          "name": "index",
          "type": "uint256"
        }
      ],
      "name": "tokenOfOwnerByIndex",
      "outputs": [
        {
          "internalType": "uint256",
          "name": "",
          "type": "uint256"
        }
      ],
      "stateMutability": "view",
      "type": "function",
      "constant": true
    },
    {
      "inputs": [
        {
          "internalType": "uint256",
          "name": "tokenId",
          "type": "uint256"
        }
      ],
      "name": "tokenURI",
      "outputs": [
        {
          "internalType": "string",
          "name": "",
          "type": "string"
        }
      ],
      "stateMutability": "view",
      "type": "function",
      "constant": true
    },
    {
      "inputs": [],
      "name": "totalSupply",
      "outputs": [
        {
          "internalType": "uint256",
          "name": "",
          "type": "uint256"
        }
      ],
      "stateMutability": "view",
      "type": "function",
      "constant": true
    },
    {
      "inputs": [
        {
          "internalType": "address",
          "name": "from",
          "type": "address"
        },
        {
          "internalType": "address",
          "name": "to",
          "type": "address"
        },
        {
          "internalType": "uint256",
          "name": "tokenId",
          "type": "uint256"
        }
      ],
      "name": "transferFrom",
      "outputs": [],
      "stateMutability": "nonpayable",
      "type": "function"
    },
    {
      "inputs": [
        {
          "internalType": "address",
          "name": "newOwner",
          "type": "address"
        }
      ],
      "name": "transferOwnership",
      "outputs": [],
      "stateMutability": "nonpayable",
      "type": "function"
    },
    {
      "inputs": [],
      "name": "unpause",
      "outputs": [],
      "stateMutability": "nonpayable",
      "type": "function"
    },
    {
      "inputs": [
        {
          "internalType": "address",
          "name": "player",
          "type": "address"
        }
      ],
      "name": "mint",
      "outputs": [],
      "stateMutability": "nonpayable",
      "type": "function"
    },
    {
      "inputs": [
        {
          "internalType": "bool",
          "name": "_pause",
          "type": "bool"
        }
      ],
      "name": "pauseGame",
      "outputs": [],
      "stateMutability": "nonpayable",
      "type": "function"
    },
    {
      "inputs": [
        {
          "internalType": "uint256",
          "name": "_nftId",
          "type": "uint256"
        }
      ],
      "name": "isAlienAlive",
      "outputs": [
        {
          "internalType": "bool",
          "name": "",
          "type": "bool"
        }
      ],
      "stateMutability": "view",
      "type": "function",
      "constant": true
    },
    {
      "inputs": [
        {
          "internalType": "uint256",
          "name": "_nftId",
          "type": "uint256"
        }
      ],
      "name": "getAlien",
      "outputs": [
        {
          "internalType": "uint256",
          "name": "_genes",
          "type": "uint256"
        },
        {
          "internalType": "uint256",
          "name": "_timeAlienBorn",
          "type": "uint256"
        },
        {
          "internalType": "uint256",
          "name": "_mumId",
          "type": "uint256"
        },
        {
          "internalType": "uint256",
          "name": "_dadId",
          "type": "uint256"
        },
        {
          "internalType": "uint256",
          "name": "_generation",
          "type": "uint256"
        }
      ],
      "stateMutability": "view",
      "type": "function",
      "constant": true
    },
    {
      "inputs": [
        {
          "internalType": "uint256",
          "name": "_genes",
          "type": "uint256"
        },
        {
          "internalType": "uint32",
          "name": "_mumId",
          "type": "uint32"
        },
        {
          "internalType": "uint32",
          "name": "_dadId",
          "type": "uint32"
        },
        {
          "internalType": "uint16",
          "name": "_generation",
          "type": "uint16"
        },
        {
          "internalType": "address",
          "name": "_owner",
          "type": "address"
        }
      ],
      "name": "createtAlien",
      "outputs": [
        {
          "internalType": "uint256",
          "name": "",
          "type": "uint256"
        }
      ],
      "stateMutability": "nonpayable",
      "type": "function"
    },
    {
      "inputs": [
        {
          "internalType": "address",
          "name": "_owner",
          "type": "address"
        },
        {
          "internalType": "uint256",
          "name": "_nftId",
          "type": "uint256"
        }
      ],
      "name": "isApprovedOwner",
      "outputs": [
        {
          "internalType": "bool",
          "name": "",
          "type": "bool"
        }
      ],
      "stateMutability": "view",
      "type": "function",
      "constant": true
    }
  ],
  "bytecode": "0x60806040526000600f60006101000a81548160ff0219169083151502179055503480156200002c57600080fd5b506040518060400160405280600881526020017f416c69656e4e46540000000000000000000000000000000000000000000000008152506040518060400160405280600581526020017f414c4e46540000000000000000000000000000000000000000000000000000008152506040518060400160405280600f81526020017f687474703a6c6f63616c686f73742f000000000000000000000000000000000081525082826000620000e36200041060201b60201c565b9050806000806101000a81548173ffffffffffffffffffffffffffffffffffffffff021916908373ffffffffffffffffffffffffffffffffffffffff1602179055508073ffffffffffffffffffffffffffffffffffffffff16600073ffffffffffffffffffffffffffffffffffffffff167f8be0079c531659141344cd1fd0a4f28419497f9722a3daafe3b4186f6b6457e060405160405180910390a350620001996301ffc9a760e01b6200041860201b60201c565b8160089080519060200190620001b1929190620018e9565b508060099080519060200190620001ca929190620018e9565b50620001e36380ac58cd60e01b6200041860201b60201c565b620001fb635b5e139f60e01b6200041860201b60201c565b6200021363780e9d6360e01b6200041860201b60201c565b50506000600c60006101000a81548160ff021916908315150217905550620002546000801b620002486200041060201b60201c565b6200052260201b60201c565b620002aa60405180807f4d494e5445525f524f4c45000000000000000000000000000000000000000000815250600b01905060405180910390206200029e6200041060201b60201c565b6200052260201b60201c565b6200030060405180807f5041555345525f524f4c45000000000000000000000000000000000000000000815250600b0190506040518091039020620002f46200041060201b60201c565b6200052260201b60201c565b62000311816200053860201b60201c565b5050506200033563bc197c8160e01b63f23a6e6160e01b186200041860201b60201c565b6200038b60405180807f4f50455241544f525f524f4c4500000000000000000000000000000000000000815250600d01905060405180910390206200037f6200041060201b60201c565b6200052260201b60201c565b620003d260405180807f4d494e5445525f524f4c45000000000000000000000000000000000000000000815250600b0190506040518091039020306200052260201b60201c565b6200040960008060007fffffffffffffffffffffffffffffffffffffffffffffffffffffffffffffffff336200055460201b60201c565b5062001998565b600033905090565b63ffffffff60e01b817bffffffffffffffffffffffffffffffffffffffffffffffffffffffff19161415620004b5576040517f08c379a000000000000000000000000000000000000000000000000000000000815260040180806020018281038252601c8152602001807f4552433136353a20696e76616c696420696e746572666163652069640000000081525060200191505060405180910390fd5b600160026000837bffffffffffffffffffffffffffffffffffffffffffffffffffffffff19167bffffffffffffffffffffffffffffffffffffffffffffffffffffffff1916815260200190815260200160002060006101000a81548160ff02191690831515021790555050565b620005348282620007be60201b60201c565b5050565b80600b908051906020019062000550929190620018e9565b5050565b600060405180608001604052808781526020018663ffffffff1681526020018563ffffffff1681526020018461ffff1681525060106000620005a2600e6200086260201b620038491760201c565b81526020019081526020016000206000820151816000015560208201518160010160006101000a81548163ffffffff021916908363ffffffff16021790555060408201518160010160046101000a81548163ffffffff021916908363ffffffff16021790555060608201518160010160086101000a81548161ffff021916908361ffff1602179055509050506200063f826200087060201b60201c565b62000656600e6200086260201b620038491760201c565b63ffffffff1662000673600e6200086260201b620038491760201c565b146200067e57600080fd5b6200068e620009dc60201b60201c565b73ffffffffffffffffffffffffffffffffffffffff168273ffffffffffffffffffffffffffffffffffffffff1614620006eb57620006ea3083620006de600e6200086260201b620038491760201c565b62000a0560201b60201c565b5b7f190e965faf32f04a0bd16c35d90db68cfd344a647df4508f4a9a967b9dac08948262000724600e6200086260201b620038491760201c565b87878a604051808673ffffffffffffffffffffffffffffffffffffffff1673ffffffffffffffffffffffffffffffffffffffff1681526020018581526020018463ffffffff1663ffffffff1681526020018363ffffffff1663ffffffff1681526020018281526020019550505050505060405180910390a1620007b3600e6200086260201b620038491760201c565b905095945050505050565b620007ed816001600085815260200190815260200160002060000162000a9560201b62003e251790919060201c565b156200085e57620008036200041060201b60201c565b73ffffffffffffffffffffffffffffffffffffffff168173ffffffffffffffffffffffffffffffffffffffff16837f2f8788117e7eff1d82e926ec794901d17c78024a50270940304540a733656f0d60405160405180910390a45b5050565b600081600001549050919050565b620008c660405180807f4d494e5445525f524f4c45000000000000000000000000000000000000000000815250600b0190506040518091039020620008ba6200041060201b60201c565b62000acd60201b60201c565b6200091d576040517f08c379a000000000000000000000000000000000000000000000000000000000815260040180806020018281038252602b81526020018062006810602b913960400191505060405180910390fd5b6200093a62093a804262000b0660201b620037c11790919060201c565b6011600062000955600e6200086260201b620038491760201c565b815260200190815260200160002081905550426012600062000983600e6200086260201b620038491760201c565b815260200190815260200160002081905550620009c281620009b1600e6200086260201b620038491760201c565b62000b8f60201b620038571760201c565b620009d9600e62000da360201b62003a4b1760201c565b50565b60008060009054906101000a900473ffffffffffffffffffffffffffffffffffffffff16905090565b62000a2662000a196200041060201b60201c565b8262000db960201b60201c565b62000a7d576040517f08c379a0000000000000000000000000000000000000000000000000000000008152600401808060200182810382526031815260200180620068b96031913960400191505060405180910390fd5b62000a9083838362000ed160201b60201c565b505050565b600062000ac5836000018373ffffffffffffffffffffffffffffffffffffffff1660001b6200114560201b60201c565b905092915050565b600062000afe8260016000868152602001908152602001600020600001620011bf60201b62003b9a1790919060201c565b905092915050565b60008082840190508381101562000b85576040517f08c379a000000000000000000000000000000000000000000000000000000000815260040180806020018281038252601b8152602001807f536166654d6174683a206164646974696f6e206f766572666c6f77000000000081525060200191505060405180910390fd5b8091505092915050565b600073ffffffffffffffffffffffffffffffffffffffff168273ffffffffffffffffffffffffffffffffffffffff16141562000c33576040517f08c379a00000000000000000000000000000000000000000000000000000000081526004018080602001828103825260208152602001807f4552433732313a206d696e7420746f20746865207a65726f206164647265737381525060200191505060405180910390fd5b62000c4481620011f760201b60201c565b1562000cb8576040517f08c379a000000000000000000000000000000000000000000000000000000000815260040180806020018281038252601c8152602001807f4552433732313a20746f6b656e20616c7265616479206d696e7465640000000081525060200191505060405180910390fd5b62000ccc600083836200121b60201b60201c565b62000d2481600360008573ffffffffffffffffffffffffffffffffffffffff1673ffffffffffffffffffffffffffffffffffffffff1681526020019081526020016000206200123860201b62003dd61790919060201c565b5062000d42818360046200125a60201b62003df0179092919060201c565b50808273ffffffffffffffffffffffffffffffffffffffff16600073ffffffffffffffffffffffffffffffffffffffff167fddf252ad1be2c89b69c2b068fc378daa952ba7f163c4a11628f55a4df523b3ef60405160405180910390a45050565b6001816000016000828254019250508190555050565b600062000dcc82620011f760201b60201c565b62000e23576040517f08c379a000000000000000000000000000000000000000000000000000000000815260040180806020018281038252602c815260200180620067e4602c913960400191505060405180910390fd5b600062000e36836200129760201b60201c565b90508073ffffffffffffffffffffffffffffffffffffffff168473ffffffffffffffffffffffffffffffffffffffff16148062000eae57508373ffffffffffffffffffffffffffffffffffffffff1662000e9684620012d660201b60201c565b73ffffffffffffffffffffffffffffffffffffffff16145b8062000ec8575062000ec781856200137b60201b60201c565b5b91505092915050565b8273ffffffffffffffffffffffffffffffffffffffff1662000ef9826200129760201b60201c565b73ffffffffffffffffffffffffffffffffffffffff161462000f67576040517f08c379a0000000000000000000000000000000000000000000000000000000008152600401808060200182810382526029815260200180620068906029913960400191505060405180910390fd5b600073ffffffffffffffffffffffffffffffffffffffff168273ffffffffffffffffffffffffffffffffffffffff16141562000fef576040517f08c379a0000000000000000000000000000000000000000000000000000000008152600401808060200182810382526024815260200180620067c06024913960400191505060405180910390fd5b620010028383836200121b60201b60201c565b620010156000826200140f60201b60201c565b6200106d81600360008673ffffffffffffffffffffffffffffffffffffffff1673ffffffffffffffffffffffffffffffffffffffff168152602001908152602001600020620014d060201b62003dbc1790919060201c565b50620010c681600360008573ffffffffffffffffffffffffffffffffffffffff1673ffffffffffffffffffffffffffffffffffffffff1681526020019081526020016000206200123860201b62003dd61790919060201c565b50620010e4818360046200125a60201b62003df0179092919060201c565b50808273ffffffffffffffffffffffffffffffffffffffff168473ffffffffffffffffffffffffffffffffffffffff167fddf252ad1be2c89b69c2b068fc378daa952ba7f163c4a11628f55a4df523b3ef60405160405180910390a4505050565b6000620011598383620014f260201b60201c565b620011b4578260000182908060018154018082558091505060019003906000526020600020016000909190919091505582600001805490508360010160008481526020019081526020016000208190555060019050620011b9565b600090505b92915050565b6000620011ef836000018373ffffffffffffffffffffffffffffffffffffffff1660001b620014f260201b60201c565b905092915050565b6000620012148260046200151560201b62003d811790919060201c565b9050919050565b620012338383836200153760201b6200434d1760201c565b505050565b600062001252836000018360001b6200114560201b60201c565b905092915050565b60006200128e846000018460001b8473ffffffffffffffffffffffffffffffffffffffff1660001b620015bc60201b60201c565b90509392505050565b6000620012cf826040518060600160405280602981526020016200683b6029913960046200169b60201b620037a2179092919060201c565b9050919050565b6000620012e982620011f760201b60201c565b62001340576040517f08c379a000000000000000000000000000000000000000000000000000000000815260040180806020018281038252602c81526020018062006864602c913960400191505060405180910390fd5b6006600083815260200190815260200160002060009054906101000a900473ffffffffffffffffffffffffffffffffffffffff169050919050565b6000600760008473ffffffffffffffffffffffffffffffffffffffff1673ffffffffffffffffffffffffffffffffffffffff16815260200190815260200160002060008373ffffffffffffffffffffffffffffffffffffffff1673ffffffffffffffffffffffffffffffffffffffff16815260200190815260200160002060009054906101000a900460ff16905092915050565b816006600083815260200190815260200160002060006101000a81548173ffffffffffffffffffffffffffffffffffffffff021916908373ffffffffffffffffffffffffffffffffffffffff160217905550808273ffffffffffffffffffffffffffffffffffffffff166200148a836200129760201b60201c565b73ffffffffffffffffffffffffffffffffffffffff167f8c5be1e5ebec7d5bd14f71427d1e84f3dd0314c0f7b2291e5b200ac8c7c3b92560405160405180910390a45050565b6000620014ea836000018360001b620016c260201b60201c565b905092915050565b600080836001016000848152602001908152602001600020541415905092915050565b60006200152f836000018360001b620017af60201b60201c565b905092915050565b6200154f838383620017d260201b620047331760201c565b6200155f620017d760201b60201c565b15620015b7576040517f08c379a000000000000000000000000000000000000000000000000000000000815260040180806020018281038252602b81526020018062006795602b913960400191505060405180910390fd5b505050565b6000808460010160008581526020019081526020016000205490506000811415620016655784600001604051806040016040528086815260200185815250908060018154018082558091505060019003906000526020600020906002020160009091909190915060008201518160000155602082015181600101555050846000018054905085600101600086815260200190815260200160002081905550600191505062001694565b828560000160018303815481106200167957fe5b90600052602060002090600202016001018190555060009150505b9392505050565b6000620016b6846000018460001b84620017ee60201b60201c565b60001c90509392505050565b60008083600101600084815260200190815260200160002054905060008114620017a357600060018203905060006001866000018054905003905060008660000182815481106200170f57fe5b90600052602060002001549050808760000184815481106200172d57fe5b90600052602060002001819055506001830187600101600083815260200190815260200160002081905550866000018054806200176657fe5b60019003818190600052602060002001600090559055866001016000878152602001908152602001600020600090556001945050505050620017a9565b60009150505b92915050565b600080836001016000848152602001908152602001600020541415905092915050565b505050565b6000600c60009054906101000a900460ff16905090565b60008084600101600085815260200190815260200160002054905060008114158390620018b9576040517f08c379a00000000000000000000000000000000000000000000000000000000081526004018080602001828103825283818151815260200191508051906020019080838360005b838110156200187d57808201518184015260208101905062001860565b50505050905090810190601f168015620018ab5780820380516001836020036101000a031916815260200191505b509250505060405180910390fd5b50846000016001820381548110620018cd57fe5b9060005260206000209060020201600101549150509392505050565b828054600181600116156101000203166002900490600052602060002090601f016020900481019282601f106200192c57805160ff19168380011785556200195d565b828001600101855582156200195d579182015b828111156200195c5782518255916020019190600101906200193f565b5b5090506200196c919062001970565b5090565b6200199591905b808211156200199157600081600090555060010162001977565b5090565b90565b614ded80620019a86000396000f3fe608060405234801561001057600080fd5b50600436106102955760003560e01c8063715018a611610167578063ba269271116100ce578063e63ab1e911610087578063e63ab1e91461121e578063e985e9c51461123c578063f23a6e61146112b8578063f2fde38b14611419578063f5b541a61461145d578063f8ef871c1461147b57610295565b8063ba26927114610df6578063bc197c8114610e54578063c87b56dd146110c9578063ca15c87314611170578063d5391393146111b2578063d547741f146111d057610295565b8063902838d211610120578063902838d214610b5457806391d1485414610b9a57806395d89b4114610c00578063a217fddf14610c83578063a22cb46514610ca1578063b88d4fde14610cf157610295565b8063715018a6146109c557806371b3ea97146109cf5780638456cb5914610a465780638652e49c14610a505780638da5cb5b14610a925780639010d07c14610adc57610295565b806336568abe1161020b5780635c975abb116101c45780635c975abb146107865780635fb490e7146107a85780636352211e146108385780636a627842146108a65780636c0360eb146108ea57806370a082311461096d57610295565b806336568abe146106205780633f4ba83a1461066e57806342842e0e1461067857806342966c68146106e65780634f53126a146107145780634f6ccce71461074457610295565b80630fd65feb1161025d5780630fd65feb1461046057806318160ddd146104a257806323b872dd146104c0578063248a9ca31461052e5780632f2ff15d146105705780632f745c59146105be57610295565b806301ffc9a71461029a5780630430e405146102ff57806306fdde0314610321578063081812fc146103a4578063095ea7b314610412575b600080fd5b6102e5600480360360208110156102b057600080fd5b8101908080357bffffffffffffffffffffffffffffffffffffffffffffffffffffffff191690602001909291905050506114e1565b604051808215151515815260200191505060405180910390f35b610307611549565b604051808215151515815260200191505060405180910390f35b61032961155c565b6040518080602001828103825283818151815260200191508051906020019080838360005b8381101561036957808201518184015260208101905061034e565b50505050905090810190601f1680156103965780820380516001836020036101000a031916815260200191505b509250505060405180910390f35b6103d0600480360360208110156103ba57600080fd5b81019080803590602001909291905050506115fe565b604051808273ffffffffffffffffffffffffffffffffffffffff1673ffffffffffffffffffffffffffffffffffffffff16815260200191505060405180910390f35b61045e6004803603604081101561042857600080fd5b81019080803573ffffffffffffffffffffffffffffffffffffffff16906020019092919080359060200190929190505050611699565b005b61048c6004803603602081101561047657600080fd5b81019080803590602001909291905050506117dd565b6040518082815260200191505060405180910390f35b6104aa6117f5565b6040518082815260200191505060405180910390f35b61052c600480360360608110156104d657600080fd5b81019080803573ffffffffffffffffffffffffffffffffffffffff169060200190929190803573ffffffffffffffffffffffffffffffffffffffff16906020019092919080359060200190929190505050611806565b005b61055a6004803603602081101561054457600080fd5b810190808035906020019092919050505061187c565b6040518082815260200191505060405180910390f35b6105bc6004803603604081101561058657600080fd5b8101908080359060200190929190803573ffffffffffffffffffffffffffffffffffffffff16906020019092919050505061189c565b005b61060a600480360360408110156105d457600080fd5b81019080803573ffffffffffffffffffffffffffffffffffffffff16906020019092919080359060200190929190505050611926565b6040518082815260200191505060405180910390f35b61066c6004803603604081101561063657600080fd5b8101908080359060200190929190803573ffffffffffffffffffffffffffffffffffffffff169060200190929190505050611981565b005b610676611a1a565b005b6106e46004803603606081101561068e57600080fd5b81019080803573ffffffffffffffffffffffffffffffffffffffff169060200190929190803573ffffffffffffffffffffffffffffffffffffffff16906020019092919080359060200190929190505050611abf565b005b610712600480360360208110156106fc57600080fd5b8101908080359060200190929190505050611adf565b005b6107426004803603602081101561072a57600080fd5b81019080803515159060200190929190505050611b51565b005b6107706004803603602081101561075a57600080fd5b8101908080359060200190929190505050611c09565b6040518082815260200191505060405180910390f35b61078e611c2c565b604051808215151515815260200191505060405180910390f35b610822600480360360a08110156107be57600080fd5b8101908080359060200190929190803563ffffffff169060200190929190803563ffffffff169060200190929190803561ffff169060200190929190803573ffffffffffffffffffffffffffffffffffffffff169060200190929190505050611c43565b6040518082815260200191505060405180910390f35b6108646004803603602081101561084e57600080fd5b8101908080359060200190929190505050611c62565b604051808273ffffffffffffffffffffffffffffffffffffffff1673ffffffffffffffffffffffffffffffffffffffff16815260200191505060405180910390f35b6108e8600480360360208110156108bc57600080fd5b81019080803573ffffffffffffffffffffffffffffffffffffffff169060200190929190505050611c99565b005b6108f2611dab565b6040518080602001828103825283818151815260200191508051906020019080838360005b83811015610932578082015181840152602081019050610917565b50505050905090810190601f16801561095f5780820380516001836020036101000a031916815260200191505b509250505060405180910390f35b6109af6004803603602081101561098357600080fd5b81019080803573ffffffffffffffffffffffffffffffffffffffff169060200190929190505050611e4d565b6040518082815260200191505060405180910390f35b6109cd611f22565b005b6109fb600480360360208110156109e557600080fd5b81019080803590602001909291905050506120aa565b604051808581526020018463ffffffff1663ffffffff1681526020018363ffffffff1663ffffffff1681526020018261ffff1661ffff16815260200194505050505060405180910390f35b610a4e612108565b005b610a7c60048036036020811015610a6657600080fd5b81019080803590602001909291905050506121ad565b6040518082815260200191505060405180910390f35b610a9a6121c5565b604051808273ffffffffffffffffffffffffffffffffffffffff1673ffffffffffffffffffffffffffffffffffffffff16815260200191505060405180910390f35b610b1260048036036040811015610af257600080fd5b8101908080359060200190929190803590602001909291905050506121ee565b604051808273ffffffffffffffffffffffffffffffffffffffff1673ffffffffffffffffffffffffffffffffffffffff16815260200191505060405180910390f35b610b8060048036036020811015610b6a57600080fd5b8101908080359060200190929190505050612220565b604051808215151515815260200191505060405180910390f35b610be660048036036040811015610bb057600080fd5b8101908080359060200190929190803573ffffffffffffffffffffffffffffffffffffffff169060200190929190505050612260565b604051808215151515815260200191505060405180910390f35b610c08612292565b6040518080602001828103825283818151815260200191508051906020019080838360005b83811015610c48578082015181840152602081019050610c2d565b50505050905090810190601f168015610c755780820380516001836020036101000a031916815260200191505b509250505060405180910390f35b610c8b612334565b6040518082815260200191505060405180910390f35b610cef60048036036040811015610cb757600080fd5b81019080803573ffffffffffffffffffffffffffffffffffffffff16906020019092919080351515906020019092919050505061233b565b005b610df460048036036080811015610d0757600080fd5b81019080803573ffffffffffffffffffffffffffffffffffffffff169060200190929190803573ffffffffffffffffffffffffffffffffffffffff1690602001909291908035906020019092919080359060200190640100000000811115610d6e57600080fd5b820183602082011115610d8057600080fd5b80359060200191846001830284011164010000000083111715610da257600080fd5b91908080601f016020809104026020016040519081016040528093929190818152602001838380828437600081840152601f19601f8201169050808301925050505050505091929192905050506124f3565b005b610e2260048036036020811015610e0c57600080fd5b810190808035906020019092919050505061256b565b604051808681526020018581526020018481526020018381526020018281526020019550505050505060405180910390f35b611075600480360360a0811015610e6a57600080fd5b81019080803573ffffffffffffffffffffffffffffffffffffffff169060200190929190803573ffffffffffffffffffffffffffffffffffffffff16906020019092919080359060200190640100000000811115610ec757600080fd5b820183602082011115610ed957600080fd5b80359060200191846020830284011164010000000083111715610efb57600080fd5b919080806020026020016040519081016040528093929190818152602001838360200280828437600081840152601f19601f82011690508083019250505050505050919291929080359060200190640100000000811115610f5b57600080fd5b820183602082011115610f6d57600080fd5b80359060200191846020830284011164010000000083111715610f8f57600080fd5b919080806020026020016040519081016040528093929190818152602001838360200280828437600081840152601f19601f82011690508083019250505050505050919291929080359060200190640100000000811115610fef57600080fd5b82018360208201111561100157600080fd5b8035906020019184600183028401116401000000008311171561102357600080fd5b91908080601f016020809104026020016040519081016040528093929190818152602001838380828437600081840152601f19601f82011690508083019250505050505050919291929050505061269e565b60405180827bffffffffffffffffffffffffffffffffffffffffffffffffffffffff19167bffffffffffffffffffffffffffffffffffffffffffffffffffffffff1916815260200191505060405180910390f35b6110f5600480360360208110156110df57600080fd5b81019080803590602001909291905050506126b3565b6040518080602001828103825283818151815260200191508051906020019080838360005b8381101561113557808201518184015260208101905061111a565b50505050905090810190601f1680156111625780820380516001836020036101000a031916815260200191505b509250505060405180910390f35b61119c6004803603602081101561118657600080fd5b810190808035906020019092919050505061299c565b6040518082815260200191505060405180910390f35b6111ba6129c3565b6040518082815260200191505060405180910390f35b61121c600480360360408110156111e657600080fd5b8101908080359060200190929190803573ffffffffffffffffffffffffffffffffffffffff1690602001909291905050506129fc565b005b611226612a86565b6040518082815260200191505060405180910390f35b61129e6004803603604081101561125257600080fd5b81019080803573ffffffffffffffffffffffffffffffffffffffff169060200190929190803573ffffffffffffffffffffffffffffffffffffffff169060200190929190505050612abf565b604051808215151515815260200191505060405180910390f35b6113c5600480360360a08110156112ce57600080fd5b81019080803573ffffffffffffffffffffffffffffffffffffffff169060200190929190803573ffffffffffffffffffffffffffffffffffffffff16906020019092919080359060200190929190803590602001909291908035906020019064010000000081111561133f57600080fd5b82018360208201111561135157600080fd5b8035906020019184600183028401116401000000008311171561137357600080fd5b91908080601f016020809104026020016040519081016040528093929190818152602001838380828437600081840152601f19601f820116905080830192505050505050509192919290505050612b53565b60405180827bffffffffffffffffffffffffffffffffffffffffffffffffffffffff19167bffffffffffffffffffffffffffffffffffffffffffffffffffffffff1916815260200191505060405180910390f35b61145b6004803603602081101561142f57600080fd5b81019080803573ffffffffffffffffffffffffffffffffffffffff169060200190929190505050612b68565b005b611465612d75565b6040518082815260200191505060405180910390f35b6114c76004803603604081101561149157600080fd5b81019080803573ffffffffffffffffffffffffffffffffffffffff16906020019092919080359060200190929190505050612dae565b604051808215151515815260200191505060405180910390f35b600060026000837bffffffffffffffffffffffffffffffffffffffffffffffffffffffff19167bffffffffffffffffffffffffffffffffffffffffffffffffffffffff1916815260200190815260200160002060009054906101000a900460ff169050919050565b600f60009054906101000a900460ff1681565b606060088054600181600116156101000203166002900480601f0160208091040260200160405190810160405280929190818152602001828054600181600116156101000203166002900480156115f45780601f106115c9576101008083540402835291602001916115f4565b820191906000526020600020905b8154815290600101906020018083116115d757829003601f168201915b5050505050905090565b600061160982612dc2565b61165e576040517f08c379a000000000000000000000000000000000000000000000000000000000815260040180806020018281038252602c815260200180614c43602c913960400191505060405180910390fd5b6006600083815260200190815260200160002060009054906101000a900473ffffffffffffffffffffffffffffffffffffffff169050919050565b60006116a482611c62565b90508073ffffffffffffffffffffffffffffffffffffffff168373ffffffffffffffffffffffffffffffffffffffff16141561172b576040517f08c379a0000000000000000000000000000000000000000000000000000000008152600401808060200182810382526021815260200180614cc76021913960400191505060405180910390fd5b8073ffffffffffffffffffffffffffffffffffffffff1661174a612ddf565b73ffffffffffffffffffffffffffffffffffffffff161480611779575061177881611773612ddf565b612abf565b5b6117ce576040517f08c379a0000000000000000000000000000000000000000000000000000000008152600401808060200182810382526038815260200180614b966038913960400191505060405180910390fd5b6117d88383612de7565b505050565b60126020528060005260406000206000915090505481565b60006118016004612ea0565b905090565b611817611811612ddf565b82612eb5565b61186c576040517f08c379a0000000000000000000000000000000000000000000000000000000008152600401808060200182810382526031815260200180614ce86031913960400191505060405180910390fd5b611877838383612fa9565b505050565b600060016000838152602001908152602001600020600201549050919050565b6118c360016000848152602001908152602001600020600201546118be612ddf565b612260565b611918576040517f08c379a000000000000000000000000000000000000000000000000000000000815260040180806020018281038252602f815260200180614a26602f913960400191505060405180910390fd5b61192282826131ec565b5050565b600061197982600360008673ffffffffffffffffffffffffffffffffffffffff1673ffffffffffffffffffffffffffffffffffffffff16815260200190815260200160002061328090919063ffffffff16565b905092915050565b611989612ddf565b73ffffffffffffffffffffffffffffffffffffffff168173ffffffffffffffffffffffffffffffffffffffff1614611a0c576040517f08c379a000000000000000000000000000000000000000000000000000000000815260040180806020018281038252602f815260200180614d89602f913960400191505060405180910390fd5b611a16828261329a565b5050565b611a6060405180807f5041555345525f524f4c45000000000000000000000000000000000000000000815250600b0190506040518091039020611a5b612ddf565b612260565b611ab5576040517f08c379a0000000000000000000000000000000000000000000000000000000008152600401808060200182810382526040815260200180614d496040913960400191505060405180910390fd5b611abd61332e565b565b611ada838383604051806020016040528060008152506124f3565b505050565b611af0611aea612ddf565b82612eb5565b611b45576040517f08c379a0000000000000000000000000000000000000000000000000000000008152600401808060200182810382526030815260200180614d196030913960400191505060405180910390fd5b611b4e81613437565b50565b611b9760405180807f4f50455241544f525f524f4c4500000000000000000000000000000000000000815250600d0190506040518091039020611b92612ddf565b612260565b611bec576040517f08c379a000000000000000000000000000000000000000000000000000000000815260040180806020018281038252602d8152602001806149ce602d913960400191505060405180910390fd5b80600f60006101000a81548160ff02191690831515021790555050565b600080611c2083600461357190919063ffffffff16565b50905080915050919050565b6000600c60009054906101000a900460ff16905090565b600080611c5387878787876135a0565b90508091505095945050505050565b6000611c9282604051806060016040528060298152602001614bf86029913960046137a29092919063ffffffff16565b9050919050565b611cdf60405180807f4d494e5445525f524f4c45000000000000000000000000000000000000000000815250600b0190506040518091039020611cda612ddf565b612260565b611d34576040517f08c379a000000000000000000000000000000000000000000000000000000000815260040180806020018281038252602b815260200180614b6b602b913960400191505060405180910390fd5b611d4a62093a80426137c190919063ffffffff16565b60116000611d58600e613849565b8152602001908152602001600020819055504260126000611d79600e613849565b815260200190815260200160002081905550611d9e81611d99600e613849565b613857565b611da8600e613a4b565b50565b6060600b8054600181600116156101000203166002900480601f016020809104026020016040519081016040528092919081815260200182805460018160011615610100020316600290048015611e435780601f10611e1857610100808354040283529160200191611e43565b820191906000526020600020905b815481529060010190602001808311611e2657829003601f168201915b5050505050905090565b60008073ffffffffffffffffffffffffffffffffffffffff168273ffffffffffffffffffffffffffffffffffffffff161415611ed4576040517f08c379a000000000000000000000000000000000000000000000000000000000815260040180806020018281038252602a815260200180614bce602a913960400191505060405180910390fd5b611f1b600360008473ffffffffffffffffffffffffffffffffffffffff1673ffffffffffffffffffffffffffffffffffffffff168152602001908152602001600020613a61565b9050919050565b611f2a612ddf565b73ffffffffffffffffffffffffffffffffffffffff166000809054906101000a900473ffffffffffffffffffffffffffffffffffffffff1673ffffffffffffffffffffffffffffffffffffffff1614611feb576040517f08c379a00000000000000000000000000000000000000000000000000000000081526004018080602001828103825260208152602001807f4f776e61626c653a2063616c6c6572206973206e6f7420746865206f776e657281525060200191505060405180910390fd5b600073ffffffffffffffffffffffffffffffffffffffff166000809054906101000a900473ffffffffffffffffffffffffffffffffffffffff1673ffffffffffffffffffffffffffffffffffffffff167f8be0079c531659141344cd1fd0a4f28419497f9722a3daafe3b4186f6b6457e060405160405180910390a360008060006101000a81548173ffffffffffffffffffffffffffffffffffffffff021916908373ffffffffffffffffffffffffffffffffffffffff160217905550565b60106020528060005260406000206000915090508060000154908060010160009054906101000a900463ffffffff16908060010160049054906101000a900463ffffffff16908060010160089054906101000a900461ffff16905084565b61214e60405180807f5041555345525f524f4c45000000000000000000000000000000000000000000815250600b0190506040518091039020612149612ddf565b612260565b6121a3576040517f08c379a000000000000000000000000000000000000000000000000000000000815260040180806020018281038252603e815260200180614aad603e913960400191505060405180910390fd5b6121ab613a76565b565b60116020528060005260406000206000915090505481565b60008060009054906101000a900473ffffffffffffffffffffffffffffffffffffffff16905090565b60006122188260016000868152602001908152602001600020600001613b8090919063ffffffff16565b905092915050565b600080601160008481526020019081526020016000205490506000811415801561224a5750428110155b1561225957600191505061225b565b505b919050565b600061228a8260016000868152602001908152602001600020600001613b9a90919063ffffffff16565b905092915050565b606060098054600181600116156101000203166002900480601f01602080910402602001604051908101604052809291908181526020018280546001816001161561010002031660029004801561232a5780601f106122ff5761010080835404028352916020019161232a565b820191906000526020600020905b81548152906001019060200180831161230d57829003601f168201915b5050505050905090565b6000801b81565b612343612ddf565b73ffffffffffffffffffffffffffffffffffffffff168273ffffffffffffffffffffffffffffffffffffffff1614156123e4576040517f08c379a00000000000000000000000000000000000000000000000000000000081526004018080602001828103825260198152602001807f4552433732313a20617070726f766520746f2063616c6c65720000000000000081525060200191505060405180910390fd5b80600760006123f1612ddf565b73ffffffffffffffffffffffffffffffffffffffff1673ffffffffffffffffffffffffffffffffffffffff16815260200190815260200160002060008473ffffffffffffffffffffffffffffffffffffffff1673ffffffffffffffffffffffffffffffffffffffff16815260200190815260200160002060006101000a81548160ff0219169083151502179055508173ffffffffffffffffffffffffffffffffffffffff1661249e612ddf565b73ffffffffffffffffffffffffffffffffffffffff167f17307eab39ab6107e8899845ad3d59bd9653f200f220920489ca2b5937696c3183604051808215151515815260200191505060405180910390a35050565b6125046124fe612ddf565b83612eb5565b612559576040517f08c379a0000000000000000000000000000000000000000000000000000000008152600401808060200182810382526031815260200180614ce86031913960400191505060405180910390fd5b61256584848484613bca565b50505050565b600080600080600080601060008881526020019081526020016000209050600060126000612599600e613849565b8152602001908152602001600020541161261b576040517f08c379a00000000000000000000000000000000000000000000000000000000081526004018080602001828103825260178152602001807f74686520616c69656e20646f65736e277420657869737400000000000000000081525060200191505060405180910390fd5b8060000154955060126000612630600e613849565b81526020019081526020016000205494508060010160009054906101000a900463ffffffff1663ffffffff1693508060010160049054906101000a900463ffffffff1663ffffffff1692508060010160089054906101000a900461ffff1661ffff1691505091939590929450565b600063bc197c8160e01b905095945050505050565b60606126be82612dc2565b612713576040517f08c379a000000000000000000000000000000000000000000000000000000000815260040180806020018281038252602f815260200180614c98602f913960400191505060405180910390fd5b6060600a60008481526020019081526020016000208054600181600116156101000203166002900480601f0160208091040260200160405190810160405280929190818152602001828054600181600116156101000203166002900480156127bc5780601f10612791576101008083540402835291602001916127bc565b820191906000526020600020905b81548152906001019060200180831161279f57829003601f168201915b505050505090506000600b80546001816001161561010002031660029004905014156127eb5780915050612997565b6000815111156128c457600b8160405160200180838054600181600116156101000203166002900480156128565780601f10612834576101008083540402835291820191612856565b820191906000526020600020905b815481529060010190602001808311612842575b505082805190602001908083835b602083106128875780518252602082019150602081019050602083039250612864565b6001836020036101000a03801982511681845116808217855250505050505090500192505050604051602081830303815290604052915050612997565b600b6128cf84613c3c565b604051602001808380546001816001161561010002031660029004801561292d5780601f1061290b57610100808354040283529182019161292d565b820191906000526020600020905b815481529060010190602001808311612919575b505082805190602001908083835b6020831061295e578051825260208201915060208101905060208303925061293b565b6001836020036101000a038019825116818451168082178552505050505050905001925050506040516020818303038152906040529150505b919050565b60006129bc60016000848152602001908152602001600020600001613d6c565b9050919050565b60405180807f4d494e5445525f524f4c45000000000000000000000000000000000000000000815250600b019050604051809103902081565b612a236001600084815260200190815260200160002060020154612a1e612ddf565b612260565b612a78576040517f08c379a0000000000000000000000000000000000000000000000000000000008152600401808060200182810382526030815260200180614b3b6030913960400191505060405180910390fd5b612a82828261329a565b5050565b60405180807f5041555345525f524f4c45000000000000000000000000000000000000000000815250600b019050604051809103902081565b6000600760008473ffffffffffffffffffffffffffffffffffffffff1673ffffffffffffffffffffffffffffffffffffffff16815260200190815260200160002060008373ffffffffffffffffffffffffffffffffffffffff1673ffffffffffffffffffffffffffffffffffffffff16815260200190815260200160002060009054906101000a900460ff16905092915050565b600063f23a6e6160e01b905095945050505050565b612b70612ddf565b73ffffffffffffffffffffffffffffffffffffffff166000809054906101000a900473ffffffffffffffffffffffffffffffffffffffff1673ffffffffffffffffffffffffffffffffffffffff1614612c31576040517f08c379a00000000000000000000000000000000000000000000000000000000081526004018080602001828103825260208152602001807f4f776e61626c653a2063616c6c6572206973206e6f7420746865206f776e657281525060200191505060405180910390fd5b600073ffffffffffffffffffffffffffffffffffffffff168173ffffffffffffffffffffffffffffffffffffffff161415612cb7576040517f08c379a0000000000000000000000000000000000000000000000000000000008152600401808060200182810382526026815260200180614a876026913960400191505060405180910390fd5b8073ffffffffffffffffffffffffffffffffffffffff166000809054906101000a900473ffffffffffffffffffffffffffffffffffffffff1673ffffffffffffffffffffffffffffffffffffffff167f8be0079c531659141344cd1fd0a4f28419497f9722a3daafe3b4186f6b6457e060405160405180910390a3806000806101000a81548173ffffffffffffffffffffffffffffffffffffffff021916908373ffffffffffffffffffffffffffffffffffffffff16021790555050565b60405180807f4f50455241544f525f524f4c4500000000000000000000000000000000000000815250600d019050604051809103902081565b6000612dba8383612eb5565b905092915050565b6000612dd8826004613d8190919063ffffffff16565b9050919050565b600033905090565b816006600083815260200190815260200160002060006101000a81548173ffffffffffffffffffffffffffffffffffffffff021916908373ffffffffffffffffffffffffffffffffffffffff160217905550808273ffffffffffffffffffffffffffffffffffffffff16612e5a83611c62565b73ffffffffffffffffffffffffffffffffffffffff167f8c5be1e5ebec7d5bd14f71427d1e84f3dd0314c0f7b2291e5b200ac8c7c3b92560405160405180910390a45050565b6000612eae82600001613d9b565b9050919050565b6000612ec082612dc2565b612f15576040517f08c379a000000000000000000000000000000000000000000000000000000000815260040180806020018281038252602c815260200180614b0f602c913960400191505060405180910390fd5b6000612f2083611c62565b90508073ffffffffffffffffffffffffffffffffffffffff168473ffffffffffffffffffffffffffffffffffffffff161480612f8f57508373ffffffffffffffffffffffffffffffffffffffff16612f77846115fe565b73ffffffffffffffffffffffffffffffffffffffff16145b80612fa05750612f9f8185612abf565b5b91505092915050565b8273ffffffffffffffffffffffffffffffffffffffff16612fc982611c62565b73ffffffffffffffffffffffffffffffffffffffff1614613035576040517f08c379a0000000000000000000000000000000000000000000000000000000008152600401808060200182810382526029815260200180614c6f6029913960400191505060405180910390fd5b600073ffffffffffffffffffffffffffffffffffffffff168273ffffffffffffffffffffffffffffffffffffffff1614156130bb576040517f08c379a0000000000000000000000000000000000000000000000000000000008152600401808060200182810382526024815260200180614aeb6024913960400191505060405180910390fd5b6130c6838383613dac565b6130d1600082612de7565b61312281600360008673ffffffffffffffffffffffffffffffffffffffff1673ffffffffffffffffffffffffffffffffffffffff168152602001908152602001600020613dbc90919063ffffffff16565b5061317481600360008573ffffffffffffffffffffffffffffffffffffffff1673ffffffffffffffffffffffffffffffffffffffff168152602001908152602001600020613dd690919063ffffffff16565b5061318b81836004613df09092919063ffffffff16565b50808273ffffffffffffffffffffffffffffffffffffffff168473ffffffffffffffffffffffffffffffffffffffff167fddf252ad1be2c89b69c2b068fc378daa952ba7f163c4a11628f55a4df523b3ef60405160405180910390a4505050565b6132148160016000858152602001908152602001600020600001613e2590919063ffffffff16565b1561327c57613221612ddf565b73ffffffffffffffffffffffffffffffffffffffff168173ffffffffffffffffffffffffffffffffffffffff16837f2f8788117e7eff1d82e926ec794901d17c78024a50270940304540a733656f0d60405160405180910390a45b5050565b600061328f8360000183613e55565b60001c905092915050565b6132c28160016000858152602001908152602001600020600001613ed890919063ffffffff16565b1561332a576132cf612ddf565b73ffffffffffffffffffffffffffffffffffffffff168173ffffffffffffffffffffffffffffffffffffffff16837ff6391f5c32d9c69d2a47ea670b442974b53935d1edc7fd64eb21e047a839171b60405160405180910390a45b5050565b600c60009054906101000a900460ff166133b0576040517f08c379a00000000000000000000000000000000000000000000000000000000081526004018080602001828103825260148152602001807f5061757361626c653a206e6f742070617573656400000000000000000000000081525060200191505060405180910390fd5b6000600c60006101000a81548160ff0219169083151502179055507f5db9ee0a495bf2e6ff9c91a7834c1ba4fdd244a5e8aa4e537bd38aeae4b073aa6133f4612ddf565b604051808273ffffffffffffffffffffffffffffffffffffffff1673ffffffffffffffffffffffffffffffffffffffff16815260200191505060405180910390a1565b600061344282611c62565b905061345081600084613dac565b61345b600083612de7565b6000600a6000848152602001908152602001600020805460018160011615610100020316600290049050146134aa57600a600083815260200190815260200160002060006134a9919061493e565b5b6134fb82600360008473ffffffffffffffffffffffffffffffffffffffff1673ffffffffffffffffffffffffffffffffffffffff168152602001908152602001600020613dbc90919063ffffffff16565b50613510826004613f0890919063ffffffff16565b5081600073ffffffffffffffffffffffffffffffffffffffff168273ffffffffffffffffffffffffffffffffffffffff167fddf252ad1be2c89b69c2b068fc378daa952ba7f163c4a11628f55a4df523b3ef60405160405180910390a45050565b6000806000806135848660000186613f22565b915091508160001c8160001c8090509350935050509250929050565b600060405180608001604052808781526020018663ffffffff1681526020018563ffffffff1681526020018461ffff16815250601060006135e1600e613849565b81526020019081526020016000206000820151816000015560208201518160010160006101000a81548163ffffffff021916908363ffffffff16021790555060408201518160010160046101000a81548163ffffffff021916908363ffffffff16021790555060608201518160010160086101000a81548161ffff021916908361ffff16021790555090505061367682611c99565b613680600e613849565b63ffffffff16613690600e613849565b1461369a57600080fd5b6136a26121c5565b73ffffffffffffffffffffffffffffffffffffffff168273ffffffffffffffffffffffffffffffffffffffff16146136e9576136e830836136e3600e613849565b611806565b5b7f190e965faf32f04a0bd16c35d90db68cfd344a647df4508f4a9a967b9dac089482613715600e613849565b87878a604051808673ffffffffffffffffffffffffffffffffffffffff1673ffffffffffffffffffffffffffffffffffffffff1681526020018581526020018463ffffffff1663ffffffff1681526020018363ffffffff1663ffffffff1681526020018281526020019550505050505060405180910390a1613797600e613849565b905095945050505050565b60006137b5846000018460001b84613fbb565b60001c90509392505050565b60008082840190508381101561383f576040517f08c379a000000000000000000000000000000000000000000000000000000000815260040180806020018281038252601b8152602001807f536166654d6174683a206164646974696f6e206f766572666c6f77000000000081525060200191505060405180910390fd5b8091505092915050565b600081600001549050919050565b600073ffffffffffffffffffffffffffffffffffffffff168273ffffffffffffffffffffffffffffffffffffffff1614156138fa576040517f08c379a00000000000000000000000000000000000000000000000000000000081526004018080602001828103825260208152602001807f4552433732313a206d696e7420746f20746865207a65726f206164647265737381525060200191505060405180910390fd5b61390381612dc2565b15613976576040517f08c379a000000000000000000000000000000000000000000000000000000000815260040180806020018281038252601c8152602001807f4552433732313a20746f6b656e20616c7265616479206d696e7465640000000081525060200191505060405180910390fd5b61398260008383613dac565b6139d381600360008573ffffffffffffffffffffffffffffffffffffffff1673ffffffffffffffffffffffffffffffffffffffff168152602001908152602001600020613dd690919063ffffffff16565b506139ea81836004613df09092919063ffffffff16565b50808273ffffffffffffffffffffffffffffffffffffffff16600073ffffffffffffffffffffffffffffffffffffffff167fddf252ad1be2c89b69c2b068fc378daa952ba7f163c4a11628f55a4df523b3ef60405160405180910390a45050565b6001816000016000828254019250508190555050565b6000613a6f826000016140b1565b9050919050565b600c60009054906101000a900460ff1615613af9576040517f08c379a00000000000000000000000000000000000000000000000000000000081526004018080602001828103825260108152602001807f5061757361626c653a207061757365640000000000000000000000000000000081525060200191505060405180910390fd5b6001600c60006101000a81548160ff0219169083151502179055507f62e78cea01bee320cd4e420270b5ea74000d11b0c9f74754ebdbfc544b05a258613b3d612ddf565b604051808273ffffffffffffffffffffffffffffffffffffffff1673ffffffffffffffffffffffffffffffffffffffff16815260200191505060405180910390a1565b6000613b8f8360000183613e55565b60001c905092915050565b6000613bc2836000018373ffffffffffffffffffffffffffffffffffffffff1660001b6140c2565b905092915050565b613bd5848484612fa9565b613be1848484846140e5565b613c36576040517f08c379a0000000000000000000000000000000000000000000000000000000008152600401808060200182810382526032815260200180614a556032913960400191505060405180910390fd5b50505050565b60606000821415613c84576040518060400160405280600181526020017f30000000000000000000000000000000000000000000000000000000000000008152509050613d67565b600082905060005b60008214613cae578080600101915050600a8281613ca657fe5b049150613c8c565b6060816040519080825280601f01601f191660200182016040528015613ce35781602001600182028038833980820191505090505b50905060006001830390508593505b60008414613d5f57600a8481613d0457fe5b0660300160f81b82828060019003935081518110613d1e57fe5b60200101907effffffffffffffffffffffffffffffffffffffffffffffffffffffffffffff1916908160001a905350600a8481613d5757fe5b049350613cf2565b819450505050505b919050565b6000613d7a826000016140b1565b9050919050565b6000613d93836000018360001b61432a565b905092915050565b600081600001805490509050919050565b613db783838361434d565b505050565b6000613dce836000018360001b6143bb565b905092915050565b6000613de8836000018360001b6144a3565b905092915050565b6000613e1c846000018460001b8473ffffffffffffffffffffffffffffffffffffffff1660001b614513565b90509392505050565b6000613e4d836000018373ffffffffffffffffffffffffffffffffffffffff1660001b6144a3565b905092915050565b600081836000018054905011613eb6576040517f08c379a00000000000000000000000000000000000000000000000000000000081526004018080602001828103825260228152602001806149ac6022913960400191505060405180910390fd5b826000018281548110613ec557fe5b9060005260206000200154905092915050565b6000613f00836000018373ffffffffffffffffffffffffffffffffffffffff1660001b6143bb565b905092915050565b6000613f1a836000018360001b6145ef565b905092915050565b60008082846000018054905011613f84576040517f08c379a0000000000000000000000000000000000000000000000000000000008152600401808060200182810382526022815260200180614c216022913960400191505060405180910390fd5b6000846000018481548110613f9557fe5b906000526020600020906002020190508060000154816001015492509250509250929050565b60008084600101600085815260200190815260200160002054905060008114158390614082576040517f08c379a00000000000000000000000000000000000000000000000000000000081526004018080602001828103825283818151815260200191508051906020019080838360005b8381101561404757808201518184015260208101905061402c565b50505050905090810190601f1680156140745780820380516001836020036101000a031916815260200191505b509250505060405180910390fd5b5084600001600182038154811061409557fe5b9060005260206000209060020201600101549150509392505050565b600081600001805490509050919050565b600080836001016000848152602001908152602001600020541415905092915050565b60006141068473ffffffffffffffffffffffffffffffffffffffff16614708565b6141135760019050614322565b60606142a963150b7a0260e01b614128612ddf565b888787604051602401808573ffffffffffffffffffffffffffffffffffffffff1673ffffffffffffffffffffffffffffffffffffffff1681526020018473ffffffffffffffffffffffffffffffffffffffff1673ffffffffffffffffffffffffffffffffffffffff16815260200183815260200180602001828103825283818151815260200191508051906020019080838360005b838110156141d85780820151818401526020810190506141bd565b50505050905090810190601f1680156142055780820380516001836020036101000a031916815260200191505b5095505050505050604051602081830303815290604052907bffffffffffffffffffffffffffffffffffffffffffffffffffffffff19166020820180517bffffffffffffffffffffffffffffffffffffffffffffffffffffffff8381831617835250505050604051806060016040528060328152602001614a55603291398773ffffffffffffffffffffffffffffffffffffffff1661471b9092919063ffffffff16565b905060008180602001905160208110156142c257600080fd5b8101908080519060200190929190505050905063150b7a0260e01b7bffffffffffffffffffffffffffffffffffffffffffffffffffffffff1916817bffffffffffffffffffffffffffffffffffffffffffffffffffffffff191614925050505b949350505050565b600080836001016000848152602001908152602001600020541415905092915050565b614358838383614733565b614360611c2c565b156143b6576040517f08c379a000000000000000000000000000000000000000000000000000000000815260040180806020018281038252602b8152602001806149fb602b913960400191505060405180910390fd5b505050565b60008083600101600084815260200190815260200160002054905060008114614497576000600182039050600060018660000180549050039050600086600001828154811061440657fe5b906000526020600020015490508087600001848154811061442357fe5b906000526020600020018190555060018301876001016000838152602001908152602001600020819055508660000180548061445b57fe5b6001900381819060005260206000200160009055905586600101600087815260200190815260200160002060009055600194505050505061449d565b60009150505b92915050565b60006144af83836140c2565b61450857826000018290806001815401808255809150506001900390600052602060002001600090919091909150558260000180549050836001016000848152602001908152602001600020819055506001905061450d565b600090505b92915050565b60008084600101600085815260200190815260200160002054905060008114156145ba578460000160405180604001604052808681526020018581525090806001815401808255809150506001900390600052602060002090600202016000909190919091506000820151816000015560208201518160010155505084600001805490508560010160008681526020019081526020016000208190555060019150506145e8565b828560000160018303815481106145cd57fe5b90600052602060002090600202016001018190555060009150505b9392505050565b600080836001016000848152602001908152602001600020549050600081146146fc576000600182039050600060018660000180549050039050600086600001828154811061463a57fe5b906000526020600020906002020190508087600001848154811061465a57fe5b90600052602060002090600202016000820154816000015560018201548160010155905050600183018760010160008360000154815260200190815260200160002081905550866000018054806146ad57fe5b6001900381819060005260206000209060020201600080820160009055600182016000905550509055866001016000878152602001908152602001600020600090556001945050505050614702565b60009150505b92915050565b600080823b905060008111915050919050565b606061472a8484600085614738565b90509392505050565b505050565b606061474385614708565b6147b5576040517f08c379a000000000000000000000000000000000000000000000000000000000815260040180806020018281038252601d8152602001807f416464726573733a2063616c6c20746f206e6f6e2d636f6e747261637400000081525060200191505060405180910390fd5b600060608673ffffffffffffffffffffffffffffffffffffffff1685876040518082805190602001908083835b6020831061480557805182526020820191506020810190506020830392506147e2565b6001836020036101000a03801982511681845116808217855250505050505090500191505060006040518083038185875af1925050503d8060008114614867576040519150601f19603f3d011682016040523d82523d6000602084013e61486c565b606091505b50915091508115614881578092505050614936565b6000815111156148945780518082602001fd5b836040517f08c379a00000000000000000000000000000000000000000000000000000000081526004018080602001828103825283818151815260200191508051906020019080838360005b838110156148fb5780820151818401526020810190506148e0565b50505050905090810190601f1680156149285780820380516001836020036101000a031916815260200191505b509250505060405180910390fd5b949350505050565b50805460018160011615610100020316600290046000825580601f106149645750614983565b601f0160209004906000526020600020908101906149829190614986565b5b50565b6149a891905b808211156149a457600081600090555060010161498c565b5090565b9056fe456e756d657261626c655365743a20696e646578206f7574206f6620626f756e6473526f6c65733a2063616c6c657220646f6573206e6f74206861766520746865204f50455241544f5220726f6c654552433732315061757361626c653a20746f6b656e207472616e73666572207768696c6520706175736564416363657373436f6e74726f6c3a2073656e646572206d75737420626520616e2061646d696e20746f206772616e744552433732313a207472616e7366657220746f206e6f6e20455243373231526563656976657220696d706c656d656e7465724f776e61626c653a206e6577206f776e657220697320746865207a65726f20616464726573734552433732315072657365744d696e7465725061757365724175746f49643a206d75737420686176652070617573657220726f6c6520746f2070617573654552433732313a207472616e7366657220746f20746865207a65726f20616464726573734552433732313a206f70657261746f7220717565727920666f72206e6f6e6578697374656e7420746f6b656e416363657373436f6e74726f6c3a2073656e646572206d75737420626520616e2061646d696e20746f207265766f6b65526f6c65733a2063616c6c657220646f6573206e6f74206861766520746865204d494e54455220726f6c654552433732313a20617070726f76652063616c6c6572206973206e6f74206f776e6572206e6f7220617070726f76656420666f7220616c6c4552433732313a2062616c616e636520717565727920666f7220746865207a65726f20616464726573734552433732313a206f776e657220717565727920666f72206e6f6e6578697374656e7420746f6b656e456e756d657261626c654d61703a20696e646578206f7574206f6620626f756e64734552433732313a20617070726f76656420717565727920666f72206e6f6e6578697374656e7420746f6b656e4552433732313a207472616e73666572206f6620746f6b656e2074686174206973206e6f74206f776e4552433732314d657461646174613a2055524920717565727920666f72206e6f6e6578697374656e7420746f6b656e4552433732313a20617070726f76616c20746f2063757272656e74206f776e65724552433732313a207472616e736665722063616c6c6572206973206e6f74206f776e6572206e6f7220617070726f7665644552433732314275726e61626c653a2063616c6c6572206973206e6f74206f776e6572206e6f7220617070726f7665644552433732315072657365744d696e7465725061757365724175746f49643a206d75737420686176652070617573657220726f6c6520746f20756e7061757365416363657373436f6e74726f6c3a2063616e206f6e6c792072656e6f756e636520726f6c657320666f722073656c66a264697066735822122040ddc40ce121ee20dc5313c460987dc1a42153d05d4795c9c7118e56bd73cd9564736f6c634300060200334552433732315061757361626c653a20746f6b656e207472616e73666572207768696c65207061757365644552433732313a207472616e7366657220746f20746865207a65726f20616464726573734552433732313a206f70657261746f7220717565727920666f72206e6f6e6578697374656e7420746f6b656e526f6c65733a2063616c6c657220646f6573206e6f74206861766520746865204d494e54455220726f6c654552433732313a206f776e657220717565727920666f72206e6f6e6578697374656e7420746f6b656e4552433732313a20617070726f76656420717565727920666f72206e6f6e6578697374656e7420746f6b656e4552433732313a207472616e73666572206f6620746f6b656e2074686174206973206e6f74206f776e4552433732313a207472616e736665722063616c6c6572206973206e6f74206f776e6572206e6f7220617070726f766564",
  "source": "pragma solidity ^0.6.0;\r\n\r\nimport \"./@openzeppelin/contracts/token/ERC721/ERC721.sol\";\r\nimport \"./@openzeppelin/contracts/token/ERC721/ERC721Burnable.sol\";\r\nimport \"./@openzeppelin/contracts/token/ERC721/IERC721.sol\";\r\nimport \"./@openzeppelin/contracts/presets/ERC721PresetMinterPauserAutoId.sol\";\r\nimport \"./@openzeppelin/contracts/token/ERC1155/IERC1155.sol\";\r\nimport \"./@openzeppelin/contracts/token/ERC1155/ERC1155Holder.sol\";\r\nimport \"./@openzeppelin/contracts/utils/Counters.sol\";\r\nimport \"./@openzeppelin/contracts/access/Ownable.sol\";\r\n\r\n\r\n// SPDX-License-Identifier: MIT\r\n//ERC721\r\ncontract AlienERC721 is\r\n  Ownable,\r\n  ERC721PresetMinterPauserAutoId,\r\n  ERC1155Holder\r\n{\r\n  bytes32 public constant OPERATOR_ROLE = keccak256(\"OPERATOR_ROLE\");\r\n\r\n  using Counters for Counters.Counter;\r\n  Counters.Counter private _tokenIds;\r\n\r\n  bool public gameStopped = false;\r\n\r\n  struct AlienObj {\r\n    uint256 genes;\r\n    uint32 mumId;\r\n    uint32 dadId;\r\n    uint16 generation;\r\n  }\r\n\r\n  // Mapping from token ID to NFT struct details\r\n  mapping(uint256 => AlienObj) public alienDetails;\r\n  // Alien Time properties\r\n  mapping(uint256 => uint256) public timeUntilStarving;\r\n  mapping(uint256 => uint256) public timeAlienBorn;\r\n\r\n  constructor() public ERC721PresetMinterPauserAutoId(\r\n    \"AlienNFT\",\r\n     \"ALNFT\",\r\n     \"http:localhost/\"\r\n     ) {\r\n    _setupRole(OPERATOR_ROLE, _msgSender());\r\n    _setupRole(MINTER_ROLE, address(this));\r\n    // We are creating the first alien at index 0\r\n    _createtAlien(0, 0, 0, uint16(-1), msg.sender);\r\n  }\r\n\r\n  event AlienMinted(\r\n    address owner,\r\n    uint256 alienId,\r\n    uint32 mumId,\r\n    uint32 dadId,\r\n    uint256 genes\r\n  );\r\n\r\n  modifier notPaused() {\r\n      require(!gameStopped, \"Contract is paused\");\r\n      _;\r\n  }\r\n\r\n  modifier onlyOperator() {\r\n      require(\r\n          hasRole(OPERATOR_ROLE, _msgSender()),\r\n          \"Roles: caller does not have the OPERATOR role\"\r\n      );\r\n      _;\r\n  }\r\n\r\n  modifier onlyMinter() {\r\n      require(\r\n          hasRole(MINTER_ROLE, _msgSender()),\r\n          \"Roles: caller does not have the MINTER role\"\r\n      );\r\n      _;\r\n  }\r\n\r\n  function _createtAlien(\r\n      uint256 _genes,\r\n      uint32 _mumId,\r\n      uint32 _dadId,\r\n      uint16 _generation,\r\n      address _owner\r\n    ) private returns (uint256) {\r\n\r\n      alienDetails[_tokenIds.current()] = AlienObj(\r\n        uint256(_genes),\r\n        uint32(_mumId),\r\n        uint32(_dadId),\r\n        uint16(_generation)\r\n      );\r\n      mint(_owner);\r\n\r\n      // It's probably never going to happen, 4 billion cats is A LOT, but\r\n      // let's just be 100% sure we never let this happen.\r\n      require(_tokenIds.current() == uint256(uint32(_tokenIds.current())));\r\n\r\n      if(_owner != owner()){\r\n          transferFrom(address(this), _owner, _tokenIds.current());\r\n      }\r\n\r\n      emit AlienMinted(_owner, _tokenIds.current(), _mumId, _dadId, _genes);\r\n      return _tokenIds.current();\r\n    }\r\n\r\n  function mint(address player) public override onlyMinter{\r\n    //pet minted has 7 days until it starves at first\r\n    timeUntilStarving[_tokenIds.current()] = block.timestamp.add(7 days);\r\n    timeAlienBorn[_tokenIds.current()] = block.timestamp;\r\n\r\n    super._mint(player, _tokenIds.current());\r\n    _tokenIds.increment();\r\n  }\r\n\r\n  // in case a bug happens or we upgrade to another smart contract\r\n  function pauseGame(bool _pause) external onlyOperator {\r\n      gameStopped = _pause;\r\n  }\r\n\r\n  // check that Alien didn't starve\r\n  function isAlienAlive(uint256 _nftId) public view returns (bool) {\r\n    uint256 _timeUntilStarving = timeUntilStarving[_nftId];\r\n    if (_timeUntilStarving != 0 && _timeUntilStarving >= block.timestamp) {\r\n      return true;\r\n    }\r\n  }\r\n\r\n  function getAlien(uint256 _nftId) public view returns(\r\n    uint256 _genes,\r\n    uint256 _timeAlienBorn,\r\n    uint256 _mumId,\r\n    uint256 _dadId,\r\n    uint256 _generation\r\n    ){\r\n      AlienObj storage alien = alienDetails[_nftId];\r\n\r\n      require(timeAlienBorn[_tokenIds.current()] > 0, \"the alien doesn't exist\");\r\n\r\n      _genes = uint256(alien.genes);\r\n      _timeAlienBorn = uint256(timeAlienBorn[_tokenIds.current()]);\r\n      _mumId = uint256(alien.mumId);\r\n      _dadId = uint256(alien.dadId);\r\n      _generation = uint256(alien.generation);\r\n  }\r\n\r\n  function createtAlien(\r\n      uint256 _genes,\r\n      uint32 _mumId,\r\n      uint32 _dadId,\r\n      uint16 _generation,\r\n      address _owner\r\n    ) public returns(uint256){\r\n        uint256 _newAlien = _createtAlien(_genes, _mumId, _dadId, _generation, _owner);\r\n        return _newAlien;\r\n  }\r\n\r\n  function isApprovedOwner(address _owner, uint256 _nftId) public view returns (bool){\r\n    return _isApprovedOrOwner(_owner, _nftId);\r\n  }\r\n\r\n}\r\n",
  "sourcePath": "C:/GitHub/cryptoaliens/solidity/contracts/AlienERC721.sol",
  "compiler": {
    "name": "solc",
    "version": "0.6.2+commit.bacdbe57.Emscripten.clang"
  },
  "schemaVersion": "3.3.2",
  "updatedAt": "2021-01-25T01:30:18.723Z",
  "networkType": "ethereum",
  "devdoc": {
    "methods": {
      "approve(address,uint256)": {
        "details": "See {IERC721-approve}."
      },
      "balanceOf(address)": {
        "details": "See {IERC721-balanceOf}."
      },
      "baseURI()": {
        "details": "Returns the base URI set via {_setBaseURI}. This will be automatically added as a prefix in {tokenURI} to each token's URI, or to the token ID if no specific URI is set for that token ID."
      },
      "burn(uint256)": {
        "details": "Burns `tokenId`. See {ERC721-_burn}.      * Requirements:      * - The caller must own `tokenId` or be an approved operator."
      },
      "getApproved(uint256)": {
        "details": "See {IERC721-getApproved}."
      },
      "getRoleAdmin(bytes32)": {
        "details": "Returns the admin role that controls `role`. See {grantRole} and {revokeRole}.      * To change a role's admin, use {_setRoleAdmin}."
      },
      "getRoleMember(bytes32,uint256)": {
        "details": "Returns one of the accounts that have `role`. `index` must be a value between 0 and {getRoleMemberCount}, non-inclusive.      * Role bearers are not sorted in any particular way, and their ordering may change at any point.      * WARNING: When using {getRoleMember} and {getRoleMemberCount}, make sure you perform all queries on the same block. See the following https://forum.openzeppelin.com/t/iterating-over-elements-on-enumerableset-in-openzeppelin-contracts/2296[forum post] for more information."
      },
      "getRoleMemberCount(bytes32)": {
        "details": "Returns the number of accounts that have `role`. Can be used together with {getRoleMember} to enumerate all bearers of a role."
      },
      "grantRole(bytes32,address)": {
        "details": "Grants `role` to `account`.      * If `account` had not been already granted `role`, emits a {RoleGranted} event.      * Requirements:      * - the caller must have ``role``'s admin role."
      },
      "hasRole(bytes32,address)": {
        "details": "Returns `true` if `account` has been granted `role`."
      },
      "isApprovedForAll(address,address)": {
        "details": "See {IERC721-isApprovedForAll}."
      },
      "name()": {
        "details": "See {IERC721Metadata-name}."
      },
      "owner()": {
        "details": "Returns the address of the current owner."
      },
      "ownerOf(uint256)": {
        "details": "See {IERC721-ownerOf}."
      },
      "pause()": {
        "details": "Pauses all token transfers.      * See {ERC721Pausable} and {Pausable-_pause}.      * Requirements:      * - the caller must have the `PAUSER_ROLE`."
      },
      "paused()": {
        "details": "Returns true if the contract is paused, and false otherwise."
      },
      "renounceOwnership()": {
        "details": "Leaves the contract without owner. It will not be possible to call `onlyOwner` functions anymore. Can only be called by the current owner.      * NOTE: Renouncing ownership will leave the contract without an owner, thereby removing any functionality that is only available to the owner."
      },
      "renounceRole(bytes32,address)": {
        "details": "Revokes `role` from the calling account.      * Roles are often managed via {grantRole} and {revokeRole}: this function's purpose is to provide a mechanism for accounts to lose their privileges if they are compromised (such as when a trusted device is misplaced).      * If the calling account had been granted `role`, emits a {RoleRevoked} event.      * Requirements:      * - the caller must be `account`."
      },
      "revokeRole(bytes32,address)": {
        "details": "Revokes `role` from `account`.      * If `account` had been granted `role`, emits a {RoleRevoked} event.      * Requirements:      * - the caller must have ``role``'s admin role."
      },
      "safeTransferFrom(address,address,uint256)": {
        "details": "See {IERC721-safeTransferFrom}."
      },
      "safeTransferFrom(address,address,uint256,bytes)": {
        "details": "See {IERC721-safeTransferFrom}."
      },
      "setApprovalForAll(address,bool)": {
        "details": "See {IERC721-setApprovalForAll}."
      },
      "supportsInterface(bytes4)": {
        "details": "See {IERC165-supportsInterface}.      * Time complexity O(1), guaranteed to always use less than 30 000 gas."
      },
      "symbol()": {
        "details": "See {IERC721Metadata-symbol}."
      },
      "tokenByIndex(uint256)": {
        "details": "See {IERC721Enumerable-tokenByIndex}."
      },
      "tokenOfOwnerByIndex(address,uint256)": {
        "details": "See {IERC721Enumerable-tokenOfOwnerByIndex}."
      },
      "tokenURI(uint256)": {
        "details": "See {IERC721Metadata-tokenURI}."
      },
      "totalSupply()": {
        "details": "See {IERC721Enumerable-totalSupply}."
      },
      "transferFrom(address,address,uint256)": {
        "details": "See {IERC721-transferFrom}."
      },
      "transferOwnership(address)": {
        "details": "Transfers ownership of the contract to a new account (`newOwner`). Can only be called by the current owner."
      },
      "unpause()": {
        "details": "Unpauses all token transfers.      * See {ERC721Pausable} and {Pausable-_unpause}.      * Requirements:      * - the caller must have the `PAUSER_ROLE`."
      }
    }
  },
  "userdoc": {
    "methods": {}
  }
}