{
  "contractName": "AlienERC721",
  "abi": [
    {
      "inputs": [],
      "stateMutability": "nonpayable",
      "type": "constructor"
    },
    {
      "anonymous": false,
      "inputs": [
        {
          "indexed": false,
          "internalType": "address",
          "name": "owner",
          "type": "address"
        },
        {
          "indexed": false,
          "internalType": "uint256",
          "name": "alienId",
          "type": "uint256"
        },
        {
          "indexed": false,
          "internalType": "uint32",
          "name": "mumId",
          "type": "uint32"
        },
        {
          "indexed": false,
          "internalType": "uint32",
          "name": "dadId",
          "type": "uint32"
        },
        {
          "indexed": false,
          "internalType": "uint256",
          "name": "genes",
          "type": "uint256"
        }
      ],
      "name": "AlienMinted",
      "type": "event"
    },
    {
      "anonymous": false,
      "inputs": [
        {
          "indexed": true,
          "internalType": "address",
          "name": "owner",
          "type": "address"
        },
        {
          "indexed": true,
          "internalType": "address",
          "name": "approved",
          "type": "address"
        },
        {
          "indexed": true,
          "internalType": "uint256",
          "name": "tokenId",
          "type": "uint256"
        }
      ],
      "name": "Approval",
      "type": "event"
    },
    {
      "anonymous": false,
      "inputs": [
        {
          "indexed": true,
          "internalType": "address",
          "name": "owner",
          "type": "address"
        },
        {
          "indexed": true,
          "internalType": "address",
          "name": "operator",
          "type": "address"
        },
        {
          "indexed": false,
          "internalType": "bool",
          "name": "approved",
          "type": "bool"
        }
      ],
      "name": "ApprovalForAll",
      "type": "event"
    },
    {
      "anonymous": false,
      "inputs": [
        {
          "indexed": true,
          "internalType": "address",
          "name": "previousOwner",
          "type": "address"
        },
        {
          "indexed": true,
          "internalType": "address",
          "name": "newOwner",
          "type": "address"
        }
      ],
      "name": "OwnershipTransferred",
      "type": "event"
    },
    {
      "anonymous": false,
      "inputs": [
        {
          "indexed": true,
          "internalType": "address",
          "name": "from",
          "type": "address"
        },
        {
          "indexed": true,
          "internalType": "address",
          "name": "to",
          "type": "address"
        },
        {
          "indexed": true,
          "internalType": "uint256",
          "name": "tokenId",
          "type": "uint256"
        }
      ],
      "name": "Transfer",
      "type": "event"
    },
    {
      "inputs": [
        {
          "internalType": "uint256",
          "name": "",
          "type": "uint256"
        }
      ],
      "name": "alienDetails",
      "outputs": [
        {
          "internalType": "uint256",
          "name": "genes",
          "type": "uint256"
        },
        {
          "internalType": "uint32",
          "name": "mumId",
          "type": "uint32"
        },
        {
          "internalType": "uint32",
          "name": "dadId",
          "type": "uint32"
        },
        {
          "internalType": "uint16",
          "name": "generation",
          "type": "uint16"
        }
      ],
      "stateMutability": "view",
      "type": "function",
      "constant": true
    },
    {
      "inputs": [
        {
          "internalType": "address",
          "name": "to",
          "type": "address"
        },
        {
          "internalType": "uint256",
          "name": "tokenId",
          "type": "uint256"
        }
      ],
      "name": "approve",
      "outputs": [],
      "stateMutability": "nonpayable",
      "type": "function"
    },
    {
      "inputs": [
        {
          "internalType": "address",
          "name": "owner",
          "type": "address"
        }
      ],
      "name": "balanceOf",
      "outputs": [
        {
          "internalType": "uint256",
          "name": "",
          "type": "uint256"
        }
      ],
      "stateMutability": "view",
      "type": "function",
      "constant": true
    },
    {
      "inputs": [],
      "name": "baseURI",
      "outputs": [
        {
          "internalType": "string",
          "name": "",
          "type": "string"
        }
      ],
      "stateMutability": "view",
      "type": "function",
      "constant": true
    },
    {
      "inputs": [
        {
          "internalType": "uint256",
          "name": "tokenId",
          "type": "uint256"
        }
      ],
      "name": "burn",
      "outputs": [],
      "stateMutability": "nonpayable",
      "type": "function"
    },
    {
      "inputs": [
        {
          "internalType": "uint256",
          "name": "tokenId",
          "type": "uint256"
        }
      ],
      "name": "getApproved",
      "outputs": [
        {
          "internalType": "address",
          "name": "",
          "type": "address"
        }
      ],
      "stateMutability": "view",
      "type": "function",
      "constant": true
    },
    {
      "inputs": [
        {
          "internalType": "address",
          "name": "owner",
          "type": "address"
        },
        {
          "internalType": "address",
          "name": "operator",
          "type": "address"
        }
      ],
      "name": "isApprovedForAll",
      "outputs": [
        {
          "internalType": "bool",
          "name": "",
          "type": "bool"
        }
      ],
      "stateMutability": "view",
      "type": "function",
      "constant": true
    },
    {
      "inputs": [],
      "name": "name",
      "outputs": [
        {
          "internalType": "string",
          "name": "",
          "type": "string"
        }
      ],
      "stateMutability": "view",
      "type": "function",
      "constant": true
    },
    {
      "inputs": [
        {
          "internalType": "address",
          "name": "",
          "type": "address"
        },
        {
          "internalType": "address",
          "name": "",
          "type": "address"
        },
        {
          "internalType": "uint256[]",
          "name": "",
          "type": "uint256[]"
        },
        {
          "internalType": "uint256[]",
          "name": "",
          "type": "uint256[]"
        },
        {
          "internalType": "bytes",
          "name": "",
          "type": "bytes"
        }
      ],
      "name": "onERC1155BatchReceived",
      "outputs": [
        {
          "internalType": "bytes4",
          "name": "",
          "type": "bytes4"
        }
      ],
      "stateMutability": "nonpayable",
      "type": "function"
    },
    {
      "inputs": [
        {
          "internalType": "address",
          "name": "",
          "type": "address"
        },
        {
          "internalType": "address",
          "name": "",
          "type": "address"
        },
        {
          "internalType": "uint256",
          "name": "",
          "type": "uint256"
        },
        {
          "internalType": "uint256",
          "name": "",
          "type": "uint256"
        },
        {
          "internalType": "bytes",
          "name": "",
          "type": "bytes"
        }
      ],
      "name": "onERC1155Received",
      "outputs": [
        {
          "internalType": "bytes4",
          "name": "",
          "type": "bytes4"
        }
      ],
      "stateMutability": "nonpayable",
      "type": "function"
    },
    {
      "inputs": [],
      "name": "owner",
      "outputs": [
        {
          "internalType": "address",
          "name": "",
          "type": "address"
        }
      ],
      "stateMutability": "view",
      "type": "function",
      "constant": true
    },
    {
      "inputs": [
        {
          "internalType": "uint256",
          "name": "tokenId",
          "type": "uint256"
        }
      ],
      "name": "ownerOf",
      "outputs": [
        {
          "internalType": "address",
          "name": "",
          "type": "address"
        }
      ],
      "stateMutability": "view",
      "type": "function",
      "constant": true
    },
    {
      "inputs": [],
      "name": "renounceOwnership",
      "outputs": [],
      "stateMutability": "nonpayable",
      "type": "function"
    },
    {
      "inputs": [
        {
          "internalType": "address",
          "name": "from",
          "type": "address"
        },
        {
          "internalType": "address",
          "name": "to",
          "type": "address"
        },
        {
          "internalType": "uint256",
          "name": "tokenId",
          "type": "uint256"
        }
      ],
      "name": "safeTransferFrom",
      "outputs": [],
      "stateMutability": "nonpayable",
      "type": "function"
    },
    {
      "inputs": [
        {
          "internalType": "address",
          "name": "from",
          "type": "address"
        },
        {
          "internalType": "address",
          "name": "to",
          "type": "address"
        },
        {
          "internalType": "uint256",
          "name": "tokenId",
          "type": "uint256"
        },
        {
          "internalType": "bytes",
          "name": "_data",
          "type": "bytes"
        }
      ],
      "name": "safeTransferFrom",
      "outputs": [],
      "stateMutability": "nonpayable",
      "type": "function"
    },
    {
      "inputs": [
        {
          "internalType": "address",
          "name": "operator",
          "type": "address"
        },
        {
          "internalType": "bool",
          "name": "approved",
          "type": "bool"
        }
      ],
      "name": "setApprovalForAll",
      "outputs": [],
      "stateMutability": "nonpayable",
      "type": "function"
    },
    {
      "inputs": [
        {
          "internalType": "bytes4",
          "name": "interfaceId",
          "type": "bytes4"
        }
      ],
      "name": "supportsInterface",
      "outputs": [
        {
          "internalType": "bool",
          "name": "",
          "type": "bool"
        }
      ],
      "stateMutability": "view",
      "type": "function",
      "constant": true
    },
    {
      "inputs": [],
      "name": "symbol",
      "outputs": [
        {
          "internalType": "string",
          "name": "",
          "type": "string"
        }
      ],
      "stateMutability": "view",
      "type": "function",
      "constant": true
    },
    {
      "inputs": [
        {
          "internalType": "uint256",
          "name": "index",
          "type": "uint256"
        }
      ],
      "name": "tokenByIndex",
      "outputs": [
        {
          "internalType": "uint256",
          "name": "",
          "type": "uint256"
        }
      ],
      "stateMutability": "view",
      "type": "function",
      "constant": true
    },
    {
      "inputs": [
        {
          "internalType": "address",
          "name": "owner",
          "type": "address"
        },
        {
          "internalType": "uint256",
          "name": "index",
          "type": "uint256"
        }
      ],
      "name": "tokenOfOwnerByIndex",
      "outputs": [
        {
          "internalType": "uint256",
          "name": "",
          "type": "uint256"
        }
      ],
      "stateMutability": "view",
      "type": "function",
      "constant": true
    },
    {
      "inputs": [
        {
          "internalType": "uint256",
          "name": "tokenId",
          "type": "uint256"
        }
      ],
      "name": "tokenURI",
      "outputs": [
        {
          "internalType": "string",
          "name": "",
          "type": "string"
        }
      ],
      "stateMutability": "view",
      "type": "function",
      "constant": true
    },
    {
      "inputs": [],
      "name": "totalSupply",
      "outputs": [
        {
          "internalType": "uint256",
          "name": "",
          "type": "uint256"
        }
      ],
      "stateMutability": "view",
      "type": "function",
      "constant": true
    },
    {
      "inputs": [
        {
          "internalType": "address",
          "name": "from",
          "type": "address"
        },
        {
          "internalType": "address",
          "name": "to",
          "type": "address"
        },
        {
          "internalType": "uint256",
          "name": "tokenId",
          "type": "uint256"
        }
      ],
      "name": "transferFrom",
      "outputs": [],
      "stateMutability": "nonpayable",
      "type": "function"
    },
    {
      "inputs": [
        {
          "internalType": "address",
          "name": "newOwner",
          "type": "address"
        }
      ],
      "name": "transferOwnership",
      "outputs": [],
      "stateMutability": "nonpayable",
      "type": "function"
    },
    {
      "inputs": [
        {
          "internalType": "uint256",
          "name": "_nftId",
          "type": "uint256"
        }
      ],
      "name": "getAlien",
      "outputs": [
        {
          "internalType": "uint256",
          "name": "_genes",
          "type": "uint256"
        },
        {
          "internalType": "uint32",
          "name": "_mumId",
          "type": "uint32"
        },
        {
          "internalType": "uint32",
          "name": "_dadId",
          "type": "uint32"
        },
        {
          "internalType": "uint16",
          "name": "_generation",
          "type": "uint16"
        }
      ],
      "stateMutability": "view",
      "type": "function",
      "constant": true
    },
    {
      "inputs": [
        {
          "internalType": "uint256",
          "name": "_genes",
          "type": "uint256"
        },
        {
          "internalType": "uint32",
          "name": "_mumId",
          "type": "uint32"
        },
        {
          "internalType": "uint32",
          "name": "_dadId",
          "type": "uint32"
        },
        {
          "internalType": "uint16",
          "name": "_generation",
          "type": "uint16"
        },
        {
          "internalType": "address",
          "name": "_owner",
          "type": "address"
        }
      ],
      "name": "createtAlien",
      "outputs": [
        {
          "internalType": "uint256",
          "name": "",
          "type": "uint256"
        }
      ],
      "stateMutability": "nonpayable",
      "type": "function"
    },
    {
      "inputs": [
        {
          "internalType": "address",
          "name": "_owner",
          "type": "address"
        },
        {
          "internalType": "uint256",
          "name": "_nftId",
          "type": "uint256"
        }
      ],
      "name": "isApprovedOwner",
      "outputs": [
        {
          "internalType": "bool",
          "name": "",
          "type": "bool"
        }
      ],
      "stateMutability": "view",
      "type": "function",
      "constant": true
    }
  ],
  "bytecode": "0x60806040523480156200001157600080fd5b506040518060400160405280600881526020017f416c69656e4e46540000000000000000000000000000000000000000000000008152506040518060400160405280600581526020017f414c4e4654000000000000000000000000000000000000000000000000000000815250600062000090620001e960201b60201c565b9050806000806101000a81548173ffffffffffffffffffffffffffffffffffffffff021916908373ffffffffffffffffffffffffffffffffffffffff1602179055508073ffffffffffffffffffffffffffffffffffffffff16600073ffffffffffffffffffffffffffffffffffffffff167f8be0079c531659141344cd1fd0a4f28419497f9722a3daafe3b4186f6b6457e060405160405180910390a350620001466301ffc9a760e01b620001f160201b60201c565b81600790805190602001906200015e929190620002fa565b50806008908051906020019062000177929190620002fa565b50620001906380ac58cd60e01b620001f160201b60201c565b620001a8635b5e139f60e01b620001f160201b60201c565b620001c063780e9d6360e01b620001f160201b60201c565b5050620001e363bc197c8160e01b63f23a6e6160e01b18620001f160201b60201c565b620003a9565b600033905090565b63ffffffff60e01b817bffffffffffffffffffffffffffffffffffffffffffffffffffffffff191614156200028e576040517f08c379a000000000000000000000000000000000000000000000000000000000815260040180806020018281038252601c8152602001807f4552433136353a20696e76616c696420696e746572666163652069640000000081525060200191505060405180910390fd5b6001806000837bffffffffffffffffffffffffffffffffffffffffffffffffffffffff19167bffffffffffffffffffffffffffffffffffffffffffffffffffffffff1916815260200190815260200160002060006101000a81548160ff02191690831515021790555050565b828054600181600116156101000203166002900490600052602060002090601f016020900481019282601f106200033d57805160ff19168380011785556200036e565b828001600101855582156200036e579182015b828111156200036d57825182559160200191906001019062000350565b5b5090506200037d919062000381565b5090565b620003a691905b80821115620003a257600081600090555060010162000388565b5090565b90565b613a8680620003b96000396000f3fe608060405234801561001057600080fd5b50600436106101a95760003560e01c806370a08231116100f9578063ba26927111610097578063e985e9c511610071578063e985e9c514610d2d578063f23a6e6114610da9578063f2fde38b14610f0a578063f8ef871c14610f4e576101a9565b8063ba2692711461099a578063bc197c8114610a11578063c87b56dd14610c86576101a9565b80638da5cb5b116100d35780638da5cb5b1461077857806395d89b41146107c2578063a22cb46514610845578063b88d4fde14610895576101a9565b806370a082311461069f578063715018a6146106f757806371b3ea9714610701576101a9565b80632f745c59116101665780634f6ccce7116101405780634f6ccce7146104dc5780635fb490e71461051e5780636352211e146105ae5780636c0360eb1461061c576101a9565b80632f745c59146103de57806342842e0e1461044057806342966c68146104ae576101a9565b806301ffc9a7146101ae57806306fdde0314610213578063081812fc14610296578063095ea7b31461030457806318160ddd1461035257806323b872dd14610370575b600080fd5b6101f9600480360360208110156101c457600080fd5b8101908080357bffffffffffffffffffffffffffffffffffffffffffffffffffffffff19169060200190929190505050610fb4565b604051808215151515815260200191505060405180910390f35b61021b61101c565b6040518080602001828103825283818151815260200191508051906020019080838360005b8381101561025b578082015181840152602081019050610240565b50505050905090810190601f1680156102885780820380516001836020036101000a031916815260200191505b509250505060405180910390f35b6102c2600480360360208110156102ac57600080fd5b81019080803590602001909291905050506110be565b604051808273ffffffffffffffffffffffffffffffffffffffff1673ffffffffffffffffffffffffffffffffffffffff16815260200191505060405180910390f35b6103506004803603604081101561031a57600080fd5b81019080803573ffffffffffffffffffffffffffffffffffffffff16906020019092919080359060200190929190505050611159565b005b61035a61129d565b6040518082815260200191505060405180910390f35b6103dc6004803603606081101561038657600080fd5b81019080803573ffffffffffffffffffffffffffffffffffffffff169060200190929190803573ffffffffffffffffffffffffffffffffffffffff169060200190929190803590602001909291905050506112ae565b005b61042a600480360360408110156103f457600080fd5b81019080803573ffffffffffffffffffffffffffffffffffffffff16906020019092919080359060200190929190505050611324565b6040518082815260200191505060405180910390f35b6104ac6004803603606081101561045657600080fd5b81019080803573ffffffffffffffffffffffffffffffffffffffff169060200190929190803573ffffffffffffffffffffffffffffffffffffffff1690602001909291908035906020019092919050505061137f565b005b6104da600480360360208110156104c457600080fd5b810190808035906020019092919050505061139f565b005b610508600480360360208110156104f257600080fd5b8101908080359060200190929190505050611411565b6040518082815260200191505060405180910390f35b610598600480360360a081101561053457600080fd5b8101908080359060200190929190803563ffffffff169060200190929190803563ffffffff169060200190929190803561ffff169060200190929190803573ffffffffffffffffffffffffffffffffffffffff169060200190929190505050611434565b6040518082815260200191505060405180910390f35b6105da600480360360208110156105c457600080fd5b8101908080359060200190929190505050611453565b604051808273ffffffffffffffffffffffffffffffffffffffff1673ffffffffffffffffffffffffffffffffffffffff16815260200191505060405180910390f35b61062461148a565b6040518080602001828103825283818151815260200191508051906020019080838360005b83811015610664578082015181840152602081019050610649565b50505050905090810190601f1680156106915780820380516001836020036101000a031916815260200191505b509250505060405180910390f35b6106e1600480360360208110156106b557600080fd5b81019080803573ffffffffffffffffffffffffffffffffffffffff16906020019092919050505061152c565b6040518082815260200191505060405180910390f35b6106ff611601565b005b61072d6004803603602081101561071757600080fd5b8101908080359060200190929190505050611789565b604051808581526020018463ffffffff1663ffffffff1681526020018363ffffffff1663ffffffff1681526020018261ffff1661ffff16815260200194505050505060405180910390f35b6107806117e7565b604051808273ffffffffffffffffffffffffffffffffffffffff1673ffffffffffffffffffffffffffffffffffffffff16815260200191505060405180910390f35b6107ca611810565b6040518080602001828103825283818151815260200191508051906020019080838360005b8381101561080a5780820151818401526020810190506107ef565b50505050905090810190601f1680156108375780820380516001836020036101000a031916815260200191505b509250505060405180910390f35b6108936004803603604081101561085b57600080fd5b81019080803573ffffffffffffffffffffffffffffffffffffffff1690602001909291908035151590602001909291905050506118b2565b005b610998600480360360808110156108ab57600080fd5b81019080803573ffffffffffffffffffffffffffffffffffffffff169060200190929190803573ffffffffffffffffffffffffffffffffffffffff169060200190929190803590602001909291908035906020019064010000000081111561091257600080fd5b82018360208201111561092457600080fd5b8035906020019184600183028401116401000000008311171561094657600080fd5b91908080601f016020809104026020016040519081016040528093929190818152602001838380828437600081840152601f19601f820116905080830192505050505050509192919290505050611a6a565b005b6109c6600480360360208110156109b057600080fd5b8101908080359060200190929190505050611ae2565b604051808581526020018463ffffffff1663ffffffff1681526020018363ffffffff1663ffffffff1681526020018261ffff1661ffff16815260200194505050505060405180910390f35b610c32600480360360a0811015610a2757600080fd5b81019080803573ffffffffffffffffffffffffffffffffffffffff169060200190929190803573ffffffffffffffffffffffffffffffffffffffff16906020019092919080359060200190640100000000811115610a8457600080fd5b820183602082011115610a9657600080fd5b80359060200191846020830284011164010000000083111715610ab857600080fd5b919080806020026020016040519081016040528093929190818152602001838360200280828437600081840152601f19601f82011690508083019250505050505050919291929080359060200190640100000000811115610b1857600080fd5b820183602082011115610b2a57600080fd5b80359060200191846020830284011164010000000083111715610b4c57600080fd5b919080806020026020016040519081016040528093929190818152602001838360200280828437600081840152601f19601f82011690508083019250505050505050919291929080359060200190640100000000811115610bac57600080fd5b820183602082011115610bbe57600080fd5b80359060200191846001830284011164010000000083111715610be057600080fd5b91908080601f016020809104026020016040519081016040528093929190818152602001838380828437600081840152601f19601f820116905080830192505050505050509192919290505050611b5d565b60405180827bffffffffffffffffffffffffffffffffffffffffffffffffffffffff19167bffffffffffffffffffffffffffffffffffffffffffffffffffffffff1916815260200191505060405180910390f35b610cb260048036036020811015610c9c57600080fd5b8101908080359060200190929190505050611b72565b6040518080602001828103825283818151815260200191508051906020019080838360005b83811015610cf2578082015181840152602081019050610cd7565b50505050905090810190601f168015610d1f5780820380516001836020036101000a031916815260200191505b509250505060405180910390f35b610d8f60048036036040811015610d4357600080fd5b81019080803573ffffffffffffffffffffffffffffffffffffffff169060200190929190803573ffffffffffffffffffffffffffffffffffffffff169060200190929190505050611e5b565b604051808215151515815260200191505060405180910390f35b610eb6600480360360a0811015610dbf57600080fd5b81019080803573ffffffffffffffffffffffffffffffffffffffff169060200190929190803573ffffffffffffffffffffffffffffffffffffffff169060200190929190803590602001909291908035906020019092919080359060200190640100000000811115610e3057600080fd5b820183602082011115610e4257600080fd5b80359060200191846001830284011164010000000083111715610e6457600080fd5b91908080601f016020809104026020016040519081016040528093929190818152602001838380828437600081840152601f19601f820116905080830192505050505050509192919290505050611eef565b60405180827bffffffffffffffffffffffffffffffffffffffffffffffffffffffff19167bffffffffffffffffffffffffffffffffffffffffffffffffffffffff1916815260200191505060405180910390f35b610f4c60048036036020811015610f2057600080fd5b81019080803573ffffffffffffffffffffffffffffffffffffffff169060200190929190505050611f04565b005b610f9a60048036036040811015610f6457600080fd5b81019080803573ffffffffffffffffffffffffffffffffffffffff16906020019092919080359060200190929190505050612111565b604051808215151515815260200191505060405180910390f35b600060016000837bffffffffffffffffffffffffffffffffffffffffffffffffffffffff19167bffffffffffffffffffffffffffffffffffffffffffffffffffffffff1916815260200190815260200160002060009054906101000a900460ff169050919050565b606060078054600181600116156101000203166002900480601f0160208091040260200160405190810160405280929190818152602001828054600181600116156101000203166002900480156110b45780601f10611089576101008083540402835291602001916110b4565b820191906000526020600020905b81548152906001019060200180831161109757829003601f168201915b5050505050905090565b60006110c982612125565b61111e576040517f08c379a000000000000000000000000000000000000000000000000000000000815260040180806020018281038252602c81526020018061394b602c913960400191505060405180910390fd5b6005600083815260200190815260200160002060009054906101000a900473ffffffffffffffffffffffffffffffffffffffff169050919050565b600061116482611453565b90508073ffffffffffffffffffffffffffffffffffffffff168373ffffffffffffffffffffffffffffffffffffffff1614156111eb576040517f08c379a00000000000000000000000000000000000000000000000000000000081526004018080602001828103825260218152602001806139cf6021913960400191505060405180910390fd5b8073ffffffffffffffffffffffffffffffffffffffff1661120a612142565b73ffffffffffffffffffffffffffffffffffffffff161480611239575061123881611233612142565b611e5b565b5b61128e576040517f08c379a000000000000000000000000000000000000000000000000000000000815260040180806020018281038252603881526020018061389e6038913960400191505060405180910390fd5b611298838361214a565b505050565b60006112a96003612203565b905090565b6112bf6112b9612142565b82612218565b611314576040517f08c379a00000000000000000000000000000000000000000000000000000000081526004018080602001828103825260318152602001806139f06031913960400191505060405180910390fd5b61131f83838361230c565b505050565b600061137782600260008673ffffffffffffffffffffffffffffffffffffffff1673ffffffffffffffffffffffffffffffffffffffff16815260200190815260200160002061254f90919063ffffffff16565b905092915050565b61139a83838360405180602001604052806000815250611a6a565b505050565b6113b06113aa612142565b82612218565b611405576040517f08c379a0000000000000000000000000000000000000000000000000000000008152600401808060200182810382526030815260200180613a216030913960400191505060405180910390fd5b61140e81612569565b50565b6000806114288360036126a390919063ffffffff16565b50905080915050919050565b60008061144487878787876126d2565b90508091505095945050505050565b6000611483826040518060600160405280602981526020016139006029913960036128999092919063ffffffff16565b9050919050565b6060600a8054600181600116156101000203166002900480601f0160208091040260200160405190810160405280929190818152602001828054600181600116156101000203166002900480156115225780601f106114f757610100808354040283529160200191611522565b820191906000526020600020905b81548152906001019060200180831161150557829003601f168201915b5050505050905090565b60008073ffffffffffffffffffffffffffffffffffffffff168273ffffffffffffffffffffffffffffffffffffffff1614156115b3576040517f08c379a000000000000000000000000000000000000000000000000000000000815260040180806020018281038252602a8152602001806138d6602a913960400191505060405180910390fd5b6115fa600260008473ffffffffffffffffffffffffffffffffffffffff1673ffffffffffffffffffffffffffffffffffffffff1681526020019081526020016000206128b8565b9050919050565b611609612142565b73ffffffffffffffffffffffffffffffffffffffff166000809054906101000a900473ffffffffffffffffffffffffffffffffffffffff1673ffffffffffffffffffffffffffffffffffffffff16146116ca576040517f08c379a00000000000000000000000000000000000000000000000000000000081526004018080602001828103825260208152602001807f4f776e61626c653a2063616c6c6572206973206e6f7420746865206f776e657281525060200191505060405180910390fd5b600073ffffffffffffffffffffffffffffffffffffffff166000809054906101000a900473ffffffffffffffffffffffffffffffffffffffff1673ffffffffffffffffffffffffffffffffffffffff167f8be0079c531659141344cd1fd0a4f28419497f9722a3daafe3b4186f6b6457e060405160405180910390a360008060006101000a81548173ffffffffffffffffffffffffffffffffffffffff021916908373ffffffffffffffffffffffffffffffffffffffff160217905550565b600c6020528060005260406000206000915090508060000154908060010160009054906101000a900463ffffffff16908060010160049054906101000a900463ffffffff16908060010160089054906101000a900461ffff16905084565b60008060009054906101000a900473ffffffffffffffffffffffffffffffffffffffff16905090565b606060088054600181600116156101000203166002900480601f0160208091040260200160405190810160405280929190818152602001828054600181600116156101000203166002900480156118a85780601f1061187d576101008083540402835291602001916118a8565b820191906000526020600020905b81548152906001019060200180831161188b57829003601f168201915b5050505050905090565b6118ba612142565b73ffffffffffffffffffffffffffffffffffffffff168273ffffffffffffffffffffffffffffffffffffffff16141561195b576040517f08c379a00000000000000000000000000000000000000000000000000000000081526004018080602001828103825260198152602001807f4552433732313a20617070726f766520746f2063616c6c65720000000000000081525060200191505060405180910390fd5b8060066000611968612142565b73ffffffffffffffffffffffffffffffffffffffff1673ffffffffffffffffffffffffffffffffffffffff16815260200190815260200160002060008473ffffffffffffffffffffffffffffffffffffffff1673ffffffffffffffffffffffffffffffffffffffff16815260200190815260200160002060006101000a81548160ff0219169083151502179055508173ffffffffffffffffffffffffffffffffffffffff16611a15612142565b73ffffffffffffffffffffffffffffffffffffffff167f17307eab39ab6107e8899845ad3d59bd9653f200f220920489ca2b5937696c3183604051808215151515815260200191505060405180910390a35050565b611a7b611a75612142565b83612218565b611ad0576040517f08c379a00000000000000000000000000000000000000000000000000000000081526004018080602001828103825260318152602001806139f06031913960400191505060405180910390fd5b611adc848484846128cd565b50505050565b6000806000806000600c60008781526020019081526020016000209050806000015494508060010160009054906101000a900463ffffffff1693508060010160049054906101000a900463ffffffff1692508060010160089054906101000a900461ffff169150848484849450945094509450509193509193565b600063bc197c8160e01b905095945050505050565b6060611b7d82612125565b611bd2576040517f08c379a000000000000000000000000000000000000000000000000000000000815260040180806020018281038252602f8152602001806139a0602f913960400191505060405180910390fd5b6060600960008481526020019081526020016000208054600181600116156101000203166002900480601f016020809104026020016040519081016040528092919081815260200182805460018160011615610100020316600290048015611c7b5780601f10611c5057610100808354040283529160200191611c7b565b820191906000526020600020905b815481529060010190602001808311611c5e57829003601f168201915b505050505090506000600a8054600181600116156101000203166002900490501415611caa5780915050611e56565b600081511115611d8357600a816040516020018083805460018160011615610100020316600290048015611d155780601f10611cf3576101008083540402835291820191611d15565b820191906000526020600020905b815481529060010190602001808311611d01575b505082805190602001908083835b60208310611d465780518252602082019150602081019050602083039250611d23565b6001836020036101000a03801982511681845116808217855250505050505090500192505050604051602081830303815290604052915050611e56565b600a611d8e8461293f565b6040516020018083805460018160011615610100020316600290048015611dec5780601f10611dca576101008083540402835291820191611dec565b820191906000526020600020905b815481529060010190602001808311611dd8575b505082805190602001908083835b60208310611e1d5780518252602082019150602081019050602083039250611dfa565b6001836020036101000a038019825116818451168082178552505050505050905001925050506040516020818303038152906040529150505b919050565b6000600660008473ffffffffffffffffffffffffffffffffffffffff1673ffffffffffffffffffffffffffffffffffffffff16815260200190815260200160002060008373ffffffffffffffffffffffffffffffffffffffff1673ffffffffffffffffffffffffffffffffffffffff16815260200190815260200160002060009054906101000a900460ff16905092915050565b600063f23a6e6160e01b905095945050505050565b611f0c612142565b73ffffffffffffffffffffffffffffffffffffffff166000809054906101000a900473ffffffffffffffffffffffffffffffffffffffff1673ffffffffffffffffffffffffffffffffffffffff1614611fcd576040517f08c379a00000000000000000000000000000000000000000000000000000000081526004018080602001828103825260208152602001807f4f776e61626c653a2063616c6c6572206973206e6f7420746865206f776e657281525060200191505060405180910390fd5b600073ffffffffffffffffffffffffffffffffffffffff168173ffffffffffffffffffffffffffffffffffffffff161415612053576040517f08c379a00000000000000000000000000000000000000000000000000000000081526004018080602001828103825260268152602001806138286026913960400191505060405180910390fd5b8073ffffffffffffffffffffffffffffffffffffffff166000809054906101000a900473ffffffffffffffffffffffffffffffffffffffff1673ffffffffffffffffffffffffffffffffffffffff167f8be0079c531659141344cd1fd0a4f28419497f9722a3daafe3b4186f6b6457e060405160405180910390a3806000806101000a81548173ffffffffffffffffffffffffffffffffffffffff021916908373ffffffffffffffffffffffffffffffffffffffff16021790555050565b600061211d8383612218565b905092915050565b600061213b826003612a6f90919063ffffffff16565b9050919050565b600033905090565b816005600083815260200190815260200160002060006101000a81548173ffffffffffffffffffffffffffffffffffffffff021916908373ffffffffffffffffffffffffffffffffffffffff160217905550808273ffffffffffffffffffffffffffffffffffffffff166121bd83611453565b73ffffffffffffffffffffffffffffffffffffffff167f8c5be1e5ebec7d5bd14f71427d1e84f3dd0314c0f7b2291e5b200ac8c7c3b92560405160405180910390a45050565b600061221182600001612a89565b9050919050565b600061222382612125565b612278576040517f08c379a000000000000000000000000000000000000000000000000000000000815260040180806020018281038252602c815260200180613872602c913960400191505060405180910390fd5b600061228383611453565b90508073ffffffffffffffffffffffffffffffffffffffff168473ffffffffffffffffffffffffffffffffffffffff1614806122f257508373ffffffffffffffffffffffffffffffffffffffff166122da846110be565b73ffffffffffffffffffffffffffffffffffffffff16145b8061230357506123028185611e5b565b5b91505092915050565b8273ffffffffffffffffffffffffffffffffffffffff1661232c82611453565b73ffffffffffffffffffffffffffffffffffffffff1614612398576040517f08c379a00000000000000000000000000000000000000000000000000000000081526004018080602001828103825260298152602001806139776029913960400191505060405180910390fd5b600073ffffffffffffffffffffffffffffffffffffffff168273ffffffffffffffffffffffffffffffffffffffff16141561241e576040517f08c379a000000000000000000000000000000000000000000000000000000000815260040180806020018281038252602481526020018061384e6024913960400191505060405180910390fd5b612429838383612a9a565b61243460008261214a565b61248581600260008673ffffffffffffffffffffffffffffffffffffffff1673ffffffffffffffffffffffffffffffffffffffff168152602001908152602001600020612a9f90919063ffffffff16565b506124d781600260008573ffffffffffffffffffffffffffffffffffffffff1673ffffffffffffffffffffffffffffffffffffffff168152602001908152602001600020612ab990919063ffffffff16565b506124ee81836003612ad39092919063ffffffff16565b50808273ffffffffffffffffffffffffffffffffffffffff168473ffffffffffffffffffffffffffffffffffffffff167fddf252ad1be2c89b69c2b068fc378daa952ba7f163c4a11628f55a4df523b3ef60405160405180910390a4505050565b600061255e8360000183612b08565b60001c905092915050565b600061257482611453565b905061258281600084612a9a565b61258d60008361214a565b600060096000848152602001908152602001600020805460018160011615610100020316600290049050146125dc576009600083815260200190815260200160002060006125db9190613766565b5b61262d82600260008473ffffffffffffffffffffffffffffffffffffffff1673ffffffffffffffffffffffffffffffffffffffff168152602001908152602001600020612a9f90919063ffffffff16565b50612642826003612b8b90919063ffffffff16565b5081600073ffffffffffffffffffffffffffffffffffffffff168273ffffffffffffffffffffffffffffffffffffffff167fddf252ad1be2c89b69c2b068fc378daa952ba7f163c4a11628f55a4df523b3ef60405160405180910390a45050565b6000806000806126b68660000186612ba5565b915091508160001c8160001c8090509350935050509250929050565b60006126de600b612c3e565b60405180608001604052808781526020018663ffffffff1681526020018563ffffffff1681526020018461ffff16815250600c600061271d600b612c54565b81526020019081526020016000206000820151816000015560208201518160010160006101000a81548163ffffffff021916908363ffffffff16021790555060408201518160010160046101000a81548163ffffffff021916908363ffffffff16021790555060608201518160010160086101000a81548161ffff021916908361ffff1602179055509050506127bc826127b7600b612c54565b612c62565b6127c6600b612c54565b63ffffffff166127d6600b612c54565b146127e057600080fd5b7f190e965faf32f04a0bd16c35d90db68cfd344a647df4508f4a9a967b9dac08948261280c600b612c54565b87878a604051808673ffffffffffffffffffffffffffffffffffffffff1673ffffffffffffffffffffffffffffffffffffffff1681526020018581526020018463ffffffff1663ffffffff1681526020018363ffffffff1663ffffffff1681526020018281526020019550505050505060405180910390a161288e600b612c54565b905095945050505050565b60006128ac846000018460001b84612e56565b60001c90509392505050565b60006128c682600001612f4c565b9050919050565b6128d884848461230c565b6128e484848484612f5d565b612939576040517f08c379a00000000000000000000000000000000000000000000000000000000081526004018080602001828103825260328152602001806137f66032913960400191505060405180910390fd5b50505050565b60606000821415612987576040518060400160405280600181526020017f30000000000000000000000000000000000000000000000000000000000000008152509050612a6a565b600082905060005b600082146129b1578080600101915050600a82816129a957fe5b04915061298f565b6060816040519080825280601f01601f1916602001820160405280156129e65781602001600182028038833980820191505090505b50905060006001830390508593505b60008414612a6257600a8481612a0757fe5b0660300160f81b82828060019003935081518110612a2157fe5b60200101907effffffffffffffffffffffffffffffffffffffffffffffffffffffffffffff1916908160001a905350600a8481612a5a57fe5b0493506129f5565b819450505050505b919050565b6000612a81836000018360001b6131a2565b905092915050565b600081600001805490509050919050565b505050565b6000612ab1836000018360001b6131c5565b905092915050565b6000612acb836000018360001b6132ad565b905092915050565b6000612aff846000018460001b8473ffffffffffffffffffffffffffffffffffffffff1660001b61331d565b90509392505050565b600081836000018054905011612b69576040517f08c379a00000000000000000000000000000000000000000000000000000000081526004018080602001828103825260228152602001806137d46022913960400191505060405180910390fd5b826000018281548110612b7857fe5b9060005260206000200154905092915050565b6000612b9d836000018360001b6133f9565b905092915050565b60008082846000018054905011612c07576040517f08c379a00000000000000000000000000000000000000000000000000000000081526004018080602001828103825260228152602001806139296022913960400191505060405180910390fd5b6000846000018481548110612c1857fe5b906000526020600020906002020190508060000154816001015492509250509250929050565b6001816000016000828254019250508190555050565b600081600001549050919050565b600073ffffffffffffffffffffffffffffffffffffffff168273ffffffffffffffffffffffffffffffffffffffff161415612d05576040517f08c379a00000000000000000000000000000000000000000000000000000000081526004018080602001828103825260208152602001807f4552433732313a206d696e7420746f20746865207a65726f206164647265737381525060200191505060405180910390fd5b612d0e81612125565b15612d81576040517f08c379a000000000000000000000000000000000000000000000000000000000815260040180806020018281038252601c8152602001807f4552433732313a20746f6b656e20616c7265616479206d696e7465640000000081525060200191505060405180910390fd5b612d8d60008383612a9a565b612dde81600260008573ffffffffffffffffffffffffffffffffffffffff1673ffffffffffffffffffffffffffffffffffffffff168152602001908152602001600020612ab990919063ffffffff16565b50612df581836003612ad39092919063ffffffff16565b50808273ffffffffffffffffffffffffffffffffffffffff16600073ffffffffffffffffffffffffffffffffffffffff167fddf252ad1be2c89b69c2b068fc378daa952ba7f163c4a11628f55a4df523b3ef60405160405180910390a45050565b60008084600101600085815260200190815260200160002054905060008114158390612f1d576040517f08c379a00000000000000000000000000000000000000000000000000000000081526004018080602001828103825283818151815260200191508051906020019080838360005b83811015612ee2578082015181840152602081019050612ec7565b50505050905090810190601f168015612f0f5780820380516001836020036101000a031916815260200191505b509250505060405180910390fd5b50846000016001820381548110612f3057fe5b9060005260206000209060020201600101549150509392505050565b600081600001805490509050919050565b6000612f7e8473ffffffffffffffffffffffffffffffffffffffff16613512565b612f8b576001905061319a565b606061312163150b7a0260e01b612fa0612142565b888787604051602401808573ffffffffffffffffffffffffffffffffffffffff1673ffffffffffffffffffffffffffffffffffffffff1681526020018473ffffffffffffffffffffffffffffffffffffffff1673ffffffffffffffffffffffffffffffffffffffff16815260200183815260200180602001828103825283818151815260200191508051906020019080838360005b83811015613050578082015181840152602081019050613035565b50505050905090810190601f16801561307d5780820380516001836020036101000a031916815260200191505b5095505050505050604051602081830303815290604052907bffffffffffffffffffffffffffffffffffffffffffffffffffffffff19166020820180517bffffffffffffffffffffffffffffffffffffffffffffffffffffffff83818316178352505050506040518060600160405280603281526020016137f6603291398773ffffffffffffffffffffffffffffffffffffffff166135259092919063ffffffff16565b9050600081806020019051602081101561313a57600080fd5b8101908080519060200190929190505050905063150b7a0260e01b7bffffffffffffffffffffffffffffffffffffffffffffffffffffffff1916817bffffffffffffffffffffffffffffffffffffffffffffffffffffffff191614925050505b949350505050565b600080836001016000848152602001908152602001600020541415905092915050565b600080836001016000848152602001908152602001600020549050600081146132a1576000600182039050600060018660000180549050039050600086600001828154811061321057fe5b906000526020600020015490508087600001848154811061322d57fe5b906000526020600020018190555060018301876001016000838152602001908152602001600020819055508660000180548061326557fe5b600190038181906000526020600020016000905590558660010160008781526020019081526020016000206000905560019450505050506132a7565b60009150505b92915050565b60006132b9838361353d565b613312578260000182908060018154018082558091505060019003906000526020600020016000909190919091505582600001805490508360010160008481526020019081526020016000208190555060019050613317565b600090505b92915050565b60008084600101600085815260200190815260200160002054905060008114156133c4578460000160405180604001604052808681526020018581525090806001815401808255809150506001900390600052602060002090600202016000909190919091506000820151816000015560208201518160010155505084600001805490508560010160008681526020019081526020016000208190555060019150506133f2565b828560000160018303815481106133d757fe5b90600052602060002090600202016001018190555060009150505b9392505050565b60008083600101600084815260200190815260200160002054905060008114613506576000600182039050600060018660000180549050039050600086600001828154811061344457fe5b906000526020600020906002020190508087600001848154811061346457fe5b90600052602060002090600202016000820154816000015560018201548160010155905050600183018760010160008360000154815260200190815260200160002081905550866000018054806134b757fe5b600190038181906000526020600020906002020160008082016000905560018201600090555050905586600101600087815260200190815260200160002060009055600194505050505061350c565b60009150505b92915050565b600080823b905060008111915050919050565b60606135348484600085613560565b90509392505050565b600080836001016000848152602001908152602001600020541415905092915050565b606061356b85613512565b6135dd576040517f08c379a000000000000000000000000000000000000000000000000000000000815260040180806020018281038252601d8152602001807f416464726573733a2063616c6c20746f206e6f6e2d636f6e747261637400000081525060200191505060405180910390fd5b600060608673ffffffffffffffffffffffffffffffffffffffff1685876040518082805190602001908083835b6020831061362d578051825260208201915060208101905060208303925061360a565b6001836020036101000a03801982511681845116808217855250505050505090500191505060006040518083038185875af1925050503d806000811461368f576040519150601f19603f3d011682016040523d82523d6000602084013e613694565b606091505b509150915081156136a957809250505061375e565b6000815111156136bc5780518082602001fd5b836040517f08c379a00000000000000000000000000000000000000000000000000000000081526004018080602001828103825283818151815260200191508051906020019080838360005b83811015613723578082015181840152602081019050613708565b50505050905090810190601f1680156137505780820380516001836020036101000a031916815260200191505b509250505060405180910390fd5b949350505050565b50805460018160011615610100020316600290046000825580601f1061378c57506137ab565b601f0160209004906000526020600020908101906137aa91906137ae565b5b50565b6137d091905b808211156137cc5760008160009055506001016137b4565b5090565b9056fe456e756d657261626c655365743a20696e646578206f7574206f6620626f756e64734552433732313a207472616e7366657220746f206e6f6e20455243373231526563656976657220696d706c656d656e7465724f776e61626c653a206e6577206f776e657220697320746865207a65726f20616464726573734552433732313a207472616e7366657220746f20746865207a65726f20616464726573734552433732313a206f70657261746f7220717565727920666f72206e6f6e6578697374656e7420746f6b656e4552433732313a20617070726f76652063616c6c6572206973206e6f74206f776e6572206e6f7220617070726f76656420666f7220616c6c4552433732313a2062616c616e636520717565727920666f7220746865207a65726f20616464726573734552433732313a206f776e657220717565727920666f72206e6f6e6578697374656e7420746f6b656e456e756d657261626c654d61703a20696e646578206f7574206f6620626f756e64734552433732313a20617070726f76656420717565727920666f72206e6f6e6578697374656e7420746f6b656e4552433732313a207472616e73666572206f6620746f6b656e2074686174206973206e6f74206f776e4552433732314d657461646174613a2055524920717565727920666f72206e6f6e6578697374656e7420746f6b656e4552433732313a20617070726f76616c20746f2063757272656e74206f776e65724552433732313a207472616e736665722063616c6c6572206973206e6f74206f776e6572206e6f7220617070726f7665644552433732314275726e61626c653a2063616c6c6572206973206e6f74206f776e6572206e6f7220617070726f766564a2646970667358221220d9e448706807875e65e46095b9d630f27dc059610997092fea858f7dfd63f56964736f6c63430006020033",
  "source": "pragma solidity ^0.6.0;\r\n\r\nimport \"./@openzeppelin/contracts/token/ERC721/ERC721.sol\";\r\nimport \"./@openzeppelin/contracts/token/ERC721/ERC721Burnable.sol\";\r\nimport \"./@openzeppelin/contracts/token/ERC721/ERC721Pausable.sol\";\r\nimport \"./@openzeppelin/contracts/token/ERC721/IERC721.sol\";\r\nimport \"./@openzeppelin/contracts/token/ERC1155/IERC1155.sol\";\r\nimport \"./@openzeppelin/contracts/token/ERC1155/ERC1155Holder.sol\";\r\nimport \"./@openzeppelin/contracts/utils/Counters.sol\";\r\nimport \"./@openzeppelin/contracts/access/Ownable.sol\";\r\n\r\n\r\n// SPDX-License-Identifier: MIT\r\n//ERC721\r\ncontract AlienERC721 is\r\n  Ownable,\r\n  ERC721,\r\n  ERC721Burnable,\r\n  ERC1155Holder\r\n{\r\n\r\n  using Counters for Counters.Counter;\r\n  Counters.Counter private _tokenIds;\r\n\r\n  struct AlienObj {\r\n    uint256 genes;\r\n    uint32 mumId;\r\n    uint32 dadId;\r\n    uint16 generation;\r\n  }\r\n\r\n  // Mapping from token ID to NFT struct details\r\n  mapping(uint256 => AlienObj) public alienDetails;\r\n\r\n  constructor() public ERC721(\r\n    \"AlienNFT\",\r\n     \"ALNFT\"\r\n     ) {\r\n\r\n  }\r\n\r\n  event AlienMinted(\r\n    address owner,\r\n    uint256 alienId,\r\n    uint32 mumId,\r\n    uint32 dadId,\r\n    uint256 genes\r\n  );\r\n\r\n  function _createtAlien(\r\n      uint256 _genes,\r\n      uint32 _mumId,\r\n      uint32 _dadId,\r\n      uint16 _generation,\r\n      address _owner\r\n    ) private returns (uint256) {\r\n      _tokenIds.increment();\r\n      alienDetails[_tokenIds.current()] = AlienObj(\r\n        uint256(_genes),\r\n        uint32(_mumId),\r\n        uint32(_dadId),\r\n        uint16(_generation)\r\n      );\r\n      _mint(_owner, _tokenIds.current());\r\n\r\n      // It's probably never going to happen, 4 billion cats is A LOT, but\r\n      // let's just be 100% sure we never let this happen.\r\n      require(_tokenIds.current() == uint256(uint32(_tokenIds.current())));\r\n\r\n\r\n\r\n      emit AlienMinted(_owner, _tokenIds.current(), _mumId, _dadId, _genes);\r\n      return _tokenIds.current();\r\n    }\r\n\r\n\r\n  function getAlien(uint256 _nftId) public view returns(\r\n    uint256 _genes,\r\n    uint32 _mumId,\r\n    uint32 _dadId,\r\n    uint16 _generation\r\n    ){\r\n      AlienObj storage alien = alienDetails[_nftId];\r\n\r\n      _genes = uint256(alien.genes);\r\n      _mumId = uint32(alien.mumId);\r\n      _dadId = uint32(alien.dadId);\r\n      _generation = uint16(alien.generation);\r\n      return (_genes, _mumId, _dadId, _generation);\r\n  }\r\n\r\n  function createtAlien(\r\n      uint256 _genes,\r\n      uint32 _mumId,\r\n      uint32 _dadId,\r\n      uint16 _generation,\r\n      address _owner\r\n    ) external returns(uint256){\r\n        uint256 _newAlien = _createtAlien(_genes, _mumId, _dadId, _generation, _owner);\r\n        return _newAlien;\r\n  }\r\n\r\n  function isApprovedOwner(address _owner, uint256 _nftId) public view returns (bool){\r\n    return _isApprovedOrOwner(_owner, _nftId);\r\n  }\r\n\r\n}\r\n",
  "sourcePath": "D:\\IOTT\\cryptoaliens\\solidity\\contracts\\AlienERC721.sol",
  "compiler": {
    "name": "solc",
    "version": "0.6.2+commit.bacdbe57.Emscripten.clang"
  },
  "schemaVersion": "3.2.0",
  "updatedAt": "2021-01-28T01:48:20.139Z",
  "networkType": "ethereum",
  "devdoc": {
    "methods": {
      "approve(address,uint256)": {
        "details": "See {IERC721-approve}."
      },
      "balanceOf(address)": {
        "details": "See {IERC721-balanceOf}."
      },
      "baseURI()": {
        "details": "Returns the base URI set via {_setBaseURI}. This will be automatically added as a prefix in {tokenURI} to each token's URI, or to the token ID if no specific URI is set for that token ID."
      },
      "burn(uint256)": {
        "details": "Burns `tokenId`. See {ERC721-_burn}.     * Requirements:     * - The caller must own `tokenId` or be an approved operator."
      },
      "getApproved(uint256)": {
        "details": "See {IERC721-getApproved}."
      },
      "isApprovedForAll(address,address)": {
        "details": "See {IERC721-isApprovedForAll}."
      },
      "name()": {
        "details": "See {IERC721Metadata-name}."
      },
      "owner()": {
        "details": "Returns the address of the current owner."
      },
      "ownerOf(uint256)": {
        "details": "See {IERC721-ownerOf}."
      },
      "renounceOwnership()": {
        "details": "Leaves the contract without owner. It will not be possible to call `onlyOwner` functions anymore. Can only be called by the current owner.     * NOTE: Renouncing ownership will leave the contract without an owner, thereby removing any functionality that is only available to the owner."
      },
      "safeTransferFrom(address,address,uint256)": {
        "details": "See {IERC721-safeTransferFrom}."
      },
      "safeTransferFrom(address,address,uint256,bytes)": {
        "details": "See {IERC721-safeTransferFrom}."
      },
      "setApprovalForAll(address,bool)": {
        "details": "See {IERC721-setApprovalForAll}."
      },
      "supportsInterface(bytes4)": {
        "details": "See {IERC165-supportsInterface}.     * Time complexity O(1), guaranteed to always use less than 30 000 gas."
      },
      "symbol()": {
        "details": "See {IERC721Metadata-symbol}."
      },
      "tokenByIndex(uint256)": {
        "details": "See {IERC721Enumerable-tokenByIndex}."
      },
      "tokenOfOwnerByIndex(address,uint256)": {
        "details": "See {IERC721Enumerable-tokenOfOwnerByIndex}."
      },
      "tokenURI(uint256)": {
        "details": "See {IERC721Metadata-tokenURI}."
      },
      "totalSupply()": {
        "details": "See {IERC721Enumerable-totalSupply}."
      },
      "transferFrom(address,address,uint256)": {
        "details": "See {IERC721-transferFrom}."
      },
      "transferOwnership(address)": {
        "details": "Transfers ownership of the contract to a new account (`newOwner`). Can only be called by the current owner."
      }
    }
  },
  "userdoc": {
    "methods": {}
  }
}