{
  "contractName": "AlienCore",
  "abi": [
    {
      "inputs": [
        {
          "internalType": "address",
          "name": "_AlienERC721",
          "type": "address"
        }
      ],
      "stateMutability": "nonpayable",
      "type": "constructor"
    },
    {
      "anonymous": false,
      "inputs": [
        {
          "indexed": false,
          "internalType": "string",
          "name": "TxType",
          "type": "string"
        },
        {
          "indexed": false,
          "internalType": "address",
          "name": "owner",
          "type": "address"
        },
        {
          "indexed": false,
          "internalType": "uint256",
          "name": "tokenId",
          "type": "uint256"
        }
      ],
      "name": "MarketTransaction",
      "type": "event"
    },
    {
      "anonymous": false,
      "inputs": [
        {
          "indexed": true,
          "internalType": "address",
          "name": "previousOwner",
          "type": "address"
        },
        {
          "indexed": true,
          "internalType": "address",
          "name": "newOwner",
          "type": "address"
        }
      ],
      "name": "OwnershipTransferred",
      "type": "event"
    },
    {
      "inputs": [],
      "name": "IAlienAddress",
      "outputs": [
        {
          "internalType": "address",
          "name": "",
          "type": "address"
        }
      ],
      "stateMutability": "view",
      "type": "function",
      "constant": true
    },
    {
      "inputs": [],
      "name": "aln721",
      "outputs": [
        {
          "internalType": "contract IAlienERC721",
          "name": "",
          "type": "address"
        }
      ],
      "stateMutability": "view",
      "type": "function",
      "constant": true
    },
    {
      "inputs": [
        {
          "internalType": "uint256",
          "name": "_tokenId",
          "type": "uint256"
        }
      ],
      "name": "buyAlien",
      "outputs": [],
      "stateMutability": "payable",
      "type": "function",
      "payable": true
    },
    {
      "inputs": [
        {
          "internalType": "uint256",
          "name": "_tokenId",
          "type": "uint256"
        }
      ],
      "name": "getOffer",
      "outputs": [
        {
          "internalType": "address",
          "name": "seller",
          "type": "address"
        },
        {
          "internalType": "uint256",
          "name": "price",
          "type": "uint256"
        }
      ],
      "stateMutability": "view",
      "type": "function",
      "constant": true
    },
    {
      "inputs": [],
      "name": "owner",
      "outputs": [
        {
          "internalType": "address",
          "name": "",
          "type": "address"
        }
      ],
      "stateMutability": "view",
      "type": "function",
      "constant": true
    },
    {
      "inputs": [
        {
          "internalType": "uint256",
          "name": "_tokenId",
          "type": "uint256"
        }
      ],
      "name": "removeOffer",
      "outputs": [],
      "stateMutability": "nonpayable",
      "type": "function"
    },
    {
      "inputs": [],
      "name": "renounceOwnership",
      "outputs": [],
      "stateMutability": "nonpayable",
      "type": "function"
    },
    {
      "inputs": [
        {
          "internalType": "uint256",
          "name": "_price",
          "type": "uint256"
        },
        {
          "internalType": "uint256",
          "name": "_tokenId",
          "type": "uint256"
        }
      ],
      "name": "setOffer",
      "outputs": [],
      "stateMutability": "nonpayable",
      "type": "function"
    },
    {
      "inputs": [
        {
          "internalType": "address",
          "name": "newOwner",
          "type": "address"
        }
      ],
      "name": "transferOwnership",
      "outputs": [],
      "stateMutability": "nonpayable",
      "type": "function"
    },
    {
      "inputs": [
        {
          "internalType": "uint256",
          "name": "_dadId",
          "type": "uint256"
        },
        {
          "internalType": "uint256",
          "name": "_mumId",
          "type": "uint256"
        }
      ],
      "name": "cloneAlien",
      "outputs": [
        {
          "internalType": "uint256",
          "name": "",
          "type": "uint256"
        }
      ],
      "stateMutability": "nonpayable",
      "type": "function"
    },
    {
      "inputs": [
        {
          "internalType": "uint256",
          "name": "genes",
          "type": "uint256"
        }
      ],
      "name": "createAlienGen0",
      "outputs": [
        {
          "internalType": "uint256",
          "name": "",
          "type": "uint256"
        }
      ],
      "stateMutability": "nonpayable",
      "type": "function"
    }
  ],
  "bytecode": "0x60806040523480156200001157600080fd5b506040516200200c3803806200200c833981810160405260208110156200003757600080fd5b810190808051906020019092919050505060006200005a620001b660201b60201c565b9050806000806101000a81548173ffffffffffffffffffffffffffffffffffffffff021916908373ffffffffffffffffffffffffffffffffffffffff1602179055508073ffffffffffffffffffffffffffffffffffffffff16600073ffffffffffffffffffffffffffffffffffffffff167f8be0079c531659141344cd1fd0a4f28419497f9722a3daafe3b4186f6b6457e060405160405180910390a35080600460006101000a81548173ffffffffffffffffffffffffffffffffffffffff021916908373ffffffffffffffffffffffffffffffffffffffff160217905550600460009054906101000a900473ffffffffffffffffffffffffffffffffffffffff16600160006101000a81548173ffffffffffffffffffffffffffffffffffffffff021916908373ffffffffffffffffffffffffffffffffffffffff160217905550620001ae6000620001be60201b60201c565b505062000426565b600033905090565b6000620001d0620001b660201b60201c565b73ffffffffffffffffffffffffffffffffffffffff16620001f6620003fd60201b60201c565b73ffffffffffffffffffffffffffffffffffffffff161462000280576040517f08c379a00000000000000000000000000000000000000000000000000000000081526004018080602001828103825260208152602001807f4f776e61626c653a2063616c6c6572206973206e6f7420746865206f776e657281525060200191505060405180910390fd5b600a60035410620002dd576040517f08c379a000000000000000000000000000000000000000000000000000000000815260040180806020018281038252602681526020018062001fe66026913960400191505060405180910390fd5b6003600081548092919060010191905055506000600160009054906101000a900473ffffffffffffffffffffffffffffffffffffffff1673ffffffffffffffffffffffffffffffffffffffff16632f782dda846000806000336040518663ffffffff1660e01b8152600401808681526020018581526020018481526020018381526020018273ffffffffffffffffffffffffffffffffffffffff1673ffffffffffffffffffffffffffffffffffffffff16815260200195505050505050602060405180830381600087803b158015620003b557600080fd5b505af1158015620003ca573d6000803e3d6000fd5b505050506040513d6020811015620003e157600080fd5b8101908080519060200190929190505050905080915050919050565b60008060009054906101000a900473ffffffffffffffffffffffffffffffffffffffff16905090565b611bb080620004366000396000f3fe60806040526004361061009c5760003560e01c80638f4725a6116100645780638f4725a614610237578063921a76201461028e57806393846ea7146102e7578063941b055b1461031557806395a0f9c71461035a578063f2fde38b146103955761009c565b806318e0b13e146100a1578063242155cb146100f85780634579268a14610147578063715018a6146101c95780638da5cb5b146101e0575b600080fd5b3480156100ad57600080fd5b506100b66103e6565b604051808273ffffffffffffffffffffffffffffffffffffffff1673ffffffffffffffffffffffffffffffffffffffff16815260200191505060405180910390f35b34801561010457600080fd5b506101316004803603602081101561011b57600080fd5b810190808035906020019092919050505061040c565b6040518082815260200191505060405180910390f35b34801561015357600080fd5b506101806004803603602081101561016a57600080fd5b8101908080359060200190929190505050610635565b604051808373ffffffffffffffffffffffffffffffffffffffff1673ffffffffffffffffffffffffffffffffffffffff1681526020018281526020019250505060405180910390f35b3480156101d557600080fd5b506101de610686565b005b3480156101ec57600080fd5b506101f56107f4565b604051808273ffffffffffffffffffffffffffffffffffffffff1673ffffffffffffffffffffffffffffffffffffffff16815260200191505060405180910390f35b34801561024357600080fd5b5061024c61081d565b604051808273ffffffffffffffffffffffffffffffffffffffff1673ffffffffffffffffffffffffffffffffffffffff16815260200191505060405180910390f35b34801561029a57600080fd5b506102d1600480360360408110156102b157600080fd5b810190808035906020019092919080359060200190929190505050610843565b6040518082815260200191505060405180910390f35b610313600480360360208110156102fd57600080fd5b8101908080359060200190929190505050610dd1565b005b34801561032157600080fd5b506103586004803603604081101561033857600080fd5b810190808035906020019092919080359060200190929190505050611103565b005b34801561036657600080fd5b506103936004803603602081101561037d57600080fd5b81019080803590602001909291905050506112dc565b005b3480156103a157600080fd5b506103e4600480360360208110156103b857600080fd5b81019080803573ffffffffffffffffffffffffffffffffffffffff169060200190929190505050611710565b005b600160009054906101000a900473ffffffffffffffffffffffffffffffffffffffff1681565b6000610416611903565b73ffffffffffffffffffffffffffffffffffffffff166104346107f4565b73ffffffffffffffffffffffffffffffffffffffff16146104bd576040517f08c379a00000000000000000000000000000000000000000000000000000000081526004018080602001828103825260208152602001807f4f776e61626c653a2063616c6c6572206973206e6f7420746865206f776e657281525060200191505060405180910390fd5b600a60035410610518576040517f08c379a0000000000000000000000000000000000000000000000000000000008152600401808060200182810382526026815260200180611b2f6026913960400191505060405180910390fd5b6003600081548092919060010191905055506000600160009054906101000a900473ffffffffffffffffffffffffffffffffffffffff1673ffffffffffffffffffffffffffffffffffffffff16632f782dda846000806000336040518663ffffffff1660e01b8152600401808681526020018581526020018481526020018381526020018273ffffffffffffffffffffffffffffffffffffffff1673ffffffffffffffffffffffffffffffffffffffff16815260200195505050505050602060405180830381600087803b1580156105ef57600080fd5b505af1158015610603573d6000803e3d6000fd5b505050506040513d602081101561061957600080fd5b8101908080519060200190929190505050905080915050919050565b60008060006002600085815260200190815260200160002090508060000160009054906101000a900473ffffffffffffffffffffffffffffffffffffffff1681600101548191509250925050915091565b61068e611903565b73ffffffffffffffffffffffffffffffffffffffff166106ac6107f4565b73ffffffffffffffffffffffffffffffffffffffff1614610735576040517f08c379a00000000000000000000000000000000000000000000000000000000081526004018080602001828103825260208152602001807f4f776e61626c653a2063616c6c6572206973206e6f7420746865206f776e657281525060200191505060405180910390fd5b600073ffffffffffffffffffffffffffffffffffffffff166000809054906101000a900473ffffffffffffffffffffffffffffffffffffffff1673ffffffffffffffffffffffffffffffffffffffff167f8be0079c531659141344cd1fd0a4f28419497f9722a3daafe3b4186f6b6457e060405160405180910390a360008060006101000a81548173ffffffffffffffffffffffffffffffffffffffff021916908373ffffffffffffffffffffffffffffffffffffffff160217905550565b60008060009054906101000a900473ffffffffffffffffffffffffffffffffffffffff16905090565b600460009054906101000a900473ffffffffffffffffffffffffffffffffffffffff1681565b600060011515600160009054906101000a900473ffffffffffffffffffffffffffffffffffffffff1673ffffffffffffffffffffffffffffffffffffffff1663f8ef871c33866040518363ffffffff1660e01b8152600401808373ffffffffffffffffffffffffffffffffffffffff1673ffffffffffffffffffffffffffffffffffffffff1681526020018281526020019250505060206040518083038186803b1580156108f057600080fd5b505afa158015610904573d6000803e3d6000fd5b505050506040513d602081101561091a57600080fd5b81019080805190602001909291905050501515146109a0576040517f08c379a000000000000000000000000000000000000000000000000000000000815260040180806020018281038252601e8152602001807f546865207573657220646f65736e2774206f776e2074686520746f6b656e000081525060200191505060405180910390fd5b60011515600160009054906101000a900473ffffffffffffffffffffffffffffffffffffffff1673ffffffffffffffffffffffffffffffffffffffff1663f8ef871c33856040518363ffffffff1660e01b8152600401808373ffffffffffffffffffffffffffffffffffffffff1673ffffffffffffffffffffffffffffffffffffffff1681526020018281526020019250505060206040518083038186803b158015610a4b57600080fd5b505afa158015610a5f573d6000803e3d6000fd5b505050506040513d6020811015610a7557600080fd5b8101908080519060200190929190505050151514610afb576040517f08c379a000000000000000000000000000000000000000000000000000000000815260040180806020018281038252601e8152602001807f546865207573657220646f65736e2774206f776e2074686520746f6b656e000081525060200191505060405180910390fd5b600080600160009054906101000a900473ffffffffffffffffffffffffffffffffffffffff1673ffffffffffffffffffffffffffffffffffffffff1663ba269271866040518263ffffffff1660e01b81526004018082815260200191505060806040518083038186803b158015610b7157600080fd5b505afa158015610b85573d6000803e3d6000fd5b505050506040513d6080811015610b9b57600080fd5b8101908080519060200190929190805190602001909291908051906020019092919080519060200190929190505050935050509150600080600160009054906101000a900473ffffffffffffffffffffffffffffffffffffffff1673ffffffffffffffffffffffffffffffffffffffff1663ba269271876040518263ffffffff1660e01b81526004018082815260200191505060806040518083038186803b158015610c4657600080fd5b505afa158015610c5a573d6000803e3d6000fd5b505050506040513d6080811015610c7057600080fd5b81019080805190602001909291908051906020019092919080519060200190929190805190602001909291905050509350505091506000610cb1858461190b565b90506000610cbf8584611a4a565b90506000600160009054906101000a900473ffffffffffffffffffffffffffffffffffffffff1673ffffffffffffffffffffffffffffffffffffffff16632f782dda848b8d86336040518663ffffffff1660e01b8152600401808681526020018581526020018481526020018381526020018273ffffffffffffffffffffffffffffffffffffffff1673ffffffffffffffffffffffffffffffffffffffff16815260200195505050505050602060405180830381600087803b158015610d8457600080fd5b505af1158015610d98573d6000803e3d6000fd5b505050506040513d6020811015610dae57600080fd5b810190808051906020019092919050505090508097505050505050505092915050565b610dd9611aa3565b600260008381526020019081526020016000206040518060400160405290816000820160009054906101000a900473ffffffffffffffffffffffffffffffffffffffff1673ffffffffffffffffffffffffffffffffffffffff1673ffffffffffffffffffffffffffffffffffffffff168152602001600182015481525050905080602001513414610ed2576040517f08c379a00000000000000000000000000000000000000000000000000000000081526004018080602001828103825260188152602001807f546865207072696365206973206e6f7420636f7272656374000000000000000081525060200191505060405180910390fd5b60026000838152602001908152602001600020600080820160006101000a81549073ffffffffffffffffffffffffffffffffffffffff021916905560018201600090555050600160009054906101000a900473ffffffffffffffffffffffffffffffffffffffff1673ffffffffffffffffffffffffffffffffffffffff166323b872dd826000015133856040518463ffffffff1660e01b8152600401808473ffffffffffffffffffffffffffffffffffffffff1673ffffffffffffffffffffffffffffffffffffffff1681526020018373ffffffffffffffffffffffffffffffffffffffff1673ffffffffffffffffffffffffffffffffffffffff1681526020018281526020019350505050600060405180830381600087803b158015610ff857600080fd5b505af115801561100c573d6000803e3d6000fd5b50505050806000015173ffffffffffffffffffffffffffffffffffffffff166108fc349081150290604051600060405180830381858888f1935050505015801561105a573d6000803e3d6000fd5b507fd99e4fad9ad6313b1feb588fa8e605e3a9873172f2024330c35dd2b4041a4386338360405180806020018473ffffffffffffffffffffffffffffffffffffffff1673ffffffffffffffffffffffffffffffffffffffff168152602001838152602001828103825260098152602001807f42757920416c69656e0000000000000000000000000000000000000000000000815250602001935050505060405180910390a15050565b600160009054906101000a900473ffffffffffffffffffffffffffffffffffffffff1673ffffffffffffffffffffffffffffffffffffffff1663095ea7b330836040518363ffffffff1660e01b8152600401808373ffffffffffffffffffffffffffffffffffffffff1673ffffffffffffffffffffffffffffffffffffffff16815260200182815260200192505050600060405180830381600087803b1580156111ac57600080fd5b505af11580156111c0573d6000803e3d6000fd5b50505050336002600083815260200190815260200160002060000160006101000a81548173ffffffffffffffffffffffffffffffffffffffff021916908373ffffffffffffffffffffffffffffffffffffffff1602179055508160026000838152602001908152602001600020600101819055507fd99e4fad9ad6313b1feb588fa8e605e3a9873172f2024330c35dd2b4041a4386338260405180806020018473ffffffffffffffffffffffffffffffffffffffff1673ffffffffffffffffffffffffffffffffffffffff1681526020018381526020018281038252600c8152602001807f437265617465206f666665720000000000000000000000000000000000000000815250602001935050505060405180910390a15050565b600160009054906101000a900473ffffffffffffffffffffffffffffffffffffffff1673ffffffffffffffffffffffffffffffffffffffff1663f8ef871c33836040518363ffffffff1660e01b8152600401808373ffffffffffffffffffffffffffffffffffffffff1673ffffffffffffffffffffffffffffffffffffffff1681526020018281526020019250505060206040518083038186803b15801561138357600080fd5b505afa158015611397573d6000803e3d6000fd5b505050506040513d60208110156113ad57600080fd5b8101908080519060200190929190505050611430576040517f08c379a000000000000000000000000000000000000000000000000000000000815260040180806020018281038252601e8152602001807f546865207573657220646f65736e2774206f776e2074686520746f6b656e000081525060200191505060405180910390fd5b611438611aa3565b600260008381526020019081526020016000206040518060400160405290816000820160009054906101000a900473ffffffffffffffffffffffffffffffffffffffff1673ffffffffffffffffffffffffffffffffffffffff1673ffffffffffffffffffffffffffffffffffffffff16815260200160018201548152505090503373ffffffffffffffffffffffffffffffffffffffff16816000015173ffffffffffffffffffffffffffffffffffffffff1614611540576040517f08c379a0000000000000000000000000000000000000000000000000000000008152600401808060200182810382526038815260200180611af76038913960400191505060405180910390fd5b60026000838152602001908152602001600020600080820160006101000a81549073ffffffffffffffffffffffffffffffffffffffff021916905560018201600090555050600160009054906101000a900473ffffffffffffffffffffffffffffffffffffffff1673ffffffffffffffffffffffffffffffffffffffff1663f8ef871c33846040518363ffffffff1660e01b8152600401808373ffffffffffffffffffffffffffffffffffffffff1673ffffffffffffffffffffffffffffffffffffffff1681526020018281526020019250505060206040518083038186803b15801561162c57600080fd5b505afa158015611640573d6000803e3d6000fd5b505050506040513d602081101561165657600080fd5b8101908080519060200190929190505050507fd99e4fad9ad6313b1feb588fa8e605e3a9873172f2024330c35dd2b4041a4386338360405180806020018473ffffffffffffffffffffffffffffffffffffffff1673ffffffffffffffffffffffffffffffffffffffff1681526020018381526020018281038252600c8152602001807f52656d6f7665206f666665720000000000000000000000000000000000000000815250602001935050505060405180910390a15050565b611718611903565b73ffffffffffffffffffffffffffffffffffffffff166117366107f4565b73ffffffffffffffffffffffffffffffffffffffff16146117bf576040517f08c379a00000000000000000000000000000000000000000000000000000000081526004018080602001828103825260208152602001807f4f776e61626c653a2063616c6c6572206973206e6f7420746865206f776e657281525060200191505060405180910390fd5b600073ffffffffffffffffffffffffffffffffffffffff168173ffffffffffffffffffffffffffffffffffffffff161415611845576040517f08c379a0000000000000000000000000000000000000000000000000000000008152600401808060200182810382526026815260200180611b556026913960400191505060405180910390fd5b8073ffffffffffffffffffffffffffffffffffffffff166000809054906101000a900473ffffffffffffffffffffffffffffffffffffffff1673ffffffffffffffffffffffffffffffffffffffff167f8be0079c531659141344cd1fd0a4f28419497f9722a3daafe3b4186f6b6457e060405160405180910390a3806000806101000a81548173ffffffffffffffffffffffffffffffffffffffff021916908373ffffffffffffffffffffffffffffffffffffffff16021790555050565b600033905090565b600080611916611ad3565b600060079050600060ff428161192857fe5b0690506000809050600190505b608081116119c1576000818360ff161614611972576064878161195457fe5b0660ff1684846008811061196457fe5b602002018181525050611996565b6064888161197c57fe5b0660ff1684846008811061198c57fe5b6020020181815250505b606487816119a057fe5b049650606488816119ad57fe5b049750600183039250600281029050611935565b600060078360ff16816119d057fe5b06905060638360ff16816119e057fe5b0660ff16858260ff16600881106119f357fe5b602002018181525050600091505b6008821015611a3b57848260088110611a1657fe5b60200201518601955060078214611a2e576064860295505b8180600101925050611a01565b85965050505050505092915050565b6000806000905082841015611a715760018301905060028181611a6957fe5b049050611a99565b82841115611a915760018401905060028181611a8957fe5b049050611a98565b6001830190505b5b8091505092915050565b6040518060400160405280600073ffffffffffffffffffffffffffffffffffffffff168152602001600081525090565b60405180610100016040528060089060208202803883398082019150509050509056fe596f752073686f756c64206f776e2074686520616c69656e20746f2062652061626c6520746f2072656d6f76652074686973206f666665724d6178696d756d20616d6f756e74206f6620616c69656e732047656e203020726561636865644f776e61626c653a206e6577206f776e657220697320746865207a65726f2061646472657373a264697066735822122039e25dce07629f92925d9be39b395497f0e93ced319a2d8c306132cad41c826664736f6c634300060200334d6178696d756d20616d6f756e74206f6620616c69656e732047656e20302072656163686564",
  "source": "// SPDX-License-Identifier: MIT\r\npragma solidity ^0.6.0;\r\n\r\nimport \"@openzeppelin/contracts/access/Ownable.sol\";\r\nimport \"./AlienMarketPlace.sol\";\r\n\r\n\r\ncontract AlienCore is Ownable, AlienMarketPlace{\r\n\r\n  uint256 private constant CREATION_LIMIT_GEN0 = 10;\r\n  // Counts the number of cats the contract owner has created.\r\n  uint256 private gen0Counter;\r\n  address public IAlienAddress;\r\n\r\n  constructor(address _AlienERC721) public {\r\n    IAlienAddress = _AlienERC721;\r\n    aln721 = IAlienERC721(IAlienAddress);\r\n    // We are creating the first alien at index 0\r\n    createAlienGen0(0);\r\n\r\n  }\r\n/*\r\n*       we get a\r\n*\r\n*       Basic binary operation\r\n*\r\n*       >>> '{0:08b}'.format(255 & 1)\r\n*       '00000001'\r\n*       >>> '{0:08b}'.format(255 & 2)\r\n*       '00000010'\r\n*       >>> '{0:08b}'.format(255 & 4)\r\n*       '00000100'\r\n*       >>> '{0:08b}'.format(255 & 8)\r\n*       '00001000'\r\n*       >>> '{0:08b}'.format(255 & 16)\r\n*       '00010000'\r\n*       >>> '{0:08b}'.format(255 & 32)\r\n*       '00100000'\r\n*       >>> '{0:08b}'.format(255 & 64)\r\n*       '01000000'\r\n*       >>> '{0:08b}'.format(255 & 128)\r\n*       '10000000'\r\n*\r\n*       So we use a mask on our random number to check if we will use the mumID or the dadId\r\n*\r\n*       For example 205 is 11001101 in binary So\r\n*       mum - mum - dad -dad -mum - mum - dad - mum\r\n*\r\n*/\r\nfunction getGenesKid(uint256 _Dadgenes, uint256 _Mumgenes) internal view returns (uint256){\r\n    uint256 _geneKid;\r\n    uint256 [8] memory geneArray;\r\n    uint256 index = 7;\r\n    uint8 random = uint8(now % 255);\r\n    uint256 i = 0;\r\n\r\n    for(i = 1; i <= 128; i=i*2){\r\n        /* We are */\r\n        if(random & i != 0){\r\n            geneArray[index] = uint8(_Mumgenes % 100);\r\n        } else {\r\n            geneArray[index] = uint8(_Dadgenes % 100);\r\n        }\r\n        _Mumgenes /= 100;\r\n        _Dadgenes /= 100;\r\n      index -= 1;\r\n    }\r\n\r\n    /* Add a random parameter in a random place */\r\n    uint8 newGeneIndex =  random % 7;\r\n    geneArray[newGeneIndex] = random % 99;\r\n\r\n    /* We reverse the DNa in the right order */\r\n    for (i = 0 ; i < 8; i++ ){\r\n      _geneKid += geneArray[i];\r\n      if(i != 7){\r\n          _geneKid *= 100;\r\n      }\r\n    }\r\n    return _geneKid;\r\n  }\r\n\r\n  function getGenerationKid(uint256 _DadGeneration, uint256 _MumGeneration) internal pure returns (uint256){\r\n    uint256 _kidGen = 0;\r\n    if (_DadGeneration < _MumGeneration){\r\n      _kidGen = _MumGeneration + 1;\r\n      _kidGen /= 2;\r\n    } else if (_DadGeneration > _MumGeneration){\r\n      _kidGen = _DadGeneration + 1;\r\n      _kidGen /= 2;\r\n    } else{\r\n      _kidGen = _MumGeneration + 1;\r\n    }\r\n    return _kidGen;\r\n  }\r\n\r\n  function cloneAlien(uint256 _dadId, uint256 _mumId) public returns(uint256){\r\n      require(aln721.isApprovedOwner(msg.sender, _dadId) == true, \"The user doesn't own the token\");\r\n      require(aln721.isApprovedOwner(msg.sender, _mumId) == true, \"The user doesn't own the token\");\r\n\r\n      (uint256 Dadgenes,,,uint256 DadGeneration ) = aln721.getAlien(_dadId);\r\n      (uint256 Mumgenes,,,uint256 MumGeneration ) = aln721.getAlien(_mumId);\r\n\r\n      uint256 _geneKid = getGenesKid(Dadgenes, Mumgenes);\r\n      uint256 _kidGen = getGenerationKid(DadGeneration, MumGeneration);\r\n\r\n      uint256 _newAlien = aln721.createAlien(_geneKid, _mumId, _dadId, _kidGen, msg.sender);\r\n      return _newAlien;\r\n  }\r\n\r\n  function createAlienGen0(uint256 genes) public onlyOwner returns(uint256){\r\n      require(gen0Counter < CREATION_LIMIT_GEN0, \"Maximum amount of aliens Gen 0 reached\");\r\n      gen0Counter++;\r\n      uint256 _newAlien = aln721.createAlien(genes, 0, 0, 0, msg.sender);\r\n      //Gen0 have no owners they are own by the contract\r\n      return _newAlien;\r\n  }\r\n\r\n}\r\n",
  "sourcePath": "C:/GitHub/cryptoaliens/solidity/contracts/AlienCore.sol",
  "compiler": {
    "name": "solc",
    "version": "0.6.2+commit.bacdbe57.Emscripten.clang"
  },
  "schemaVersion": "3.0.22",
  "updatedAt": "2021-02-12T15:53:54.862Z",
  "networkType": "ethereum",
  "devdoc": {
    "methods": {
      "owner()": {
        "details": "Returns the address of the current owner."
      },
      "renounceOwnership()": {
        "details": "Leaves the contract without owner. It will not be possible to call `onlyOwner` functions anymore. Can only be called by the current owner.     * NOTE: Renouncing ownership will leave the contract without an owner, thereby removing any functionality that is only available to the owner."
      },
      "transferOwnership(address)": {
        "details": "Transfers ownership of the contract to a new account (`newOwner`). Can only be called by the current owner."
      }
    }
  },
  "userdoc": {
    "methods": {}
  }
}