{
  "contractName": "AlienERC721",
  "abi": [
    {
      "inputs": [],
      "stateMutability": "nonpayable",
      "type": "constructor"
    },
    {
      "anonymous": false,
      "inputs": [
        {
          "indexed": false,
          "internalType": "address",
          "name": "owner",
          "type": "address"
        },
        {
          "indexed": false,
          "internalType": "uint256",
          "name": "tokenId",
          "type": "uint256"
        },
        {
          "indexed": false,
          "internalType": "uint256",
          "name": "mumId",
          "type": "uint256"
        },
        {
          "indexed": false,
          "internalType": "uint256",
          "name": "dadId",
          "type": "uint256"
        },
        {
          "indexed": false,
          "internalType": "uint256",
          "name": "genes",
          "type": "uint256"
        }
      ],
      "name": "AlienMinted",
      "type": "event"
    },
    {
      "anonymous": false,
      "inputs": [
        {
          "indexed": true,
          "internalType": "address",
          "name": "owner",
          "type": "address"
        },
        {
          "indexed": true,
          "internalType": "address",
          "name": "approved",
          "type": "address"
        },
        {
          "indexed": true,
          "internalType": "uint256",
          "name": "tokenId",
          "type": "uint256"
        }
      ],
      "name": "Approval",
      "type": "event"
    },
    {
      "anonymous": false,
      "inputs": [
        {
          "indexed": true,
          "internalType": "address",
          "name": "owner",
          "type": "address"
        },
        {
          "indexed": true,
          "internalType": "address",
          "name": "operator",
          "type": "address"
        },
        {
          "indexed": false,
          "internalType": "bool",
          "name": "approved",
          "type": "bool"
        }
      ],
      "name": "ApprovalForAll",
      "type": "event"
    },
    {
      "anonymous": false,
      "inputs": [
        {
          "indexed": true,
          "internalType": "address",
          "name": "previousOwner",
          "type": "address"
        },
        {
          "indexed": true,
          "internalType": "address",
          "name": "newOwner",
          "type": "address"
        }
      ],
      "name": "OwnershipTransferred",
      "type": "event"
    },
    {
      "anonymous": false,
      "inputs": [
        {
          "indexed": true,
          "internalType": "address",
          "name": "from",
          "type": "address"
        },
        {
          "indexed": true,
          "internalType": "address",
          "name": "to",
          "type": "address"
        },
        {
          "indexed": true,
          "internalType": "uint256",
          "name": "tokenId",
          "type": "uint256"
        }
      ],
      "name": "Transfer",
      "type": "event"
    },
    {
      "inputs": [
        {
          "internalType": "address",
          "name": "",
          "type": "address"
        },
        {
          "internalType": "uint256",
          "name": "",
          "type": "uint256"
        }
      ],
      "name": "alienDetails",
      "outputs": [
        {
          "internalType": "uint256",
          "name": "genes",
          "type": "uint256"
        },
        {
          "internalType": "uint32",
          "name": "mumId",
          "type": "uint32"
        },
        {
          "internalType": "uint32",
          "name": "dadId",
          "type": "uint32"
        },
        {
          "internalType": "uint16",
          "name": "generation",
          "type": "uint16"
        }
      ],
      "stateMutability": "view",
      "type": "function"
    },
    {
      "inputs": [
        {
          "internalType": "address",
          "name": "to",
          "type": "address"
        },
        {
          "internalType": "uint256",
          "name": "tokenId",
          "type": "uint256"
        }
      ],
      "name": "approve",
      "outputs": [],
      "stateMutability": "nonpayable",
      "type": "function"
    },
    {
      "inputs": [
        {
          "internalType": "address",
          "name": "owner",
          "type": "address"
        }
      ],
      "name": "balanceOf",
      "outputs": [
        {
          "internalType": "uint256",
          "name": "",
          "type": "uint256"
        }
      ],
      "stateMutability": "view",
      "type": "function"
    },
    {
      "inputs": [],
      "name": "baseURI",
      "outputs": [
        {
          "internalType": "string",
          "name": "",
          "type": "string"
        }
      ],
      "stateMutability": "view",
      "type": "function"
    },
    {
      "inputs": [
        {
          "internalType": "uint256",
          "name": "tokenId",
          "type": "uint256"
        }
      ],
      "name": "burn",
      "outputs": [],
      "stateMutability": "nonpayable",
      "type": "function"
    },
    {
      "inputs": [
        {
          "internalType": "uint256",
          "name": "tokenId",
          "type": "uint256"
        }
      ],
      "name": "getApproved",
      "outputs": [
        {
          "internalType": "address",
          "name": "",
          "type": "address"
        }
      ],
      "stateMutability": "view",
      "type": "function"
    },
    {
      "inputs": [
        {
          "internalType": "address",
          "name": "owner",
          "type": "address"
        },
        {
          "internalType": "address",
          "name": "operator",
          "type": "address"
        }
      ],
      "name": "isApprovedForAll",
      "outputs": [
        {
          "internalType": "bool",
          "name": "",
          "type": "bool"
        }
      ],
      "stateMutability": "view",
      "type": "function"
    },
    {
      "inputs": [],
      "name": "name",
      "outputs": [
        {
          "internalType": "string",
          "name": "",
          "type": "string"
        }
      ],
      "stateMutability": "view",
      "type": "function"
    },
    {
      "inputs": [
        {
          "internalType": "address",
          "name": "",
          "type": "address"
        },
        {
          "internalType": "address",
          "name": "",
          "type": "address"
        },
        {
          "internalType": "uint256[]",
          "name": "",
          "type": "uint256[]"
        },
        {
          "internalType": "uint256[]",
          "name": "",
          "type": "uint256[]"
        },
        {
          "internalType": "bytes",
          "name": "",
          "type": "bytes"
        }
      ],
      "name": "onERC1155BatchReceived",
      "outputs": [
        {
          "internalType": "bytes4",
          "name": "",
          "type": "bytes4"
        }
      ],
      "stateMutability": "nonpayable",
      "type": "function"
    },
    {
      "inputs": [
        {
          "internalType": "address",
          "name": "",
          "type": "address"
        },
        {
          "internalType": "address",
          "name": "",
          "type": "address"
        },
        {
          "internalType": "uint256",
          "name": "",
          "type": "uint256"
        },
        {
          "internalType": "uint256",
          "name": "",
          "type": "uint256"
        },
        {
          "internalType": "bytes",
          "name": "",
          "type": "bytes"
        }
      ],
      "name": "onERC1155Received",
      "outputs": [
        {
          "internalType": "bytes4",
          "name": "",
          "type": "bytes4"
        }
      ],
      "stateMutability": "nonpayable",
      "type": "function"
    },
    {
      "inputs": [],
      "name": "owner",
      "outputs": [
        {
          "internalType": "address",
          "name": "",
          "type": "address"
        }
      ],
      "stateMutability": "view",
      "type": "function"
    },
    {
      "inputs": [
        {
          "internalType": "uint256",
          "name": "tokenId",
          "type": "uint256"
        }
      ],
      "name": "ownerOf",
      "outputs": [
        {
          "internalType": "address",
          "name": "",
          "type": "address"
        }
      ],
      "stateMutability": "view",
      "type": "function"
    },
    {
      "inputs": [],
      "name": "renounceOwnership",
      "outputs": [],
      "stateMutability": "nonpayable",
      "type": "function"
    },
    {
      "inputs": [
        {
          "internalType": "address",
          "name": "from",
          "type": "address"
        },
        {
          "internalType": "address",
          "name": "to",
          "type": "address"
        },
        {
          "internalType": "uint256",
          "name": "tokenId",
          "type": "uint256"
        }
      ],
      "name": "safeTransferFrom",
      "outputs": [],
      "stateMutability": "nonpayable",
      "type": "function"
    },
    {
      "inputs": [
        {
          "internalType": "address",
          "name": "from",
          "type": "address"
        },
        {
          "internalType": "address",
          "name": "to",
          "type": "address"
        },
        {
          "internalType": "uint256",
          "name": "tokenId",
          "type": "uint256"
        },
        {
          "internalType": "bytes",
          "name": "_data",
          "type": "bytes"
        }
      ],
      "name": "safeTransferFrom",
      "outputs": [],
      "stateMutability": "nonpayable",
      "type": "function"
    },
    {
      "inputs": [
        {
          "internalType": "address",
          "name": "operator",
          "type": "address"
        },
        {
          "internalType": "bool",
          "name": "approved",
          "type": "bool"
        }
      ],
      "name": "setApprovalForAll",
      "outputs": [],
      "stateMutability": "nonpayable",
      "type": "function"
    },
    {
      "inputs": [
        {
          "internalType": "bytes4",
          "name": "interfaceId",
          "type": "bytes4"
        }
      ],
      "name": "supportsInterface",
      "outputs": [
        {
          "internalType": "bool",
          "name": "",
          "type": "bool"
        }
      ],
      "stateMutability": "view",
      "type": "function"
    },
    {
      "inputs": [],
      "name": "symbol",
      "outputs": [
        {
          "internalType": "string",
          "name": "",
          "type": "string"
        }
      ],
      "stateMutability": "view",
      "type": "function"
    },
    {
      "inputs": [
        {
          "internalType": "uint256",
          "name": "index",
          "type": "uint256"
        }
      ],
      "name": "tokenByIndex",
      "outputs": [
        {
          "internalType": "uint256",
          "name": "",
          "type": "uint256"
        }
      ],
      "stateMutability": "view",
      "type": "function"
    },
    {
      "inputs": [
        {
          "internalType": "address",
          "name": "owner",
          "type": "address"
        },
        {
          "internalType": "uint256",
          "name": "index",
          "type": "uint256"
        }
      ],
      "name": "tokenOfOwnerByIndex",
      "outputs": [
        {
          "internalType": "uint256",
          "name": "",
          "type": "uint256"
        }
      ],
      "stateMutability": "view",
      "type": "function"
    },
    {
      "inputs": [
        {
          "internalType": "uint256",
          "name": "tokenId",
          "type": "uint256"
        }
      ],
      "name": "tokenURI",
      "outputs": [
        {
          "internalType": "string",
          "name": "",
          "type": "string"
        }
      ],
      "stateMutability": "view",
      "type": "function"
    },
    {
      "inputs": [],
      "name": "totalSupply",
      "outputs": [
        {
          "internalType": "uint256",
          "name": "",
          "type": "uint256"
        }
      ],
      "stateMutability": "view",
      "type": "function"
    },
    {
      "inputs": [
        {
          "internalType": "address",
          "name": "from",
          "type": "address"
        },
        {
          "internalType": "address",
          "name": "to",
          "type": "address"
        },
        {
          "internalType": "uint256",
          "name": "tokenId",
          "type": "uint256"
        }
      ],
      "name": "transferFrom",
      "outputs": [],
      "stateMutability": "nonpayable",
      "type": "function"
    },
    {
      "inputs": [
        {
          "internalType": "address",
          "name": "newOwner",
          "type": "address"
        }
      ],
      "name": "transferOwnership",
      "outputs": [],
      "stateMutability": "nonpayable",
      "type": "function"
    },
    {
      "inputs": [
        {
          "internalType": "address",
          "name": "",
          "type": "address"
        },
        {
          "internalType": "uint256",
          "name": "",
          "type": "uint256"
        }
      ],
      "name": "userAliens",
      "outputs": [
        {
          "internalType": "uint256",
          "name": "",
          "type": "uint256"
        }
      ],
      "stateMutability": "view",
      "type": "function"
    },
    {
      "inputs": [
        {
          "internalType": "uint256",
          "name": "_nftId",
          "type": "uint256"
        }
      ],
      "name": "getAlien",
      "outputs": [
        {
          "internalType": "uint256",
          "name": "_genes",
          "type": "uint256"
        },
        {
          "internalType": "uint32",
          "name": "_mumId",
          "type": "uint32"
        },
        {
          "internalType": "uint32",
          "name": "_dadId",
          "type": "uint32"
        },
        {
          "internalType": "uint16",
          "name": "_generation",
          "type": "uint16"
        }
      ],
      "stateMutability": "view",
      "type": "function"
    },
    {
      "inputs": [
        {
          "internalType": "address",
          "name": "_owner",
          "type": "address"
        }
      ],
      "name": "getAllAliens",
      "outputs": [
        {
          "internalType": "uint256[]",
          "name": "",
          "type": "uint256[]"
        }
      ],
      "stateMutability": "view",
      "type": "function"
    },
    {
      "inputs": [
        {
          "internalType": "uint256",
          "name": "_genes",
          "type": "uint256"
        },
        {
          "internalType": "uint256",
          "name": "_mumId",
          "type": "uint256"
        },
        {
          "internalType": "uint256",
          "name": "_dadId",
          "type": "uint256"
        },
        {
          "internalType": "uint256",
          "name": "_generation",
          "type": "uint256"
        },
        {
          "internalType": "address",
          "name": "_owner",
          "type": "address"
        }
      ],
      "name": "createAlien",
      "outputs": [
        {
          "internalType": "uint256",
          "name": "",
          "type": "uint256"
        }
      ],
      "stateMutability": "nonpayable",
      "type": "function"
    },
    {
      "inputs": [
        {
          "internalType": "address",
          "name": "_owner",
          "type": "address"
        },
        {
          "internalType": "uint256",
          "name": "_nftId",
          "type": "uint256"
        }
      ],
      "name": "isApprovedOwner",
      "outputs": [
        {
          "internalType": "bool",
          "name": "",
          "type": "bool"
        }
      ],
      "stateMutability": "view",
      "type": "function"
    }
  ],
  "bytecode": "0x60806040523480156200001157600080fd5b506040518060400160405280600881526020017f416c69656e4e46540000000000000000000000000000000000000000000000008152506040518060400160405280600581526020017f414c4e4654000000000000000000000000000000000000000000000000000000815250600062000090620001e960201b60201c565b9050806000806101000a81548173ffffffffffffffffffffffffffffffffffffffff021916908373ffffffffffffffffffffffffffffffffffffffff1602179055508073ffffffffffffffffffffffffffffffffffffffff16600073ffffffffffffffffffffffffffffffffffffffff167f8be0079c531659141344cd1fd0a4f28419497f9722a3daafe3b4186f6b6457e060405160405180910390a350620001466301ffc9a760e01b620001f160201b60201c565b81600790805190602001906200015e929190620002c9565b50806008908051906020019062000177929190620002c9565b50620001906380ac58cd60e01b620001f160201b60201c565b620001a8635b5e139f60e01b620001f160201b60201c565b620001c063780e9d6360e01b620001f160201b60201c565b5050620001e363bc197c8160e01b63f23a6e6160e01b18620001f160201b60201c565b620003ed565b600033905090565b63ffffffff60e01b817bffffffffffffffffffffffffffffffffffffffffffffffffffffffff191614156200025d576040517f08c379a00000000000000000000000000000000000000000000000000000000081526004016200025490620003ba565b60405180910390fd5b6001806000837bffffffffffffffffffffffffffffffffffffffffffffffffffffffff19167bffffffffffffffffffffffffffffffffffffffffffffffffffffffff1916815260200190815260200160002060006101000a81548160ff02191690831515021790555050565b828054600181600116156101000203166002900490600052602060002090601f016020900481019282601f106200030c57805160ff19168380011785556200033d565b828001600101855582156200033d579182015b828111156200033c5782518255916020019190600101906200031f565b5b5090506200034c919062000350565b5090565b6200037591905b808211156200037157600081600090555060010162000357565b5090565b90565b600062000387601c83620003dc565b91507f4552433136353a20696e76616c696420696e74657266616365206964000000006000830152602082019050919050565b60006020820190508181036000830152620003d58162000378565b9050919050565b600082825260208201905092915050565b61400a80620003fd6000396000f3fe608060405234801561001057600080fd5b50600436106101cf5760003560e01c80636c0360eb11610104578063b88d4fde116100a2578063e985e9c511610071578063e985e9c514610592578063f23a6e61146105c2578063f2fde38b146105f2578063f8ef871c1461060e576101cf565b8063b88d4fde146104e3578063ba269271146104ff578063bc197c8114610532578063c87b56dd14610562576101cf565b80638da5cb5b116100de5780638da5cb5b1461045b57806395d89b4114610479578063a22cb46514610497578063a4a2d98f146104b3576101cf565b80636c0360eb1461040357806370a0823114610421578063715018a614610451576101cf565b806323b872dd1161017157806342842e0e1161014b57806342842e0e1461036b57806342966c68146103875780634f6ccce7146103a35780636352211e146103d3576101cf565b806323b872dd146102ef5780632f745c591461030b5780632f782dda1461033b576101cf565b8063095ea7b3116101ad578063095ea7b3146102525780630c5318e71461026e57806318160ddd1461029e57806319f2c082146102bc576101cf565b806301ffc9a7146101d457806306fdde0314610204578063081812fc14610222575b600080fd5b6101ee60048036036101e99190810190612ee1565b61063e565b6040516101fb91906139e6565b60405180910390f35b61020c6106a6565b6040516102199190613a1c565b60405180910390f35b61023c60048036036102379190810190612f33565b610748565b604051610249919061390a565b60405180910390f35b61026c60048036036102679190810190612ea5565b6107cd565b005b61028860048036036102839190810190612bec565b6108e5565b60405161029591906139c4565b60405180910390f35b6102a661097c565b6040516102b39190613cbe565b60405180910390f35b6102d660048036036102d19190810190612ea5565b61098d565b6040516102e69493929190613cd9565b60405180910390f35b61030960048036036103049190810190612d10565b6109f8565b005b61032560048036036103209190810190612ea5565b610a58565b6040516103329190613cbe565b60405180910390f35b61035560048036036103509190810190612f5c565b610ab3565b6040516103629190613cbe565b60405180910390f35b61038560048036036103809190810190612d10565b610ad2565b005b6103a1600480360361039c9190810190612f33565b610af2565b005b6103bd60048036036103b89190810190612f33565b610b4e565b6040516103ca9190613cbe565b60405180910390f35b6103ed60048036036103e89190810190612f33565b610b71565b6040516103fa919061390a565b60405180910390f35b61040b610ba8565b6040516104189190613a1c565b60405180910390f35b61043b60048036036104369190810190612bec565b610c4a565b6040516104489190613cbe565b60405180910390f35b610459610d09565b005b610463610e44565b604051610470919061390a565b60405180910390f35b610481610e6d565b60405161048e9190613a1c565b60405180910390f35b6104b160048036036104ac9190810190612e69565b610f0f565b005b6104cd60048036036104c89190810190612ea5565b611090565b6040516104da9190613cbe565b60405180910390f35b6104fd60048036036104f89190810190612d5f565b6110be565b005b61051960048036036105149190810190612f33565b611120565b6040516105299493929190613cd9565b60405180910390f35b61054c60048036036105479190810190612c51565b611231565b6040516105599190613a01565b60405180910390f35b61057c60048036036105779190810190612f33565b611246565b6040516105899190613a1c565b60405180910390f35b6105ac60048036036105a79190810190612c15565b6113c9565b6040516105b991906139e6565b60405180910390f35b6105dc60048036036105d79190810190612dda565b61145d565b6040516105e99190613a01565b60405180910390f35b61060c60048036036106079190810190612bec565b611472565b005b61062860048036036106239190810190612ea5565b61161c565b60405161063591906139e6565b60405180910390f35b600060016000837bffffffffffffffffffffffffffffffffffffffffffffffffffffffff19167bffffffffffffffffffffffffffffffffffffffffffffffffffffffff1916815260200190815260200160002060009054906101000a900460ff169050919050565b606060078054600181600116156101000203166002900480601f01602080910402602001604051908101604052809291908181526020018280546001816001161561010002031660029004801561073e5780601f106107135761010080835404028352916020019161073e565b820191906000526020600020905b81548152906001019060200180831161072157829003601f168201915b5050505050905090565b600061075382611630565b610792576040517f08c379a000000000000000000000000000000000000000000000000000000000815260040161078990613bbe565b60405180910390fd5b6005600083815260200190815260200160002060009054906101000a900473ffffffffffffffffffffffffffffffffffffffff169050919050565b60006107d882610b71565b90508073ffffffffffffffffffffffffffffffffffffffff168373ffffffffffffffffffffffffffffffffffffffff161415610849576040517f08c379a000000000000000000000000000000000000000000000000000000000815260040161084090613c3e565b60405180910390fd5b8073ffffffffffffffffffffffffffffffffffffffff1661086861164d565b73ffffffffffffffffffffffffffffffffffffffff16148061089757506108968161089161164d565b6113c9565b5b6108d6576040517f08c379a00000000000000000000000000000000000000000000000000000000081526004016108cd90613b3e565b60405180910390fd5b6108e08383611655565b505050565b6060600d60008373ffffffffffffffffffffffffffffffffffffffff1673ffffffffffffffffffffffffffffffffffffffff16815260200190815260200160002080548060200260200160405190810160405280929190818152602001828054801561097057602002820191906000526020600020905b81548152602001906001019080831161095c575b50505050509050919050565b6000610988600361170e565b905090565b600c602052816000526040600020602052806000526040600020600091509150508060000154908060010160009054906101000a900463ffffffff16908060010160049054906101000a900463ffffffff16908060010160089054906101000a900461ffff16905084565b610a09610a0361164d565b82611723565b610a48576040517f08c379a0000000000000000000000000000000000000000000000000000000008152600401610a3f90613c5e565b60405180910390fd5b610a53838383611801565b505050565b6000610aab82600260008673ffffffffffffffffffffffffffffffffffffffff1673ffffffffffffffffffffffffffffffffffffffff168152602001908152602001600020611a1890919063ffffffff16565b905092915050565b600080610ac38787878787611a32565b90508091505095945050505050565b610aed838383604051806020016040528060008152506110be565b505050565b610b03610afd61164d565b82611723565b610b42576040517f08c379a0000000000000000000000000000000000000000000000000000000008152600401610b3990613c9e565b60405180910390fd5b610b4b81611c49565b50565b600080610b65836003611d8390919063ffffffff16565b50905080915050919050565b6000610ba182604051806060016040528060298152602001613fac602991396003611db29092919063ffffffff16565b9050919050565b6060600a8054600181600116156101000203166002900480601f016020809104026020016040519081016040528092919081815260200182805460018160011615610100020316600290048015610c405780601f10610c1557610100808354040283529160200191610c40565b820191906000526020600020905b815481529060010190602001808311610c2357829003601f168201915b5050505050905090565b60008073ffffffffffffffffffffffffffffffffffffffff168273ffffffffffffffffffffffffffffffffffffffff161415610cbb576040517f08c379a0000000000000000000000000000000000000000000000000000000008152600401610cb290613b5e565b60405180910390fd5b610d02600260008473ffffffffffffffffffffffffffffffffffffffff1673ffffffffffffffffffffffffffffffffffffffff168152602001908152602001600020611dd1565b9050919050565b610d1161164d565b73ffffffffffffffffffffffffffffffffffffffff16610d2f610e44565b73ffffffffffffffffffffffffffffffffffffffff1614610d85576040517f08c379a0000000000000000000000000000000000000000000000000000000008152600401610d7c90613bde565b60405180910390fd5b600073ffffffffffffffffffffffffffffffffffffffff166000809054906101000a900473ffffffffffffffffffffffffffffffffffffffff1673ffffffffffffffffffffffffffffffffffffffff167f8be0079c531659141344cd1fd0a4f28419497f9722a3daafe3b4186f6b6457e060405160405180910390a360008060006101000a81548173ffffffffffffffffffffffffffffffffffffffff021916908373ffffffffffffffffffffffffffffffffffffffff160217905550565b60008060009054906101000a900473ffffffffffffffffffffffffffffffffffffffff16905090565b606060088054600181600116156101000203166002900480601f016020809104026020016040519081016040528092919081815260200182805460018160011615610100020316600290048015610f055780601f10610eda57610100808354040283529160200191610f05565b820191906000526020600020905b815481529060010190602001808311610ee857829003601f168201915b5050505050905090565b610f1761164d565b73ffffffffffffffffffffffffffffffffffffffff168273ffffffffffffffffffffffffffffffffffffffff161415610f85576040517f08c379a0000000000000000000000000000000000000000000000000000000008152600401610f7c90613ade565b60405180910390fd5b8060066000610f9261164d565b73ffffffffffffffffffffffffffffffffffffffff1673ffffffffffffffffffffffffffffffffffffffff16815260200190815260200160002060008473ffffffffffffffffffffffffffffffffffffffff1673ffffffffffffffffffffffffffffffffffffffff16815260200190815260200160002060006101000a81548160ff0219169083151502179055508173ffffffffffffffffffffffffffffffffffffffff1661103f61164d565b73ffffffffffffffffffffffffffffffffffffffff167f17307eab39ab6107e8899845ad3d59bd9653f200f220920489ca2b5937696c318360405161108491906139e6565b60405180910390a35050565b600d60205281600052604060002081815481106110a957fe5b90600052602060002001600091509150505481565b6110cf6110c961164d565b83611723565b61110e576040517f08c379a000000000000000000000000000000000000000000000000000000000815260040161110590613c5e565b60405180910390fd5b61111a84848484611de6565b50505050565b60008060008061112e612a07565b600c60003373ffffffffffffffffffffffffffffffffffffffff1673ffffffffffffffffffffffffffffffffffffffff1681526020019081526020016000206000878152602001908152602001600020604051806080016040529081600082015481526020016001820160009054906101000a900463ffffffff1663ffffffff1663ffffffff1681526020016001820160049054906101000a900463ffffffff1663ffffffff1663ffffffff1681526020016001820160089054906101000a900461ffff1661ffff1661ffff1681525050905080600001519450806020015193508060400151925080606001519150848484849450945094509450509193509193565b600063bc197c8160e01b905095945050505050565b606061125182611630565b611290576040517f08c379a000000000000000000000000000000000000000000000000000000000815260040161128790613c1e565b60405180910390fd5b6060600960008481526020019081526020016000208054600181600116156101000203166002900480601f0160208091040260200160405190810160405280929190818152602001828054600181600116156101000203166002900480156113395780601f1061130e57610100808354040283529160200191611339565b820191906000526020600020905b81548152906001019060200180831161131c57829003601f168201915b50505050509050606061134a610ba8565b90506000815114156113605781925050506113c4565b60008251111561139557808260405160200161137d9291906138e6565b604051602081830303815290604052925050506113c4565b8061139f85611e42565b6040516020016113b09291906138e6565b604051602081830303815290604052925050505b919050565b6000600660008473ffffffffffffffffffffffffffffffffffffffff1673ffffffffffffffffffffffffffffffffffffffff16815260200190815260200160002060008373ffffffffffffffffffffffffffffffffffffffff1673ffffffffffffffffffffffffffffffffffffffff16815260200190815260200160002060009054906101000a900460ff16905092915050565b600063f23a6e6160e01b905095945050505050565b61147a61164d565b73ffffffffffffffffffffffffffffffffffffffff16611498610e44565b73ffffffffffffffffffffffffffffffffffffffff16146114ee576040517f08c379a00000000000000000000000000000000000000000000000000000000081526004016114e590613bde565b60405180910390fd5b600073ffffffffffffffffffffffffffffffffffffffff168173ffffffffffffffffffffffffffffffffffffffff16141561155e576040517f08c379a000000000000000000000000000000000000000000000000000000000815260040161155590613a7e565b60405180910390fd5b8073ffffffffffffffffffffffffffffffffffffffff166000809054906101000a900473ffffffffffffffffffffffffffffffffffffffff1673ffffffffffffffffffffffffffffffffffffffff167f8be0079c531659141344cd1fd0a4f28419497f9722a3daafe3b4186f6b6457e060405160405180910390a3806000806101000a81548173ffffffffffffffffffffffffffffffffffffffff021916908373ffffffffffffffffffffffffffffffffffffffff16021790555050565b60006116288383611723565b905092915050565b6000611646826003611f7290919063ffffffff16565b9050919050565b600033905090565b816005600083815260200190815260200160002060006101000a81548173ffffffffffffffffffffffffffffffffffffffff021916908373ffffffffffffffffffffffffffffffffffffffff160217905550808273ffffffffffffffffffffffffffffffffffffffff166116c883610b71565b73ffffffffffffffffffffffffffffffffffffffff167f8c5be1e5ebec7d5bd14f71427d1e84f3dd0314c0f7b2291e5b200ac8c7c3b92560405160405180910390a45050565b600061171c82600001611f8c565b9050919050565b600061172e82611630565b61176d576040517f08c379a000000000000000000000000000000000000000000000000000000000815260040161176490613b1e565b60405180910390fd5b600061177883610b71565b90508073ffffffffffffffffffffffffffffffffffffffff168473ffffffffffffffffffffffffffffffffffffffff1614806117e757508373ffffffffffffffffffffffffffffffffffffffff166117cf84610748565b73ffffffffffffffffffffffffffffffffffffffff16145b806117f857506117f781856113c9565b5b91505092915050565b8273ffffffffffffffffffffffffffffffffffffffff1661182182610b71565b73ffffffffffffffffffffffffffffffffffffffff1614611877576040517f08c379a000000000000000000000000000000000000000000000000000000000815260040161186e90613bfe565b60405180910390fd5b600073ffffffffffffffffffffffffffffffffffffffff168273ffffffffffffffffffffffffffffffffffffffff1614156118e7576040517f08c379a00000000000000000000000000000000000000000000000000000000081526004016118de90613abe565b60405180910390fd5b6118f2838383611f9d565b6118fd600082611655565b61194e81600260008673ffffffffffffffffffffffffffffffffffffffff1673ffffffffffffffffffffffffffffffffffffffff168152602001908152602001600020611fa290919063ffffffff16565b506119a081600260008573ffffffffffffffffffffffffffffffffffffffff1673ffffffffffffffffffffffffffffffffffffffff168152602001908152602001600020611fbc90919063ffffffff16565b506119b781836003611fd69092919063ffffffff16565b50808273ffffffffffffffffffffffffffffffffffffffff168473ffffffffffffffffffffffffffffffffffffffff167fddf252ad1be2c89b69c2b068fc378daa952ba7f163c4a11628f55a4df523b3ef60405160405180910390a4505050565b6000611a27836000018361200b565b60001c905092915050565b6000611a3e600b612078565b60405180608001604052808781526020018663ffffffff1681526020018563ffffffff1681526020018461ffff16815250600c60003373ffffffffffffffffffffffffffffffffffffffff1673ffffffffffffffffffffffffffffffffffffffff1681526020019081526020016000206000611aba600b61208e565b81526020019081526020016000206000820151816000015560208201518160010160006101000a81548163ffffffff021916908363ffffffff16021790555060408201518160010160046101000a81548163ffffffff021916908363ffffffff16021790555060608201518160010160086101000a81548161ffff021916908361ffff160217905550905050611b5982611b54600b61208e565b61209c565b611b63600b61208e565b63ffffffff16611b73600b61208e565b14611b7d57600080fd5b600d60003373ffffffffffffffffffffffffffffffffffffffff1673ffffffffffffffffffffffffffffffffffffffff168152602001908152602001600020611bc6600b61208e565b90806001815401808255809150506001900390600052602060002001600090919091909150557f4df9d353e24d45336c180871f471a1c9e897d3f6f978bad7ec1cbe4efc6f7fe282611c18600b61208e565b87878a604051611c2c959493929190613971565b60405180910390a1611c3e600b61208e565b905095945050505050565b6000611c5482610b71565b9050611c6281600084611f9d565b611c6d600083611655565b60006009600084815260200190815260200160002080546001816001161561010002031660029004905014611cbc57600960008381526020019081526020016000206000611cbb9190612a3f565b5b611d0d82600260008473ffffffffffffffffffffffffffffffffffffffff1673ffffffffffffffffffffffffffffffffffffffff168152602001908152602001600020611fa290919063ffffffff16565b50611d2282600361222a90919063ffffffff16565b5081600073ffffffffffffffffffffffffffffffffffffffff168273ffffffffffffffffffffffffffffffffffffffff167fddf252ad1be2c89b69c2b068fc378daa952ba7f163c4a11628f55a4df523b3ef60405160405180910390a45050565b600080600080611d968660000186612244565b915091508160001c8160001c8090509350935050509250929050565b6000611dc5846000018460001b846122c7565b60001c90509392505050565b6000611ddf82600001612358565b9050919050565b611df1848484611801565b611dfd84848484612369565b611e3c576040517f08c379a0000000000000000000000000000000000000000000000000000000008152600401611e3390613a5e565b60405180910390fd5b50505050565b60606000821415611e8a576040518060400160405280600181526020017f30000000000000000000000000000000000000000000000000000000000000008152509050611f6d565b600082905060005b60008214611eb4578080600101915050600a8281611eac57fe5b049150611e92565b6060816040519080825280601f01601f191660200182016040528015611ee95781602001600182028038833980820191505090505b50905060006001830390508593505b60008414611f6557600a8481611f0a57fe5b0660300160f81b82828060019003935081518110611f2457fe5b60200101907effffffffffffffffffffffffffffffffffffffffffffffffffffffffffffff1916908160001a905350600a8481611f5d57fe5b049350611ef8565b819450505050505b919050565b6000611f84836000018360001b6124cd565b905092915050565b600081600001805490509050919050565b505050565b6000611fb4836000018360001b6124f0565b905092915050565b6000611fce836000018360001b6125d8565b905092915050565b6000612002846000018460001b8473ffffffffffffffffffffffffffffffffffffffff1660001b612648565b90509392505050565b600081836000018054905011612056576040517f08c379a000000000000000000000000000000000000000000000000000000000815260040161204d90613a3e565b60405180910390fd5b82600001828154811061206557fe5b9060005260206000200154905092915050565b6001816000016000828254019250508190555050565b600081600001549050919050565b600073ffffffffffffffffffffffffffffffffffffffff168273ffffffffffffffffffffffffffffffffffffffff16141561210c576040517f08c379a000000000000000000000000000000000000000000000000000000000815260040161210390613b9e565b60405180910390fd5b61211581611630565b15612155576040517f08c379a000000000000000000000000000000000000000000000000000000000815260040161214c90613a9e565b60405180910390fd5b61216160008383611f9d565b6121b281600260008573ffffffffffffffffffffffffffffffffffffffff1673ffffffffffffffffffffffffffffffffffffffff168152602001908152602001600020611fbc90919063ffffffff16565b506121c981836003611fd69092919063ffffffff16565b50808273ffffffffffffffffffffffffffffffffffffffff16600073ffffffffffffffffffffffffffffffffffffffff167fddf252ad1be2c89b69c2b068fc378daa952ba7f163c4a11628f55a4df523b3ef60405160405180910390a45050565b600061223c836000018360001b612724565b905092915050565b60008082846000018054905011612290576040517f08c379a000000000000000000000000000000000000000000000000000000000815260040161228790613b7e565b60405180910390fd5b60008460000184815481106122a157fe5b906000526020600020906002020190508060000154816001015492509250509250929050565b60008084600101600085815260200190815260200160002054905060008114158390612329576040517f08c379a00000000000000000000000000000000000000000000000000000000081526004016123209190613a1c565b60405180910390fd5b5084600001600182038154811061233c57fe5b9060005260206000209060020201600101549150509392505050565b600081600001805490509050919050565b600061238a8473ffffffffffffffffffffffffffffffffffffffff1661283d565b61239757600190506124c5565b606061245e63150b7a0260e01b6123ac61164d565b8887876040516024016123c29493929190613925565b604051602081830303815290604052907bffffffffffffffffffffffffffffffffffffffffffffffffffffffff19166020820180517bffffffffffffffffffffffffffffffffffffffffffffffffffffffff8381831617835250505050604051806060016040528060328152602001613f7a603291398773ffffffffffffffffffffffffffffffffffffffff166128509092919063ffffffff16565b90506000818060200190516124769190810190612f0a565b905063150b7a0260e01b7bffffffffffffffffffffffffffffffffffffffffffffffffffffffff1916817bffffffffffffffffffffffffffffffffffffffffffffffffffffffff191614925050505b949350505050565b600080836001016000848152602001908152602001600020541415905092915050565b600080836001016000848152602001908152602001600020549050600081146125cc576000600182039050600060018660000180549050039050600086600001828154811061253b57fe5b906000526020600020015490508087600001848154811061255857fe5b906000526020600020018190555060018301876001016000838152602001908152602001600020819055508660000180548061259057fe5b600190038181906000526020600020016000905590558660010160008781526020019081526020016000206000905560019450505050506125d2565b60009150505b92915050565b60006125e48383612868565b61263d578260000182908060018154018082558091505060019003906000526020600020016000909190919091505582600001805490508360010160008481526020019081526020016000208190555060019050612642565b600090505b92915050565b60008084600101600085815260200190815260200160002054905060008114156126ef5784600001604051806040016040528086815260200185815250908060018154018082558091505060019003906000526020600020906002020160009091909190915060008201518160000155602082015181600101555050846000018054905085600101600086815260200190815260200160002081905550600191505061271d565b8285600001600183038154811061270257fe5b90600052602060002090600202016001018190555060009150505b9392505050565b60008083600101600084815260200190815260200160002054905060008114612831576000600182039050600060018660000180549050039050600086600001828154811061276f57fe5b906000526020600020906002020190508087600001848154811061278f57fe5b90600052602060002090600202016000820154816000015560018201548160010155905050600183018760010160008360000154815260200190815260200160002081905550866000018054806127e257fe5b6001900381819060005260206000209060020201600080820160009055600182016000905550509055866001016000878152602001908152602001600020600090556001945050505050612837565b60009150505b92915050565b600080823b905060008111915050919050565b606061285f848460008561288b565b90509392505050565b600080836001016000848152602001908152602001600020541415905092915050565b6060824710156128d0576040517f08c379a00000000000000000000000000000000000000000000000000000000081526004016128c790613afe565b60405180910390fd5b6128d98561283d565b612918576040517f08c379a000000000000000000000000000000000000000000000000000000000815260040161290f90613c7e565b60405180910390fd5b600060608673ffffffffffffffffffffffffffffffffffffffff16858760405161294291906138cf565b60006040518083038185875af1925050503d806000811461297f576040519150601f19603f3d011682016040523d82523d6000602084013e612984565b606091505b50915091506129948282866129a0565b92505050949350505050565b606083156129b057829050612a00565b6000835111156129c35782518084602001fd5b816040517f08c379a00000000000000000000000000000000000000000000000000000000081526004016129f79190613a1c565b60405180910390fd5b9392505050565b604051806080016040528060008152602001600063ffffffff168152602001600063ffffffff168152602001600061ffff1681525090565b50805460018160011615610100020316600290046000825580601f10612a655750612a84565b601f016020900490600052602060002090810190612a839190612a87565b5b50565b612aa991905b80821115612aa5576000816000905550600101612a8d565b5090565b90565b600081359050612abb81613f1d565b92915050565b600082601f830112612ad257600080fd5b8135612ae5612ae082613d4b565b613d1e565b91508181835260208401935060208101905083856020840282011115612b0a57600080fd5b60005b83811015612b3a5781612b208882612bd7565b845260208401935060208301925050600181019050612b0d565b5050505092915050565b600081359050612b5381613f34565b92915050565b600081359050612b6881613f4b565b92915050565b600081519050612b7d81613f4b565b92915050565b600082601f830112612b9457600080fd5b8135612ba7612ba282613d73565b613d1e565b91508082526020830160208301858383011115612bc357600080fd5b612bce838284613eca565b50505092915050565b600081359050612be681613f62565b92915050565b600060208284031215612bfe57600080fd5b6000612c0c84828501612aac565b91505092915050565b60008060408385031215612c2857600080fd5b6000612c3685828601612aac565b9250506020612c4785828601612aac565b9150509250929050565b600080600080600060a08688031215612c6957600080fd5b6000612c7788828901612aac565b9550506020612c8888828901612aac565b945050604086013567ffffffffffffffff811115612ca557600080fd5b612cb188828901612ac1565b935050606086013567ffffffffffffffff811115612cce57600080fd5b612cda88828901612ac1565b925050608086013567ffffffffffffffff811115612cf757600080fd5b612d0388828901612b83565b9150509295509295909350565b600080600060608486031215612d2557600080fd5b6000612d3386828701612aac565b9350506020612d4486828701612aac565b9250506040612d5586828701612bd7565b9150509250925092565b60008060008060808587031215612d7557600080fd5b6000612d8387828801612aac565b9450506020612d9487828801612aac565b9350506040612da587828801612bd7565b925050606085013567ffffffffffffffff811115612dc257600080fd5b612dce87828801612b83565b91505092959194509250565b600080600080600060a08688031215612df257600080fd5b6000612e0088828901612aac565b9550506020612e1188828901612aac565b9450506040612e2288828901612bd7565b9350506060612e3388828901612bd7565b925050608086013567ffffffffffffffff811115612e5057600080fd5b612e5c88828901612b83565b9150509295509295909350565b60008060408385031215612e7c57600080fd5b6000612e8a85828601612aac565b9250506020612e9b85828601612b44565b9150509250929050565b60008060408385031215612eb857600080fd5b6000612ec685828601612aac565b9250506020612ed785828601612bd7565b9150509250929050565b600060208284031215612ef357600080fd5b6000612f0184828501612b59565b91505092915050565b600060208284031215612f1c57600080fd5b6000612f2a84828501612b6e565b91505092915050565b600060208284031215612f4557600080fd5b6000612f5384828501612bd7565b91505092915050565b600080600080600060a08688031215612f7457600080fd5b6000612f8288828901612bd7565b9550506020612f9388828901612bd7565b9450506040612fa488828901612bd7565b9350506060612fb588828901612bd7565b9250506080612fc688828901612aac565b9150509295509295909350565b6000612fdf83836138a2565b60208301905092915050565b612ff481613e38565b82525050565b61300381613e26565b82525050565b600061301482613daf565b61301e8185613ddd565b935061302983613d9f565b8060005b8381101561305a5781516130418882612fd3565b975061304c83613dd0565b92505060018101905061302d565b5085935050505092915050565b61307081613e4a565b82525050565b61307f81613e56565b82525050565b600061309082613dba565b61309a8185613dee565b93506130aa818560208601613ed9565b6130b381613f0c565b840191505092915050565b60006130c982613dba565b6130d38185613dff565b93506130e3818560208601613ed9565b80840191505092915050565b60006130fa82613dc5565b6131048185613e0a565b9350613114818560208601613ed9565b61311d81613f0c565b840191505092915050565b600061313382613dc5565b61313d8185613e1b565b935061314d818560208601613ed9565b80840191505092915050565b6000613166602283613e0a565b91507f456e756d657261626c655365743a20696e646578206f7574206f6620626f756e60008301527f64730000000000000000000000000000000000000000000000000000000000006020830152604082019050919050565b60006131cc603283613e0a565b91507f4552433732313a207472616e7366657220746f206e6f6e20455243373231526560008301527f63656976657220696d706c656d656e74657200000000000000000000000000006020830152604082019050919050565b6000613232602683613e0a565b91507f4f776e61626c653a206e6577206f776e657220697320746865207a65726f206160008301527f64647265737300000000000000000000000000000000000000000000000000006020830152604082019050919050565b6000613298601c83613e0a565b91507f4552433732313a20746f6b656e20616c7265616479206d696e746564000000006000830152602082019050919050565b60006132d8602483613e0a565b91507f4552433732313a207472616e7366657220746f20746865207a65726f2061646460008301527f72657373000000000000000000000000000000000000000000000000000000006020830152604082019050919050565b600061333e601983613e0a565b91507f4552433732313a20617070726f766520746f2063616c6c6572000000000000006000830152602082019050919050565b600061337e602683613e0a565b91507f416464726573733a20696e73756666696369656e742062616c616e636520666f60008301527f722063616c6c00000000000000000000000000000000000000000000000000006020830152604082019050919050565b60006133e4602c83613e0a565b91507f4552433732313a206f70657261746f7220717565727920666f72206e6f6e657860008301527f697374656e7420746f6b656e00000000000000000000000000000000000000006020830152604082019050919050565b600061344a603883613e0a565b91507f4552433732313a20617070726f76652063616c6c6572206973206e6f74206f7760008301527f6e6572206e6f7220617070726f76656420666f7220616c6c00000000000000006020830152604082019050919050565b60006134b0602a83613e0a565b91507f4552433732313a2062616c616e636520717565727920666f7220746865207a6560008301527f726f2061646472657373000000000000000000000000000000000000000000006020830152604082019050919050565b6000613516602283613e0a565b91507f456e756d657261626c654d61703a20696e646578206f7574206f6620626f756e60008301527f64730000000000000000000000000000000000000000000000000000000000006020830152604082019050919050565b600061357c602083613e0a565b91507f4552433732313a206d696e7420746f20746865207a65726f20616464726573736000830152602082019050919050565b60006135bc602c83613e0a565b91507f4552433732313a20617070726f76656420717565727920666f72206e6f6e657860008301527f697374656e7420746f6b656e00000000000000000000000000000000000000006020830152604082019050919050565b6000613622602083613e0a565b91507f4f776e61626c653a2063616c6c6572206973206e6f7420746865206f776e65726000830152602082019050919050565b6000613662602983613e0a565b91507f4552433732313a207472616e73666572206f6620746f6b656e2074686174206960008301527f73206e6f74206f776e00000000000000000000000000000000000000000000006020830152604082019050919050565b60006136c8602f83613e0a565b91507f4552433732314d657461646174613a2055524920717565727920666f72206e6f60008301527f6e6578697374656e7420746f6b656e00000000000000000000000000000000006020830152604082019050919050565b600061372e602183613e0a565b91507f4552433732313a20617070726f76616c20746f2063757272656e74206f776e6560008301527f72000000000000000000000000000000000000000000000000000000000000006020830152604082019050919050565b6000613794603183613e0a565b91507f4552433732313a207472616e736665722063616c6c6572206973206e6f74206f60008301527f776e6572206e6f7220617070726f7665640000000000000000000000000000006020830152604082019050919050565b60006137fa601d83613e0a565b91507f416464726573733a2063616c6c20746f206e6f6e2d636f6e74726163740000006000830152602082019050919050565b600061383a603083613e0a565b91507f4552433732314275726e61626c653a2063616c6c6572206973206e6f74206f7760008301527f6e6572206e6f7220617070726f766564000000000000000000000000000000006020830152604082019050919050565b61389c81613e82565b82525050565b6138ab81613eb0565b82525050565b6138ba81613eb0565b82525050565b6138c981613eba565b82525050565b60006138db82846130be565b915081905092915050565b60006138f28285613128565b91506138fe8284613128565b91508190509392505050565b600060208201905061391f6000830184612ffa565b92915050565b600060808201905061393a6000830187612feb565b6139476020830186612ffa565b61395460408301856138b1565b81810360608301526139668184613085565b905095945050505050565b600060a0820190506139866000830188612ffa565b61399360208301876138b1565b6139a060408301866138b1565b6139ad60608301856138b1565b6139ba60808301846138b1565b9695505050505050565b600060208201905081810360008301526139de8184613009565b905092915050565b60006020820190506139fb6000830184613067565b92915050565b6000602082019050613a166000830184613076565b92915050565b60006020820190508181036000830152613a3681846130ef565b905092915050565b60006020820190508181036000830152613a5781613159565b9050919050565b60006020820190508181036000830152613a77816131bf565b9050919050565b60006020820190508181036000830152613a9781613225565b9050919050565b60006020820190508181036000830152613ab78161328b565b9050919050565b60006020820190508181036000830152613ad7816132cb565b9050919050565b60006020820190508181036000830152613af781613331565b9050919050565b60006020820190508181036000830152613b1781613371565b9050919050565b60006020820190508181036000830152613b37816133d7565b9050919050565b60006020820190508181036000830152613b578161343d565b9050919050565b60006020820190508181036000830152613b77816134a3565b9050919050565b60006020820190508181036000830152613b9781613509565b9050919050565b60006020820190508181036000830152613bb78161356f565b9050919050565b60006020820190508181036000830152613bd7816135af565b9050919050565b60006020820190508181036000830152613bf781613615565b9050919050565b60006020820190508181036000830152613c1781613655565b9050919050565b60006020820190508181036000830152613c37816136bb565b9050919050565b60006020820190508181036000830152613c5781613721565b9050919050565b60006020820190508181036000830152613c7781613787565b9050919050565b60006020820190508181036000830152613c97816137ed565b9050919050565b60006020820190508181036000830152613cb78161382d565b9050919050565b6000602082019050613cd360008301846138b1565b92915050565b6000608082019050613cee60008301876138b1565b613cfb60208301866138c0565b613d0860408301856138c0565b613d156060830184613893565b95945050505050565b6000604051905081810181811067ffffffffffffffff82111715613d4157600080fd5b8060405250919050565b600067ffffffffffffffff821115613d6257600080fd5b602082029050602081019050919050565b600067ffffffffffffffff821115613d8a57600080fd5b601f19601f8301169050602081019050919050565b6000819050602082019050919050565b600081519050919050565b600081519050919050565b600081519050919050565b6000602082019050919050565b600082825260208201905092915050565b600082825260208201905092915050565b600081905092915050565b600082825260208201905092915050565b600081905092915050565b6000613e3182613e90565b9050919050565b6000613e4382613e90565b9050919050565b60008115159050919050565b60007fffffffff0000000000000000000000000000000000000000000000000000000082169050919050565b600061ffff82169050919050565b600073ffffffffffffffffffffffffffffffffffffffff82169050919050565b6000819050919050565b600063ffffffff82169050919050565b82818337600083830152505050565b60005b83811015613ef7578082015181840152602081019050613edc565b83811115613f06576000848401525b50505050565b6000601f19601f8301169050919050565b613f2681613e26565b8114613f3157600080fd5b50565b613f3d81613e4a565b8114613f4857600080fd5b50565b613f5481613e56565b8114613f5f57600080fd5b50565b613f6b81613eb0565b8114613f7657600080fd5b5056fe4552433732313a207472616e7366657220746f206e6f6e20455243373231526563656976657220696d706c656d656e7465724552433732313a206f776e657220717565727920666f72206e6f6e6578697374656e7420746f6b656ea2646970667358221220b0e57ac061b6b5c129149cbe9e8427ee775587317a25d59b07b234328c019cb964736f6c63430006020033",
  "source": "pragma solidity ^0.6.0;\r\npragma experimental ABIEncoderV2;\r\n\r\nimport \"@openzeppelin/contracts/token/ERC721/ERC721.sol\";\r\nimport \"@openzeppelin/contracts/token/ERC721/ERC721Burnable.sol\";\r\nimport \"@openzeppelin/contracts/token/ERC721/ERC721Pausable.sol\";\r\nimport \"@openzeppelin/contracts/token/ERC721/IERC721.sol\";\r\nimport \"@openzeppelin/contracts/token/ERC1155/IERC1155.sol\";\r\nimport \"@openzeppelin/contracts/token/ERC1155/ERC1155Holder.sol\";\r\nimport \"@openzeppelin/contracts/utils/Counters.sol\";\r\nimport \"@openzeppelin/contracts/access/Ownable.sol\";\r\nimport \"./interfaces/IAlienERC721.sol\";\r\n\r\n\r\n// SPDX-License-Identifier: MIT\r\n//ERC721\r\ncontract AlienERC721 is\r\n  Ownable,\r\n  ERC721,\r\n  ERC721Burnable,\r\n  ERC1155Holder\r\n{\r\n\r\n  using Counters for Counters.Counter;\r\n  Counters.Counter private _tokenIds;\r\n\r\n  struct AlienObj {\r\n    uint256 genes;\r\n    uint32 mumId;\r\n    uint32 dadId;\r\n    uint16 generation;\r\n  }\r\n\r\n  // Mapping from token ID to NFT struct details\r\n  // mapping(uint256 => AlienObj) public alienDetails;\r\n  // [address] => (tokenId => Aliens)\r\n  mapping(address => mapping(uint256 => AlienObj)) public alienDetails;\r\n  mapping(address => uint256[]) public userAliens;\r\n  \r\n  constructor() public ERC721(\r\n    \"AlienNFT\",\r\n     \"ALNFT\"\r\n     ) {\r\n\r\n  }\r\n\r\n  event AlienMinted(\r\n    address owner,\r\n    uint256 tokenId,\r\n    uint256 mumId,\r\n    uint256 dadId,\r\n    uint256 genes\r\n  );\r\n\r\n  function _createAlien(\r\n      uint256 _genes,\r\n      uint256 _mumId,\r\n      uint256 _dadId,\r\n      uint256 _generation,\r\n      address _owner\r\n    ) private returns (uint256) {\r\n      _tokenIds.increment();\r\n      alienDetails[msg.sender][_tokenIds.current()] = AlienObj(\r\n        uint256(_genes),\r\n        uint32(_mumId),\r\n        uint32(_dadId),\r\n        uint16(_generation)\r\n      );\r\n      _mint(_owner, _tokenIds.current());\r\n\r\n      // It's probably never going to happen, 4 billion cats is A LOT, but\r\n      // let's just be 100% sure we never let this happen.\r\n      require(_tokenIds.current() == uint256(uint32(_tokenIds.current())));\r\n\r\n      userAliens[msg.sender].push(_tokenIds.current());\r\n      emit AlienMinted(_owner, _tokenIds.current(), _mumId, _dadId, _genes);\r\n      return _tokenIds.current();\r\n    }\r\n\r\n\r\n  function getAlien(uint256 _nftId) public view returns(\r\n    uint256 _genes,\r\n    uint32 _mumId,\r\n    uint32 _dadId,\r\n    uint16 _generation\r\n    ){\r\n      AlienObj memory alien = alienDetails[msg.sender][_nftId];\r\n\r\n      _genes = uint256(alien.genes);\r\n      _mumId = uint32(alien.mumId);\r\n      _dadId = uint32(alien.dadId);\r\n      _generation = uint16(alien.generation);\r\n      return (_genes, _mumId, _dadId, _generation);\r\n  }\r\n\r\n  function getAllAliens(address _owner) public view returns(uint256 [] memory){\r\n    return userAliens[_owner];\r\n  }\r\n\r\n  function createAlien(\r\n      uint256 _genes,\r\n      uint256 _mumId,\r\n      uint256 _dadId,\r\n      uint256 _generation,\r\n      address _owner\r\n    ) public returns(uint256){\r\n        uint256 _newAlien = _createAlien(_genes, _mumId, _dadId, _generation, _owner);\r\n        return _newAlien;\r\n  }\r\n\r\n  function isApprovedOwner(address _owner, uint256 _nftId) public view returns (bool){\r\n    return _isApprovedOrOwner(_owner, _nftId);\r\n  }\r\n\r\n}\r\n",
  "sourcePath": "D:\\github\\cryptoaliens\\solidity\\contracts\\AlienERC721.sol",
  "compiler": {
    "name": "solc",
    "version": "0.6.2+commit.bacdbe57.Emscripten.clang"
  },
  "schemaVersion": "3.2.0",
  "updatedAt": "2021-03-30T05:40:57.270Z",
  "devdoc": {
    "methods": {
      "approve(address,uint256)": {
        "details": "See {IERC721-approve}."
      },
      "balanceOf(address)": {
        "details": "See {IERC721-balanceOf}."
      },
      "baseURI()": {
        "details": "Returns the base URI set via {_setBaseURI}. This will be automatically added as a prefix in {tokenURI} to each token's URI, or to the token ID if no specific URI is set for that token ID."
      },
      "burn(uint256)": {
        "details": "Burns `tokenId`. See {ERC721-_burn}.      * Requirements:      * - The caller must own `tokenId` or be an approved operator."
      },
      "getApproved(uint256)": {
        "details": "See {IERC721-getApproved}."
      },
      "isApprovedForAll(address,address)": {
        "details": "See {IERC721-isApprovedForAll}."
      },
      "name()": {
        "details": "See {IERC721Metadata-name}."
      },
      "owner()": {
        "details": "Returns the address of the current owner."
      },
      "ownerOf(uint256)": {
        "details": "See {IERC721-ownerOf}."
      },
      "renounceOwnership()": {
        "details": "Leaves the contract without owner. It will not be possible to call `onlyOwner` functions anymore. Can only be called by the current owner.      * NOTE: Renouncing ownership will leave the contract without an owner, thereby removing any functionality that is only available to the owner."
      },
      "safeTransferFrom(address,address,uint256)": {
        "details": "See {IERC721-safeTransferFrom}."
      },
      "safeTransferFrom(address,address,uint256,bytes)": {
        "details": "See {IERC721-safeTransferFrom}."
      },
      "setApprovalForAll(address,bool)": {
        "details": "See {IERC721-setApprovalForAll}."
      },
      "supportsInterface(bytes4)": {
        "details": "See {IERC165-supportsInterface}.      * Time complexity O(1), guaranteed to always use less than 30 000 gas."
      },
      "symbol()": {
        "details": "See {IERC721Metadata-symbol}."
      },
      "tokenByIndex(uint256)": {
        "details": "See {IERC721Enumerable-tokenByIndex}."
      },
      "tokenOfOwnerByIndex(address,uint256)": {
        "details": "See {IERC721Enumerable-tokenOfOwnerByIndex}."
      },
      "tokenURI(uint256)": {
        "details": "See {IERC721Metadata-tokenURI}."
      },
      "totalSupply()": {
        "details": "See {IERC721Enumerable-totalSupply}."
      },
      "transferFrom(address,address,uint256)": {
        "details": "See {IERC721-transferFrom}."
      },
      "transferOwnership(address)": {
        "details": "Transfers ownership of the contract to a new account (`newOwner`). Can only be called by the current owner."
      }
    }
  },
  "userdoc": {
    "methods": {}
  }
}