{
  "contractName": "AlienCore",
  "abi": [
    {
      "inputs": [
        {
          "internalType": "address",
          "name": "_AlienERC721",
          "type": "address"
        }
      ],
      "stateMutability": "nonpayable",
      "type": "constructor"
    },
    {
      "anonymous": false,
      "inputs": [
        {
          "indexed": false,
          "internalType": "string",
          "name": "TxType",
          "type": "string"
        },
        {
          "indexed": false,
          "internalType": "address",
          "name": "owner",
          "type": "address"
        },
        {
          "indexed": false,
          "internalType": "uint256",
          "name": "tokenId",
          "type": "uint256"
        }
      ],
      "name": "MarketTransaction",
      "type": "event"
    },
    {
      "anonymous": false,
      "inputs": [
        {
          "indexed": true,
          "internalType": "address",
          "name": "previousOwner",
          "type": "address"
        },
        {
          "indexed": true,
          "internalType": "address",
          "name": "newOwner",
          "type": "address"
        }
      ],
      "name": "OwnershipTransferred",
      "type": "event"
    },
    {
      "inputs": [],
      "name": "aln721",
      "outputs": [
        {
          "internalType": "contract IAlienERC721",
          "name": "",
          "type": "address"
        }
      ],
      "stateMutability": "view",
      "type": "function",
      "constant": true
    },
    {
      "inputs": [
        {
          "internalType": "uint256",
          "name": "_tokenId",
          "type": "uint256"
        }
      ],
      "name": "buyAlien",
      "outputs": [],
      "stateMutability": "payable",
      "type": "function",
      "payable": true
    },
    {
      "inputs": [
        {
          "internalType": "uint256",
          "name": "_tokenId",
          "type": "uint256"
        }
      ],
      "name": "getOffer",
      "outputs": [
        {
          "internalType": "address",
          "name": "seller",
          "type": "address"
        },
        {
          "internalType": "uint256",
          "name": "price",
          "type": "uint256"
        }
      ],
      "stateMutability": "view",
      "type": "function",
      "constant": true
    },
    {
      "inputs": [],
      "name": "owner",
      "outputs": [
        {
          "internalType": "address",
          "name": "",
          "type": "address"
        }
      ],
      "stateMutability": "view",
      "type": "function",
      "constant": true
    },
    {
      "inputs": [
        {
          "internalType": "uint256",
          "name": "_tokenId",
          "type": "uint256"
        }
      ],
      "name": "removeOffer",
      "outputs": [],
      "stateMutability": "nonpayable",
      "type": "function"
    },
    {
      "inputs": [],
      "name": "renounceOwnership",
      "outputs": [],
      "stateMutability": "nonpayable",
      "type": "function"
    },
    {
      "inputs": [
        {
          "internalType": "uint256",
          "name": "_price",
          "type": "uint256"
        },
        {
          "internalType": "uint256",
          "name": "_tokenId",
          "type": "uint256"
        }
      ],
      "name": "setOffer",
      "outputs": [],
      "stateMutability": "nonpayable",
      "type": "function"
    },
    {
      "inputs": [
        {
          "internalType": "address",
          "name": "newOwner",
          "type": "address"
        }
      ],
      "name": "transferOwnership",
      "outputs": [],
      "stateMutability": "nonpayable",
      "type": "function"
    },
    {
      "inputs": [
        {
          "internalType": "uint256",
          "name": "_dadId",
          "type": "uint256"
        },
        {
          "internalType": "uint256",
          "name": "_mumId",
          "type": "uint256"
        }
      ],
      "name": "cloneAlien",
      "outputs": [],
      "stateMutability": "nonpayable",
      "type": "function"
    },
    {
      "inputs": [
        {
          "internalType": "uint256",
          "name": "genes",
          "type": "uint256"
        }
      ],
      "name": "createAlienGen0",
      "outputs": [
        {
          "internalType": "uint256",
          "name": "",
          "type": "uint256"
        }
      ],
      "stateMutability": "nonpayable",
      "type": "function"
    }
  ],
  "bytecode": "0x608060405234801561001057600080fd5b50604051611e90380380611e908339818101604052602081101561003357600080fd5b8101908080519060200190929190505050600061005461013960201b60201c565b9050806000806101000a81548173ffffffffffffffffffffffffffffffffffffffff021916908373ffffffffffffffffffffffffffffffffffffffff1602179055508073ffffffffffffffffffffffffffffffffffffffff16600073ffffffffffffffffffffffffffffffffffffffff167f8be0079c531659141344cd1fd0a4f28419497f9722a3daafe3b4186f6b6457e060405160405180910390a35080600160006101000a81548173ffffffffffffffffffffffffffffffffffffffff021916908373ffffffffffffffffffffffffffffffffffffffff16021790555050610141565b600033905090565b611d40806101506000396000f3fe6080604052600436106100915760003560e01c8063921a762011610059578063921a76201461022c57806393846ea714610271578063941b055b1461029f57806395a0f9c7146102e4578063f2fde38b1461031f57610091565b806318e0b13e14610096578063242155cb146100ed5780634579268a1461013c578063715018a6146101be5780638da5cb5b146101d5575b600080fd5b3480156100a257600080fd5b506100ab610370565b604051808273ffffffffffffffffffffffffffffffffffffffff1673ffffffffffffffffffffffffffffffffffffffff16815260200191505060405180910390f35b3480156100f957600080fd5b506101266004803603602081101561011057600080fd5b8101908080359060200190929190505050610396565b6040518082815260200191505060405180910390f35b34801561014857600080fd5b506101756004803603602081101561015f57600080fd5b81019080803590602001909291905050506105e3565b604051808373ffffffffffffffffffffffffffffffffffffffff1673ffffffffffffffffffffffffffffffffffffffff1681526020018281526020019250505060405180910390f35b3480156101ca57600080fd5b506101d3610634565b005b3480156101e157600080fd5b506101ea6107bc565b604051808273ffffffffffffffffffffffffffffffffffffffff1673ffffffffffffffffffffffffffffffffffffffff16815260200191505060405180910390f35b34801561023857600080fd5b5061026f6004803603604081101561024f57600080fd5b8101908080359060200190929190803590602001909291905050506107e5565b005b61029d6004803603602081101561028757600080fd5b8101908080359060200190929190505050610bcc565b005b3480156102ab57600080fd5b506102e2600480360360408110156102c257600080fd5b810190808035906020019092919080359060200190929190505050610efe565b005b3480156102f057600080fd5b5061031d6004803603602081101561030757600080fd5b81019080803590602001909291905050506110d7565b005b34801561032b57600080fd5b5061036e6004803603602081101561034257600080fd5b81019080803573ffffffffffffffffffffffffffffffffffffffff16906020019092919050505061150b565b005b600160009054906101000a900473ffffffffffffffffffffffffffffffffffffffff1681565b60006103a0611718565b73ffffffffffffffffffffffffffffffffffffffff166000809054906101000a900473ffffffffffffffffffffffffffffffffffffffff1673ffffffffffffffffffffffffffffffffffffffff1614610461576040517f08c379a00000000000000000000000000000000000000000000000000000000081526004018080602001828103825260208152602001807f4f776e61626c653a2063616c6c6572206973206e6f7420746865206f776e657281525060200191505060405180910390fd5b600a600354106104bc576040517f08c379a0000000000000000000000000000000000000000000000000000000008152600401808060200182810382526026815260200180611cbf6026913960400191505060405180910390fd5b600360008154809291906001019190505550600160009054906101000a900473ffffffffffffffffffffffffffffffffffffffff1673ffffffffffffffffffffffffffffffffffffffff16635fb490e7836000806000336040518663ffffffff1660e01b8152600401808681526020018563ffffffff1681526020018463ffffffff1681526020018361ffff1681526020018273ffffffffffffffffffffffffffffffffffffffff1673ffffffffffffffffffffffffffffffffffffffff16815260200195505050505050602060405180830381600087803b1580156105a157600080fd5b505af11580156105b5573d6000803e3d6000fd5b505050506040513d60208110156105cb57600080fd5b81019080805190602001909291905050509050919050565b60008060006002600085815260200190815260200160002090508060000160009054906101000a900473ffffffffffffffffffffffffffffffffffffffff1681600101548191509250925050915091565b61063c611718565b73ffffffffffffffffffffffffffffffffffffffff166000809054906101000a900473ffffffffffffffffffffffffffffffffffffffff1673ffffffffffffffffffffffffffffffffffffffff16146106fd576040517f08c379a00000000000000000000000000000000000000000000000000000000081526004018080602001828103825260208152602001807f4f776e61626c653a2063616c6c6572206973206e6f7420746865206f776e657281525060200191505060405180910390fd5b600073ffffffffffffffffffffffffffffffffffffffff166000809054906101000a900473ffffffffffffffffffffffffffffffffffffffff1673ffffffffffffffffffffffffffffffffffffffff167f8be0079c531659141344cd1fd0a4f28419497f9722a3daafe3b4186f6b6457e060405160405180910390a360008060006101000a81548173ffffffffffffffffffffffffffffffffffffffff021916908373ffffffffffffffffffffffffffffffffffffffff160217905550565b60008060009054906101000a900473ffffffffffffffffffffffffffffffffffffffff16905090565b600160009054906101000a900473ffffffffffffffffffffffffffffffffffffffff1673ffffffffffffffffffffffffffffffffffffffff1663f8ef871c33846040518363ffffffff1660e01b8152600401808373ffffffffffffffffffffffffffffffffffffffff1673ffffffffffffffffffffffffffffffffffffffff1681526020018281526020019250505060206040518083038186803b15801561088c57600080fd5b505afa1580156108a0573d6000803e3d6000fd5b505050506040513d60208110156108b657600080fd5b8101908080519060200190929190505050610939576040517f08c379a000000000000000000000000000000000000000000000000000000000815260040180806020018281038252601e8152602001807f546865207573657220646f65736e2774206f776e2074686520746f6b656e000081525060200191505060405180910390fd5b600160009054906101000a900473ffffffffffffffffffffffffffffffffffffffff1673ffffffffffffffffffffffffffffffffffffffff1663f8ef871c33836040518363ffffffff1660e01b8152600401808373ffffffffffffffffffffffffffffffffffffffff1673ffffffffffffffffffffffffffffffffffffffff1681526020018281526020019250505060206040518083038186803b1580156109e057600080fd5b505afa1580156109f4573d6000803e3d6000fd5b505050506040513d6020811015610a0a57600080fd5b8101908080519060200190929190505050610a8d576040517f08c379a000000000000000000000000000000000000000000000000000000000815260040180806020018281038252601e8152602001807f546865207573657220646f65736e2774206f776e2074686520746f6b656e000081525060200191505060405180910390fd5b6000610a998383611720565b90506000610aa78484611a1d565b9050600160009054906101000a900473ffffffffffffffffffffffffffffffffffffffff1673ffffffffffffffffffffffffffffffffffffffff16635fb490e783858785336040518663ffffffff1660e01b8152600401808681526020018563ffffffff1663ffffffff1681526020018463ffffffff1663ffffffff1681526020018361ffff1661ffff1681526020018273ffffffffffffffffffffffffffffffffffffffff1673ffffffffffffffffffffffffffffffffffffffff16815260200195505050505050602060405180830381600087803b158015610b8a57600080fd5b505af1158015610b9e573d6000803e3d6000fd5b505050506040513d6020811015610bb457600080fd5b81019080805190602001909291905050505050505050565b610bd4611c33565b600260008381526020019081526020016000206040518060400160405290816000820160009054906101000a900473ffffffffffffffffffffffffffffffffffffffff1673ffffffffffffffffffffffffffffffffffffffff1673ffffffffffffffffffffffffffffffffffffffff168152602001600182015481525050905080602001513414610ccd576040517f08c379a00000000000000000000000000000000000000000000000000000000081526004018080602001828103825260188152602001807f546865207072696365206973206e6f7420636f7272656374000000000000000081525060200191505060405180910390fd5b60026000838152602001908152602001600020600080820160006101000a81549073ffffffffffffffffffffffffffffffffffffffff021916905560018201600090555050600160009054906101000a900473ffffffffffffffffffffffffffffffffffffffff1673ffffffffffffffffffffffffffffffffffffffff166323b872dd826000015133856040518463ffffffff1660e01b8152600401808473ffffffffffffffffffffffffffffffffffffffff1673ffffffffffffffffffffffffffffffffffffffff1681526020018373ffffffffffffffffffffffffffffffffffffffff1673ffffffffffffffffffffffffffffffffffffffff1681526020018281526020019350505050600060405180830381600087803b158015610df357600080fd5b505af1158015610e07573d6000803e3d6000fd5b50505050806000015173ffffffffffffffffffffffffffffffffffffffff166108fc349081150290604051600060405180830381858888f19350505050158015610e55573d6000803e3d6000fd5b507fd99e4fad9ad6313b1feb588fa8e605e3a9873172f2024330c35dd2b4041a4386338360405180806020018473ffffffffffffffffffffffffffffffffffffffff1673ffffffffffffffffffffffffffffffffffffffff168152602001838152602001828103825260098152602001807f42757920416c69656e0000000000000000000000000000000000000000000000815250602001935050505060405180910390a15050565b600160009054906101000a900473ffffffffffffffffffffffffffffffffffffffff1673ffffffffffffffffffffffffffffffffffffffff1663095ea7b330836040518363ffffffff1660e01b8152600401808373ffffffffffffffffffffffffffffffffffffffff1673ffffffffffffffffffffffffffffffffffffffff16815260200182815260200192505050600060405180830381600087803b158015610fa757600080fd5b505af1158015610fbb573d6000803e3d6000fd5b50505050336002600083815260200190815260200160002060000160006101000a81548173ffffffffffffffffffffffffffffffffffffffff021916908373ffffffffffffffffffffffffffffffffffffffff1602179055508160026000838152602001908152602001600020600101819055507fd99e4fad9ad6313b1feb588fa8e605e3a9873172f2024330c35dd2b4041a4386338260405180806020018473ffffffffffffffffffffffffffffffffffffffff1673ffffffffffffffffffffffffffffffffffffffff1681526020018381526020018281038252600c8152602001807f437265617465206f666665720000000000000000000000000000000000000000815250602001935050505060405180910390a15050565b600160009054906101000a900473ffffffffffffffffffffffffffffffffffffffff1673ffffffffffffffffffffffffffffffffffffffff1663f8ef871c33836040518363ffffffff1660e01b8152600401808373ffffffffffffffffffffffffffffffffffffffff1673ffffffffffffffffffffffffffffffffffffffff1681526020018281526020019250505060206040518083038186803b15801561117e57600080fd5b505afa158015611192573d6000803e3d6000fd5b505050506040513d60208110156111a857600080fd5b810190808051906020019092919050505061122b576040517f08c379a000000000000000000000000000000000000000000000000000000000815260040180806020018281038252601e8152602001807f546865207573657220646f65736e2774206f776e2074686520746f6b656e000081525060200191505060405180910390fd5b611233611c33565b600260008381526020019081526020016000206040518060400160405290816000820160009054906101000a900473ffffffffffffffffffffffffffffffffffffffff1673ffffffffffffffffffffffffffffffffffffffff1673ffffffffffffffffffffffffffffffffffffffff16815260200160018201548152505090503373ffffffffffffffffffffffffffffffffffffffff16816000015173ffffffffffffffffffffffffffffffffffffffff161461133b576040517f08c379a0000000000000000000000000000000000000000000000000000000008152600401808060200182810382526038815260200180611c876038913960400191505060405180910390fd5b60026000838152602001908152602001600020600080820160006101000a81549073ffffffffffffffffffffffffffffffffffffffff021916905560018201600090555050600160009054906101000a900473ffffffffffffffffffffffffffffffffffffffff1673ffffffffffffffffffffffffffffffffffffffff1663f8ef871c33846040518363ffffffff1660e01b8152600401808373ffffffffffffffffffffffffffffffffffffffff1673ffffffffffffffffffffffffffffffffffffffff1681526020018281526020019250505060206040518083038186803b15801561142757600080fd5b505afa15801561143b573d6000803e3d6000fd5b505050506040513d602081101561145157600080fd5b8101908080519060200190929190505050507fd99e4fad9ad6313b1feb588fa8e605e3a9873172f2024330c35dd2b4041a4386338360405180806020018473ffffffffffffffffffffffffffffffffffffffff1673ffffffffffffffffffffffffffffffffffffffff1681526020018381526020018281038252600c8152602001807f52656d6f7665206f666665720000000000000000000000000000000000000000815250602001935050505060405180910390a15050565b611513611718565b73ffffffffffffffffffffffffffffffffffffffff166000809054906101000a900473ffffffffffffffffffffffffffffffffffffffff1673ffffffffffffffffffffffffffffffffffffffff16146115d4576040517f08c379a00000000000000000000000000000000000000000000000000000000081526004018080602001828103825260208152602001807f4f776e61626c653a2063616c6c6572206973206e6f7420746865206f776e657281525060200191505060405180910390fd5b600073ffffffffffffffffffffffffffffffffffffffff168173ffffffffffffffffffffffffffffffffffffffff16141561165a576040517f08c379a0000000000000000000000000000000000000000000000000000000008152600401808060200182810382526026815260200180611ce56026913960400191505060405180910390fd5b8073ffffffffffffffffffffffffffffffffffffffff166000809054906101000a900473ffffffffffffffffffffffffffffffffffffffff1673ffffffffffffffffffffffffffffffffffffffff167f8be0079c531659141344cd1fd0a4f28419497f9722a3daafe3b4186f6b6457e060405160405180910390a3806000806101000a81548173ffffffffffffffffffffffffffffffffffffffff021916908373ffffffffffffffffffffffffffffffffffffffff16021790555050565b600033905090565b600080600160009054906101000a900473ffffffffffffffffffffffffffffffffffffffff1673ffffffffffffffffffffffffffffffffffffffff1663ba269271856040518263ffffffff1660e01b81526004018082815260200191505060a06040518083038186803b15801561179657600080fd5b505afa1580156117aa573d6000803e3d6000fd5b505050506040513d60a08110156117c057600080fd5b8101908080519060200190929190805190602001909291908051906020019092919080519060200190929190805190602001909291905050505050505090506000600160009054906101000a900473ffffffffffffffffffffffffffffffffffffffff1673ffffffffffffffffffffffffffffffffffffffff1663ba269271856040518263ffffffff1660e01b81526004018082815260200191505060a06040518083038186803b15801561187457600080fd5b505afa158015611888573d6000803e3d6000fd5b505050506040513d60a081101561189e57600080fd5b81019080805190602001909291908051906020019092919080519060200190929190805190602001909291908051906020019092919050505050505050905060006118e7611c63565b600060079050600060ff42816118f957fe5b0690506000809050600190505b60808111611992576000818360ff161614611943576064868161192557fe5b0660ff1684846008811061193557fe5b602002018181525050611967565b6064878161194d57fe5b0660ff1684846008811061195d57fe5b6020020181815250505b6064868161197157fe5b0495506064878161197e57fe5b049650600183039250600281029050611906565b600060078360ff16816119a157fe5b06905060638360ff16816119b157fe5b0660ff16858260ff16600881106119c457fe5b602002018181525050600091505b6008821015611a0c578482600881106119e757fe5b602002015186019550600782146119ff576064860295505b81806001019250506119d2565b859850505050505050505092915050565b600080600160009054906101000a900473ffffffffffffffffffffffffffffffffffffffff1673ffffffffffffffffffffffffffffffffffffffff1663ba269271856040518263ffffffff1660e01b81526004018082815260200191505060a06040518083038186803b158015611a9357600080fd5b505afa158015611aa7573d6000803e3d6000fd5b505050506040513d60a0811015611abd57600080fd5b8101908080519060200190929190805190602001909291908051906020019092919080519060200190929190805190602001909291905050509450505050506000600160009054906101000a900473ffffffffffffffffffffffffffffffffffffffff1673ffffffffffffffffffffffffffffffffffffffff1663ba269271856040518263ffffffff1660e01b81526004018082815260200191505060a06040518083038186803b158015611b7157600080fd5b505afa158015611b85573d6000803e3d6000fd5b505050506040513d60a0811015611b9b57600080fd5b810190808051906020019092919080519060200190929190805190602001909291908051906020019092919080519060200190929190505050945050505050600080905081831015611bff5760018201905060028181611bf757fe5b049050611c27565b81831115611c1f5760018301905060028181611c1757fe5b049050611c26565b6001820190505b5b80935050505092915050565b6040518060400160405280600073ffffffffffffffffffffffffffffffffffffffff168152602001600081525090565b60405180610100016040528060089060208202803883398082019150509050509056fe596f752073686f756c64206f776e2074686520616c69656e20746f2062652061626c6520746f2072656d6f76652074686973206f666665724d6178696d756d20616d6f756e74206f6620616c69656e732047656e203020726561636865644f776e61626c653a206e6577206f776e657220697320746865207a65726f2061646472657373a26469706673582212205b06896bab134ffefe3319304ca4b004de7b966d9fd3e601cdc37ab9882adca364736f6c63430006020033",
  "source": "// SPDX-License-Identifier: MIT\r\npragma solidity ^0.6.0;\r\n\r\nimport \"./@openzeppelin/contracts/access/Ownable.sol\";\r\nimport \"./AlienMarketPlace.sol\";\r\n\r\ncontract AlienCore is Ownable, AlienMarketPlace{\r\n\r\n  uint256 private constant CREATION_LIMIT_GEN0 = 10;\r\n  // Counts the number of cats the contract owner has created.\r\n  uint256 private gen0Counter;\r\n\r\n  constructor(address _AlienERC721) public {\r\n    aln721 = IAlienERC721(_AlienERC721);\r\n  }\r\n/*\r\n*       we get a\r\n*\r\n*       Basic binary operation\r\n*\r\n*       >>> '{0:08b}'.format(255 & 1)\r\n*       '00000001'\r\n*       >>> '{0:08b}'.format(255 & 2)\r\n*       '00000010'\r\n*       >>> '{0:08b}'.format(255 & 4)\r\n*       '00000100'\r\n*       >>> '{0:08b}'.format(255 & 8)\r\n*       '00001000'\r\n*       >>> '{0:08b}'.format(255 & 16)\r\n*       '00010000'\r\n*       >>> '{0:08b}'.format(255 & 32)\r\n*       '00100000'\r\n*       >>> '{0:08b}'.format(255 & 64)\r\n*       '01000000'\r\n*       >>> '{0:08b}'.format(255 & 128)\r\n*       '10000000'\r\n*\r\n*       So we use a mask on our random number to check if we will use the mumID or the dadId\r\n*\r\n*       For example 205 is 11001101 in binary So\r\n*       mum - mum - dad -dad -mum - mum - dad - mum\r\n*\r\n*/\r\n\r\n  function getGenesKid(uint256 _dadId, uint256 _mumId) private view returns (uint256){\r\n    ( uint256 Dadgenes,,,,) = aln721.getAlien(_dadId);\r\n\r\n    ( uint256 Mumgenes,,,,) = aln721.getAlien(_mumId);\r\n\r\n    uint256 geneKid;\r\n    uint256 [8] memory geneArray;\r\n    uint256 index = 7;\r\n    uint8 random = uint8(now % 255);\r\n    uint256 i = 0;\r\n\r\n    for(i = 1; i <= 128; i=i*2){\r\n\r\n        /* We are */\r\n        if(random & i != 0){\r\n            geneArray[index] = uint8(Mumgenes % 100);\r\n        } else {\r\n            geneArray[index] = uint8(Dadgenes % 100);\r\n        }\r\n        Mumgenes /= 100;\r\n        Dadgenes /= 100;\r\n      index -= 1;\r\n    }\r\n\r\n    /* Add a random parameter in a random place */\r\n    uint8 newGeneIndex =  random % 7;\r\n    geneArray[newGeneIndex] = random % 99;\r\n\r\n    /* We reverse the DNa in the right order */\r\n    for (i = 0 ; i < 8; i++ ){\r\n      geneKid += geneArray[i];\r\n      if(i != 7){\r\n          geneKid *= 100;\r\n      }\r\n    }\r\n    return geneKid;\r\n  }\r\n\r\n  function getGenerationKid(uint256 _dadId, uint256 _mumId) private view returns (uint256){\r\n    ( ,,,,uint256 DadGeneration ) = aln721.getAlien(_dadId);\r\n\r\n    (,,,,uint256 MumGeneration ) = aln721.getAlien(_mumId);\r\n    uint256 _kidGen = 0;\r\n    if (DadGeneration < MumGeneration){\r\n      _kidGen = MumGeneration + 1;\r\n      _kidGen /= 2;\r\n    } else if (DadGeneration > MumGeneration){\r\n      _kidGen = DadGeneration + 1;\r\n      _kidGen /= 2;\r\n    } else{\r\n      _kidGen = MumGeneration + 1;\r\n    }\r\n    return _kidGen;\r\n  }\r\n\r\n  function cloneAlien(uint256 _dadId, uint256 _mumId) public {\r\n      require(aln721.isApprovedOwner(msg.sender, _dadId), \"The user doesn't own the token\");\r\n      require(aln721.isApprovedOwner(msg.sender, _mumId), \"The user doesn't own the token\");\r\n\r\n      uint256 geneKid = getGenesKid(_dadId, _mumId);\r\n      uint256 kidGen = getGenerationKid(_dadId, _mumId);\r\n\r\n      aln721.createtAlien(geneKid, uint32(_mumId), uint32(_dadId), uint16(kidGen), msg.sender);\r\n  }\r\n\r\n  function createAlienGen0(uint256 genes) public onlyOwner returns(uint256){\r\n      require(gen0Counter < CREATION_LIMIT_GEN0, \"Maximum amount of aliens Gen 0 reached\");\r\n      gen0Counter++;\r\n\r\n      //Gen0 have no owners they are own by the contract\r\n      return aln721.createtAlien(genes, 0, 0, 0, msg.sender);\r\n  }\r\n\r\n}\r\n",
  "sourcePath": "C:/Users/TC/OneDrive/Documentos/GitHub/cryptoaliens/solidity/contracts/AlienCore.sol",
  "compiler": {
    "name": "solc",
    "version": "0.6.2+commit.bacdbe57.Emscripten.clang"
  },
  "schemaVersion": "3.3.2",
  "updatedAt": "2021-01-08T09:44:12.389Z",
  "networkType": "ethereum",
  "devdoc": {
    "methods": {
      "owner()": {
        "details": "Returns the address of the current owner."
      },
      "renounceOwnership()": {
        "details": "Leaves the contract without owner. It will not be possible to call `onlyOwner` functions anymore. Can only be called by the current owner.      * NOTE: Renouncing ownership will leave the contract without an owner, thereby removing any functionality that is only available to the owner."
      },
      "transferOwnership(address)": {
        "details": "Transfers ownership of the contract to a new account (`newOwner`). Can only be called by the current owner."
      }
    }
  },
  "userdoc": {
    "methods": {}
  }
}