{
  "contractName": "AlienMarketPlace",
  "abi": [
    {
      "anonymous": false,
      "inputs": [
        {
          "indexed": false,
          "internalType": "string",
          "name": "TxType",
          "type": "string"
        },
        {
          "indexed": false,
          "internalType": "address",
          "name": "owner",
          "type": "address"
        },
        {
          "indexed": false,
          "internalType": "uint256",
          "name": "tokenId",
          "type": "uint256"
        }
      ],
      "name": "MarketTransaction",
      "type": "event"
    },
    {
      "inputs": [],
      "name": "aln721",
      "outputs": [
        {
          "internalType": "contract IAlienERC721",
          "name": "",
          "type": "address"
        }
      ],
      "stateMutability": "view",
      "type": "function",
      "constant": true
    },
    {
      "inputs": [],
      "name": "totalOffers",
      "outputs": [
        {
          "internalType": "uint256",
          "name": "",
          "type": "uint256"
        }
      ],
      "stateMutability": "view",
      "type": "function",
      "constant": true
    },
    {
      "inputs": [
        {
          "internalType": "uint256",
          "name": "_tokenId",
          "type": "uint256"
        }
      ],
      "name": "getOffer",
      "outputs": [
        {
          "internalType": "address",
          "name": "seller",
          "type": "address"
        },
        {
          "internalType": "uint256",
          "name": "price",
          "type": "uint256"
        },
        {
          "internalType": "uint256",
          "name": "index",
          "type": "uint256"
        },
        {
          "internalType": "uint256",
          "name": "tokenId",
          "type": "uint256"
        },
        {
          "internalType": "bool",
          "name": "active",
          "type": "bool"
        }
      ],
      "stateMutability": "view",
      "type": "function",
      "constant": true
    },
    {
      "inputs": [
        {
          "internalType": "uint256",
          "name": "_price",
          "type": "uint256"
        },
        {
          "internalType": "uint256",
          "name": "_tokenId",
          "type": "uint256"
        }
      ],
      "name": "setOffer",
      "outputs": [],
      "stateMutability": "nonpayable",
      "type": "function"
    },
    {
      "inputs": [
        {
          "internalType": "uint256",
          "name": "_tokenId",
          "type": "uint256"
        }
      ],
      "name": "removeOffer",
      "outputs": [],
      "stateMutability": "nonpayable",
      "type": "function"
    },
    {
      "inputs": [
        {
          "internalType": "uint256",
          "name": "_tokenId",
          "type": "uint256"
        }
      ],
      "name": "buyAlien",
      "outputs": [],
      "stateMutability": "payable",
      "type": "function",
      "payable": true
    }
  ],
  "bytecode": "0x608060405234801561001057600080fd5b5061117b806100206000396000f3fe6080604052600436106100555760003560e01c806318e0b13e1461005a5780634579268a146100b157806393846ea71461014c578063941b055b1461017a57806395a0f9c7146101bf578063a9fd8ed1146101fa575b600080fd5b34801561006657600080fd5b5061006f610225565b604051808273ffffffffffffffffffffffffffffffffffffffff1673ffffffffffffffffffffffffffffffffffffffff16815260200191505060405180910390f35b3480156100bd57600080fd5b506100ea600480360360208110156100d457600080fd5b810190808035906020019092919050505061024a565b604051808673ffffffffffffffffffffffffffffffffffffffff1673ffffffffffffffffffffffffffffffffffffffff168152602001858152602001848152602001838152602001821515151581526020019550505050505060405180910390f35b6101786004803603602081101561016257600080fd5b81019080803590602001909291905050506102c5565b005b34801561018657600080fd5b506101bd6004803603604081101561019d57600080fd5b8101908080359060200190929190803590602001909291905050506106f3565b005b3480156101cb57600080fd5b506101f8600480360360208110156101e257600080fd5b8101908080359060200190929190505050610d06565b005b34801561020657600080fd5b5061020f610f9b565b6040518082815260200191505060405180910390f35b6000809054906101000a900473ffffffffffffffffffffffffffffffffffffffff1681565b6000806000806000806003600088815260200190815260200160002090508060000160009054906101000a900473ffffffffffffffffffffffffffffffffffffffff168160010154826002015483600301548460040160009054906101000a900460ff16849450955095509550955095505091939590929450565b6102cd611076565b600360008381526020019081526020016000206040518060a00160405290816000820160009054906101000a900473ffffffffffffffffffffffffffffffffffffffff1673ffffffffffffffffffffffffffffffffffffffff1673ffffffffffffffffffffffffffffffffffffffff1681526020016001820154815260200160028201548152602001600382015481526020016004820160009054906101000a900460ff1615151515815250509050806020015134146103d8576040517f08c379a000000000000000000000000000000000000000000000000000000000815260040180806020018281038252602e8152602001806110f6602e913960400191505060405180910390fd5b600115158160800151151514610456576040517f08c379a00000000000000000000000000000000000000000000000000000000081526004018080602001828103825260128152602001807f6e6f206f6666657220697320616374697665000000000000000000000000000081525060200191505060405180910390fd5b60036000838152602001908152602001600020600080820160006101000a81549073ffffffffffffffffffffffffffffffffffffffff02191690556001820160009055600282016000905560038201600090556004820160006101000a81549060ff02191690555050600060028260400151815481106104d257fe5b906000526020600020906005020160040160006101000a81548160ff021916908315150217905550806000015173ffffffffffffffffffffffffffffffffffffffff166108fc82602001519081150290604051600060405180830381858888f19350505050158015610548573d6000803e3d6000fd5b506000809054906101000a900473ffffffffffffffffffffffffffffffffffffffff1673ffffffffffffffffffffffffffffffffffffffff166323b872dd826000015133856040518463ffffffff1660e01b8152600401808473ffffffffffffffffffffffffffffffffffffffff1673ffffffffffffffffffffffffffffffffffffffff1681526020018373ffffffffffffffffffffffffffffffffffffffff1673ffffffffffffffffffffffffffffffffffffffff1681526020018281526020019350505050600060405180830381600087803b15801561062957600080fd5b505af115801561063d573d6000803e3d6000fd5b5050505061064b6001610fac565b7fd99e4fad9ad6313b1feb588fa8e605e3a9873172f2024330c35dd2b4041a4386338360405180806020018473ffffffffffffffffffffffffffffffffffffffff1673ffffffffffffffffffffffffffffffffffffffff168152602001838152602001828103825260098152602001807f42757920416c69656e0000000000000000000000000000000000000000000000815250602001935050505060405180910390a15050565b3373ffffffffffffffffffffffffffffffffffffffff166000809054906101000a900473ffffffffffffffffffffffffffffffffffffffff1673ffffffffffffffffffffffffffffffffffffffff16636352211e836040518263ffffffff1660e01b81526004018082815260200191505060206040518083038186803b15801561077c57600080fd5b505afa158015610790573d6000803e3d6000fd5b505050506040513d60208110156107a657600080fd5b810190808051906020019092919050505073ffffffffffffffffffffffffffffffffffffffff1614610840576040517f08c379a000000000000000000000000000000000000000000000000000000000815260040180806020018281038252601b8152602001807f6f6e6c79206f776e65722063616e2073656c6c20746f6b656e4964000000000081525060200191505060405180910390fd5b600015156003600083815260200190815260200160002060040160009054906101000a900460ff161515146108dd576040517f08c379a00000000000000000000000000000000000000000000000000000000081526004018080602001828103825260148152602001807f6f6666657220616c72656164792065786973747300000000000000000000000081525060200191505060405180910390fd5b6000809054906101000a900473ffffffffffffffffffffffffffffffffffffffff1673ffffffffffffffffffffffffffffffffffffffff1663e985e9c533306040518363ffffffff1660e01b8152600401808373ffffffffffffffffffffffffffffffffffffffff1673ffffffffffffffffffffffffffffffffffffffff1681526020018273ffffffffffffffffffffffffffffffffffffffff1673ffffffffffffffffffffffffffffffffffffffff1681526020019250505060206040518083038186803b1580156109af57600080fd5b505afa1580156109c3573d6000803e3d6000fd5b505050506040513d60208110156109d957600080fd5b8101908080519060200190929190505050610a5c576040517f08c379a00000000000000000000000000000000000000000000000000000000081526004018080602001828103825260188152602001807f636f6e7472616374206973206e6f7420617070726f766564000000000000000081525060200191505060405180910390fd5b60008211610ab5576040517f08c379a00000000000000000000000000000000000000000000000000000000081526004018080602001828103825260228152602001806111246022913960400191505060405180910390fd5b610abd611076565b6040518060a001604052803373ffffffffffffffffffffffffffffffffffffffff1681526020018481526020016002805490508152602001838152602001600115158152509050806003600084815260200190815260200160002060008201518160000160006101000a81548173ffffffffffffffffffffffffffffffffffffffff021916908373ffffffffffffffffffffffffffffffffffffffff16021790555060208201518160010155604082015181600201556060820151816003015560808201518160040160006101000a81548160ff021916908315150217905550905050600281908060018154018082558091505060019003906000526020600020906005020160009091909190915060008201518160000160006101000a81548173ffffffffffffffffffffffffffffffffffffffff021916908373ffffffffffffffffffffffffffffffffffffffff16021790555060208201518160010155604082015181600201556060820151816003015560808201518160040160006101000a81548160ff0219169083151502179055505050610c5d6001610fcf565b7fd99e4fad9ad6313b1feb588fa8e605e3a9873172f2024330c35dd2b4041a4386338360405180806020018473ffffffffffffffffffffffffffffffffffffffff1673ffffffffffffffffffffffffffffffffffffffff1681526020018381526020018281038252600c8152602001807f437265617465206f666665720000000000000000000000000000000000000000815250602001935050505060405180910390a1505050565b610d0e611076565b600360008381526020019081526020016000206040518060a00160405290816000820160009054906101000a900473ffffffffffffffffffffffffffffffffffffffff1673ffffffffffffffffffffffffffffffffffffffff1673ffffffffffffffffffffffffffffffffffffffff1681526020016001820154815260200160028201548152602001600382015481526020016004820160009054906101000a900460ff16151515158152505090503373ffffffffffffffffffffffffffffffffffffffff16816000015173ffffffffffffffffffffffffffffffffffffffff1614610e45576040517f08c379a00000000000000000000000000000000000000000000000000000000081526004018080602001828103825260388152602001806110be6038913960400191505060405180910390fd5b60006002826040015181548110610e5857fe5b906000526020600020906005020160040160006101000a81548160ff02191690831515021790555060036000838152602001908152602001600020600080820160006101000a81549073ffffffffffffffffffffffffffffffffffffffff02191690556001820160009055600282016000905560038201600090556004820160006101000a81549060ff02191690555050610ef36001610fac565b7fd99e4fad9ad6313b1feb588fa8e605e3a9873172f2024330c35dd2b4041a4386338360405180806020018473ffffffffffffffffffffffffffffffffffffffff1673ffffffffffffffffffffffffffffffffffffffff1681526020018381526020018281038252600c8152602001807f52656d6f7665206f666665720000000000000000000000000000000000000000815250602001935050505060405180910390a15050565b6000610fa76001610fe5565b905090565b610fc460018260000154610ff390919063ffffffff16565b816000018190555050565b6001816000016000828254019250508190555050565b600081600001549050919050565b60008282111561106b576040517f08c379a000000000000000000000000000000000000000000000000000000000815260040180806020018281038252601e8152602001807f536166654d6174683a207375627472616374696f6e206f766572666c6f77000081525060200191505060405180910390fd5b818303905092915050565b6040518060a00160405280600073ffffffffffffffffffffffffffffffffffffffff168152602001600081526020016000815260200160008152602001600015158152509056fe596f752073686f756c64206f776e2074686520616c69656e20746f2062652061626c6520746f2072656d6f76652074686973206f6666657254686520707269636520616d6f756e74206d757374206265207468652073616d65206173207468652070726963656f66666572207072696365206d7573742062652067726561746572207468616e2030a26469706673582212207fcd5860390ae8a8d65623c8ec39b8e83ea522bb1f15e1f1e147cb200cf6817e64736f6c63430006020033",
  "source": "// SPDX-License-Identifier: MIT\r\npragma solidity ^0.6.0;\r\n\r\nimport \"./interfaces/IAlienERC721.sol\";\r\nimport \"@openzeppelin/contracts/utils/Counters.sol\";\r\n\r\ncontract AlienMarketPlace{\r\n\r\n  IAlienERC721 public aln721;\r\n  using Counters for Counters.Counter;\r\n  Counters.Counter private activeOffers;\r\n\r\n  struct Offer {\r\n      address payable seller;\r\n      uint256 price;\r\n      uint256 index;\r\n      uint256 tokenId;\r\n      bool active;\r\n  }\r\n  Offer[] offers;\r\n\r\n  mapping (uint256 => Offer) tokenIdToOffer;\r\n\r\n  event MarketTransaction(string TxType, address owner, uint256 tokenId);\r\n\r\n  function totalOffers() public view returns(uint256) {\r\n    return activeOffers.current();\r\n  }\r\n\r\n  function getOffer(uint256 _tokenId)\r\n      public\r\n      view\r\n      returns\r\n  (\r\n    address seller,\r\n    uint256 price,\r\n    uint256 index,\r\n    uint256 tokenId,\r\n    bool active\r\n  ) {\r\n      Offer storage _offer = tokenIdToOffer[_tokenId];\r\n      return (\r\n          _offer.seller,\r\n          _offer.price,\r\n          _offer.index,\r\n          _offer.tokenId,\r\n          _offer.active\r\n      );\r\n  }\r\n\r\n  /** @notice Creates a new offer for _tokenId for the price _price.\r\n  * @param _price the ethereum price in wei\r\n  * @param _tokenId the token ID to set offer for */\r\n  function setOffer(uint256 _price, uint256 _tokenId)\r\n    public\r\n  {\r\n    // only owner can create offer\r\n    require(aln721.ownerOf(_tokenId) == msg.sender, \"only owner can sell tokenId\");\r\n    //There can only be one active offer for a token at a time\r\n    require(tokenIdToOffer[_tokenId].active == false, \"offer already exists\");\r\n    //Marketplace contract (this) needs to be an approved operator when the offer is created\r\n    require(aln721.isApprovedForAll(msg.sender, address(this)), \"contract is not approved\");\r\n    //Offer price must be greater than 0\r\n    require(_price > 0, \"offer price must be greater than 0\");\r\n\r\n    Offer memory _offer = Offer({\r\n        seller: msg.sender,\r\n        price: _price,\r\n        index: offers.length,\r\n        tokenId: _tokenId,\r\n        active: true\r\n    });\r\n    // update state variables\r\n    tokenIdToOffer[_tokenId] = _offer;\r\n    offers.push(_offer);\r\n    // adds 1 to the activeOffers tracker.\r\n    activeOffers.increment();\r\n\r\n    emit MarketTransaction(\"Create offer\", msg.sender, _tokenId);\r\n  }\r\n\r\n  /** @notice removes cat of tokenId from the Adopt Kitties marketplace\r\n  * @param _tokenId the token ID for the cat we remove from marketplace */\r\n  function removeOffer(uint256 _tokenId)\r\n    public\r\n  {\r\n    Offer memory _offer = tokenIdToOffer[_tokenId];\r\n    require(_offer.seller == msg.sender, \"You should own the alien to be able to remove this offer\");\r\n\r\n    //change the offer active status from offers array with index tokenIdToOffer[_tokenId].index\r\n    offers[_offer.index].active = false;\r\n    //now delete it from the mapping\r\n    delete tokenIdToOffer[_tokenId];\r\n\r\n    // substract 1 to the activeOffers tracker.\r\n    activeOffers.decrement();\r\n\r\n    emit MarketTransaction(\"Remove offer\", msg.sender, _tokenId);\r\n  }\r\n\r\n  function buyAlien(uint256 _tokenId)\r\n    public\r\n    payable\r\n  {\r\n    Offer memory _offer = tokenIdToOffer[_tokenId];\r\n    require(msg.value == _offer.price, \"The price amount must be the same as the price\");\r\n    //There must be an active _offer for _tokenId\r\n    require(_offer.active == true, \"no offer is active\");\r\n\r\n    delete tokenIdToOffer[_tokenId];\r\n    offers[_offer.index].active = false;\r\n\r\n    _offer.seller.transfer(_offer.price);\r\n    aln721.transferFrom(_offer.seller, msg.sender, _tokenId);\r\n    // substract 1 to the activeOffers tracker.\r\n    activeOffers.decrement();\r\n\r\n    emit MarketTransaction(\"Buy Alien\", msg.sender, _tokenId);\r\n  }\r\n\r\n\r\n}\r\n",
  "sourcePath": "D:\\github\\cryptoaliens\\solidity\\contracts\\AlienMarketPlace.sol",
  "compiler": {
    "name": "solc",
    "version": "0.6.2+commit.bacdbe57.Emscripten.clang"
  },
  "schemaVersion": "3.2.0",
  "updatedAt": "2021-02-17T01:07:09.627Z",
  "networkType": "ethereum",
  "devdoc": {
    "methods": {
      "removeOffer(uint256)": {
        "params": {
          "_tokenId": "the token ID for the cat we remove from marketplace "
        }
      },
      "setOffer(uint256,uint256)": {
        "params": {
          "_price": "the ethereum price in wei",
          "_tokenId": "the token ID to set offer for "
        }
      }
    }
  },
  "userdoc": {
    "methods": {
      "removeOffer(uint256)": {
        "notice": "removes cat of tokenId from the Adopt Kitties marketplace"
      },
      "setOffer(uint256,uint256)": {
        "notice": "Creates a new offer for _tokenId for the price _price."
      }
    }
  }
}