{
  "contractName": "ERC1820Implementer",
  "abi": [
    {
      "inputs": [
        {
          "internalType": "bytes32",
          "name": "interfaceHash",
          "type": "bytes32"
        },
        {
          "internalType": "address",
          "name": "account",
          "type": "address"
        }
      ],
      "name": "canImplementInterfaceForAddress",
      "outputs": [
        {
          "internalType": "bytes32",
          "name": "",
          "type": "bytes32"
        }
      ],
      "stateMutability": "view",
      "type": "function"
    }
  ],
  "bytecode": "0x608060405234801561001057600080fd5b50610184806100206000396000f3fe608060405234801561001057600080fd5b506004361061002b5760003560e01c8063249cb3fa14610030575b600080fd5b61007c6004803603604081101561004657600080fd5b8101908080359060200190929190803573ffffffffffffffffffffffffffffffffffffffff169060200190929190505050610092565b6040518082815260200191505060405180910390f35b600080600084815260200190815260200160002060008373ffffffffffffffffffffffffffffffffffffffff1673ffffffffffffffffffffffffffffffffffffffff16815260200190815260200160002060009054906101000a900460ff166100fe576000801b610146565b60405160200180807f455243313832305f4143434550545f4d414749430000000000000000000000008152506014019050604051602081830303815290604052805190602001205b90509291505056fea26469706673582212201578b41cc49b145937e482a269ed364ed699d046a98eb0e5081b2b56accebe5864736f6c63430006020033",
  "source": "// SPDX-License-Identifier: MIT\r\n\r\npragma solidity ^0.6.0;\r\n\r\nimport \"./IERC1820Implementer.sol\";\r\n\r\n/**\r\n * @dev Implementation of the {IERC1820Implementer} interface.\r\n *\r\n * Contracts may inherit from this and call {_registerInterfaceForAddress} to\r\n * declare their willingness to be implementers.\r\n * {IERC1820Registry-setInterfaceImplementer} should then be called for the\r\n * registration to be complete.\r\n */\r\ncontract ERC1820Implementer is IERC1820Implementer {\r\n    bytes32 constant private _ERC1820_ACCEPT_MAGIC = keccak256(abi.encodePacked(\"ERC1820_ACCEPT_MAGIC\"));\r\n\r\n    mapping(bytes32 => mapping(address => bool)) private _supportedInterfaces;\r\n\r\n    /**\r\n     * See {IERC1820Implementer-canImplementInterfaceForAddress}.\r\n     */\r\n    function canImplementInterfaceForAddress(bytes32 interfaceHash, address account) public view override returns (bytes32) {\r\n        return _supportedInterfaces[interfaceHash][account] ? _ERC1820_ACCEPT_MAGIC : bytes32(0x00);\r\n    }\r\n\r\n    /**\r\n     * @dev Declares the contract as willing to be an implementer of\r\n     * `interfaceHash` for `account`.\r\n     *\r\n     * See {IERC1820Registry-setInterfaceImplementer} and\r\n     * {IERC1820Registry-interfaceHash}.\r\n     */\r\n    function _registerInterfaceForAddress(bytes32 interfaceHash, address account) internal virtual {\r\n        _supportedInterfaces[interfaceHash][account] = true;\r\n    }\r\n}\r\n",
  "sourcePath": "C:/GitHub/cryptoaliens/solidity/contracts/@openzeppelin/contracts/introspection/ERC1820Implementer.sol",
  "compiler": {
    "name": "solc",
    "version": "0.6.2+commit.bacdbe57.Emscripten.clang"
  },
  "schemaVersion": "3.3.2",
  "updatedAt": "2021-02-11T02:58:32.792Z",
  "devdoc": {
    "details": "Implementation of the {IERC1820Implementer} interface.  * Contracts may inherit from this and call {_registerInterfaceForAddress} to declare their willingness to be implementers. {IERC1820Registry-setInterfaceImplementer} should then be called for the registration to be complete.",
    "methods": {}
  },
  "userdoc": {
    "methods": {
      "canImplementInterfaceForAddress(bytes32,address)": {
        "notice": "See {IERC1820Implementer-canImplementInterfaceForAddress}."
      }
    }
  }
}