{
  "contractName": "TokenRecover",
  "abi": [
    {
      "anonymous": false,
      "inputs": [
        {
          "indexed": true,
          "internalType": "address",
          "name": "previousOwner",
          "type": "address"
        },
        {
          "indexed": true,
          "internalType": "address",
          "name": "newOwner",
          "type": "address"
        }
      ],
      "name": "OwnershipTransferred",
      "type": "event"
    },
    {
      "inputs": [],
      "name": "owner",
      "outputs": [
        {
          "internalType": "address",
          "name": "",
          "type": "address"
        }
      ],
      "stateMutability": "view",
      "type": "function"
    },
    {
      "inputs": [],
      "name": "renounceOwnership",
      "outputs": [],
      "stateMutability": "nonpayable",
      "type": "function"
    },
    {
      "inputs": [
        {
          "internalType": "address",
          "name": "newOwner",
          "type": "address"
        }
      ],
      "name": "transferOwnership",
      "outputs": [],
      "stateMutability": "nonpayable",
      "type": "function"
    },
    {
      "inputs": [
        {
          "internalType": "address",
          "name": "tokenAddress",
          "type": "address"
        },
        {
          "internalType": "uint256",
          "name": "tokenAmount",
          "type": "uint256"
        }
      ],
      "name": "recoverERC20",
      "outputs": [],
      "stateMutability": "nonpayable",
      "type": "function"
    }
  ],
  "bytecode": "0x608060405260006100146100b760201b60201c565b9050806000806101000a81548173ffffffffffffffffffffffffffffffffffffffff021916908373ffffffffffffffffffffffffffffffffffffffff1602179055508073ffffffffffffffffffffffffffffffffffffffff16600073ffffffffffffffffffffffffffffffffffffffff167f8be0079c531659141344cd1fd0a4f28419497f9722a3daafe3b4186f6b6457e060405160405180910390a3506100bf565b600033905090565b6106f0806100ce6000396000f3fe608060405234801561001057600080fd5b506004361061004c5760003560e01c8063715018a6146100515780638980f11f1461005b5780638da5cb5b146100a9578063f2fde38b146100f3575b600080fd5b610059610137565b005b6100a76004803603604081101561007157600080fd5b81019080803573ffffffffffffffffffffffffffffffffffffffff169060200190929190803590602001909291905050506102bf565b005b6100b1610456565b604051808273ffffffffffffffffffffffffffffffffffffffff1673ffffffffffffffffffffffffffffffffffffffff16815260200191505060405180910390f35b6101356004803603602081101561010957600080fd5b81019080803573ffffffffffffffffffffffffffffffffffffffff16906020019092919050505061047f565b005b61013f61068c565b73ffffffffffffffffffffffffffffffffffffffff166000809054906101000a900473ffffffffffffffffffffffffffffffffffffffff1673ffffffffffffffffffffffffffffffffffffffff1614610200576040517f08c379a00000000000000000000000000000000000000000000000000000000081526004018080602001828103825260208152602001807f4f776e61626c653a2063616c6c6572206973206e6f7420746865206f776e657281525060200191505060405180910390fd5b600073ffffffffffffffffffffffffffffffffffffffff166000809054906101000a900473ffffffffffffffffffffffffffffffffffffffff1673ffffffffffffffffffffffffffffffffffffffff167f8be0079c531659141344cd1fd0a4f28419497f9722a3daafe3b4186f6b6457e060405160405180910390a360008060006101000a81548173ffffffffffffffffffffffffffffffffffffffff021916908373ffffffffffffffffffffffffffffffffffffffff160217905550565b6102c761068c565b73ffffffffffffffffffffffffffffffffffffffff166000809054906101000a900473ffffffffffffffffffffffffffffffffffffffff1673ffffffffffffffffffffffffffffffffffffffff1614610388576040517f08c379a00000000000000000000000000000000000000000000000000000000081526004018080602001828103825260208152602001807f4f776e61626c653a2063616c6c6572206973206e6f7420746865206f776e657281525060200191505060405180910390fd5b8173ffffffffffffffffffffffffffffffffffffffff1663a9059cbb6103ac610456565b836040518363ffffffff1660e01b8152600401808373ffffffffffffffffffffffffffffffffffffffff1673ffffffffffffffffffffffffffffffffffffffff16815260200182815260200192505050602060405180830381600087803b15801561041657600080fd5b505af115801561042a573d6000803e3d6000fd5b505050506040513d602081101561044057600080fd5b8101908080519060200190929190505050505050565b60008060009054906101000a900473ffffffffffffffffffffffffffffffffffffffff16905090565b61048761068c565b73ffffffffffffffffffffffffffffffffffffffff166000809054906101000a900473ffffffffffffffffffffffffffffffffffffffff1673ffffffffffffffffffffffffffffffffffffffff1614610548576040517f08c379a00000000000000000000000000000000000000000000000000000000081526004018080602001828103825260208152602001807f4f776e61626c653a2063616c6c6572206973206e6f7420746865206f776e657281525060200191505060405180910390fd5b600073ffffffffffffffffffffffffffffffffffffffff168173ffffffffffffffffffffffffffffffffffffffff1614156105ce576040517f08c379a00000000000000000000000000000000000000000000000000000000081526004018080602001828103825260268152602001806106956026913960400191505060405180910390fd5b8073ffffffffffffffffffffffffffffffffffffffff166000809054906101000a900473ffffffffffffffffffffffffffffffffffffffff1673ffffffffffffffffffffffffffffffffffffffff167f8be0079c531659141344cd1fd0a4f28419497f9722a3daafe3b4186f6b6457e060405160405180910390a3806000806101000a81548173ffffffffffffffffffffffffffffffffffffffff021916908373ffffffffffffffffffffffffffffffffffffffff16021790555050565b60003390509056fe4f776e61626c653a206e6577206f776e657220697320746865207a65726f2061646472657373a26469706673582212208191d405203d72b910d034908256f02f69bf90b7c1643d8413c6c403eea75f4c64736f6c63430006020033",
  "source": "pragma solidity ^0.6.0;\r\n\r\nimport \"./@openzeppelin/contracts/token/ERC721/ERC721.sol\";\r\nimport \"./@openzeppelin/contracts/token/ERC721/ERC721Burnable.sol\";\r\nimport \"./@openzeppelin/contracts/token/ERC721/IERC721.sol\";\r\nimport \"./@openzeppelin/contracts/presets/ERC721PresetMinterPauserAutoId.sol\";\r\nimport \"./@openzeppelin/contracts/token/ERC1155/IERC1155.sol\";\r\nimport \"./@openzeppelin/contracts/token/ERC1155/ERC1155Holder.sol\";\r\nimport \"./@openzeppelin/contracts/utils/Counters.sol\";\r\nimport \"./@openzeppelin/contracts/access/Ownable.sol\";\r\nimport \"./@openzeppelin/contracts/token/ERC20/IERC20.sol\";\r\n\r\nimport \"./interfaces/IAlienToken.sol\";\r\n//import \"./@openzeppelin/contracts/utils/EnumerableMap.sol\";\r\n// SPDX-License-Identifier: MIT\r\n\r\ncontract TokenRecover is Ownable {\r\n    /**\r\n     * @dev Remember that only owner can call so be careful when use on contracts generated from other contracts.\r\n     * @param tokenAddress The token contract address\r\n     * @param tokenAmount Number of tokens to be sent\r\n     */\r\n    function recoverERC20(address tokenAddress, uint256 tokenAmount)\r\n        public\r\n        onlyOwner\r\n    {\r\n        IERC20(tokenAddress).transfer(owner(), tokenAmount);\r\n    }\r\n}\r\n\r\n\r\n\r\n//ERC721\r\ncontract AlienERC721 is\r\n  Ownable,\r\n  ERC721PresetMinterPauserAutoId,\r\n  TokenRecover,\r\n  ERC1155Holder\r\n{\r\n  bytes32 public constant OPERATOR_ROLE = keccak256(\"OPERATOR_ROLE\");\r\n  IAlienToken public aln;\r\n\r\n  using Counters for Counters.Counter;\r\n  Counters.Counter private _tokenIds;\r\n  Counters.Counter private _itemIds;\r\n\r\n  bool public gameStopped = false;\r\n\r\n  struct AlienObj {\r\n    uint256 genes;\r\n    uint32 mumId;\r\n    uint32 dadId;\r\n    uint16 generation;\r\n  }\r\n\r\n  // Mapping from token ID to NFT struct details\r\n  mapping(uint256 => AlienObj) public alienDetails;\r\n  // Alien Time properties\r\n  mapping(uint256 => uint256) public timeUntilStarving;\r\n  mapping(uint256 => uint256) public timeAlienBorn;\r\n\r\n  // items/benefits for the Alien could be anything in the future.\r\n  mapping(uint256 => uint256) public itemPrice;\r\n  mapping(uint256 => uint256) public itemPoints;\r\n  mapping(uint256 => string) public itemName;\r\n  mapping(uint256 => uint256) public itemTimeExtension;\r\n\r\n\r\n  constructor(address _AlienToken) public ERC721PresetMinterPauserAutoId(\r\n    \"AlienNFT\",\r\n     \"ALNFT\",\r\n     \"http:localhost/\"\r\n     ) {\r\n    _setupRole(OPERATOR_ROLE, _msgSender());\r\n    aln = IAlienToken(_AlienToken);\r\n    // We are creating the first alien at index 0\r\n    _createtAlien(0, 0, 0, uint16(-1), address(0));\r\n  }\r\n\r\n  event AlienMinted(\r\n    address owner,\r\n    uint256 alienId,\r\n    uint32 mumId,\r\n    uint32 dadId,\r\n    uint256 genes\r\n  );\r\n  event ItemCreated(\r\n    uint256 id,\r\n    string name,\r\n    uint256 price,\r\n    uint256 points\r\n  );\r\n\r\n  modifier notPaused() {\r\n      require(!gameStopped, \"Contract is paused\");\r\n      _;\r\n  }\r\n\r\n  modifier onlyOperator() {\r\n      require(\r\n          hasRole(OPERATOR_ROLE, _msgSender()),\r\n          \"Roles: caller does not have the OPERATOR role\"\r\n      );\r\n      _;\r\n  }\r\n\r\n  modifier onlyMinter() {\r\n      require(\r\n          hasRole(MINTER_ROLE, _msgSender()),\r\n          \"Roles: caller does not have the MINTER role\"\r\n      );\r\n      _;\r\n  }\r\n\r\n  function _createtAlien(\r\n      uint256 _genes,\r\n      uint32 _mumId,\r\n      uint32 _dadId,\r\n      uint16 _generation,\r\n      address _owner\r\n      ) internal returns (uint256) {\r\n\r\n      alienDetails[_tokenIds.current()] = AlienObj(\r\n        uint256(_genes),\r\n        uint32(_mumId),\r\n        uint32(_dadId),\r\n        uint16(_generation)\r\n      );\r\n      mint(_owner);\r\n\r\n      // It's probably never going to happen, 4 billion cats is A LOT, but\r\n      // let's just be 100% sure we never let this happen.\r\n      require(_tokenIds.current() == uint256(uint32(_tokenIds.current())));\r\n\r\n      if(_owner != owner()){\r\n          transferFrom(address(0), _owner, _tokenIds.current());\r\n      }\r\n\r\n      emit AlienMinted(_owner, _tokenIds.current(), _mumId, _dadId, _genes);\r\n      return _tokenIds.current();\r\n    }\r\n\r\n  function mint(address player) public override onlyMinter{\r\n    //pet minted has 7 days until it starves at first\r\n    timeUntilStarving[_tokenIds.current()] = block.timestamp.add(7 days);\r\n    timeAlienBorn[_tokenIds.current()] = block.timestamp;\r\n\r\n    super._mint(player, _tokenIds.current());\r\n    _tokenIds.increment();\r\n  }\r\n\r\n  // in case a bug happens or we upgrade to another smart contract\r\n  function pauseGame(bool _pause) external onlyOperator {\r\n      gameStopped = _pause;\r\n  }\r\n\r\n\r\n\r\n  function itemExists(uint256 itemId) public view returns (bool) {\r\n      if (bytes(itemName[itemId]).length > 0) {\r\n          return true;\r\n      }\r\n  }\r\n  // check that Alien didn't starve\r\n  function isAlienAlive(uint256 _nftId) public view returns (bool) {\r\n    uint256 _timeUntilStarving = timeUntilStarving[_nftId];\r\n    if (_timeUntilStarving != 0 && _timeUntilStarving >= block.timestamp) {\r\n      return true;\r\n    }\r\n  }\r\n\r\n  function getItemInfo(uint256 _itemId)\r\n      public\r\n      view\r\n      returns (\r\n          string memory _name,\r\n          uint256 _price,\r\n          uint256 _points,\r\n          uint256 _timeExtension\r\n      )\r\n  {\r\n      _name = itemName[_itemId];\r\n      _price = itemPrice[_itemId];\r\n      _timeExtension = itemTimeExtension[_itemId];\r\n      _points = itemPoints[_itemId];\r\n  }\r\n  // edit specific item in case token goes up in value and the price for items gets to expensive for normal users.\r\n  function editItem(\r\n      uint256 _id,\r\n      uint256 _price,\r\n      uint256 _points,\r\n      string calldata _name,\r\n      uint256 _timeExtension\r\n  ) external onlyOperator {\r\n      itemPrice[_id] = _price;\r\n      itemPoints[_id] = _points;\r\n      itemName[_id] = _name;\r\n      itemTimeExtension[_id] = _timeExtension;\r\n  }\r\n\r\n  function getAlien(uint256 _nftId) public view returns(\r\n    uint256 _genes,\r\n    uint256 _timeAlienBorn,\r\n    uint256 _mumId,\r\n    uint256 _dadId,\r\n    uint256 _generation\r\n    ){\r\n      AlienObj storage alien = alienDetails[_nftId];\r\n\r\n      require(timeAlienBorn[_tokenIds.current()] > 0, \"the alien doesn't exist\");\r\n\r\n      _genes = uint256(alien.genes);\r\n      _timeAlienBorn = uint256(timeAlienBorn[_tokenIds.current()]);\r\n      _mumId = uint256(alien.mumId);\r\n      _dadId = uint256(alien.dadId);\r\n      _generation = uint256(alien.generation);\r\n  }\r\n\r\n  function createtAlien(\r\n      uint256 _genes,\r\n      uint32 _mumId,\r\n      uint32 _dadId,\r\n      uint16 _generation,\r\n      address _owner\r\n      ) external {\r\n        _createtAlien(_genes, _mumId, _dadId, _generation, _owner);\r\n  }\r\n  function isApprovedOwner(address _owner, uint256 _nftId) public view returns (bool){\r\n    return _isApprovedOrOwner(_owner, _nftId);\r\n  }\r\n  function editCurves(\r\n    uint256 _la,\r\n    uint256 _lb,\r\n    uint256 _ra,\r\n    uint256 _rb\r\n    ) external onlyOperator {\r\n      la = _la;\r\n      lb = _lb;\r\n      ra = _ra;\r\n      rb = _rb;\r\n  }\r\n  uint256 la = 2;\r\n  uint256 lb = 2;\r\n  uint256 ra = 6;\r\n  uint256 rb = 7;\r\n\r\n}\r\n",
  "sourcePath": "D:\\IOTT\\cryptoaliens\\solidity\\contracts\\AlienERC721.sol",
  "compiler": {
    "name": "solc",
    "version": "0.6.2+commit.bacdbe57.Emscripten.clang"
  },
  "schemaVersion": "3.2.0",
  "updatedAt": "2020-11-27T21:39:00.686Z",
  "devdoc": {
    "methods": {
      "owner()": {
        "details": "Returns the address of the current owner."
      },
      "recoverERC20(address,uint256)": {
        "details": "Remember that only owner can call so be careful when use on contracts generated from other contracts.",
        "params": {
          "tokenAddress": "The token contract address",
          "tokenAmount": "Number of tokens to be sent"
        }
      },
      "renounceOwnership()": {
        "details": "Leaves the contract without owner. It will not be possible to call `onlyOwner` functions anymore. Can only be called by the current owner.     * NOTE: Renouncing ownership will leave the contract without an owner, thereby removing any functionality that is only available to the owner."
      },
      "transferOwnership(address)": {
        "details": "Transfers ownership of the contract to a new account (`newOwner`). Can only be called by the current owner."
      }
    }
  },
  "userdoc": {
    "methods": {}
  }
}