{
  "_format": "hh-sol-artifact-1",
  "contractName": "AlienOwnership",
  "sourceName": "contracts/AlienOwnership.sol",
  "abi": [
    {
      "inputs": [],
      "stateMutability": "nonpayable",
      "type": "constructor"
    },
    {
      "anonymous": false,
      "inputs": [
        {
          "indexed": false,
          "internalType": "address",
          "name": "owner",
          "type": "address"
        },
        {
          "indexed": false,
          "internalType": "uint256",
          "name": "tokenId",
          "type": "uint256"
        }
      ],
      "name": "AlienDestroyed",
      "type": "event"
    },
    {
      "anonymous": false,
      "inputs": [
        {
          "indexed": false,
          "internalType": "address",
          "name": "owner",
          "type": "address"
        },
        {
          "indexed": false,
          "internalType": "uint256",
          "name": "tokenId",
          "type": "uint256"
        },
        {
          "indexed": false,
          "internalType": "uint256",
          "name": "mumId",
          "type": "uint256"
        },
        {
          "indexed": false,
          "internalType": "uint256",
          "name": "dadId",
          "type": "uint256"
        },
        {
          "indexed": false,
          "internalType": "uint256",
          "name": "genes",
          "type": "uint256"
        }
      ],
      "name": "AlienMinted",
      "type": "event"
    },
    {
      "anonymous": false,
      "inputs": [
        {
          "indexed": true,
          "internalType": "address",
          "name": "owner",
          "type": "address"
        },
        {
          "indexed": true,
          "internalType": "address",
          "name": "approved",
          "type": "address"
        },
        {
          "indexed": true,
          "internalType": "uint256",
          "name": "tokenId",
          "type": "uint256"
        }
      ],
      "name": "Approval",
      "type": "event"
    },
    {
      "anonymous": false,
      "inputs": [
        {
          "indexed": true,
          "internalType": "address",
          "name": "owner",
          "type": "address"
        },
        {
          "indexed": true,
          "internalType": "address",
          "name": "operator",
          "type": "address"
        },
        {
          "indexed": false,
          "internalType": "bool",
          "name": "approved",
          "type": "bool"
        }
      ],
      "name": "ApprovalForAll",
      "type": "event"
    },
    {
      "anonymous": false,
      "inputs": [
        {
          "indexed": true,
          "internalType": "address",
          "name": "previousOwner",
          "type": "address"
        },
        {
          "indexed": true,
          "internalType": "address",
          "name": "newOwner",
          "type": "address"
        }
      ],
      "name": "OwnershipTransferred",
      "type": "event"
    },
    {
      "anonymous": false,
      "inputs": [
        {
          "indexed": true,
          "internalType": "address",
          "name": "from",
          "type": "address"
        },
        {
          "indexed": true,
          "internalType": "address",
          "name": "to",
          "type": "address"
        },
        {
          "indexed": true,
          "internalType": "uint256",
          "name": "tokenId",
          "type": "uint256"
        }
      ],
      "name": "Transfer",
      "type": "event"
    },
    {
      "inputs": [
        {
          "internalType": "address",
          "name": "to",
          "type": "address"
        },
        {
          "internalType": "uint256",
          "name": "tokenId",
          "type": "uint256"
        }
      ],
      "name": "approve",
      "outputs": [],
      "stateMutability": "nonpayable",
      "type": "function"
    },
    {
      "inputs": [
        {
          "internalType": "address",
          "name": "owner",
          "type": "address"
        }
      ],
      "name": "balanceOf",
      "outputs": [
        {
          "internalType": "uint256",
          "name": "",
          "type": "uint256"
        }
      ],
      "stateMutability": "view",
      "type": "function"
    },
    {
      "inputs": [
        {
          "internalType": "uint256",
          "name": "tokenId",
          "type": "uint256"
        }
      ],
      "name": "burn",
      "outputs": [],
      "stateMutability": "nonpayable",
      "type": "function"
    },
    {
      "inputs": [
        {
          "internalType": "uint256",
          "name": "_genes",
          "type": "uint256"
        },
        {
          "internalType": "uint256",
          "name": "_mumId",
          "type": "uint256"
        },
        {
          "internalType": "uint256",
          "name": "_dadId",
          "type": "uint256"
        },
        {
          "internalType": "uint256",
          "name": "_generation",
          "type": "uint256"
        },
        {
          "internalType": "address",
          "name": "_owner",
          "type": "address"
        }
      ],
      "name": "createAlien",
      "outputs": [
        {
          "internalType": "uint256",
          "name": "",
          "type": "uint256"
        }
      ],
      "stateMutability": "nonpayable",
      "type": "function"
    },
    {
      "inputs": [
        {
          "internalType": "uint256",
          "name": "tokenId",
          "type": "uint256"
        }
      ],
      "name": "getAlien",
      "outputs": [
        {
          "internalType": "uint256",
          "name": "_genes",
          "type": "uint256"
        },
        {
          "internalType": "uint64",
          "name": "_birthTime",
          "type": "uint64"
        },
        {
          "internalType": "uint32",
          "name": "_mumId",
          "type": "uint32"
        },
        {
          "internalType": "uint32",
          "name": "_dadId",
          "type": "uint32"
        },
        {
          "internalType": "uint16",
          "name": "_generation",
          "type": "uint16"
        }
      ],
      "stateMutability": "view",
      "type": "function"
    },
    {
      "inputs": [
        {
          "internalType": "address",
          "name": "_owner",
          "type": "address"
        }
      ],
      "name": "getAllAliens",
      "outputs": [
        {
          "internalType": "uint256[]",
          "name": "",
          "type": "uint256[]"
        }
      ],
      "stateMutability": "view",
      "type": "function"
    },
    {
      "inputs": [
        {
          "internalType": "uint256",
          "name": "tokenId",
          "type": "uint256"
        }
      ],
      "name": "getApproved",
      "outputs": [
        {
          "internalType": "address",
          "name": "",
          "type": "address"
        }
      ],
      "stateMutability": "view",
      "type": "function"
    },
    {
      "inputs": [
        {
          "internalType": "address",
          "name": "owner",
          "type": "address"
        },
        {
          "internalType": "address",
          "name": "operator",
          "type": "address"
        }
      ],
      "name": "isApprovedForAll",
      "outputs": [
        {
          "internalType": "bool",
          "name": "",
          "type": "bool"
        }
      ],
      "stateMutability": "view",
      "type": "function"
    },
    {
      "inputs": [
        {
          "internalType": "address",
          "name": "_owner",
          "type": "address"
        },
        {
          "internalType": "uint256",
          "name": "tokenId",
          "type": "uint256"
        }
      ],
      "name": "isApprovedOwner",
      "outputs": [
        {
          "internalType": "bool",
          "name": "",
          "type": "bool"
        }
      ],
      "stateMutability": "view",
      "type": "function"
    },
    {
      "inputs": [],
      "name": "name",
      "outputs": [
        {
          "internalType": "string",
          "name": "",
          "type": "string"
        }
      ],
      "stateMutability": "view",
      "type": "function"
    },
    {
      "inputs": [],
      "name": "owner",
      "outputs": [
        {
          "internalType": "address",
          "name": "",
          "type": "address"
        }
      ],
      "stateMutability": "view",
      "type": "function"
    },
    {
      "inputs": [
        {
          "internalType": "uint256",
          "name": "tokenId",
          "type": "uint256"
        }
      ],
      "name": "ownerOf",
      "outputs": [
        {
          "internalType": "address",
          "name": "",
          "type": "address"
        }
      ],
      "stateMutability": "view",
      "type": "function"
    },
    {
      "inputs": [],
      "name": "renounceOwnership",
      "outputs": [],
      "stateMutability": "nonpayable",
      "type": "function"
    },
    {
      "inputs": [
        {
          "internalType": "address",
          "name": "from",
          "type": "address"
        },
        {
          "internalType": "address",
          "name": "to",
          "type": "address"
        },
        {
          "internalType": "uint256",
          "name": "tokenId",
          "type": "uint256"
        }
      ],
      "name": "safeTransferFrom",
      "outputs": [],
      "stateMutability": "nonpayable",
      "type": "function"
    },
    {
      "inputs": [
        {
          "internalType": "address",
          "name": "from",
          "type": "address"
        },
        {
          "internalType": "address",
          "name": "to",
          "type": "address"
        },
        {
          "internalType": "uint256",
          "name": "tokenId",
          "type": "uint256"
        },
        {
          "internalType": "bytes",
          "name": "_data",
          "type": "bytes"
        }
      ],
      "name": "safeTransferFrom",
      "outputs": [],
      "stateMutability": "nonpayable",
      "type": "function"
    },
    {
      "inputs": [
        {
          "internalType": "address",
          "name": "operator",
          "type": "address"
        },
        {
          "internalType": "bool",
          "name": "approved",
          "type": "bool"
        }
      ],
      "name": "setApprovalForAll",
      "outputs": [],
      "stateMutability": "nonpayable",
      "type": "function"
    },
    {
      "inputs": [
        {
          "internalType": "bytes4",
          "name": "interfaceId",
          "type": "bytes4"
        }
      ],
      "name": "supportsInterface",
      "outputs": [
        {
          "internalType": "bool",
          "name": "",
          "type": "bool"
        }
      ],
      "stateMutability": "view",
      "type": "function"
    },
    {
      "inputs": [],
      "name": "symbol",
      "outputs": [
        {
          "internalType": "string",
          "name": "",
          "type": "string"
        }
      ],
      "stateMutability": "view",
      "type": "function"
    },
    {
      "inputs": [
        {
          "internalType": "uint256",
          "name": "tokenId",
          "type": "uint256"
        }
      ],
      "name": "tokenURI",
      "outputs": [
        {
          "internalType": "string",
          "name": "",
          "type": "string"
        }
      ],
      "stateMutability": "view",
      "type": "function"
    },
    {
      "inputs": [],
      "name": "totalSupply",
      "outputs": [
        {
          "internalType": "uint256",
          "name": "",
          "type": "uint256"
        }
      ],
      "stateMutability": "view",
      "type": "function"
    },
    {
      "inputs": [
        {
          "internalType": "address",
          "name": "_from",
          "type": "address"
        },
        {
          "internalType": "address",
          "name": "_to",
          "type": "address"
        },
        {
          "internalType": "uint256",
          "name": "_tokenId",
          "type": "uint256"
        }
      ],
      "name": "transfer",
      "outputs": [],
      "stateMutability": "nonpayable",
      "type": "function"
    },
    {
      "inputs": [
        {
          "internalType": "address",
          "name": "from",
          "type": "address"
        },
        {
          "internalType": "address",
          "name": "to",
          "type": "address"
        },
        {
          "internalType": "uint256",
          "name": "tokenId",
          "type": "uint256"
        }
      ],
      "name": "transferFrom",
      "outputs": [],
      "stateMutability": "nonpayable",
      "type": "function"
    },
    {
      "inputs": [
        {
          "internalType": "address",
          "name": "newOwner",
          "type": "address"
        }
      ],
      "name": "transferOwnership",
      "outputs": [],
      "stateMutability": "nonpayable",
      "type": "function"
    }
  ],
  "bytecode": "0x60806040523480156200001157600080fd5b506040518060400160405280600c81526020016b43727970746f416c69656e7360a01b8152506040518060400160405280600581526020016420a624a2a760d91b815250600062000067620000e560201b60201c565b600080546001600160a01b0319166001600160a01b0383169081178255604051929350917f8be0079c531659141344cd1fd0a4f28419497f9722a3daafe3b4186f6b6457e0908290a3508151620000c6906001906020850190620000e9565b508051620000dc906002906020840190620000e9565b505050620001cc565b3390565b828054620000f7906200018f565b90600052602060002090601f0160209004810192826200011b576000855562000166565b82601f106200013657805160ff191683800117855562000166565b8280016001018555821562000166579182015b828111156200016657825182559160200191906001019062000149565b506200017492915062000178565b5090565b5b8082111562000174576000815560010162000179565b600181811c90821680620001a457607f821691505b60208210811415620001c657634e487b7160e01b600052602260045260246000fd5b50919050565b611f2080620001dc6000396000f3fe608060405234801561001057600080fd5b506004361061014d5760003560e01c806370a08231116100c3578063ba2692711161007c578063ba269271146102ba578063beabacc81461030b578063c87b56dd1461031e578063e985e9c514610331578063f2fde38b1461036d578063f8ef871c146103805761014d565b806370a0823114610260578063715018a6146102735780638da5cb5b1461027b57806395d89b411461028c578063a22cb46514610294578063b88d4fde146102a75761014d565b806318160ddd1161011557806318160ddd146101ef57806323b872dd146102015780632f782dda1461021457806342842e0e1461022757806342966c681461023a5780636352211e1461024d5761014d565b806301ffc9a71461015257806306fdde031461017a578063081812fc1461018f578063095ea7b3146101ba5780630c5318e7146101cf575b600080fd5b610165610160366004611b75565b610393565b60405190151581526020015b60405180910390f35b6101826103e7565b6040516101719190611ce9565b6101a261019d366004611bad565b610479565b6040516001600160a01b039091168152602001610171565b6101cd6101c8366004611b4c565b610513565b005b6101e26101dd3660046119b6565b610629565b6040516101719190611ca5565b6007545b604051908152602001610171565b6101cd61020f366004611a02565b610786565b6101f3610222366004611bc5565b6107b8565b6101cd610235366004611a02565b6107d3565b6101cd610248366004611bad565b6107ee565b6101a261025b366004611bad565b6108f5565b6101f361026e3660046119b6565b61096c565b6101cd6109f3565b6000546001600160a01b03166101a2565b610182610a97565b6101cd6102a2366004611b12565b610aa6565b6101cd6102b5366004611a3d565b610b78565b6102cd6102c8366004611bad565b610bb0565b6040805195865267ffffffffffffffff909416602086015263ffffffff9283169385019390935216606083015261ffff16608082015260a001610171565b6101cd610319366004611a02565b610cb4565b61018261032c366004611bad565b610e10565b61016561033f3660046119d0565b6001600160a01b03918216600090815260066020908152604080832093909416825291909152205460ff1690565b6101cd61037b3660046119b6565b610ef8565b61016561038e366004611b4c565b611012565b60006001600160e01b031982166380ac58cd60e01b14806103c457506001600160e01b03198216635b5e139f60e01b145b806103df57506301ffc9a760e01b6001600160e01b03198316145b90505b919050565b6060600180546103f690611e25565b80601f016020809104026020016040519081016040528092919081815260200182805461042290611e25565b801561046f5780601f106104445761010080835404028352916020019161046f565b820191906000526020600020905b81548152906001019060200180831161045257829003601f168201915b5050505050905090565b6000818152600360205260408120546001600160a01b03166104f75760405162461bcd60e51b815260206004820152602c60248201527f4552433732313a20617070726f76656420717565727920666f72206e6f6e657860448201526b34b9ba32b73a103a37b5b2b760a11b60648201526084015b60405180910390fd5b506000908152600560205260409020546001600160a01b031690565b600061051e826108f5565b9050806001600160a01b0316836001600160a01b0316141561058c5760405162461bcd60e51b815260206004820152602160248201527f4552433732313a20617070726f76616c20746f2063757272656e74206f776e656044820152603960f91b60648201526084016104ee565b336001600160a01b03821614806105a857506105a8813361033f565b61061a5760405162461bcd60e51b815260206004820152603860248201527f4552433732313a20617070726f76652063616c6c6572206973206e6f74206f7760448201527f6e6572206e6f7220617070726f76656420666f7220616c6c000000000000000060648201526084016104ee565b610624838361101e565b505050565b60606001600160a01b0382166106815760405162461bcd60e51b815260206004820181905260248201527f546f6b656e20717565727920666f7220746865207a65726f206164647265737360448201526064016104ee565b600061068c8361096c565b9050806106a95750506040805160008152602081019091526103e2565b60008167ffffffffffffffff8111156106d257634e487b7160e01b600052604160045260246000fd5b6040519080825280602002602001820160405280156106fb578160200160208202803683370190505b506007549091506000805b82811161077b576000818152600960205260409020546001600160a01b0388811691161415610769578084838151811061075057634e487b7160e01b600052603260045260246000fd5b60209081029190910101528161076581611e60565b9250505b8061077381611e60565b915050610706565b509195945050505050565b610791335b8261108c565b6107ad5760405162461bcd60e51b81526004016104ee90611d4e565b610624838383611183565b6000806107c88787878787611323565b979650505050505050565b61062483838360405180602001604052806000815250610b78565b6107f73361078b565b61085c5760405162461bcd60e51b815260206004820152603060248201527f4552433732314275726e61626c653a2063616c6c6572206973206e6f74206f7760448201526f1b995c881b9bdc88185c1c1c9bdd995960821b60648201526084016104ee565b610865816114fe565b6007818154811061088657634e487b7160e01b600052603260045260246000fd5b600091825260208083206002929092029091019182556001909101805471ffffffffffffffffffffffffffffffffffff19169055604080513381529182018390527f375de7ebcf7d9aedaeea87f94fccc860c3e5afbe038d8a9567ed76e1861c3694910160405180910390a150565b6000818152600360205260408120546001600160a01b0316806103df5760405162461bcd60e51b815260206004820152602960248201527f4552433732313a206f776e657220717565727920666f72206e6f6e657869737460448201526832b73a103a37b5b2b760b91b60648201526084016104ee565b60006001600160a01b0382166109d75760405162461bcd60e51b815260206004820152602a60248201527f4552433732313a2062616c616e636520717565727920666f7220746865207a65604482015269726f206164647265737360b01b60648201526084016104ee565b506001600160a01b031660009081526004602052604090205490565b6000546001600160a01b03163314610a4d5760405162461bcd60e51b815260206004820181905260248201527f4f776e61626c653a2063616c6c6572206973206e6f7420746865206f776e657260448201526064016104ee565b600080546040516001600160a01b03909116907f8be0079c531659141344cd1fd0a4f28419497f9722a3daafe3b4186f6b6457e0908390a3600080546001600160a01b0319169055565b6060600280546103f690611e25565b6001600160a01b038216331415610aff5760405162461bcd60e51b815260206004820152601960248201527f4552433732313a20617070726f766520746f2063616c6c65720000000000000060448201526064016104ee565b3360008181526006602090815260408083206001600160a01b0387168085529252909120805460ff1916841515179055906001600160a01b03167f17307eab39ab6107e8899845ad3d59bd9653f200f220920489ca2b5937696c3183604051610b6c911515815260200190565b60405180910390a35050565b610b82338361108c565b610b9e5760405162461bcd60e51b81526004016104ee90611d4e565b610baa84848484611599565b50505050565b6000806000806000600780549050861115610c0d5760405162461bcd60e51b815260206004820152601960248201527f4964206f757473696465206f6620746f74616c537570706c790000000000000060448201526064016104ee565b600060078781548110610c3057634e487b7160e01b600052603260045260246000fd5b60009182526020918290206040805160a081018252600293909302909101805480845260019091015467ffffffffffffffff8116948401859052600160401b810463ffffffff908116938501849052600160601b82041660608501819052600160801b90910461ffff166080909401849052909b939a509098509650945092505050565b6001600160a01b038216610d0a5760405162461bcd60e51b815260206004820152601c60248201527f7472616e7366657220746f20746865207a65726f20616464726573730000000060448201526064016104ee565b6001600160a01b038216301415610d575760405162461bcd60e51b815260206004820152601160248201527043616e2774207472616e7366657220746f60781b60448201526064016104ee565b6001600160a01b0382166000908152600860205260408120805491610d7b83611e60565b909155506001600160a01b03808416600081815260086020908152604080832095909555858252600990529290922080546001600160a01b031916909217909155831615610e05576001600160a01b0383166000908152600860205260408120805491610de783611e0e565b909155506001600160a01b0384166000908152600860205260409020555b6106248383836107d3565b6000818152600360205260409020546060906001600160a01b0316610e8f5760405162461bcd60e51b815260206004820152602f60248201527f4552433732314d657461646174613a2055524920717565727920666f72206e6f60448201526e3732bc34b9ba32b73a103a37b5b2b760891b60648201526084016104ee565b6000610ea660408051602081019091526000815290565b90506000815111610ec65760405180602001604052806000815250610ef1565b80610ed0846115cc565b604051602001610ee1929190611c39565b6040516020818303038152906040525b9392505050565b6000546001600160a01b03163314610f525760405162461bcd60e51b815260206004820181905260248201527f4f776e61626c653a2063616c6c6572206973206e6f7420746865206f776e657260448201526064016104ee565b6001600160a01b038116610fb75760405162461bcd60e51b815260206004820152602660248201527f4f776e61626c653a206e6577206f776e657220697320746865207a65726f206160448201526564647265737360d01b60648201526084016104ee565b600080546040516001600160a01b03808516939216917f8be0079c531659141344cd1fd0a4f28419497f9722a3daafe3b4186f6b6457e091a3600080546001600160a01b0319166001600160a01b0392909216919091179055565b6000610ef1838361108c565b600081815260056020526040902080546001600160a01b0319166001600160a01b0384169081179091558190611053826108f5565b6001600160a01b03167f8c5be1e5ebec7d5bd14f71427d1e84f3dd0314c0f7b2291e5b200ac8c7c3b92560405160405180910390a45050565b6000818152600360205260408120546001600160a01b03166111055760405162461bcd60e51b815260206004820152602c60248201527f4552433732313a206f70657261746f7220717565727920666f72206e6f6e657860448201526b34b9ba32b73a103a37b5b2b760a11b60648201526084016104ee565b6000611110836108f5565b9050806001600160a01b0316846001600160a01b0316148061114b5750836001600160a01b031661114084610479565b6001600160a01b0316145b8061117b57506001600160a01b0380821660009081526006602090815260408083209388168352929052205460ff165b949350505050565b826001600160a01b0316611196826108f5565b6001600160a01b0316146111fe5760405162461bcd60e51b815260206004820152602960248201527f4552433732313a207472616e73666572206f6620746f6b656e2074686174206960448201526839903737ba1037bbb760b91b60648201526084016104ee565b6001600160a01b0382166112605760405162461bcd60e51b8152602060048201526024808201527f4552433732313a207472616e7366657220746f20746865207a65726f206164646044820152637265737360e01b60648201526084016104ee565b61126b60008261101e565b6001600160a01b0383166000908152600460205260408120805460019290611294908490611dcb565b90915550506001600160a01b03821660009081526004602052604081208054600192906112c2908490611d9f565b909155505060008181526003602052604080822080546001600160a01b0319166001600160a01b0386811691821790925591518493918716917fddf252ad1be2c89b69c2b068fc378daa952ba7f163c4a11628f55a4df523b3ef91a4505050565b6040805160a08101825286815267ffffffffffffffff4281166020830190815263ffffffff8089169484019485528781166060850190815261ffff80891660808701908152600780546001818101835560008381528a5160029093027fa66cc928b5edb82af9bd49922954155ab7b0942694bea4ce44661d9a8736c68881019390935597517fa66cc928b5edb82af9bd49922954155ab7b0942694bea4ce44661d9a8736c68990920180549b5196519451909516600160801b0261ffff60801b19948816600160601b029490941665ffffffffffff60601b19968816600160401b026bffffffffffffffffffffffff19909c169290991691909117999099179390931695909517949094179093559154909384926114439291906116e716565b905061144f84826116f3565b600081815260096020908152604080832080546001600160a01b0319163390811790915583526008909152902054611488906001611711565b336000908152600860209081526040918290209290925580516001600160a01b0387168152918201839052810188905260608101879052608081018990527f4df9d353e24d45336c180871f471a1c9e897d3f6f978bad7ec1cbe4efc6f7fe29060a00160405180910390a1979650505050505050565b6000611509826108f5565b905061151660008361101e565b6001600160a01b038116600090815260046020526040812080546001929061153f908490611dcb565b909155505060008281526003602052604080822080546001600160a01b0319169055518391906001600160a01b038416907fddf252ad1be2c89b69c2b068fc378daa952ba7f163c4a11628f55a4df523b3ef908390a45050565b6115a4848484611183565b6115b08484848461171d565b610baa5760405162461bcd60e51b81526004016104ee90611cfc565b6060816115f157506040805180820190915260018152600360fc1b60208201526103e2565b8160005b811561161b578061160581611e60565b91506116149050600a83611db7565b91506115f5565b60008167ffffffffffffffff81111561164457634e487b7160e01b600052604160045260246000fd5b6040519080825280601f01601f19166020018201604052801561166e576020820181803683370190505b5090505b841561117b57611683600183611dcb565b9150611690600a86611e7b565b61169b906030611d9f565b60f81b8183815181106116be57634e487b7160e01b600052603260045260246000fd5b60200101906001600160f81b031916908160001a9053506116e0600a86611db7565b9450611672565b6000610ef18284611dcb565b61170d82826040518060200160405280600081525061182a565b5050565b6000610ef18284611d9f565b60006001600160a01b0384163b1561181f57604051630a85bd0160e11b81526001600160a01b0385169063150b7a0290611761903390899088908890600401611c68565b602060405180830381600087803b15801561177b57600080fd5b505af19250505080156117ab575060408051601f3d908101601f191682019092526117a891810190611b91565b60015b611805573d8080156117d9576040519150601f19603f3d011682016040523d82523d6000602084013e6117de565b606091505b5080516117fd5760405162461bcd60e51b81526004016104ee90611cfc565b805181602001fd5b6001600160e01b031916630a85bd0160e11b14905061117b565b506001949350505050565b611834838361185d565b611841600084848461171d565b6106245760405162461bcd60e51b81526004016104ee90611cfc565b6001600160a01b0382166118b35760405162461bcd60e51b815260206004820181905260248201527f4552433732313a206d696e7420746f20746865207a65726f206164647265737360448201526064016104ee565b6000818152600360205260409020546001600160a01b0316156119185760405162461bcd60e51b815260206004820152601c60248201527f4552433732313a20746f6b656e20616c7265616479206d696e7465640000000060448201526064016104ee565b6001600160a01b0382166000908152600460205260408120805460019290611941908490611d9f565b909155505060008181526003602052604080822080546001600160a01b0319166001600160a01b03861690811790915590518392907fddf252ad1be2c89b69c2b068fc378daa952ba7f163c4a11628f55a4df523b3ef908290a45050565b80356001600160a01b03811681146103e257600080fd5b6000602082840312156119c7578081fd5b610ef18261199f565b600080604083850312156119e2578081fd5b6119eb8361199f565b91506119f96020840161199f565b90509250929050565b600080600060608486031215611a16578081fd5b611a1f8461199f565b9250611a2d6020850161199f565b9150604084013590509250925092565b60008060008060808587031215611a52578081fd5b611a5b8561199f565b9350611a696020860161199f565b925060408501359150606085013567ffffffffffffffff80821115611a8c578283fd5b818701915087601f830112611a9f578283fd5b813581811115611ab157611ab1611ebb565b604051601f8201601f19908116603f01168101908382118183101715611ad957611ad9611ebb565b816040528281528a6020848701011115611af1578586fd5b82602086016020830137918201602001949094529598949750929550505050565b60008060408385031215611b24578182fd5b611b2d8361199f565b915060208301358015158114611b41578182fd5b809150509250929050565b60008060408385031215611b5e578182fd5b611b678361199f565b946020939093013593505050565b600060208284031215611b86578081fd5b8135610ef181611ed1565b600060208284031215611ba2578081fd5b8151610ef181611ed1565b600060208284031215611bbe578081fd5b5035919050565b600080600080600060a08688031215611bdc578081fd5b85359450602086013593506040860135925060608601359150611c016080870161199f565b90509295509295909350565b60008151808452611c25816020860160208601611de2565b601f01601f19169290920160200192915050565b60008351611c4b818460208801611de2565b835190830190611c5f818360208801611de2565b01949350505050565b6001600160a01b0385811682528416602082015260408101839052608060608201819052600090611c9b90830184611c0d565b9695505050505050565b6020808252825182820181905260009190848201906040850190845b81811015611cdd57835183529284019291840191600101611cc1565b50909695505050505050565b600060208252610ef16020830184611c0d565b60208082526032908201527f4552433732313a207472616e7366657220746f206e6f6e20455243373231526560408201527131b2b4bb32b91034b6b83632b6b2b73a32b960711b606082015260800190565b60208082526031908201527f4552433732313a207472616e736665722063616c6c6572206973206e6f74206f6040820152701ddb995c881b9bdc88185c1c1c9bdd9959607a1b606082015260800190565b60008219821115611db257611db2611e8f565b500190565b600082611dc657611dc6611ea5565b500490565b600082821015611ddd57611ddd611e8f565b500390565b60005b83811015611dfd578181015183820152602001611de5565b83811115610baa5750506000910152565b600081611e1d57611e1d611e8f565b506000190190565b600181811c90821680611e3957607f821691505b60208210811415611e5a57634e487b7160e01b600052602260045260246000fd5b50919050565b6000600019821415611e7457611e74611e8f565b5060010190565b600082611e8a57611e8a611ea5565b500690565b634e487b7160e01b600052601160045260246000fd5b634e487b7160e01b600052601260045260246000fd5b634e487b7160e01b600052604160045260246000fd5b6001600160e01b031981168114611ee757600080fd5b5056fea26469706673582212202886d8f5d47a5c9029164bd2aad6be23fffb34be7f425a66646f2b78da061eb864736f6c63430008030033",
  "linkReferences": {},
  "deployedLinkReferences": {}
}