{
  "_format": "hh-sol-artifact-1",
  "contractName": "AlienCore",
  "sourceName": "contracts/AlienCore.sol",
  "abi": [
    {
      "inputs": [],
      "stateMutability": "nonpayable",
      "type": "constructor"
    },
    {
      "anonymous": false,
      "inputs": [
        {
          "indexed": false,
          "internalType": "address",
          "name": "owner",
          "type": "address"
        },
        {
          "indexed": false,
          "internalType": "uint256",
          "name": "tokenId",
          "type": "uint256"
        }
      ],
      "name": "AlienDestroyed",
      "type": "event"
    },
    {
      "anonymous": false,
      "inputs": [
        {
          "indexed": false,
          "internalType": "address",
          "name": "owner",
          "type": "address"
        },
        {
          "indexed": false,
          "internalType": "uint256",
          "name": "tokenId",
          "type": "uint256"
        },
        {
          "indexed": false,
          "internalType": "uint256",
          "name": "mumId",
          "type": "uint256"
        },
        {
          "indexed": false,
          "internalType": "uint256",
          "name": "dadId",
          "type": "uint256"
        },
        {
          "indexed": false,
          "internalType": "uint256",
          "name": "genes",
          "type": "uint256"
        }
      ],
      "name": "AlienMinted",
      "type": "event"
    },
    {
      "anonymous": false,
      "inputs": [
        {
          "indexed": true,
          "internalType": "address",
          "name": "owner",
          "type": "address"
        },
        {
          "indexed": true,
          "internalType": "address",
          "name": "approved",
          "type": "address"
        },
        {
          "indexed": true,
          "internalType": "uint256",
          "name": "tokenId",
          "type": "uint256"
        }
      ],
      "name": "Approval",
      "type": "event"
    },
    {
      "anonymous": false,
      "inputs": [
        {
          "indexed": true,
          "internalType": "address",
          "name": "owner",
          "type": "address"
        },
        {
          "indexed": true,
          "internalType": "address",
          "name": "operator",
          "type": "address"
        },
        {
          "indexed": false,
          "internalType": "bool",
          "name": "approved",
          "type": "bool"
        }
      ],
      "name": "ApprovalForAll",
      "type": "event"
    },
    {
      "anonymous": false,
      "inputs": [
        {
          "indexed": true,
          "internalType": "address",
          "name": "previousOwner",
          "type": "address"
        },
        {
          "indexed": true,
          "internalType": "address",
          "name": "newOwner",
          "type": "address"
        }
      ],
      "name": "OwnershipTransferred",
      "type": "event"
    },
    {
      "anonymous": false,
      "inputs": [
        {
          "indexed": true,
          "internalType": "address",
          "name": "from",
          "type": "address"
        },
        {
          "indexed": true,
          "internalType": "address",
          "name": "to",
          "type": "address"
        },
        {
          "indexed": true,
          "internalType": "uint256",
          "name": "tokenId",
          "type": "uint256"
        }
      ],
      "name": "Transfer",
      "type": "event"
    },
    {
      "inputs": [
        {
          "internalType": "address",
          "name": "to",
          "type": "address"
        },
        {
          "internalType": "uint256",
          "name": "tokenId",
          "type": "uint256"
        }
      ],
      "name": "approve",
      "outputs": [],
      "stateMutability": "nonpayable",
      "type": "function"
    },
    {
      "inputs": [
        {
          "internalType": "address",
          "name": "owner",
          "type": "address"
        }
      ],
      "name": "balanceOf",
      "outputs": [
        {
          "internalType": "uint256",
          "name": "",
          "type": "uint256"
        }
      ],
      "stateMutability": "view",
      "type": "function"
    },
    {
      "inputs": [
        {
          "internalType": "uint256",
          "name": "tokenId",
          "type": "uint256"
        }
      ],
      "name": "burn",
      "outputs": [],
      "stateMutability": "nonpayable",
      "type": "function"
    },
    {
      "inputs": [],
      "name": "contractAddress",
      "outputs": [
        {
          "internalType": "address",
          "name": "",
          "type": "address"
        }
      ],
      "stateMutability": "view",
      "type": "function"
    },
    {
      "inputs": [
        {
          "internalType": "uint256",
          "name": "_genes",
          "type": "uint256"
        },
        {
          "internalType": "uint256",
          "name": "_mumId",
          "type": "uint256"
        },
        {
          "internalType": "uint256",
          "name": "_dadId",
          "type": "uint256"
        },
        {
          "internalType": "uint256",
          "name": "_generation",
          "type": "uint256"
        },
        {
          "internalType": "address",
          "name": "_owner",
          "type": "address"
        }
      ],
      "name": "createAlien",
      "outputs": [
        {
          "internalType": "uint256",
          "name": "",
          "type": "uint256"
        }
      ],
      "stateMutability": "nonpayable",
      "type": "function"
    },
    {
      "inputs": [
        {
          "internalType": "uint256",
          "name": "tokenId",
          "type": "uint256"
        }
      ],
      "name": "getAlien",
      "outputs": [
        {
          "internalType": "uint256",
          "name": "_genes",
          "type": "uint256"
        },
        {
          "internalType": "uint64",
          "name": "_birthTime",
          "type": "uint64"
        },
        {
          "internalType": "uint32",
          "name": "_mumId",
          "type": "uint32"
        },
        {
          "internalType": "uint32",
          "name": "_dadId",
          "type": "uint32"
        },
        {
          "internalType": "uint16",
          "name": "_generation",
          "type": "uint16"
        }
      ],
      "stateMutability": "view",
      "type": "function"
    },
    {
      "inputs": [
        {
          "internalType": "address",
          "name": "_owner",
          "type": "address"
        }
      ],
      "name": "getAllAliens",
      "outputs": [
        {
          "internalType": "uint256[]",
          "name": "",
          "type": "uint256[]"
        }
      ],
      "stateMutability": "view",
      "type": "function"
    },
    {
      "inputs": [
        {
          "internalType": "uint256",
          "name": "tokenId",
          "type": "uint256"
        }
      ],
      "name": "getApproved",
      "outputs": [
        {
          "internalType": "address",
          "name": "",
          "type": "address"
        }
      ],
      "stateMutability": "view",
      "type": "function"
    },
    {
      "inputs": [
        {
          "internalType": "address",
          "name": "owner",
          "type": "address"
        },
        {
          "internalType": "address",
          "name": "operator",
          "type": "address"
        }
      ],
      "name": "isApprovedForAll",
      "outputs": [
        {
          "internalType": "bool",
          "name": "",
          "type": "bool"
        }
      ],
      "stateMutability": "view",
      "type": "function"
    },
    {
      "inputs": [
        {
          "internalType": "address",
          "name": "_owner",
          "type": "address"
        },
        {
          "internalType": "uint256",
          "name": "tokenId",
          "type": "uint256"
        }
      ],
      "name": "isApprovedOwner",
      "outputs": [
        {
          "internalType": "bool",
          "name": "",
          "type": "bool"
        }
      ],
      "stateMutability": "view",
      "type": "function"
    },
    {
      "inputs": [],
      "name": "name",
      "outputs": [
        {
          "internalType": "string",
          "name": "",
          "type": "string"
        }
      ],
      "stateMutability": "view",
      "type": "function"
    },
    {
      "inputs": [],
      "name": "owner",
      "outputs": [
        {
          "internalType": "address",
          "name": "",
          "type": "address"
        }
      ],
      "stateMutability": "view",
      "type": "function"
    },
    {
      "inputs": [
        {
          "internalType": "uint256",
          "name": "tokenId",
          "type": "uint256"
        }
      ],
      "name": "ownerOf",
      "outputs": [
        {
          "internalType": "address",
          "name": "",
          "type": "address"
        }
      ],
      "stateMutability": "view",
      "type": "function"
    },
    {
      "inputs": [],
      "name": "renounceOwnership",
      "outputs": [],
      "stateMutability": "nonpayable",
      "type": "function"
    },
    {
      "inputs": [
        {
          "internalType": "address",
          "name": "from",
          "type": "address"
        },
        {
          "internalType": "address",
          "name": "to",
          "type": "address"
        },
        {
          "internalType": "uint256",
          "name": "tokenId",
          "type": "uint256"
        }
      ],
      "name": "safeTransferFrom",
      "outputs": [],
      "stateMutability": "nonpayable",
      "type": "function"
    },
    {
      "inputs": [
        {
          "internalType": "address",
          "name": "from",
          "type": "address"
        },
        {
          "internalType": "address",
          "name": "to",
          "type": "address"
        },
        {
          "internalType": "uint256",
          "name": "tokenId",
          "type": "uint256"
        },
        {
          "internalType": "bytes",
          "name": "_data",
          "type": "bytes"
        }
      ],
      "name": "safeTransferFrom",
      "outputs": [],
      "stateMutability": "nonpayable",
      "type": "function"
    },
    {
      "inputs": [
        {
          "internalType": "address",
          "name": "operator",
          "type": "address"
        },
        {
          "internalType": "bool",
          "name": "approved",
          "type": "bool"
        }
      ],
      "name": "setApprovalForAll",
      "outputs": [],
      "stateMutability": "nonpayable",
      "type": "function"
    },
    {
      "inputs": [
        {
          "internalType": "bytes4",
          "name": "interfaceId",
          "type": "bytes4"
        }
      ],
      "name": "supportsInterface",
      "outputs": [
        {
          "internalType": "bool",
          "name": "",
          "type": "bool"
        }
      ],
      "stateMutability": "view",
      "type": "function"
    },
    {
      "inputs": [],
      "name": "symbol",
      "outputs": [
        {
          "internalType": "string",
          "name": "",
          "type": "string"
        }
      ],
      "stateMutability": "view",
      "type": "function"
    },
    {
      "inputs": [
        {
          "internalType": "uint256",
          "name": "tokenId",
          "type": "uint256"
        }
      ],
      "name": "tokenURI",
      "outputs": [
        {
          "internalType": "string",
          "name": "",
          "type": "string"
        }
      ],
      "stateMutability": "view",
      "type": "function"
    },
    {
      "inputs": [],
      "name": "totalSupply",
      "outputs": [
        {
          "internalType": "uint256",
          "name": "",
          "type": "uint256"
        }
      ],
      "stateMutability": "view",
      "type": "function"
    },
    {
      "inputs": [
        {
          "internalType": "address",
          "name": "_from",
          "type": "address"
        },
        {
          "internalType": "address",
          "name": "_to",
          "type": "address"
        },
        {
          "internalType": "uint256",
          "name": "_tokenId",
          "type": "uint256"
        }
      ],
      "name": "transfer",
      "outputs": [],
      "stateMutability": "nonpayable",
      "type": "function"
    },
    {
      "inputs": [
        {
          "internalType": "address",
          "name": "from",
          "type": "address"
        },
        {
          "internalType": "address",
          "name": "to",
          "type": "address"
        },
        {
          "internalType": "uint256",
          "name": "tokenId",
          "type": "uint256"
        }
      ],
      "name": "transferFrom",
      "outputs": [],
      "stateMutability": "nonpayable",
      "type": "function"
    },
    {
      "inputs": [
        {
          "internalType": "address",
          "name": "newOwner",
          "type": "address"
        }
      ],
      "name": "transferOwnership",
      "outputs": [],
      "stateMutability": "nonpayable",
      "type": "function"
    }
  ],
  "bytecode": "0x60806040523480156200001157600080fd5b506040518060400160405280600c81526020016b43727970746f416c69656e7360a01b8152506040518060400160405280600581526020016420a624a2a760d91b815250600062000067620000f760201b60201c565b600080546001600160a01b0319166001600160a01b0383169081178255604051929350917f8be0079c531659141344cd1fd0a4f28419497f9722a3daafe3b4186f6b6457e0908290a3508151620000c6906001906020850190620000fb565b508051620000dc906002906020840190620000fb565b5050600780546001600160a01b0319163017905550620001de565b3390565b8280546200010990620001a1565b90600052602060002090601f0160209004810192826200012d576000855562000178565b82601f106200014857805160ff191683800117855562000178565b8280016001018555821562000178579182015b82811115620001785782518255916020019190600101906200015b565b50620001869291506200018a565b5090565b5b808211156200018657600081556001016200018b565b600181811c90821680620001b657607f821691505b60208210811415620001d857634e487b7160e01b600052602260045260246000fd5b50919050565b611f3e80620001ee6000396000f3fe608060405234801561001057600080fd5b50600436106101585760003560e01c8063715018a6116100c3578063beabacc81161007c578063beabacc814610316578063c87b56dd14610329578063e985e9c51461033c578063f2fde38b14610378578063f6b4dfb41461038b578063f8ef871c1461039e57610158565b8063715018a61461027e5780638da5cb5b1461028657806395d89b4114610297578063a22cb4651461029f578063b88d4fde146102b2578063ba269271146102c557610158565b806323b872dd1161011557806323b872dd1461020c5780632f782dda1461021f57806342842e0e1461023257806342966c68146102455780636352211e1461025857806370a082311461026b57610158565b806301ffc9a71461015d57806306fdde0314610185578063081812fc1461019a578063095ea7b3146101c55780630c5318e7146101da57806318160ddd146101fa575b600080fd5b61017061016b366004611b93565b6103b1565b60405190151581526020015b60405180910390f35b61018d610405565b60405161017c9190611d07565b6101ad6101a8366004611bcb565b610497565b6040516001600160a01b03909116815260200161017c565b6101d86101d3366004611b6a565b610531565b005b6101ed6101e83660046119d4565b610647565b60405161017c9190611cc3565b6008545b60405190815260200161017c565b6101d861021a366004611a20565b6107a4565b6101fe61022d366004611be3565b6107d6565b6101d8610240366004611a20565b6107f1565b6101d8610253366004611bcb565b61080c565b6101ad610266366004611bcb565b610913565b6101fe6102793660046119d4565b61098a565b6101d8610a11565b6000546001600160a01b03166101ad565b61018d610ab5565b6101d86102ad366004611b30565b610ac4565b6101d86102c0366004611a5b565b610b96565b6102d86102d3366004611bcb565b610bce565b6040805195865267ffffffffffffffff909416602086015263ffffffff9283169385019390935216606083015261ffff16608082015260a00161017c565b6101d8610324366004611a20565b610cd2565b61018d610337366004611bcb565b610e2e565b61017061034a3660046119ee565b6001600160a01b03918216600090815260066020908152604080832093909416825291909152205460ff1690565b6101d86103863660046119d4565b610f16565b6007546101ad906001600160a01b031681565b6101706103ac366004611b6a565b611030565b60006001600160e01b031982166380ac58cd60e01b14806103e257506001600160e01b03198216635b5e139f60e01b145b806103fd57506301ffc9a760e01b6001600160e01b03198316145b90505b919050565b60606001805461041490611e43565b80601f016020809104026020016040519081016040528092919081815260200182805461044090611e43565b801561048d5780601f106104625761010080835404028352916020019161048d565b820191906000526020600020905b81548152906001019060200180831161047057829003601f168201915b5050505050905090565b6000818152600360205260408120546001600160a01b03166105155760405162461bcd60e51b815260206004820152602c60248201527f4552433732313a20617070726f76656420717565727920666f72206e6f6e657860448201526b34b9ba32b73a103a37b5b2b760a11b60648201526084015b60405180910390fd5b506000908152600560205260409020546001600160a01b031690565b600061053c82610913565b9050806001600160a01b0316836001600160a01b031614156105aa5760405162461bcd60e51b815260206004820152602160248201527f4552433732313a20617070726f76616c20746f2063757272656e74206f776e656044820152603960f91b606482015260840161050c565b336001600160a01b03821614806105c657506105c6813361034a565b6106385760405162461bcd60e51b815260206004820152603860248201527f4552433732313a20617070726f76652063616c6c6572206973206e6f74206f7760448201527f6e6572206e6f7220617070726f76656420666f7220616c6c0000000000000000606482015260840161050c565b610642838361103c565b505050565b60606001600160a01b03821661069f5760405162461bcd60e51b815260206004820181905260248201527f546f6b656e20717565727920666f7220746865207a65726f2061646472657373604482015260640161050c565b60006106aa8361098a565b9050806106c7575050604080516000815260208101909152610400565b60008167ffffffffffffffff8111156106f057634e487b7160e01b600052604160045260246000fd5b604051908082528060200260200182016040528015610719578160200160208202803683370190505b506008549091506000805b828111610799576000818152600a60205260409020546001600160a01b0388811691161415610787578084838151811061076e57634e487b7160e01b600052603260045260246000fd5b60209081029190910101528161078381611e7e565b9250505b8061079181611e7e565b915050610724565b509195945050505050565b6107af335b826110aa565b6107cb5760405162461bcd60e51b815260040161050c90611d6c565b6106428383836111a1565b6000806107e68787878787611341565b979650505050505050565b61064283838360405180602001604052806000815250610b96565b610815336107a9565b61087a5760405162461bcd60e51b815260206004820152603060248201527f4552433732314275726e61626c653a2063616c6c6572206973206e6f74206f7760448201526f1b995c881b9bdc88185c1c1c9bdd995960821b606482015260840161050c565b6108838161151c565b600881815481106108a457634e487b7160e01b600052603260045260246000fd5b600091825260208083206002929092029091019182556001909101805471ffffffffffffffffffffffffffffffffffff19169055604080513381529182018390527f375de7ebcf7d9aedaeea87f94fccc860c3e5afbe038d8a9567ed76e1861c3694910160405180910390a150565b6000818152600360205260408120546001600160a01b0316806103fd5760405162461bcd60e51b815260206004820152602960248201527f4552433732313a206f776e657220717565727920666f72206e6f6e657869737460448201526832b73a103a37b5b2b760b91b606482015260840161050c565b60006001600160a01b0382166109f55760405162461bcd60e51b815260206004820152602a60248201527f4552433732313a2062616c616e636520717565727920666f7220746865207a65604482015269726f206164647265737360b01b606482015260840161050c565b506001600160a01b031660009081526004602052604090205490565b6000546001600160a01b03163314610a6b5760405162461bcd60e51b815260206004820181905260248201527f4f776e61626c653a2063616c6c6572206973206e6f7420746865206f776e6572604482015260640161050c565b600080546040516001600160a01b03909116907f8be0079c531659141344cd1fd0a4f28419497f9722a3daafe3b4186f6b6457e0908390a3600080546001600160a01b0319169055565b60606002805461041490611e43565b6001600160a01b038216331415610b1d5760405162461bcd60e51b815260206004820152601960248201527f4552433732313a20617070726f766520746f2063616c6c657200000000000000604482015260640161050c565b3360008181526006602090815260408083206001600160a01b0387168085529252909120805460ff1916841515179055906001600160a01b03167f17307eab39ab6107e8899845ad3d59bd9653f200f220920489ca2b5937696c3183604051610b8a911515815260200190565b60405180910390a35050565b610ba033836110aa565b610bbc5760405162461bcd60e51b815260040161050c90611d6c565b610bc8848484846115b7565b50505050565b6000806000806000600880549050861115610c2b5760405162461bcd60e51b815260206004820152601960248201527f4964206f757473696465206f6620746f74616c537570706c7900000000000000604482015260640161050c565b600060088781548110610c4e57634e487b7160e01b600052603260045260246000fd5b60009182526020918290206040805160a081018252600293909302909101805480845260019091015467ffffffffffffffff8116948401859052600160401b810463ffffffff908116938501849052600160601b82041660608501819052600160801b90910461ffff166080909401849052909b939a509098509650945092505050565b6001600160a01b038216610d285760405162461bcd60e51b815260206004820152601c60248201527f7472616e7366657220746f20746865207a65726f206164647265737300000000604482015260640161050c565b6001600160a01b038216301415610d755760405162461bcd60e51b815260206004820152601160248201527043616e2774207472616e7366657220746f60781b604482015260640161050c565b6001600160a01b0382166000908152600960205260408120805491610d9983611e7e565b909155506001600160a01b03808416600081815260096020908152604080832095909555858252600a90529290922080546001600160a01b031916909217909155831615610e23576001600160a01b0383166000908152600960205260408120805491610e0583611e2c565b909155506001600160a01b0384166000908152600960205260409020555b6106428383836107f1565b6000818152600360205260409020546060906001600160a01b0316610ead5760405162461bcd60e51b815260206004820152602f60248201527f4552433732314d657461646174613a2055524920717565727920666f72206e6f60448201526e3732bc34b9ba32b73a103a37b5b2b760891b606482015260840161050c565b6000610ec460408051602081019091526000815290565b90506000815111610ee45760405180602001604052806000815250610f0f565b80610eee846115ea565b604051602001610eff929190611c57565b6040516020818303038152906040525b9392505050565b6000546001600160a01b03163314610f705760405162461bcd60e51b815260206004820181905260248201527f4f776e61626c653a2063616c6c6572206973206e6f7420746865206f776e6572604482015260640161050c565b6001600160a01b038116610fd55760405162461bcd60e51b815260206004820152602660248201527f4f776e61626c653a206e6577206f776e657220697320746865207a65726f206160448201526564647265737360d01b606482015260840161050c565b600080546040516001600160a01b03808516939216917f8be0079c531659141344cd1fd0a4f28419497f9722a3daafe3b4186f6b6457e091a3600080546001600160a01b0319166001600160a01b0392909216919091179055565b6000610f0f83836110aa565b600081815260056020526040902080546001600160a01b0319166001600160a01b038416908117909155819061107182610913565b6001600160a01b03167f8c5be1e5ebec7d5bd14f71427d1e84f3dd0314c0f7b2291e5b200ac8c7c3b92560405160405180910390a45050565b6000818152600360205260408120546001600160a01b03166111235760405162461bcd60e51b815260206004820152602c60248201527f4552433732313a206f70657261746f7220717565727920666f72206e6f6e657860448201526b34b9ba32b73a103a37b5b2b760a11b606482015260840161050c565b600061112e83610913565b9050806001600160a01b0316846001600160a01b031614806111695750836001600160a01b031661115e84610497565b6001600160a01b0316145b8061119957506001600160a01b0380821660009081526006602090815260408083209388168352929052205460ff165b949350505050565b826001600160a01b03166111b482610913565b6001600160a01b03161461121c5760405162461bcd60e51b815260206004820152602960248201527f4552433732313a207472616e73666572206f6620746f6b656e2074686174206960448201526839903737ba1037bbb760b91b606482015260840161050c565b6001600160a01b03821661127e5760405162461bcd60e51b8152602060048201526024808201527f4552433732313a207472616e7366657220746f20746865207a65726f206164646044820152637265737360e01b606482015260840161050c565b61128960008261103c565b6001600160a01b03831660009081526004602052604081208054600192906112b2908490611de9565b90915550506001600160a01b03821660009081526004602052604081208054600192906112e0908490611dbd565b909155505060008181526003602052604080822080546001600160a01b0319166001600160a01b0386811691821790925591518493918716917fddf252ad1be2c89b69c2b068fc378daa952ba7f163c4a11628f55a4df523b3ef91a4505050565b6040805160a08101825286815267ffffffffffffffff4281166020830190815263ffffffff8089169484019485528781166060850190815261ffff80891660808701908152600880546001818101835560008381528a5160029093027ff3f7a9fe364faab93b216da50a3214154f22a0a2b415b23a84c8169e8b636ee381019390935597517ff3f7a9fe364faab93b216da50a3214154f22a0a2b415b23a84c8169e8b636ee490920180549b5196519451909516600160801b0261ffff60801b19948816600160601b029490941665ffffffffffff60601b19968816600160401b026bffffffffffffffffffffffff19909c1692909916919091179990991793909316959095179490941790935591549093849261146192919061170516565b905061146d8482611711565b6000818152600a6020908152604080832080546001600160a01b03191633908117909155835260099091529020546114a690600161172f565b336000908152600960209081526040918290209290925580516001600160a01b0387168152918201839052810188905260608101879052608081018990527f4df9d353e24d45336c180871f471a1c9e897d3f6f978bad7ec1cbe4efc6f7fe29060a00160405180910390a1979650505050505050565b600061152782610913565b905061153460008361103c565b6001600160a01b038116600090815260046020526040812080546001929061155d908490611de9565b909155505060008281526003602052604080822080546001600160a01b0319169055518391906001600160a01b038416907fddf252ad1be2c89b69c2b068fc378daa952ba7f163c4a11628f55a4df523b3ef908390a45050565b6115c28484846111a1565b6115ce8484848461173b565b610bc85760405162461bcd60e51b815260040161050c90611d1a565b60608161160f57506040805180820190915260018152600360fc1b6020820152610400565b8160005b8115611639578061162381611e7e565b91506116329050600a83611dd5565b9150611613565b60008167ffffffffffffffff81111561166257634e487b7160e01b600052604160045260246000fd5b6040519080825280601f01601f19166020018201604052801561168c576020820181803683370190505b5090505b8415611199576116a1600183611de9565b91506116ae600a86611e99565b6116b9906030611dbd565b60f81b8183815181106116dc57634e487b7160e01b600052603260045260246000fd5b60200101906001600160f81b031916908160001a9053506116fe600a86611dd5565b9450611690565b6000610f0f8284611de9565b61172b828260405180602001604052806000815250611848565b5050565b6000610f0f8284611dbd565b60006001600160a01b0384163b1561183d57604051630a85bd0160e11b81526001600160a01b0385169063150b7a029061177f903390899088908890600401611c86565b602060405180830381600087803b15801561179957600080fd5b505af19250505080156117c9575060408051601f3d908101601f191682019092526117c691810190611baf565b60015b611823573d8080156117f7576040519150601f19603f3d011682016040523d82523d6000602084013e6117fc565b606091505b50805161181b5760405162461bcd60e51b815260040161050c90611d1a565b805181602001fd5b6001600160e01b031916630a85bd0160e11b149050611199565b506001949350505050565b611852838361187b565b61185f600084848461173b565b6106425760405162461bcd60e51b815260040161050c90611d1a565b6001600160a01b0382166118d15760405162461bcd60e51b815260206004820181905260248201527f4552433732313a206d696e7420746f20746865207a65726f2061646472657373604482015260640161050c565b6000818152600360205260409020546001600160a01b0316156119365760405162461bcd60e51b815260206004820152601c60248201527f4552433732313a20746f6b656e20616c7265616479206d696e74656400000000604482015260640161050c565b6001600160a01b038216600090815260046020526040812080546001929061195f908490611dbd565b909155505060008181526003602052604080822080546001600160a01b0319166001600160a01b03861690811790915590518392907fddf252ad1be2c89b69c2b068fc378daa952ba7f163c4a11628f55a4df523b3ef908290a45050565b80356001600160a01b038116811461040057600080fd5b6000602082840312156119e5578081fd5b610f0f826119bd565b60008060408385031215611a00578081fd5b611a09836119bd565b9150611a17602084016119bd565b90509250929050565b600080600060608486031215611a34578081fd5b611a3d846119bd565b9250611a4b602085016119bd565b9150604084013590509250925092565b60008060008060808587031215611a70578081fd5b611a79856119bd565b9350611a87602086016119bd565b925060408501359150606085013567ffffffffffffffff80821115611aaa578283fd5b818701915087601f830112611abd578283fd5b813581811115611acf57611acf611ed9565b604051601f8201601f19908116603f01168101908382118183101715611af757611af7611ed9565b816040528281528a6020848701011115611b0f578586fd5b82602086016020830137918201602001949094529598949750929550505050565b60008060408385031215611b42578182fd5b611b4b836119bd565b915060208301358015158114611b5f578182fd5b809150509250929050565b60008060408385031215611b7c578182fd5b611b85836119bd565b946020939093013593505050565b600060208284031215611ba4578081fd5b8135610f0f81611eef565b600060208284031215611bc0578081fd5b8151610f0f81611eef565b600060208284031215611bdc578081fd5b5035919050565b600080600080600060a08688031215611bfa578081fd5b85359450602086013593506040860135925060608601359150611c1f608087016119bd565b90509295509295909350565b60008151808452611c43816020860160208601611e00565b601f01601f19169290920160200192915050565b60008351611c69818460208801611e00565b835190830190611c7d818360208801611e00565b01949350505050565b6001600160a01b0385811682528416602082015260408101839052608060608201819052600090611cb990830184611c2b565b9695505050505050565b6020808252825182820181905260009190848201906040850190845b81811015611cfb57835183529284019291840191600101611cdf565b50909695505050505050565b600060208252610f0f6020830184611c2b565b60208082526032908201527f4552433732313a207472616e7366657220746f206e6f6e20455243373231526560408201527131b2b4bb32b91034b6b83632b6b2b73a32b960711b606082015260800190565b60208082526031908201527f4552433732313a207472616e736665722063616c6c6572206973206e6f74206f6040820152701ddb995c881b9bdc88185c1c1c9bdd9959607a1b606082015260800190565b60008219821115611dd057611dd0611ead565b500190565b600082611de457611de4611ec3565b500490565b600082821015611dfb57611dfb611ead565b500390565b60005b83811015611e1b578181015183820152602001611e03565b83811115610bc85750506000910152565b600081611e3b57611e3b611ead565b506000190190565b600181811c90821680611e5757607f821691505b60208210811415611e7857634e487b7160e01b600052602260045260246000fd5b50919050565b6000600019821415611e9257611e92611ead565b5060010190565b600082611ea857611ea8611ec3565b500690565b634e487b7160e01b600052601160045260246000fd5b634e487b7160e01b600052601260045260246000fd5b634e487b7160e01b600052604160045260246000fd5b6001600160e01b031981168114611f0557600080fd5b5056fea264697066735822122093ec09f9dc3aba8e65e60bb8db1eae8ad8b4bb95e025936287c2564aef46b33364736f6c63430008030033",
  "linkReferences": {},
  "deployedLinkReferences": {}
}