{
  "_format": "hh-sol-artifact-1",
  "contractName": "AlienCore",
  "sourceName": "contracts/AlienCore.sol",
  "abi": [
    {
      "inputs": [
        {
          "internalType": "address",
          "name": "_AlienERC721",
          "type": "address"
        }
      ],
      "stateMutability": "nonpayable",
      "type": "constructor"
    },
    {
      "anonymous": false,
      "inputs": [
        {
          "indexed": true,
          "internalType": "address",
          "name": "previousOwner",
          "type": "address"
        },
        {
          "indexed": true,
          "internalType": "address",
          "name": "newOwner",
          "type": "address"
        }
      ],
      "name": "OwnershipTransferred",
      "type": "event"
    },
    {
      "inputs": [],
      "name": "IAlienNFT",
      "outputs": [
        {
          "internalType": "address",
          "name": "",
          "type": "address"
        }
      ],
      "stateMutability": "view",
      "type": "function"
    },
    {
      "inputs": [],
      "name": "aln721",
      "outputs": [
        {
          "internalType": "contract IAlienERC721",
          "name": "",
          "type": "address"
        }
      ],
      "stateMutability": "view",
      "type": "function"
    },
    {
      "inputs": [
        {
          "internalType": "uint256",
          "name": "_dadId",
          "type": "uint256"
        },
        {
          "internalType": "uint256",
          "name": "_mumId",
          "type": "uint256"
        }
      ],
      "name": "cloneAlien",
      "outputs": [
        {
          "internalType": "uint256",
          "name": "",
          "type": "uint256"
        }
      ],
      "stateMutability": "nonpayable",
      "type": "function"
    },
    {
      "inputs": [
        {
          "internalType": "uint256",
          "name": "genes",
          "type": "uint256"
        }
      ],
      "name": "createAlienGen0",
      "outputs": [
        {
          "internalType": "uint256",
          "name": "",
          "type": "uint256"
        }
      ],
      "stateMutability": "nonpayable",
      "type": "function"
    },
    {
      "inputs": [],
      "name": "owner",
      "outputs": [
        {
          "internalType": "address",
          "name": "",
          "type": "address"
        }
      ],
      "stateMutability": "view",
      "type": "function"
    },
    {
      "inputs": [],
      "name": "renounceOwnership",
      "outputs": [],
      "stateMutability": "nonpayable",
      "type": "function"
    },
    {
      "inputs": [
        {
          "internalType": "address",
          "name": "newOwner",
          "type": "address"
        }
      ],
      "name": "transferOwnership",
      "outputs": [],
      "stateMutability": "nonpayable",
      "type": "function"
    }
  ],
  "bytecode": "0x60806040523480156200001157600080fd5b5060405162000fd938038062000fd98339810160408190526200003491620001e0565b600080546001600160a01b031916339081178255604051909182917f8be0079c531659141344cd1fd0a4f28419497f9722a3daafe3b4186f6b6457e0908290a350620000c06040518060400160405280601681526020017f416c69656e436f726520436f6e7374727563746f723a000000000000000000008152506200012060201b620007ba1760201c565b620000f060405180606001604052806022815260200162000fb760229139826200016e60201b620008001760201c565b600280546001600160a01b039092166001600160a01b03199283168117909155600380549092161790556200029f565b6200016b816040516024016200013791906200025e565b60408051601f198184030181529190526020810180516001600160e01b0390811663104c13eb60e21b17909152620001bf16565b50565b620001bb82826040516024016200018792919062000273565b60408051601f198184030181529190526020810180516001600160e01b0390811663319af33360e01b17909152620001bf16565b5050565b80516a636f6e736f6c652e6c6f67602083016000808483855afa5050505050565b600060208284031215620001f2578081fd5b81516001600160a01b038116811462000209578182fd5b9392505050565b60008151808452815b81811015620002375760208185018101518683018201520162000219565b81811115620002495782602083870101525b50601f01601f19169290920160200192915050565b60006020825262000209602083018462000210565b60006040825262000288604083018562000210565b905060018060a01b03831660208301529392505050565b610d0880620002af6000396000f3fe608060405234801561001057600080fd5b506004361061007d5760003560e01c80638da5cb5b1161005b5780638da5cb5b146100dd5780639134f73c146100ee578063921a762014610101578063f2fde38b146101145761007d565b806318e0b13e14610082578063242155cb146100b2578063715018a6146100d3575b600080fd5b600354610095906001600160a01b031681565b6040516001600160a01b0390911681526020015b60405180910390f35b6100c56100c0366004610ab0565b610127565b6040519081526020016100a9565b6100db610272565b005b6000546001600160a01b0316610095565b600254610095906001600160a01b031681565b6100c561010f366004610ae0565b6102e6565b6100db610122366004610a69565b6106d0565b600080546001600160a01b0316331461015b5760405162461bcd60e51b815260040161015290610bbe565b60405180910390fd5b600a600154106101bc5760405162461bcd60e51b815260206004820152602660248201527f4d6178696d756d20616d6f756e74206f6620616c69656e732047656e20302072604482015265195858da195960d21b6064820152608401610152565b600180549060006101cc83610c55565b90915550506003546040516317bc16ed60e11b8152600481018490526000602482018190526044820181905260648201819052336084830152916001600160a01b031690632f782dda9060a401602060405180830381600087803b15801561023357600080fd5b505af1158015610247573d6000803e3d6000fd5b505050506040513d601f19601f8201168201806040525081019061026b9190610ac8565b9392505050565b6000546001600160a01b0316331461029c5760405162461bcd60e51b815260040161015290610bbe565b600080546040516001600160a01b03909116907f8be0079c531659141344cd1fd0a4f28419497f9722a3daafe3b4186f6b6457e0908390a3600080546001600160a01b0319169055565b600354604051633e3be1c760e21b8152336004820152602481018490526000916001600160a01b03169063f8ef871c9060440160206040518083038186803b15801561033157600080fd5b505afa158015610345573d6000803e3d6000fd5b505050506040513d601f19601f820116820180604052508101906103699190610a90565b15156001146103c85760405162461bcd60e51b815260206004820152602560248201527f546865207573657220646f65736e2774206f776e2074686520746f6b656e205f604482015264191859125960da1b6064820152608401610152565b600354604051633e3be1c760e21b8152336004820152602481018490526001600160a01b039091169063f8ef871c9060440160206040518083038186803b15801561041257600080fd5b505afa158015610426573d6000803e3d6000fd5b505050506040513d601f19601f8201168201806040525081019061044a9190610a90565b15156001146104a95760405162461bcd60e51b815260206004820152602560248201527f546865207573657220646f65736e2774206f776e2074686520746f6b656e205f6044820152641b5d5b525960da1b6064820152608401610152565b818314156104f95760405162461bcd60e51b815260206004820152601b60248201527f746f6b656e49642073686f756c6420626520646966666572656e7400000000006044820152606401610152565b60035460405163ba26927160e01b81526004810185905260009182916001600160a01b039091169063ba2692719060240160806040518083038186803b15801561054257600080fd5b505afa158015610556573d6000803e3d6000fd5b505050506040513d601f19601f8201168201806040525081019061057a9190610b01565b60035460405163ba26927160e01b8152600481018a90529496509094506000938493506001600160a01b03909116915063ba2692719060240160806040518083038186803b1580156105cb57600080fd5b505afa1580156105df573d6000803e3d6000fd5b505050506040513d601f19601f820116820180604052508101906106039190610b01565b93505050915060006106158584610849565b9050600061062385846109d9565b6003546040516317bc16ed60e11b815260048101859052602481018b9052604481018c9052606481018390523360848201529192506000916001600160a01b0390911690632f782dda9060a401602060405180830381600087803b15801561068a57600080fd5b505af115801561069e573d6000803e3d6000fd5b505050506040513d601f19601f820116820180604052508101906106c29190610ac8565b9a9950505050505050505050565b6000546001600160a01b031633146106fa5760405162461bcd60e51b815260040161015290610bbe565b6001600160a01b03811661075f5760405162461bcd60e51b815260206004820152602660248201527f4f776e61626c653a206e6577206f776e657220697320746865207a65726f206160448201526564647265737360d01b6064820152608401610152565b600080546040516001600160a01b03808516939216917f8be0079c531659141344cd1fd0a4f28419497f9722a3daafe3b4186f6b6457e091a3600080546001600160a01b0319166001600160a01b0392909216919091179055565b6107fd816040516024016107ce9190610b81565b60408051601f198184030181529190526020810180516001600160e01b031663104c13eb60e21b179052610a29565b50565b6108458282604051602401610816929190610b94565b60408051601f198184030181529190526020810180516001600160e01b031663319af33360e01b179052610a29565b5050565b600080610854610a4a565b6007600061086360ff42610c70565b905060015b608081116109205781811660ff16156108b357610886606488610c70565b60ff168484600881106108a957634e487b7160e01b600052603260045260246000fd5b60200201526108e7565b6108be606489610c70565b60ff168484600881106108e157634e487b7160e01b600052603260045260246000fd5b60200201525b6108f2606488610c0b565b96506108ff606489610c0b565b975061090c600184610c3e565b9250610919816002610c1f565b9050610868565b600061092d600784610c84565b905061093a606384610c84565b60ff16858260ff166008811061096057634e487b7160e01b600052603260045260246000fd5b6020020152600091505b60088210156109cc5784826008811061099357634e487b7160e01b600052603260045260246000fd5b60200201516109a29087610bf3565b9550816007146109ba576109b7606487610c1f565b95505b816109c481610c55565b92505061096a565b5093979650505050505050565b60008082841015610a03576109ef836001610bf3565b90506109fc600282610c0b565b905061026b565b82841115610a16576109ef846001610bf3565b610a21836001610bf3565b949350505050565b80516a636f6e736f6c652e6c6f67602083016000808483855afa5050505050565b6040518061010001604052806008906020820280368337509192915050565b600060208284031215610a7a578081fd5b81356001600160a01b038116811461026b578182fd5b600060208284031215610aa1578081fd5b8151801515811461026b578182fd5b600060208284031215610ac1578081fd5b5035919050565b600060208284031215610ad9578081fd5b5051919050565b60008060408385031215610af2578081fd5b50508035926020909101359150565b60008060008060808587031215610b16578182fd5b505082516020840151604085015160609095015191969095509092509050565b60008151808452815b81811015610b5b57602081850181015186830182015201610b3f565b81811115610b6c5782602083870101525b50601f01601f19169290920160200192915050565b60006020825261026b6020830184610b36565b600060408252610ba76040830185610b36565b905060018060a01b03831660208301529392505050565b6020808252818101527f4f776e61626c653a2063616c6c6572206973206e6f7420746865206f776e6572604082015260600190565b60008219821115610c0657610c06610ca6565b500190565b600082610c1a57610c1a610cbc565b500490565b6000816000190483118215151615610c3957610c39610ca6565b500290565b600082821015610c5057610c50610ca6565b500390565b6000600019821415610c6957610c69610ca6565b5060010190565b600082610c7f57610c7f610cbc565b500690565b600060ff831680610c9757610c97610cbc565b8060ff84160691505092915050565b634e487b7160e01b600052601160045260246000fd5b634e487b7160e01b600052601260045260246000fdfea264697066735822122004697f1004778f43e5933696c546b0a760a5e8a0e7974418c5996d799fc9d0db64736f6c63430008030033416c69656e45524337323120636f6e747261637420616464726573733a2027257327",
  "linkReferences": {},
  "deployedLinkReferences": {}
}