{
  "_format": "hh-sol-artifact-1",
  "contractName": "AlienCore",
  "sourceName": "contracts/AlienCore.sol",
  "abi": [
    {
      "anonymous": false,
      "inputs": [
        {
          "indexed": false,
          "internalType": "address",
          "name": "owner",
          "type": "address"
        },
        {
          "indexed": false,
          "internalType": "uint256",
          "name": "tokenId",
          "type": "uint256"
        }
      ],
      "name": "AlienDestroyed",
      "type": "event"
    },
    {
      "anonymous": false,
      "inputs": [
        {
          "indexed": false,
          "internalType": "address",
          "name": "owner",
          "type": "address"
        },
        {
          "indexed": false,
          "internalType": "uint256",
          "name": "tokenId",
          "type": "uint256"
        },
        {
          "indexed": false,
          "internalType": "uint256",
          "name": "mumId",
          "type": "uint256"
        },
        {
          "indexed": false,
          "internalType": "uint256",
          "name": "dadId",
          "type": "uint256"
        },
        {
          "indexed": false,
          "internalType": "uint256",
          "name": "genes",
          "type": "uint256"
        }
      ],
      "name": "AlienMinted",
      "type": "event"
    },
    {
      "anonymous": false,
      "inputs": [
        {
          "indexed": true,
          "internalType": "address",
          "name": "owner",
          "type": "address"
        },
        {
          "indexed": true,
          "internalType": "address",
          "name": "approved",
          "type": "address"
        },
        {
          "indexed": true,
          "internalType": "uint256",
          "name": "tokenId",
          "type": "uint256"
        }
      ],
      "name": "Approval",
      "type": "event"
    },
    {
      "anonymous": false,
      "inputs": [
        {
          "indexed": true,
          "internalType": "address",
          "name": "owner",
          "type": "address"
        },
        {
          "indexed": true,
          "internalType": "address",
          "name": "operator",
          "type": "address"
        },
        {
          "indexed": false,
          "internalType": "bool",
          "name": "approved",
          "type": "bool"
        }
      ],
      "name": "ApprovalForAll",
      "type": "event"
    },
    {
      "anonymous": false,
      "inputs": [
        {
          "indexed": true,
          "internalType": "address",
          "name": "previousOwner",
          "type": "address"
        },
        {
          "indexed": true,
          "internalType": "address",
          "name": "newOwner",
          "type": "address"
        }
      ],
      "name": "OwnershipTransferred",
      "type": "event"
    },
    {
      "anonymous": false,
      "inputs": [
        {
          "indexed": true,
          "internalType": "address",
          "name": "from",
          "type": "address"
        },
        {
          "indexed": true,
          "internalType": "address",
          "name": "to",
          "type": "address"
        },
        {
          "indexed": true,
          "internalType": "uint256",
          "name": "tokenId",
          "type": "uint256"
        }
      ],
      "name": "Transfer",
      "type": "event"
    },
    {
      "inputs": [
        {
          "internalType": "address",
          "name": "to",
          "type": "address"
        },
        {
          "internalType": "uint256",
          "name": "tokenId",
          "type": "uint256"
        }
      ],
      "name": "approve",
      "outputs": [],
      "stateMutability": "nonpayable",
      "type": "function"
    },
    {
      "inputs": [
        {
          "internalType": "address",
          "name": "owner",
          "type": "address"
        }
      ],
      "name": "balanceOf",
      "outputs": [
        {
          "internalType": "uint256",
          "name": "",
          "type": "uint256"
        }
      ],
      "stateMutability": "view",
      "type": "function"
    },
    {
      "inputs": [
        {
          "internalType": "uint256",
          "name": "tokenId",
          "type": "uint256"
        }
      ],
      "name": "burn",
      "outputs": [],
      "stateMutability": "nonpayable",
      "type": "function"
    },
    {
      "inputs": [
        {
          "internalType": "uint256",
          "name": "_dadId",
          "type": "uint256"
        },
        {
          "internalType": "uint256",
          "name": "_mumId",
          "type": "uint256"
        }
      ],
      "name": "cloneAlien",
      "outputs": [
        {
          "internalType": "uint256",
          "name": "",
          "type": "uint256"
        }
      ],
      "stateMutability": "nonpayable",
      "type": "function"
    },
    {
      "inputs": [
        {
          "internalType": "uint256",
          "name": "_genes",
          "type": "uint256"
        },
        {
          "internalType": "uint256",
          "name": "_mumId",
          "type": "uint256"
        },
        {
          "internalType": "uint256",
          "name": "_dadId",
          "type": "uint256"
        },
        {
          "internalType": "uint256",
          "name": "_generation",
          "type": "uint256"
        },
        {
          "internalType": "address",
          "name": "_owner",
          "type": "address"
        }
      ],
      "name": "createAlien",
      "outputs": [
        {
          "internalType": "uint256",
          "name": "",
          "type": "uint256"
        }
      ],
      "stateMutability": "nonpayable",
      "type": "function"
    },
    {
      "inputs": [
        {
          "internalType": "uint256",
          "name": "_genes",
          "type": "uint256"
        }
      ],
      "name": "createAlienGen0",
      "outputs": [
        {
          "internalType": "uint256",
          "name": "",
          "type": "uint256"
        }
      ],
      "stateMutability": "nonpayable",
      "type": "function"
    },
    {
      "inputs": [
        {
          "internalType": "uint256",
          "name": "tokenId",
          "type": "uint256"
        }
      ],
      "name": "getAlien",
      "outputs": [
        {
          "internalType": "uint256",
          "name": "_genes",
          "type": "uint256"
        },
        {
          "internalType": "uint64",
          "name": "_birthTime",
          "type": "uint64"
        },
        {
          "internalType": "uint32",
          "name": "_mumId",
          "type": "uint32"
        },
        {
          "internalType": "uint32",
          "name": "_dadId",
          "type": "uint32"
        },
        {
          "internalType": "uint16",
          "name": "_generation",
          "type": "uint16"
        }
      ],
      "stateMutability": "view",
      "type": "function"
    },
    {
      "inputs": [
        {
          "internalType": "address",
          "name": "_owner",
          "type": "address"
        }
      ],
      "name": "getAllAliens",
      "outputs": [
        {
          "internalType": "uint256[]",
          "name": "",
          "type": "uint256[]"
        }
      ],
      "stateMutability": "view",
      "type": "function"
    },
    {
      "inputs": [
        {
          "internalType": "uint256",
          "name": "tokenId",
          "type": "uint256"
        }
      ],
      "name": "getApproved",
      "outputs": [
        {
          "internalType": "address",
          "name": "",
          "type": "address"
        }
      ],
      "stateMutability": "view",
      "type": "function"
    },
    {
      "inputs": [
        {
          "internalType": "address",
          "name": "owner",
          "type": "address"
        },
        {
          "internalType": "address",
          "name": "operator",
          "type": "address"
        }
      ],
      "name": "isApprovedForAll",
      "outputs": [
        {
          "internalType": "bool",
          "name": "",
          "type": "bool"
        }
      ],
      "stateMutability": "view",
      "type": "function"
    },
    {
      "inputs": [
        {
          "internalType": "address",
          "name": "_owner",
          "type": "address"
        },
        {
          "internalType": "uint256",
          "name": "tokenId",
          "type": "uint256"
        }
      ],
      "name": "isApprovedOwner",
      "outputs": [
        {
          "internalType": "bool",
          "name": "",
          "type": "bool"
        }
      ],
      "stateMutability": "view",
      "type": "function"
    },
    {
      "inputs": [],
      "name": "name",
      "outputs": [
        {
          "internalType": "string",
          "name": "",
          "type": "string"
        }
      ],
      "stateMutability": "view",
      "type": "function"
    },
    {
      "inputs": [],
      "name": "owner",
      "outputs": [
        {
          "internalType": "address",
          "name": "",
          "type": "address"
        }
      ],
      "stateMutability": "view",
      "type": "function"
    },
    {
      "inputs": [
        {
          "internalType": "uint256",
          "name": "tokenId",
          "type": "uint256"
        }
      ],
      "name": "ownerOf",
      "outputs": [
        {
          "internalType": "address",
          "name": "",
          "type": "address"
        }
      ],
      "stateMutability": "view",
      "type": "function"
    },
    {
      "inputs": [],
      "name": "renounceOwnership",
      "outputs": [],
      "stateMutability": "nonpayable",
      "type": "function"
    },
    {
      "inputs": [
        {
          "internalType": "address",
          "name": "from",
          "type": "address"
        },
        {
          "internalType": "address",
          "name": "to",
          "type": "address"
        },
        {
          "internalType": "uint256",
          "name": "tokenId",
          "type": "uint256"
        }
      ],
      "name": "safeTransferFrom",
      "outputs": [],
      "stateMutability": "nonpayable",
      "type": "function"
    },
    {
      "inputs": [
        {
          "internalType": "address",
          "name": "from",
          "type": "address"
        },
        {
          "internalType": "address",
          "name": "to",
          "type": "address"
        },
        {
          "internalType": "uint256",
          "name": "tokenId",
          "type": "uint256"
        },
        {
          "internalType": "bytes",
          "name": "_data",
          "type": "bytes"
        }
      ],
      "name": "safeTransferFrom",
      "outputs": [],
      "stateMutability": "nonpayable",
      "type": "function"
    },
    {
      "inputs": [
        {
          "internalType": "address",
          "name": "operator",
          "type": "address"
        },
        {
          "internalType": "bool",
          "name": "approved",
          "type": "bool"
        }
      ],
      "name": "setApprovalForAll",
      "outputs": [],
      "stateMutability": "nonpayable",
      "type": "function"
    },
    {
      "inputs": [
        {
          "internalType": "bytes4",
          "name": "interfaceId",
          "type": "bytes4"
        }
      ],
      "name": "supportsInterface",
      "outputs": [
        {
          "internalType": "bool",
          "name": "",
          "type": "bool"
        }
      ],
      "stateMutability": "view",
      "type": "function"
    },
    {
      "inputs": [],
      "name": "symbol",
      "outputs": [
        {
          "internalType": "string",
          "name": "",
          "type": "string"
        }
      ],
      "stateMutability": "view",
      "type": "function"
    },
    {
      "inputs": [
        {
          "internalType": "uint256",
          "name": "tokenId",
          "type": "uint256"
        }
      ],
      "name": "tokenURI",
      "outputs": [
        {
          "internalType": "string",
          "name": "",
          "type": "string"
        }
      ],
      "stateMutability": "view",
      "type": "function"
    },
    {
      "inputs": [],
      "name": "totalSupply",
      "outputs": [
        {
          "internalType": "uint256",
          "name": "",
          "type": "uint256"
        }
      ],
      "stateMutability": "view",
      "type": "function"
    },
    {
      "inputs": [
        {
          "internalType": "address",
          "name": "_from",
          "type": "address"
        },
        {
          "internalType": "address",
          "name": "_to",
          "type": "address"
        },
        {
          "internalType": "uint256",
          "name": "_tokenId",
          "type": "uint256"
        }
      ],
      "name": "transfer",
      "outputs": [],
      "stateMutability": "nonpayable",
      "type": "function"
    },
    {
      "inputs": [
        {
          "internalType": "address",
          "name": "from",
          "type": "address"
        },
        {
          "internalType": "address",
          "name": "to",
          "type": "address"
        },
        {
          "internalType": "uint256",
          "name": "tokenId",
          "type": "uint256"
        }
      ],
      "name": "transferFrom",
      "outputs": [],
      "stateMutability": "nonpayable",
      "type": "function"
    },
    {
      "inputs": [
        {
          "internalType": "address",
          "name": "newOwner",
          "type": "address"
        }
      ],
      "name": "transferOwnership",
      "outputs": [],
      "stateMutability": "nonpayable",
      "type": "function"
    }
  ],
  "bytecode": "0x60806040523480156200001157600080fd5b506040518060400160405280600c81526020016b43727970746f416c69656e7360a01b8152506040518060400160405280600581526020016420a624a2a760d91b815250600062000067620000e560201b60201c565b600080546001600160a01b0319166001600160a01b0383169081178255604051929350917f8be0079c531659141344cd1fd0a4f28419497f9722a3daafe3b4186f6b6457e0908290a3508151620000c6906001906020850190620000e9565b508051620000dc906002906020840190620000e9565b505050620001cc565b3390565b828054620000f7906200018f565b90600052602060002090601f0160209004810192826200011b576000855562000166565b82601f106200013657805160ff191683800117855562000166565b8280016001018555821562000166579182015b828111156200016657825182559160200191906001019062000149565b506200017492915062000178565b5090565b5b8082111562000174576000815560010162000179565b600181811c90821680620001a457607f821691505b60208210811415620001c657634e487b7160e01b600052602260045260246000fd5b50919050565b61242e80620001dc6000396000f3fe608060405234801561001057600080fd5b50600436106101735760003560e01c806370a08231116100de578063b88d4fde11610097578063c87b56dd11610071578063c87b56dd1461036a578063e985e9c51461037d578063f2fde38b146103b9578063f8ef871c146103cc57610173565b8063b88d4fde146102f3578063ba26927114610306578063beabacc81461035757610173565b806370a0823114610299578063715018a6146102ac5780638da5cb5b146102b4578063921a7620146102c557806395d89b41146102d8578063a22cb465146102e057610173565b806323b872dd1161013057806323b872dd14610227578063242155cb1461023a5780632f782dda1461024d57806342842e0e1461026057806342966c68146102735780636352211e1461028657610173565b806301ffc9a71461017857806306fdde03146101a0578063081812fc146101b5578063095ea7b3146101e05780630c5318e7146101f557806318160ddd14610215575b600080fd5b61018b610186366004611fcf565b6103df565b60405190151581526020015b60405180910390f35b6101a8610433565b6040516101979190612164565b6101c86101c3366004612007565b6104c5565b6040516001600160a01b039091168152602001610197565b6101f36101ee366004611fa6565b61055f565b005b610208610203366004611e10565b610675565b6040516101979190612120565b6007545b604051908152602001610197565b6101f3610235366004611e5c565b6107d2565b610219610248366004612007565b610804565b61021961025b366004612040565b6108bc565b6101f361026e366004611e5c565b6108d7565b6101f3610281366004612007565b6108f2565b6101c8610294366004612007565b6109f9565b6102196102a7366004611e10565b610a70565b6101f3610af7565b6000546001600160a01b03166101c8565b6102196102d336600461201f565b610b6b565b6101a8610d49565b6101f36102ee366004611f6c565b610d58565b6101f3610301366004611e97565b610e2a565b610319610314366004612007565b610e62565b6040805195865267ffffffffffffffff909416602086015263ffffffff9283169385019390935216606083015261ffff16608082015260a001610197565b6101f3610365366004611e5c565b610f66565b6101a8610378366004612007565b6110c2565b61018b61038b366004611e2a565b6001600160a01b03918216600090815260066020908152604080832093909416825291909152205460ff1690565b6101f36103c7366004611e10565b6111a9565b61018b6103da366004611fa6565b611293565b60006001600160e01b031982166380ac58cd60e01b148061041057506001600160e01b03198216635b5e139f60e01b145b8061042b57506301ffc9a760e01b6001600160e01b03198316145b90505b919050565b60606001805461044290612311565b80601f016020809104026020016040519081016040528092919081815260200182805461046e90612311565b80156104bb5780601f10610490576101008083540402835291602001916104bb565b820191906000526020600020905b81548152906001019060200180831161049e57829003601f168201915b5050505050905090565b6000818152600360205260408120546001600160a01b03166105435760405162461bcd60e51b815260206004820152602c60248201527f4552433732313a20617070726f76656420717565727920666f72206e6f6e657860448201526b34b9ba32b73a103a37b5b2b760a11b60648201526084015b60405180910390fd5b506000908152600560205260409020546001600160a01b031690565b600061056a826109f9565b9050806001600160a01b0316836001600160a01b031614156105d85760405162461bcd60e51b815260206004820152602160248201527f4552433732313a20617070726f76616c20746f2063757272656e74206f776e656044820152603960f91b606482015260840161053a565b336001600160a01b03821614806105f457506105f4813361038b565b6106665760405162461bcd60e51b815260206004820152603860248201527f4552433732313a20617070726f76652063616c6c6572206973206e6f74206f7760448201527f6e6572206e6f7220617070726f76656420666f7220616c6c0000000000000000606482015260840161053a565b610670838361129f565b505050565b60606001600160a01b0382166106cd5760405162461bcd60e51b815260206004820181905260248201527f546f6b656e20717565727920666f7220746865207a65726f2061646472657373604482015260640161053a565b60006106d883610a70565b9050806106f557505060408051600081526020810190915261042e565b60008167ffffffffffffffff81111561071e57634e487b7160e01b600052604160045260246000fd5b604051908082528060200260200182016040528015610747578160200160208202803683370190505b506007549091506000805b8281116107c7576000818152600960205260409020546001600160a01b03888116911614156107b5578084838151811061079c57634e487b7160e01b600052603260045260246000fd5b6020908102919091010152816107b18161234c565b9250505b806107bf8161234c565b915050610752565b509195945050505050565b6107dd335b8261130d565b6107f95760405162461bcd60e51b815260040161053a906121fe565b610670838383611404565b600080546001600160a01b0316331461082f5760405162461bcd60e51b815260040161053a906121c9565b600a61083a600b5490565b106108965760405162461bcd60e51b815260206004820152602660248201527f4d6178696d756d20616d6f756e74206f6620616c69656e732047656e20302072604482015265195858da195960d21b606482015260840161053a565b6108a4600b80546001019055565b60006108b5836000806000336108bc565b9392505050565b6000806108cc87878787876115a4565b979650505050505050565b61067083838360405180602001604052806000815250610e2a565b6108fb336107d7565b6109605760405162461bcd60e51b815260206004820152603060248201527f4552433732314275726e61626c653a2063616c6c6572206973206e6f74206f7760448201526f1b995c881b9bdc88185c1c1c9bdd995960821b606482015260840161053a565b6109698161177f565b6007818154811061098a57634e487b7160e01b600052603260045260246000fd5b600091825260208083206002929092029091019182556001909101805471ffffffffffffffffffffffffffffffffffff19169055604080513381529182018390527f375de7ebcf7d9aedaeea87f94fccc860c3e5afbe038d8a9567ed76e1861c3694910160405180910390a150565b6000818152600360205260408120546001600160a01b03168061042b5760405162461bcd60e51b815260206004820152602960248201527f4552433732313a206f776e657220717565727920666f72206e6f6e657869737460448201526832b73a103a37b5b2b760b91b606482015260840161053a565b60006001600160a01b038216610adb5760405162461bcd60e51b815260206004820152602a60248201527f4552433732313a2062616c616e636520717565727920666f7220746865207a65604482015269726f206164647265737360b01b606482015260840161053a565b506001600160a01b031660009081526004602052604090205490565b6000546001600160a01b03163314610b215760405162461bcd60e51b815260040161053a906121c9565b600080546040516001600160a01b03909116907f8be0079c531659141344cd1fd0a4f28419497f9722a3daafe3b4186f6b6457e0908390a3600080546001600160a01b0319169055565b6000610b773384611293565b610bd15760405162461bcd60e51b815260206004820152602560248201527f546865207573657220646f65736e2774206f776e2074686520746f6b656e205f604482015264191859125960da1b606482015260840161053a565b610bdb3383611293565b610c355760405162461bcd60e51b815260206004820152602560248201527f546865207573657220646f65736e2774206f776e2074686520746f6b656e205f6044820152641b5d5b525960da1b606482015260840161053a565b81831415610c855760405162461bcd60e51b815260206004820152601b60248201527f746f6b656e49642073686f756c6420626520646966666572656e740000000000604482015260640161053a565b600060078481548110610ca857634e487b7160e01b600052603260045260246000fd5b90600052602060002090600202019050600060078481548110610cdb57634e487b7160e01b600052603260045260246000fd5b906000526020600020906002020190506000610cff8360000154836000015461181a565b60018085015490840154919250600091610d2c9161ffff600160801b9182900481169291909104166119ab565b90506000610d3d83888a85336108bc565b98975050505050505050565b60606002805461044290612311565b6001600160a01b038216331415610db15760405162461bcd60e51b815260206004820152601960248201527f4552433732313a20617070726f766520746f2063616c6c657200000000000000604482015260640161053a565b3360008181526006602090815260408083206001600160a01b0387168085529252909120805460ff1916841515179055906001600160a01b03167f17307eab39ab6107e8899845ad3d59bd9653f200f220920489ca2b5937696c3183604051610e1e911515815260200190565b60405180910390a35050565b610e34338361130d565b610e505760405162461bcd60e51b815260040161053a906121fe565b610e5c848484846119c2565b50505050565b6000806000806000600780549050861115610ebf5760405162461bcd60e51b815260206004820152601960248201527f4964206f757473696465206f6620746f74616c537570706c7900000000000000604482015260640161053a565b600060078781548110610ee257634e487b7160e01b600052603260045260246000fd5b60009182526020918290206040805160a081018252600293909302909101805480845260019091015467ffffffffffffffff8116948401859052600160401b810463ffffffff908116938501849052600160601b82041660608501819052600160801b90910461ffff166080909401849052909b939a509098509650945092505050565b6001600160a01b038216610fbc5760405162461bcd60e51b815260206004820152601c60248201527f7472616e7366657220746f20746865207a65726f206164647265737300000000604482015260640161053a565b6001600160a01b0382163014156110095760405162461bcd60e51b815260206004820152601160248201527043616e2774207472616e7366657220746f60781b604482015260640161053a565b6001600160a01b038216600090815260086020526040812080549161102d8361234c565b909155506001600160a01b03808416600081815260086020908152604080832095909555858252600990529290922080546001600160a01b0319169092179091558316156110b7576001600160a01b0383166000908152600860205260408120805491611099836122dd565b909155506001600160a01b0384166000908152600860205260409020555b6106708383836108d7565b6000818152600360205260409020546060906001600160a01b03166111415760405162461bcd60e51b815260206004820152602f60248201527f4552433732314d657461646174613a2055524920717565727920666f72206e6f60448201526e3732bc34b9ba32b73a103a37b5b2b760891b606482015260840161053a565b600061115860408051602081019091526000815290565b9050600081511161117857604051806020016040528060008152506108b5565b80611182846119f5565b6040516020016111939291906120b4565b6040516020818303038152906040529392505050565b6000546001600160a01b031633146111d35760405162461bcd60e51b815260040161053a906121c9565b6001600160a01b0381166112385760405162461bcd60e51b815260206004820152602660248201527f4f776e61626c653a206e6577206f776e657220697320746865207a65726f206160448201526564647265737360d01b606482015260840161053a565b600080546040516001600160a01b03808516939216917f8be0079c531659141344cd1fd0a4f28419497f9722a3daafe3b4186f6b6457e091a3600080546001600160a01b0319166001600160a01b0392909216919091179055565b60006108b5838361130d565b600081815260056020526040902080546001600160a01b0319166001600160a01b03841690811790915581906112d4826109f9565b6001600160a01b03167f8c5be1e5ebec7d5bd14f71427d1e84f3dd0314c0f7b2291e5b200ac8c7c3b92560405160405180910390a45050565b6000818152600360205260408120546001600160a01b03166113865760405162461bcd60e51b815260206004820152602c60248201527f4552433732313a206f70657261746f7220717565727920666f72206e6f6e657860448201526b34b9ba32b73a103a37b5b2b760a11b606482015260840161053a565b6000611391836109f9565b9050806001600160a01b0316846001600160a01b031614806113cc5750836001600160a01b03166113c1846104c5565b6001600160a01b0316145b806113fc57506001600160a01b0380821660009081526006602090815260408083209388168352929052205460ff165b949350505050565b826001600160a01b0316611417826109f9565b6001600160a01b03161461147f5760405162461bcd60e51b815260206004820152602960248201527f4552433732313a207472616e73666572206f6620746f6b656e2074686174206960448201526839903737ba1037bbb760b91b606482015260840161053a565b6001600160a01b0382166114e15760405162461bcd60e51b8152602060048201526024808201527f4552433732313a207472616e7366657220746f20746865207a65726f206164646044820152637265737360e01b606482015260840161053a565b6114ec60008261129f565b6001600160a01b038316600090815260046020526040812080546001929061151590849061229a565b90915550506001600160a01b038216600090815260046020526040812080546001929061154390849061224f565b909155505060008181526003602052604080822080546001600160a01b0319166001600160a01b0386811691821790925591518493918716917fddf252ad1be2c89b69c2b068fc378daa952ba7f163c4a11628f55a4df523b3ef91a4505050565b6040805160a08101825286815267ffffffffffffffff4281166020830190815263ffffffff8089169484019485528781166060850190815261ffff80891660808701908152600780546001818101835560008381528a5160029093027fa66cc928b5edb82af9bd49922954155ab7b0942694bea4ce44661d9a8736c68881019390935597517fa66cc928b5edb82af9bd49922954155ab7b0942694bea4ce44661d9a8736c68990920180549b5196519451909516600160801b0261ffff60801b19948816600160601b029490941665ffffffffffff60601b19968816600160401b026bffffffffffffffffffffffff19909c169290991691909117999099179390931695909517949094179093559154909384926116c4929190611b1016565b90506116d08482611b1c565b600081815260096020908152604080832080546001600160a01b0319163390811790915583526008909152902054611709906001611b3a565b336000908152600860209081526040918290209290925580516001600160a01b0387168152918201839052810188905260608101879052608081018990527f4df9d353e24d45336c180871f471a1c9e897d3f6f978bad7ec1cbe4efc6f7fe29060a00160405180910390a1979650505050505050565b600061178a826109f9565b905061179760008361129f565b6001600160a01b03811660009081526004602052604081208054600192906117c090849061229a565b909155505060008281526003602052604080822080546001600160a01b0319169055518391906001600160a01b038416907fddf252ad1be2c89b69c2b068fc378daa952ba7f163c4a11628f55a4df523b3ef908390a45050565b6000611824611dda565b600061182e611b46565b9050600760015b608081116118f35782811660ff161561188357611853606488612367565b60ff16848360ff166008811061187957634e487b7160e01b600052603260045260246000fd5b60200201526118ba565b61188e606487612367565b60ff16848360ff16600881106118b457634e487b7160e01b600052603260045260246000fd5b60200201525b6118c5606488612267565b96506118d2606487612267565b9550816118de816122f4565b5091506118ec81600261227b565b9050611835565b50600061190160078461237b565b905061190e60638461237b565b60ff16848260ff166008811061193457634e487b7160e01b600052603260045260246000fd5b60200201526000805b600881101561199f5785816008811061196657634e487b7160e01b600052603260045260246000fd5b6020020151611975908361224f565b91508060071461198d5761198a82606461227b565b91505b61199881600161224f565b905061193d565b50979650505050505050565b6000818310156119bb57816108b5565b5090919050565b6119cd848484611404565b6119d984848484611b58565b610e5c5760405162461bcd60e51b815260040161053a90612177565b606081611a1a57506040805180820190915260018152600360fc1b602082015261042e565b8160005b8115611a445780611a2e8161234c565b9150611a3d9050600a83612267565b9150611a1e565b60008167ffffffffffffffff811115611a6d57634e487b7160e01b600052604160045260246000fd5b6040519080825280601f01601f191660200182016040528015611a97576020820181803683370190505b5090505b84156113fc57611aac60018361229a565b9150611ab9600a86612367565b611ac490603061224f565b60f81b818381518110611ae757634e487b7160e01b600052603260045260246000fd5b60200101906001600160f81b031916908160001a905350611b09600a86612267565b9450611a9b565b60006108b5828461229a565b611b36828260405180602001604052806000815250611c65565b5050565b60006108b5828461224f565b6000611b5360ff42612367565b905090565b60006001600160a01b0384163b15611c5a57604051630a85bd0160e11b81526001600160a01b0385169063150b7a0290611b9c9033908990889088906004016120e3565b602060405180830381600087803b158015611bb657600080fd5b505af1925050508015611be6575060408051601f3d908101601f19168201909252611be391810190611feb565b60015b611c40573d808015611c14576040519150601f19603f3d011682016040523d82523d6000602084013e611c19565b606091505b508051611c385760405162461bcd60e51b815260040161053a90612177565b805181602001fd5b6001600160e01b031916630a85bd0160e11b1490506113fc565b506001949350505050565b611c6f8383611c98565b611c7c6000848484611b58565b6106705760405162461bcd60e51b815260040161053a90612177565b6001600160a01b038216611cee5760405162461bcd60e51b815260206004820181905260248201527f4552433732313a206d696e7420746f20746865207a65726f2061646472657373604482015260640161053a565b6000818152600360205260409020546001600160a01b031615611d535760405162461bcd60e51b815260206004820152601c60248201527f4552433732313a20746f6b656e20616c7265616479206d696e74656400000000604482015260640161053a565b6001600160a01b0382166000908152600460205260408120805460019290611d7c90849061224f565b909155505060008181526003602052604080822080546001600160a01b0319166001600160a01b03861690811790915590518392907fddf252ad1be2c89b69c2b068fc378daa952ba7f163c4a11628f55a4df523b3ef908290a45050565b6040518061010001604052806008906020820280368337509192915050565b80356001600160a01b038116811461042e57600080fd5b600060208284031215611e21578081fd5b6108b582611df9565b60008060408385031215611e3c578081fd5b611e4583611df9565b9150611e5360208401611df9565b90509250929050565b600080600060608486031215611e70578081fd5b611e7984611df9565b9250611e8760208501611df9565b9150604084013590509250925092565b60008060008060808587031215611eac578081fd5b611eb585611df9565b9350611ec360208601611df9565b925060408501359150606085013567ffffffffffffffff80821115611ee6578283fd5b818701915087601f830112611ef9578283fd5b813581811115611f0b57611f0b6123c9565b604051601f8201601f19908116603f01168101908382118183101715611f3357611f336123c9565b816040528281528a6020848701011115611f4b578586fd5b82602086016020830137918201602001949094529598949750929550505050565b60008060408385031215611f7e578182fd5b611f8783611df9565b915060208301358015158114611f9b578182fd5b809150509250929050565b60008060408385031215611fb8578182fd5b611fc183611df9565b946020939093013593505050565b600060208284031215611fe0578081fd5b81356108b5816123df565b600060208284031215611ffc578081fd5b81516108b5816123df565b600060208284031215612018578081fd5b5035919050565b60008060408385031215612031578182fd5b50508035926020909101359150565b600080600080600060a08688031215612057578081fd5b8535945060208601359350604086013592506060860135915061207c60808701611df9565b90509295509295909350565b600081518084526120a08160208601602086016122b1565b601f01601f19169290920160200192915050565b600083516120c68184602088016122b1565b8351908301906120da8183602088016122b1565b01949350505050565b6001600160a01b038581168252841660208201526040810183905260806060820181905260009061211690830184612088565b9695505050505050565b6020808252825182820181905260009190848201906040850190845b818110156121585783518352928401929184019160010161213c565b50909695505050505050565b6000602082526108b56020830184612088565b60208082526032908201527f4552433732313a207472616e7366657220746f206e6f6e20455243373231526560408201527131b2b4bb32b91034b6b83632b6b2b73a32b960711b606082015260800190565b6020808252818101527f4f776e61626c653a2063616c6c6572206973206e6f7420746865206f776e6572604082015260600190565b60208082526031908201527f4552433732313a207472616e736665722063616c6c6572206973206e6f74206f6040820152701ddb995c881b9bdc88185c1c1c9bdd9959607a1b606082015260800190565b600082198211156122625761226261239d565b500190565b600082612276576122766123b3565b500490565b60008160001904831182151516156122955761229561239d565b500290565b6000828210156122ac576122ac61239d565b500390565b60005b838110156122cc5781810151838201526020016122b4565b83811115610e5c5750506000910152565b6000816122ec576122ec61239d565b506000190190565b600060ff8216806123075761230761239d565b6000190192915050565b600181811c9082168061232557607f821691505b6020821081141561234657634e487b7160e01b600052602260045260246000fd5b50919050565b60006000198214156123605761236061239d565b5060010190565b600082612376576123766123b3565b500690565b600060ff83168061238e5761238e6123b3565b8060ff84160691505092915050565b634e487b7160e01b600052601160045260246000fd5b634e487b7160e01b600052601260045260246000fd5b634e487b7160e01b600052604160045260246000fd5b6001600160e01b0319811681146123f557600080fd5b5056fea26469706673582212207eef5e799389dbba378e6ea2e6de521f7aac8828a9301afba3e807ffbb9b623564736f6c63430008030033",
  "linkReferences": {},
  "deployedLinkReferences": {}
}