{
  "_format": "hh-sol-artifact-1",
  "contractName": "AlienCore",
  "sourceName": "contracts/AlienCore.sol",
  "abi": [
    {
      "inputs": [
        {
          "internalType": "address",
          "name": "_AlienERC721",
          "type": "address"
        }
      ],
      "stateMutability": "nonpayable",
      "type": "constructor"
    },
    {
      "anonymous": false,
      "inputs": [
        {
          "indexed": true,
          "internalType": "address",
          "name": "previousOwner",
          "type": "address"
        },
        {
          "indexed": true,
          "internalType": "address",
          "name": "newOwner",
          "type": "address"
        }
      ],
      "name": "OwnershipTransferred",
      "type": "event"
    },
    {
      "inputs": [],
      "name": "IAlienNFT",
      "outputs": [
        {
          "internalType": "address",
          "name": "",
          "type": "address"
        }
      ],
      "stateMutability": "view",
      "type": "function"
    },
    {
      "inputs": [],
      "name": "aln721",
      "outputs": [
        {
          "internalType": "contract IAlienERC721",
          "name": "",
          "type": "address"
        }
      ],
      "stateMutability": "view",
      "type": "function"
    },
    {
      "inputs": [
        {
          "internalType": "uint256",
          "name": "_dadId",
          "type": "uint256"
        },
        {
          "internalType": "uint256",
          "name": "_mumId",
          "type": "uint256"
        }
      ],
      "name": "cloneAlien",
      "outputs": [
        {
          "internalType": "uint256",
          "name": "",
          "type": "uint256"
        }
      ],
      "stateMutability": "nonpayable",
      "type": "function"
    },
    {
      "inputs": [
        {
          "internalType": "uint256",
          "name": "genes",
          "type": "uint256"
        }
      ],
      "name": "createAlienGen0",
      "outputs": [
        {
          "internalType": "uint256",
          "name": "",
          "type": "uint256"
        }
      ],
      "stateMutability": "nonpayable",
      "type": "function"
    },
    {
      "inputs": [],
      "name": "owner",
      "outputs": [
        {
          "internalType": "address",
          "name": "",
          "type": "address"
        }
      ],
      "stateMutability": "view",
      "type": "function"
    },
    {
      "inputs": [],
      "name": "renounceOwnership",
      "outputs": [],
      "stateMutability": "nonpayable",
      "type": "function"
    },
    {
      "inputs": [
        {
          "internalType": "address",
          "name": "newOwner",
          "type": "address"
        }
      ],
      "name": "transferOwnership",
      "outputs": [],
      "stateMutability": "nonpayable",
      "type": "function"
    }
  ],
  "bytecode": "0x608060405234801561001057600080fd5b50604051610c9d380380610c9d83398101604081905261002f9161009f565b600080546001600160a01b031916339081178255604051909182917f8be0079c531659141344cd1fd0a4f28419497f9722a3daafe3b4186f6b6457e0908290a350600280546001600160a01b039092166001600160a01b03199283168117909155600380549092161790556100cd565b6000602082840312156100b0578081fd5b81516001600160a01b03811681146100c6578182fd5b9392505050565b610bc1806100dc6000396000f3fe608060405234801561001057600080fd5b506004361061007d5760003560e01c80638da5cb5b1161005b5780638da5cb5b146100dd5780639134f73c146100ee578063921a762014610101578063f2fde38b146101145761007d565b806318e0b13e14610082578063242155cb146100b2578063715018a6146100d3575b600080fd5b600354610095906001600160a01b031681565b6040516001600160a01b0390911681526020015b60405180910390f35b6100c56100c0366004610a2e565b610127565b6040519081526020016100a9565b6100db610271565b005b6000546001600160a01b0316610095565b600254610095906001600160a01b031681565b6100c561010f366004610a5e565b6102e5565b6100db6101223660046109e7565b6106cf565b600080546001600160a01b0316331461015b5760405162461bcd60e51b815260040161015290610ab4565b60405180910390fd5b600a61016660015490565b106101c25760405162461bcd60e51b815260206004820152602660248201527f4d6178696d756d20616d6f756e74206f6620616c69656e732047656e20302072604482015265195858da195960d21b6064820152608401610152565b6101d0600180546001019055565b6003546040516317bc16ed60e11b8152600481018490526000602482018190526044820181905260648201819052336084830152916001600160a01b031690632f782dda9060a401602060405180830381600087803b15801561023257600080fd5b505af1158015610246573d6000803e3d6000fd5b505050506040513d601f19601f8201168201806040525081019061026a9190610a46565b9392505050565b6000546001600160a01b0316331461029b5760405162461bcd60e51b815260040161015290610ab4565b600080546040516001600160a01b03909116907f8be0079c531659141344cd1fd0a4f28419497f9722a3daafe3b4186f6b6457e0908390a3600080546001600160a01b0319169055565b600354604051633e3be1c760e21b8152336004820152602481018490526000916001600160a01b03169063f8ef871c9060440160206040518083038186803b15801561033057600080fd5b505afa158015610344573d6000803e3d6000fd5b505050506040513d601f19601f820116820180604052508101906103689190610a0e565b15156001146103c75760405162461bcd60e51b815260206004820152602560248201527f546865207573657220646f65736e2774206f776e2074686520746f6b656e205f604482015264191859125960da1b6064820152608401610152565b600354604051633e3be1c760e21b8152336004820152602481018490526001600160a01b039091169063f8ef871c9060440160206040518083038186803b15801561041157600080fd5b505afa158015610425573d6000803e3d6000fd5b505050506040513d601f19601f820116820180604052508101906104499190610a0e565b15156001146104a85760405162461bcd60e51b815260206004820152602560248201527f546865207573657220646f65736e2774206f776e2074686520746f6b656e205f6044820152641b5d5b525960da1b6064820152608401610152565b818314156104f85760405162461bcd60e51b815260206004820152601b60248201527f746f6b656e49642073686f756c6420626520646966666572656e7400000000006044820152606401610152565b60035460405163ba26927160e01b81526004810185905260009182916001600160a01b039091169063ba2692719060240160806040518083038186803b15801561054157600080fd5b505afa158015610555573d6000803e3d6000fd5b505050506040513d601f19601f820116820180604052508101906105799190610a7f565b60035460405163ba26927160e01b8152600481018a90529496509094506000938493506001600160a01b03909116915063ba2692719060240160806040518083038186803b1580156105ca57600080fd5b505afa1580156105de573d6000803e3d6000fd5b505050506040513d601f19601f820116820180604052508101906106029190610a7f565b935050509150600061061485846107b9565b90506000610622858461093d565b6003546040516317bc16ed60e11b815260048101859052602481018b9052604481018c9052606481018390523360848201529192506000916001600160a01b0390911690632f782dda9060a401602060405180830381600087803b15801561068957600080fd5b505af115801561069d573d6000803e3d6000fd5b505050506040513d601f19601f820116820180604052508101906106c19190610a46565b9a9950505050505050505050565b6000546001600160a01b031633146106f95760405162461bcd60e51b815260040161015290610ab4565b6001600160a01b03811661075e5760405162461bcd60e51b815260206004820152602660248201527f4f776e61626c653a206e6577206f776e657220697320746865207a65726f206160448201526564647265737360d01b6064820152608401610152565b600080546040516001600160a01b03808516939216917f8be0079c531659141344cd1fd0a4f28419497f9722a3daafe3b4186f6b6457e091a3600080546001600160a01b0319166001600160a01b0392909216919091179055565b6000806107c46109c8565b600760006107d34260ff61098c565b60ff16905060015b6080811161088d5781811615610823576107f687606461098c565b60ff1684846008811061081957634e487b7160e01b600052603260045260246000fd5b6020020152610857565b61082e88606461098c565b60ff1684846008811061085157634e487b7160e01b600052603260045260246000fd5b60200201525b610862876064610998565b5061086e886064610998565b5061087a8360016109a4565b506108868160026109b0565b90506107db565b600061089a83600761098c565b90506108a783606361098c565b8582600881106108c757634e487b7160e01b600052603260045260246000fd5b6020020152600091505b6008821015610930576109098583600881106108fd57634e487b7160e01b600052603260045260246000fd5b602002015187906109bc565b508160071461091f5761091d8660646109b0565b505b61092a8260016109bc565b506108d1565b5093979650505050505050565b60008082841015610966576109538360016109bc565b9050610960816002610998565b5061026a565b82841115610979576109538460016109bc565b6109848360016109bc565b949350505050565b600061026a8284610b4b565b600061026a8284610b01565b600061026a8284610b34565b600061026a8284610b15565b600061026a8284610ae9565b6040518061010001604052806008906020820280368337509192915050565b6000602082840312156109f8578081fd5b81356001600160a01b038116811461026a578182fd5b600060208284031215610a1f578081fd5b8151801515811461026a578182fd5b600060208284031215610a3f578081fd5b5035919050565b600060208284031215610a57578081fd5b5051919050565b60008060408385031215610a70578081fd5b50508035926020909101359150565b60008060008060808587031215610a94578182fd5b505082516020840151604085015160609095015191969095509092509050565b6020808252818101527f4f776e61626c653a2063616c6c6572206973206e6f7420746865206f776e6572604082015260600190565b60008219821115610afc57610afc610b5f565b500190565b600082610b1057610b10610b75565b500490565b6000816000190483118215151615610b2f57610b2f610b5f565b500290565b600082821015610b4657610b46610b5f565b500390565b600082610b5a57610b5a610b75565b500690565b634e487b7160e01b600052601160045260246000fd5b634e487b7160e01b600052601260045260246000fdfea26469706673582212207f3b2e9e638ba651deee01f5d80bcc0c69c5b3ae561519603adbce0860255ff264736f6c63430008030033",
  "linkReferences": {},
  "deployedLinkReferences": {}
}