{
  "_format": "hh-sol-artifact-1",
  "contractName": "AlienERC721",
  "sourceName": "contracts/AlienERC721.sol",
  "abi": [
    {
      "inputs": [],
      "stateMutability": "nonpayable",
      "type": "constructor"
    },
    {
      "anonymous": false,
      "inputs": [
        {
          "indexed": false,
          "internalType": "address",
          "name": "owner",
          "type": "address"
        },
        {
          "indexed": false,
          "internalType": "uint256",
          "name": "tokenId",
          "type": "uint256"
        },
        {
          "indexed": false,
          "internalType": "uint256",
          "name": "mumId",
          "type": "uint256"
        },
        {
          "indexed": false,
          "internalType": "uint256",
          "name": "dadId",
          "type": "uint256"
        },
        {
          "indexed": false,
          "internalType": "uint256",
          "name": "genes",
          "type": "uint256"
        }
      ],
      "name": "AlienMinted",
      "type": "event"
    },
    {
      "anonymous": false,
      "inputs": [
        {
          "indexed": true,
          "internalType": "address",
          "name": "owner",
          "type": "address"
        },
        {
          "indexed": true,
          "internalType": "address",
          "name": "approved",
          "type": "address"
        },
        {
          "indexed": true,
          "internalType": "uint256",
          "name": "tokenId",
          "type": "uint256"
        }
      ],
      "name": "Approval",
      "type": "event"
    },
    {
      "anonymous": false,
      "inputs": [
        {
          "indexed": true,
          "internalType": "address",
          "name": "owner",
          "type": "address"
        },
        {
          "indexed": true,
          "internalType": "address",
          "name": "operator",
          "type": "address"
        },
        {
          "indexed": false,
          "internalType": "bool",
          "name": "approved",
          "type": "bool"
        }
      ],
      "name": "ApprovalForAll",
      "type": "event"
    },
    {
      "anonymous": false,
      "inputs": [
        {
          "indexed": true,
          "internalType": "address",
          "name": "previousOwner",
          "type": "address"
        },
        {
          "indexed": true,
          "internalType": "address",
          "name": "newOwner",
          "type": "address"
        }
      ],
      "name": "OwnershipTransferred",
      "type": "event"
    },
    {
      "anonymous": false,
      "inputs": [
        {
          "indexed": false,
          "internalType": "address",
          "name": "account",
          "type": "address"
        }
      ],
      "name": "Paused",
      "type": "event"
    },
    {
      "anonymous": false,
      "inputs": [
        {
          "indexed": true,
          "internalType": "address",
          "name": "from",
          "type": "address"
        },
        {
          "indexed": true,
          "internalType": "address",
          "name": "to",
          "type": "address"
        },
        {
          "indexed": true,
          "internalType": "uint256",
          "name": "tokenId",
          "type": "uint256"
        }
      ],
      "name": "Transfer",
      "type": "event"
    },
    {
      "anonymous": false,
      "inputs": [
        {
          "indexed": false,
          "internalType": "address",
          "name": "account",
          "type": "address"
        }
      ],
      "name": "Unpaused",
      "type": "event"
    },
    {
      "inputs": [
        {
          "internalType": "address",
          "name": "",
          "type": "address"
        },
        {
          "internalType": "uint256",
          "name": "",
          "type": "uint256"
        }
      ],
      "name": "alienDetails",
      "outputs": [
        {
          "internalType": "uint256",
          "name": "genes",
          "type": "uint256"
        },
        {
          "internalType": "uint32",
          "name": "mumId",
          "type": "uint32"
        },
        {
          "internalType": "uint32",
          "name": "dadId",
          "type": "uint32"
        },
        {
          "internalType": "uint16",
          "name": "generation",
          "type": "uint16"
        }
      ],
      "stateMutability": "view",
      "type": "function"
    },
    {
      "inputs": [
        {
          "internalType": "address",
          "name": "to",
          "type": "address"
        },
        {
          "internalType": "uint256",
          "name": "tokenId",
          "type": "uint256"
        }
      ],
      "name": "approve",
      "outputs": [],
      "stateMutability": "nonpayable",
      "type": "function"
    },
    {
      "inputs": [
        {
          "internalType": "address",
          "name": "owner",
          "type": "address"
        }
      ],
      "name": "balanceOf",
      "outputs": [
        {
          "internalType": "uint256",
          "name": "",
          "type": "uint256"
        }
      ],
      "stateMutability": "view",
      "type": "function"
    },
    {
      "inputs": [
        {
          "internalType": "uint256",
          "name": "tokenId",
          "type": "uint256"
        }
      ],
      "name": "burn",
      "outputs": [],
      "stateMutability": "nonpayable",
      "type": "function"
    },
    {
      "inputs": [
        {
          "internalType": "uint256",
          "name": "_genes",
          "type": "uint256"
        },
        {
          "internalType": "uint256",
          "name": "_mumId",
          "type": "uint256"
        },
        {
          "internalType": "uint256",
          "name": "_dadId",
          "type": "uint256"
        },
        {
          "internalType": "uint256",
          "name": "_generation",
          "type": "uint256"
        },
        {
          "internalType": "address",
          "name": "_owner",
          "type": "address"
        }
      ],
      "name": "createAlien",
      "outputs": [
        {
          "internalType": "uint256",
          "name": "",
          "type": "uint256"
        }
      ],
      "stateMutability": "nonpayable",
      "type": "function"
    },
    {
      "inputs": [
        {
          "internalType": "uint256",
          "name": "_nftId",
          "type": "uint256"
        }
      ],
      "name": "getAlien",
      "outputs": [
        {
          "internalType": "uint256",
          "name": "_genes",
          "type": "uint256"
        },
        {
          "internalType": "uint32",
          "name": "_mumId",
          "type": "uint32"
        },
        {
          "internalType": "uint32",
          "name": "_dadId",
          "type": "uint32"
        },
        {
          "internalType": "uint16",
          "name": "_generation",
          "type": "uint16"
        }
      ],
      "stateMutability": "view",
      "type": "function"
    },
    {
      "inputs": [
        {
          "internalType": "address",
          "name": "_owner",
          "type": "address"
        }
      ],
      "name": "getAllAliens",
      "outputs": [
        {
          "internalType": "uint256[]",
          "name": "",
          "type": "uint256[]"
        }
      ],
      "stateMutability": "view",
      "type": "function"
    },
    {
      "inputs": [
        {
          "internalType": "uint256",
          "name": "tokenId",
          "type": "uint256"
        }
      ],
      "name": "getApproved",
      "outputs": [
        {
          "internalType": "address",
          "name": "",
          "type": "address"
        }
      ],
      "stateMutability": "view",
      "type": "function"
    },
    {
      "inputs": [
        {
          "internalType": "address",
          "name": "owner",
          "type": "address"
        },
        {
          "internalType": "address",
          "name": "operator",
          "type": "address"
        }
      ],
      "name": "isApprovedForAll",
      "outputs": [
        {
          "internalType": "bool",
          "name": "",
          "type": "bool"
        }
      ],
      "stateMutability": "view",
      "type": "function"
    },
    {
      "inputs": [
        {
          "internalType": "address",
          "name": "_owner",
          "type": "address"
        },
        {
          "internalType": "uint256",
          "name": "_nftId",
          "type": "uint256"
        }
      ],
      "name": "isApprovedOwner",
      "outputs": [
        {
          "internalType": "bool",
          "name": "",
          "type": "bool"
        }
      ],
      "stateMutability": "view",
      "type": "function"
    },
    {
      "inputs": [],
      "name": "name",
      "outputs": [
        {
          "internalType": "string",
          "name": "",
          "type": "string"
        }
      ],
      "stateMutability": "view",
      "type": "function"
    },
    {
      "inputs": [
        {
          "internalType": "address",
          "name": "",
          "type": "address"
        },
        {
          "internalType": "address",
          "name": "",
          "type": "address"
        },
        {
          "internalType": "uint256[]",
          "name": "",
          "type": "uint256[]"
        },
        {
          "internalType": "uint256[]",
          "name": "",
          "type": "uint256[]"
        },
        {
          "internalType": "bytes",
          "name": "",
          "type": "bytes"
        }
      ],
      "name": "onERC1155BatchReceived",
      "outputs": [
        {
          "internalType": "bytes4",
          "name": "",
          "type": "bytes4"
        }
      ],
      "stateMutability": "nonpayable",
      "type": "function"
    },
    {
      "inputs": [
        {
          "internalType": "address",
          "name": "",
          "type": "address"
        },
        {
          "internalType": "address",
          "name": "",
          "type": "address"
        },
        {
          "internalType": "uint256",
          "name": "",
          "type": "uint256"
        },
        {
          "internalType": "uint256",
          "name": "",
          "type": "uint256"
        },
        {
          "internalType": "bytes",
          "name": "",
          "type": "bytes"
        }
      ],
      "name": "onERC1155Received",
      "outputs": [
        {
          "internalType": "bytes4",
          "name": "",
          "type": "bytes4"
        }
      ],
      "stateMutability": "nonpayable",
      "type": "function"
    },
    {
      "inputs": [],
      "name": "owner",
      "outputs": [
        {
          "internalType": "address",
          "name": "",
          "type": "address"
        }
      ],
      "stateMutability": "view",
      "type": "function"
    },
    {
      "inputs": [
        {
          "internalType": "uint256",
          "name": "tokenId",
          "type": "uint256"
        }
      ],
      "name": "ownerOf",
      "outputs": [
        {
          "internalType": "address",
          "name": "",
          "type": "address"
        }
      ],
      "stateMutability": "view",
      "type": "function"
    },
    {
      "inputs": [],
      "name": "paused",
      "outputs": [
        {
          "internalType": "bool",
          "name": "",
          "type": "bool"
        }
      ],
      "stateMutability": "view",
      "type": "function"
    },
    {
      "inputs": [],
      "name": "renounceOwnership",
      "outputs": [],
      "stateMutability": "nonpayable",
      "type": "function"
    },
    {
      "inputs": [
        {
          "internalType": "address",
          "name": "from",
          "type": "address"
        },
        {
          "internalType": "address",
          "name": "to",
          "type": "address"
        },
        {
          "internalType": "uint256",
          "name": "tokenId",
          "type": "uint256"
        }
      ],
      "name": "safeTransferFrom",
      "outputs": [],
      "stateMutability": "nonpayable",
      "type": "function"
    },
    {
      "inputs": [
        {
          "internalType": "address",
          "name": "from",
          "type": "address"
        },
        {
          "internalType": "address",
          "name": "to",
          "type": "address"
        },
        {
          "internalType": "uint256",
          "name": "tokenId",
          "type": "uint256"
        },
        {
          "internalType": "bytes",
          "name": "_data",
          "type": "bytes"
        }
      ],
      "name": "safeTransferFrom",
      "outputs": [],
      "stateMutability": "nonpayable",
      "type": "function"
    },
    {
      "inputs": [
        {
          "internalType": "address",
          "name": "operator",
          "type": "address"
        },
        {
          "internalType": "bool",
          "name": "approved",
          "type": "bool"
        }
      ],
      "name": "setApprovalForAll",
      "outputs": [],
      "stateMutability": "nonpayable",
      "type": "function"
    },
    {
      "inputs": [
        {
          "internalType": "bytes4",
          "name": "interfaceId",
          "type": "bytes4"
        }
      ],
      "name": "supportsInterface",
      "outputs": [
        {
          "internalType": "bool",
          "name": "",
          "type": "bool"
        }
      ],
      "stateMutability": "view",
      "type": "function"
    },
    {
      "inputs": [],
      "name": "symbol",
      "outputs": [
        {
          "internalType": "string",
          "name": "",
          "type": "string"
        }
      ],
      "stateMutability": "view",
      "type": "function"
    },
    {
      "inputs": [
        {
          "internalType": "uint256",
          "name": "tokenId",
          "type": "uint256"
        }
      ],
      "name": "tokenURI",
      "outputs": [
        {
          "internalType": "string",
          "name": "",
          "type": "string"
        }
      ],
      "stateMutability": "view",
      "type": "function"
    },
    {
      "inputs": [
        {
          "internalType": "address",
          "name": "from",
          "type": "address"
        },
        {
          "internalType": "address",
          "name": "to",
          "type": "address"
        },
        {
          "internalType": "uint256",
          "name": "tokenId",
          "type": "uint256"
        }
      ],
      "name": "transferFrom",
      "outputs": [],
      "stateMutability": "nonpayable",
      "type": "function"
    },
    {
      "inputs": [
        {
          "internalType": "address",
          "name": "newOwner",
          "type": "address"
        }
      ],
      "name": "transferOwnership",
      "outputs": [],
      "stateMutability": "nonpayable",
      "type": "function"
    },
    {
      "inputs": [
        {
          "internalType": "address",
          "name": "",
          "type": "address"
        },
        {
          "internalType": "uint256",
          "name": "",
          "type": "uint256"
        }
      ],
      "name": "userAliens",
      "outputs": [
        {
          "internalType": "uint256",
          "name": "",
          "type": "uint256"
        }
      ],
      "stateMutability": "view",
      "type": "function"
    }
  ],
  "bytecode": "0x60806040523480156200001157600080fd5b5060405180604001604052806008815260200167105b1a595b93919560c21b81525060405180604001604052806005815260200164105313919560da1b815250600062000063620000eb60201b60201c565b600080546001600160a01b0319166001600160a01b0383169081178255604051929350917f8be0079c531659141344cd1fd0a4f28419497f9722a3daafe3b4186f6b6457e0908290a3508151620000c2906001906020850190620000ef565b508051620000d8906002906020840190620000ef565b50506007805460ff1916905550620001d2565b3390565b828054620000fd9062000195565b90600052602060002090601f0160209004810192826200012157600085556200016c565b82601f106200013c57805160ff19168380011785556200016c565b828001600101855582156200016c579182015b828111156200016c5782518255916020019190600101906200014f565b506200017a9291506200017e565b5090565b5b808211156200017a57600081556001016200017f565b600181811c90821680620001aa57607f821691505b60208210811415620001cc57634e487b7160e01b600052602260045260246000fd5b50919050565b611e5180620001e26000396000f3fe608060405234801561001057600080fd5b506004361061018e5760003560e01c8063715018a6116100de578063ba26927111610097578063e985e9c511610071578063e985e9c514610457578063f23a6e6114610493578063f2fde38b146104b2578063f8ef871c146104c55761018e565b8063ba26927114610398578063bc197c811461040c578063c87b56dd146104445761018e565b8063715018a61461033e5780638da5cb5b1461034657806395d89b4114610357578063a22cb4651461035f578063a4a2d98f14610372578063b88d4fde146103855761018e565b806323b872dd1161014b57806342966c681161012557806342966c68146102fa5780635c975abb1461030d5780636352211e1461031857806370a082311461032b5761018e565b806323b872dd146102b35780632f782dda146102c657806342842e0e146102e75761018e565b806301ffc9a71461019357806306fdde03146101bb578063081812fc146101d0578063095ea7b3146101fb5780630c5318e71461021057806319f2c08214610230575b600080fd5b6101a66101a1366004611a99565b6104d8565b60405190151581526020015b60405180910390f35b6101c36104eb565b6040516101b29190611c03565b6101e36101de366004611ad1565b61057d565b6040516001600160a01b0390911681526020016101b2565b61020e610209366004611a70565b610617565b005b61022361021e366004611840565b61072d565b6040516101b29190611bbf565b61028261023e366004611a70565b60096020908152600092835260408084209091529082529020805460019091015463ffffffff80821691640100000000810490911690600160401b900461ffff1684565b6040516101b2949392919093845263ffffffff92831660208501529116604083015261ffff16606082015260800190565b61020e6102c1366004611932565b610799565b6102d96102d4366004611ae9565b6107cb565b6040519081526020016101b2565b61020e6102f5366004611932565b6107e6565b61020e610308366004611ad1565b610801565b60075460ff166101a6565b6101e3610326366004611ad1565b61087b565b6102d9610339366004611840565b6108f2565b61020e610979565b6000546001600160a01b03166101e3565b6101c3610a1d565b61020e61036d366004611a36565b610a2c565b6102d9610380366004611a70565b610afe565b61020e61039336600461196d565b610b2f565b6102826103a6366004611ad1565b336000908152600960209081526040808320938352928152908290208251608081018452815480825260019092015463ffffffff808216948301859052640100000000820416948201859052600160401b900461ffff1660609091018190529093919291565b61042b61041a36600461188c565b63bc197c8160e01b95945050505050565b6040516001600160e01b031990911681526020016101b2565b6101c3610452366004611ad1565b610b67565b6101a661046536600461185a565b6001600160a01b03918216600090815260066020908152604080832093909416825291909152205460ff1690565b61042b6104a13660046119d3565b63f23a6e6160e01b95945050505050565b61020e6104c0366004611840565b610c4f565b6101a66104d3366004611a70565b610d69565b60006104e382610d75565b90505b919050565b6060600180546104fa90611d59565b80601f016020809104026020016040519081016040528092919081815260200182805461052690611d59565b80156105735780601f1061054857610100808354040283529160200191610573565b820191906000526020600020905b81548152906001019060200180831161055657829003601f168201915b5050505050905090565b6000818152600360205260408120546001600160a01b03166105fb5760405162461bcd60e51b815260206004820152602c60248201527f4552433732313a20617070726f76656420717565727920666f72206e6f6e657860448201526b34b9ba32b73a103a37b5b2b760a11b60648201526084015b60405180910390fd5b506000908152600560205260409020546001600160a01b031690565b60006106228261087b565b9050806001600160a01b0316836001600160a01b031614156106905760405162461bcd60e51b815260206004820152602160248201527f4552433732313a20617070726f76616c20746f2063757272656e74206f776e656044820152603960f91b60648201526084016105f2565b336001600160a01b03821614806106ac57506106ac8133610465565b61071e5760405162461bcd60e51b815260206004820152603860248201527f4552433732313a20617070726f76652063616c6c6572206973206e6f74206f7760448201527f6e6572206e6f7220617070726f76656420666f7220616c6c000000000000000060648201526084016105f2565b6107288383610d9a565b505050565b6001600160a01b0381166000908152600a602090815260409182902080548351818402810184019094528084526060939283018282801561078d57602002820191906000526020600020905b815481526020019060010190808311610779575b50505050509050919050565b6107a4335b82610e08565b6107c05760405162461bcd60e51b81526004016105f290611c68565b610728838383610eff565b6000806107db87878787876110aa565b979650505050505050565b61072883838360405180602001604052806000815250610b2f565b61080a3361079e565b61086f5760405162461bcd60e51b815260206004820152603060248201527f4552433732314275726e61626c653a2063616c6c6572206973206e6f74206f7760448201526f1b995c881b9bdc88185c1c1c9bdd995960821b60648201526084016105f2565b61087881611234565b50565b6000818152600360205260408120546001600160a01b0316806104e35760405162461bcd60e51b815260206004820152602960248201527f4552433732313a206f776e657220717565727920666f72206e6f6e657869737460448201526832b73a103a37b5b2b760b91b60648201526084016105f2565b60006001600160a01b03821661095d5760405162461bcd60e51b815260206004820152602a60248201527f4552433732313a2062616c616e636520717565727920666f7220746865207a65604482015269726f206164647265737360b01b60648201526084016105f2565b506001600160a01b031660009081526004602052604090205490565b6000546001600160a01b031633146109d35760405162461bcd60e51b815260206004820181905260248201527f4f776e61626c653a2063616c6c6572206973206e6f7420746865206f776e657260448201526064016105f2565b600080546040516001600160a01b03909116907f8be0079c531659141344cd1fd0a4f28419497f9722a3daafe3b4186f6b6457e0908390a3600080546001600160a01b0319169055565b6060600280546104fa90611d59565b6001600160a01b038216331415610a855760405162461bcd60e51b815260206004820152601960248201527f4552433732313a20617070726f766520746f2063616c6c65720000000000000060448201526064016105f2565b3360008181526006602090815260408083206001600160a01b0387168085529252909120805460ff1916841515179055906001600160a01b03167f17307eab39ab6107e8899845ad3d59bd9653f200f220920489ca2b5937696c3183604051610af2911515815260200190565b60405180910390a35050565b600a6020528160005260406000208181548110610b1a57600080fd5b90600052602060002001600091509150505481565b610b393383610e08565b610b555760405162461bcd60e51b81526004016105f290611c68565b610b61848484846112db565b50505050565b6000818152600360205260409020546060906001600160a01b0316610be65760405162461bcd60e51b815260206004820152602f60248201527f4552433732314d657461646174613a2055524920717565727920666f72206e6f60448201526e3732bc34b9ba32b73a103a37b5b2b760891b60648201526084016105f2565b6000610bfd60408051602081019091526000815290565b90506000815111610c1d5760405180602001604052806000815250610c48565b80610c278461130e565b604051602001610c38929190611b5d565b6040516020818303038152906040525b9392505050565b6000546001600160a01b03163314610ca95760405162461bcd60e51b815260206004820181905260248201527f4f776e61626c653a2063616c6c6572206973206e6f7420746865206f776e657260448201526064016105f2565b6001600160a01b038116610d0e5760405162461bcd60e51b815260206004820152602660248201527f4f776e61626c653a206e6577206f776e657220697320746865207a65726f206160448201526564647265737360d01b60648201526084016105f2565b600080546040516001600160a01b03808516939216917f8be0079c531659141344cd1fd0a4f28419497f9722a3daafe3b4186f6b6457e091a3600080546001600160a01b0319166001600160a01b0392909216919091179055565b6000610c488383610e08565b60006001600160e01b03198216630271189760e51b14806104e357506104e382611429565b600081815260056020526040902080546001600160a01b0319166001600160a01b0384169081179091558190610dcf8261087b565b6001600160a01b03167f8c5be1e5ebec7d5bd14f71427d1e84f3dd0314c0f7b2291e5b200ac8c7c3b92560405160405180910390a45050565b6000818152600360205260408120546001600160a01b0316610e815760405162461bcd60e51b815260206004820152602c60248201527f4552433732313a206f70657261746f7220717565727920666f72206e6f6e657860448201526b34b9ba32b73a103a37b5b2b760a11b60648201526084016105f2565b6000610e8c8361087b565b9050806001600160a01b0316846001600160a01b03161480610ec75750836001600160a01b0316610ebc8461057d565b6001600160a01b0316145b80610ef757506001600160a01b0380821660009081526006602090815260408083209388168352929052205460ff165b949350505050565b826001600160a01b0316610f128261087b565b6001600160a01b031614610f7a5760405162461bcd60e51b815260206004820152602960248201527f4552433732313a207472616e73666572206f6620746f6b656e2074686174206960448201526839903737ba1037bbb760b91b60648201526084016105f2565b6001600160a01b038216610fdc5760405162461bcd60e51b8152602060048201526024808201527f4552433732313a207472616e7366657220746f20746865207a65726f206164646044820152637265737360e01b60648201526084016105f2565b610fe7838383611479565b610ff2600082610d9a565b6001600160a01b038316600090815260046020526040812080546001929061101b908490611d16565b90915550506001600160a01b0382166000908152600460205260408120805460019290611049908490611cea565b909155505060008181526003602052604080822080546001600160a01b0319166001600160a01b0386811691821790925591518493918716917fddf252ad1be2c89b69c2b068fc378daa952ba7f163c4a11628f55a4df523b3ef91a4505050565b60006110ba600880546001019055565b6040805160808101825287815263ffffffff8088166020808401919091529087168284015261ffff861660608301523360009081526009909152918220909161110260085490565b815260208082019290925260409081016000208351815591830151600190920180549184015160609094015161ffff16600160401b0269ffff00000000000000001963ffffffff9586166401000000000267ffffffffffffffff19909416959094169490941791909117919091169190911790556111888261118360085490565b6114e0565b60085463ffffffff81161461119c57600080fd5b336000908152600a60205260409020600854815460018101835560009283526020909220909101557f4df9d353e24d45336c180871f471a1c9e897d3f6f978bad7ec1cbe4efc6f7fe2826111ef60085490565b604080516001600160a01b03909316835260208301919091528101879052606081018690526080810188905260a00160405180910390a16008545b9695505050505050565b600061123f8261087b565b905061124d81600084611479565b611258600083610d9a565b6001600160a01b0381166000908152600460205260408120805460019290611281908490611d16565b909155505060008281526003602052604080822080546001600160a01b0319169055518391906001600160a01b038416907fddf252ad1be2c89b69c2b068fc378daa952ba7f163c4a11628f55a4df523b3ef908390a45050565b6112e6848484610eff565b6112f28484848461162e565b610b615760405162461bcd60e51b81526004016105f290611c16565b60608161133357506040805180820190915260018152600360fc1b60208201526104e6565b8160005b811561135d578061134781611d94565b91506113569050600a83611d02565b9150611337565b60008167ffffffffffffffff81111561138657634e487b7160e01b600052604160045260246000fd5b6040519080825280601f01601f1916602001820160405280156113b0576020820181803683370190505b5090505b8415610ef7576113c5600183611d16565b91506113d2600a86611daf565b6113dd906030611cea565b60f81b81838151811061140057634e487b7160e01b600052603260045260246000fd5b60200101906001600160f81b031916908160001a905350611422600a86611d02565b94506113b4565b60006001600160e01b031982166380ac58cd60e01b148061145a57506001600160e01b03198216635b5e139f60e01b145b806104e357506301ffc9a760e01b6001600160e01b03198316146104e3565b60075460ff16156107285760405162461bcd60e51b815260206004820152602b60248201527f4552433732315061757361626c653a20746f6b656e207472616e73666572207760448201526a1a1a5b19481c185d5cd95960aa1b60648201526084016105f2565b6001600160a01b0382166115365760405162461bcd60e51b815260206004820181905260248201527f4552433732313a206d696e7420746f20746865207a65726f206164647265737360448201526064016105f2565b6000818152600360205260409020546001600160a01b03161561159b5760405162461bcd60e51b815260206004820152601c60248201527f4552433732313a20746f6b656e20616c7265616479206d696e7465640000000060448201526064016105f2565b6115a760008383611479565b6001600160a01b03821660009081526004602052604081208054600192906115d0908490611cea565b909155505060008181526003602052604080822080546001600160a01b0319166001600160a01b03861690811790915590518392907fddf252ad1be2c89b69c2b068fc378daa952ba7f163c4a11628f55a4df523b3ef908290a45050565b60006001600160a01b0384163b1561173057604051630a85bd0160e11b81526001600160a01b0385169063150b7a0290611672903390899088908890600401611b8c565b602060405180830381600087803b15801561168c57600080fd5b505af19250505080156116bc575060408051601f3d908101601f191682019092526116b991810190611ab5565b60015b611716573d8080156116ea576040519150601f19603f3d011682016040523d82523d6000602084013e6116ef565b606091505b50805161170e5760405162461bcd60e51b81526004016105f290611c16565b805181602001fd5b6001600160e01b031916630a85bd0160e11b149050610ef7565b506001949350505050565b80356001600160a01b03811681146104e657600080fd5b600082601f830112611762578081fd5b8135602067ffffffffffffffff82111561177e5761177e611def565b8160051b61178d828201611cb9565b8381528281019086840183880185018910156117a7578687fd5b8693505b858410156117c95780358352600193909301929184019184016117ab565b50979650505050505050565b600082601f8301126117e5578081fd5b813567ffffffffffffffff8111156117ff576117ff611def565b611812601f8201601f1916602001611cb9565b818152846020838601011115611826578283fd5b816020850160208301379081016020019190915292915050565b600060208284031215611851578081fd5b610c488261173b565b6000806040838503121561186c578081fd5b6118758361173b565b91506118836020840161173b565b90509250929050565b600080600080600060a086880312156118a3578081fd5b6118ac8661173b565b94506118ba6020870161173b565b9350604086013567ffffffffffffffff808211156118d6578283fd5b6118e289838a01611752565b945060608801359150808211156118f7578283fd5b61190389838a01611752565b93506080880135915080821115611918578283fd5b50611925888289016117d5565b9150509295509295909350565b600080600060608486031215611946578283fd5b61194f8461173b565b925061195d6020850161173b565b9150604084013590509250925092565b60008060008060808587031215611982578384fd5b61198b8561173b565b93506119996020860161173b565b925060408501359150606085013567ffffffffffffffff8111156119bb578182fd5b6119c7878288016117d5565b91505092959194509250565b600080600080600060a086880312156119ea578081fd5b6119f38661173b565b9450611a016020870161173b565b93506040860135925060608601359150608086013567ffffffffffffffff811115611a2a578182fd5b611925888289016117d5565b60008060408385031215611a48578182fd5b611a518361173b565b915060208301358015158114611a65578182fd5b809150509250929050565b60008060408385031215611a82578182fd5b611a8b8361173b565b946020939093013593505050565b600060208284031215611aaa578081fd5b8135610c4881611e05565b600060208284031215611ac6578081fd5b8151610c4881611e05565b600060208284031215611ae2578081fd5b5035919050565b600080600080600060a08688031215611b00578283fd5b85359450602086013593506040860135925060608601359150611b256080870161173b565b90509295509295909350565b60008151808452611b49816020860160208601611d2d565b601f01601f19169290920160200192915050565b60008351611b6f818460208801611d2d565b835190830190611b83818360208801611d2d565b01949350505050565b6001600160a01b038581168252841660208201526040810183905260806060820181905260009061122a90830184611b31565b6020808252825182820181905260009190848201906040850190845b81811015611bf757835183529284019291840191600101611bdb565b50909695505050505050565b600060208252610c486020830184611b31565b60208082526032908201527f4552433732313a207472616e7366657220746f206e6f6e20455243373231526560408201527131b2b4bb32b91034b6b83632b6b2b73a32b960711b606082015260800190565b60208082526031908201527f4552433732313a207472616e736665722063616c6c6572206973206e6f74206f6040820152701ddb995c881b9bdc88185c1c1c9bdd9959607a1b606082015260800190565b604051601f8201601f1916810167ffffffffffffffff81118282101715611ce257611ce2611def565b604052919050565b60008219821115611cfd57611cfd611dc3565b500190565b600082611d1157611d11611dd9565b500490565b600082821015611d2857611d28611dc3565b500390565b60005b83811015611d48578181015183820152602001611d30565b83811115610b615750506000910152565b600181811c90821680611d6d57607f821691505b60208210811415611d8e57634e487b7160e01b600052602260045260246000fd5b50919050565b6000600019821415611da857611da8611dc3565b5060010190565b600082611dbe57611dbe611dd9565b500690565b634e487b7160e01b600052601160045260246000fd5b634e487b7160e01b600052601260045260246000fd5b634e487b7160e01b600052604160045260246000fd5b6001600160e01b03198116811461087857600080fdfea2646970667358221220dbe6de0f6e6c01a3cd3ae282ba0ffb16b6bbe662c8f6d3850221e5ca095849db64736f6c63430008030033",
  "linkReferences": {},
  "deployedLinkReferences": {}
}