{
  "_format": "hh-sol-artifact-1",
  "contractName": "AlienERC721",
  "sourceName": "contracts/AlienERC721.sol",
  "abi": [
    {
      "inputs": [],
      "stateMutability": "nonpayable",
      "type": "constructor"
    },
    {
      "anonymous": false,
      "inputs": [
        {
          "indexed": false,
          "internalType": "address",
          "name": "owner",
          "type": "address"
        },
        {
          "indexed": false,
          "internalType": "uint256",
          "name": "tokenId",
          "type": "uint256"
        },
        {
          "indexed": false,
          "internalType": "uint256",
          "name": "mumId",
          "type": "uint256"
        },
        {
          "indexed": false,
          "internalType": "uint256",
          "name": "dadId",
          "type": "uint256"
        },
        {
          "indexed": false,
          "internalType": "uint256",
          "name": "genes",
          "type": "uint256"
        }
      ],
      "name": "AlienMinted",
      "type": "event"
    },
    {
      "anonymous": false,
      "inputs": [
        {
          "indexed": true,
          "internalType": "address",
          "name": "owner",
          "type": "address"
        },
        {
          "indexed": true,
          "internalType": "address",
          "name": "approved",
          "type": "address"
        },
        {
          "indexed": true,
          "internalType": "uint256",
          "name": "tokenId",
          "type": "uint256"
        }
      ],
      "name": "Approval",
      "type": "event"
    },
    {
      "anonymous": false,
      "inputs": [
        {
          "indexed": true,
          "internalType": "address",
          "name": "owner",
          "type": "address"
        },
        {
          "indexed": true,
          "internalType": "address",
          "name": "operator",
          "type": "address"
        },
        {
          "indexed": false,
          "internalType": "bool",
          "name": "approved",
          "type": "bool"
        }
      ],
      "name": "ApprovalForAll",
      "type": "event"
    },
    {
      "anonymous": false,
      "inputs": [
        {
          "indexed": true,
          "internalType": "address",
          "name": "previousOwner",
          "type": "address"
        },
        {
          "indexed": true,
          "internalType": "address",
          "name": "newOwner",
          "type": "address"
        }
      ],
      "name": "OwnershipTransferred",
      "type": "event"
    },
    {
      "anonymous": false,
      "inputs": [
        {
          "indexed": false,
          "internalType": "address",
          "name": "account",
          "type": "address"
        }
      ],
      "name": "Paused",
      "type": "event"
    },
    {
      "anonymous": false,
      "inputs": [
        {
          "indexed": true,
          "internalType": "address",
          "name": "from",
          "type": "address"
        },
        {
          "indexed": true,
          "internalType": "address",
          "name": "to",
          "type": "address"
        },
        {
          "indexed": true,
          "internalType": "uint256",
          "name": "tokenId",
          "type": "uint256"
        }
      ],
      "name": "Transfer",
      "type": "event"
    },
    {
      "anonymous": false,
      "inputs": [
        {
          "indexed": false,
          "internalType": "address",
          "name": "account",
          "type": "address"
        }
      ],
      "name": "Unpaused",
      "type": "event"
    },
    {
      "inputs": [
        {
          "internalType": "address",
          "name": "",
          "type": "address"
        },
        {
          "internalType": "uint256",
          "name": "",
          "type": "uint256"
        }
      ],
      "name": "alienDetails",
      "outputs": [
        {
          "internalType": "uint256",
          "name": "genes",
          "type": "uint256"
        },
        {
          "internalType": "uint32",
          "name": "mumId",
          "type": "uint32"
        },
        {
          "internalType": "uint32",
          "name": "dadId",
          "type": "uint32"
        },
        {
          "internalType": "uint16",
          "name": "generation",
          "type": "uint16"
        }
      ],
      "stateMutability": "view",
      "type": "function"
    },
    {
      "inputs": [
        {
          "internalType": "address",
          "name": "to",
          "type": "address"
        },
        {
          "internalType": "uint256",
          "name": "tokenId",
          "type": "uint256"
        }
      ],
      "name": "approve",
      "outputs": [],
      "stateMutability": "nonpayable",
      "type": "function"
    },
    {
      "inputs": [
        {
          "internalType": "address",
          "name": "owner",
          "type": "address"
        }
      ],
      "name": "balanceOf",
      "outputs": [
        {
          "internalType": "uint256",
          "name": "",
          "type": "uint256"
        }
      ],
      "stateMutability": "view",
      "type": "function"
    },
    {
      "inputs": [
        {
          "internalType": "uint256",
          "name": "tokenId",
          "type": "uint256"
        }
      ],
      "name": "burn",
      "outputs": [],
      "stateMutability": "nonpayable",
      "type": "function"
    },
    {
      "inputs": [
        {
          "internalType": "uint256",
          "name": "_genes",
          "type": "uint256"
        },
        {
          "internalType": "uint256",
          "name": "_mumId",
          "type": "uint256"
        },
        {
          "internalType": "uint256",
          "name": "_dadId",
          "type": "uint256"
        },
        {
          "internalType": "uint256",
          "name": "_generation",
          "type": "uint256"
        },
        {
          "internalType": "address",
          "name": "_owner",
          "type": "address"
        }
      ],
      "name": "createAlien",
      "outputs": [
        {
          "internalType": "uint256",
          "name": "",
          "type": "uint256"
        }
      ],
      "stateMutability": "nonpayable",
      "type": "function"
    },
    {
      "inputs": [
        {
          "internalType": "uint256",
          "name": "_nftId",
          "type": "uint256"
        }
      ],
      "name": "getAlien",
      "outputs": [
        {
          "internalType": "uint256",
          "name": "_genes",
          "type": "uint256"
        },
        {
          "internalType": "uint32",
          "name": "_mumId",
          "type": "uint32"
        },
        {
          "internalType": "uint32",
          "name": "_dadId",
          "type": "uint32"
        },
        {
          "internalType": "uint16",
          "name": "_generation",
          "type": "uint16"
        }
      ],
      "stateMutability": "view",
      "type": "function"
    },
    {
      "inputs": [
        {
          "internalType": "address",
          "name": "_owner",
          "type": "address"
        }
      ],
      "name": "getAllAliens",
      "outputs": [
        {
          "internalType": "uint256[]",
          "name": "",
          "type": "uint256[]"
        }
      ],
      "stateMutability": "view",
      "type": "function"
    },
    {
      "inputs": [
        {
          "internalType": "uint256",
          "name": "tokenId",
          "type": "uint256"
        }
      ],
      "name": "getApproved",
      "outputs": [
        {
          "internalType": "address",
          "name": "",
          "type": "address"
        }
      ],
      "stateMutability": "view",
      "type": "function"
    },
    {
      "inputs": [
        {
          "internalType": "address",
          "name": "owner",
          "type": "address"
        },
        {
          "internalType": "address",
          "name": "operator",
          "type": "address"
        }
      ],
      "name": "isApprovedForAll",
      "outputs": [
        {
          "internalType": "bool",
          "name": "",
          "type": "bool"
        }
      ],
      "stateMutability": "view",
      "type": "function"
    },
    {
      "inputs": [
        {
          "internalType": "address",
          "name": "_owner",
          "type": "address"
        },
        {
          "internalType": "uint256",
          "name": "_nftId",
          "type": "uint256"
        }
      ],
      "name": "isApprovedOwner",
      "outputs": [
        {
          "internalType": "bool",
          "name": "",
          "type": "bool"
        }
      ],
      "stateMutability": "view",
      "type": "function"
    },
    {
      "inputs": [],
      "name": "name",
      "outputs": [
        {
          "internalType": "string",
          "name": "",
          "type": "string"
        }
      ],
      "stateMutability": "view",
      "type": "function"
    },
    {
      "inputs": [
        {
          "internalType": "address",
          "name": "",
          "type": "address"
        },
        {
          "internalType": "address",
          "name": "",
          "type": "address"
        },
        {
          "internalType": "uint256[]",
          "name": "",
          "type": "uint256[]"
        },
        {
          "internalType": "uint256[]",
          "name": "",
          "type": "uint256[]"
        },
        {
          "internalType": "bytes",
          "name": "",
          "type": "bytes"
        }
      ],
      "name": "onERC1155BatchReceived",
      "outputs": [
        {
          "internalType": "bytes4",
          "name": "",
          "type": "bytes4"
        }
      ],
      "stateMutability": "nonpayable",
      "type": "function"
    },
    {
      "inputs": [
        {
          "internalType": "address",
          "name": "",
          "type": "address"
        },
        {
          "internalType": "address",
          "name": "",
          "type": "address"
        },
        {
          "internalType": "uint256",
          "name": "",
          "type": "uint256"
        },
        {
          "internalType": "uint256",
          "name": "",
          "type": "uint256"
        },
        {
          "internalType": "bytes",
          "name": "",
          "type": "bytes"
        }
      ],
      "name": "onERC1155Received",
      "outputs": [
        {
          "internalType": "bytes4",
          "name": "",
          "type": "bytes4"
        }
      ],
      "stateMutability": "nonpayable",
      "type": "function"
    },
    {
      "inputs": [],
      "name": "owner",
      "outputs": [
        {
          "internalType": "address",
          "name": "",
          "type": "address"
        }
      ],
      "stateMutability": "view",
      "type": "function"
    },
    {
      "inputs": [
        {
          "internalType": "uint256",
          "name": "tokenId",
          "type": "uint256"
        }
      ],
      "name": "ownerOf",
      "outputs": [
        {
          "internalType": "address",
          "name": "",
          "type": "address"
        }
      ],
      "stateMutability": "view",
      "type": "function"
    },
    {
      "inputs": [],
      "name": "paused",
      "outputs": [
        {
          "internalType": "bool",
          "name": "",
          "type": "bool"
        }
      ],
      "stateMutability": "view",
      "type": "function"
    },
    {
      "inputs": [],
      "name": "renounceOwnership",
      "outputs": [],
      "stateMutability": "nonpayable",
      "type": "function"
    },
    {
      "inputs": [
        {
          "internalType": "address",
          "name": "from",
          "type": "address"
        },
        {
          "internalType": "address",
          "name": "to",
          "type": "address"
        },
        {
          "internalType": "uint256",
          "name": "tokenId",
          "type": "uint256"
        }
      ],
      "name": "safeTransferFrom",
      "outputs": [],
      "stateMutability": "nonpayable",
      "type": "function"
    },
    {
      "inputs": [
        {
          "internalType": "address",
          "name": "from",
          "type": "address"
        },
        {
          "internalType": "address",
          "name": "to",
          "type": "address"
        },
        {
          "internalType": "uint256",
          "name": "tokenId",
          "type": "uint256"
        },
        {
          "internalType": "bytes",
          "name": "_data",
          "type": "bytes"
        }
      ],
      "name": "safeTransferFrom",
      "outputs": [],
      "stateMutability": "nonpayable",
      "type": "function"
    },
    {
      "inputs": [
        {
          "internalType": "address",
          "name": "operator",
          "type": "address"
        },
        {
          "internalType": "bool",
          "name": "approved",
          "type": "bool"
        }
      ],
      "name": "setApprovalForAll",
      "outputs": [],
      "stateMutability": "nonpayable",
      "type": "function"
    },
    {
      "inputs": [
        {
          "internalType": "bytes4",
          "name": "interfaceId",
          "type": "bytes4"
        }
      ],
      "name": "supportsInterface",
      "outputs": [
        {
          "internalType": "bool",
          "name": "",
          "type": "bool"
        }
      ],
      "stateMutability": "view",
      "type": "function"
    },
    {
      "inputs": [],
      "name": "symbol",
      "outputs": [
        {
          "internalType": "string",
          "name": "",
          "type": "string"
        }
      ],
      "stateMutability": "view",
      "type": "function"
    },
    {
      "inputs": [
        {
          "internalType": "uint256",
          "name": "tokenId",
          "type": "uint256"
        }
      ],
      "name": "tokenURI",
      "outputs": [
        {
          "internalType": "string",
          "name": "",
          "type": "string"
        }
      ],
      "stateMutability": "view",
      "type": "function"
    },
    {
      "inputs": [],
      "name": "totalSupply",
      "outputs": [
        {
          "internalType": "uint256",
          "name": "",
          "type": "uint256"
        }
      ],
      "stateMutability": "view",
      "type": "function"
    },
    {
      "inputs": [
        {
          "internalType": "address",
          "name": "from",
          "type": "address"
        },
        {
          "internalType": "address",
          "name": "to",
          "type": "address"
        },
        {
          "internalType": "uint256",
          "name": "tokenId",
          "type": "uint256"
        }
      ],
      "name": "transferFrom",
      "outputs": [],
      "stateMutability": "nonpayable",
      "type": "function"
    },
    {
      "inputs": [
        {
          "internalType": "address",
          "name": "newOwner",
          "type": "address"
        }
      ],
      "name": "transferOwnership",
      "outputs": [],
      "stateMutability": "nonpayable",
      "type": "function"
    },
    {
      "inputs": [
        {
          "internalType": "address",
          "name": "",
          "type": "address"
        },
        {
          "internalType": "uint256",
          "name": "",
          "type": "uint256"
        }
      ],
      "name": "userAliens",
      "outputs": [
        {
          "internalType": "uint256",
          "name": "",
          "type": "uint256"
        }
      ],
      "stateMutability": "view",
      "type": "function"
    }
  ],
  "bytecode": "0x60806040523480156200001157600080fd5b5060405180604001604052806008815260200167105b1a595b93919560c21b81525060405180604001604052806005815260200164105313919560da1b815250600062000063620000eb60201b60201c565b600080546001600160a01b0319166001600160a01b0383169081178255604051929350917f8be0079c531659141344cd1fd0a4f28419497f9722a3daafe3b4186f6b6457e0908290a3508151620000c2906001906020850190620000ef565b508051620000d8906002906020840190620000ef565b50506007805460ff1916905550620001d2565b3390565b828054620000fd9062000195565b90600052602060002090601f0160209004810192826200012157600085556200016c565b82601f106200013c57805160ff19168380011785556200016c565b828001600101855582156200016c579182015b828111156200016c5782518255916020019190600101906200014f565b506200017a9291506200017e565b5090565b5b808211156200017a57600081556001016200017f565b600181811c90821680620001aa57607f821691505b60208210811415620001cc57634e487b7160e01b600052602260045260246000fd5b50919050565b611e8480620001e26000396000f3fe608060405234801561001057600080fd5b50600436106101a95760003560e01c806370a08231116100f9578063ba26927111610097578063e985e9c511610071578063e985e9c51461047a578063f23a6e61146104b6578063f2fde38b146104d5578063f8ef871c146104e8576101a9565b8063ba269271146103bb578063bc197c811461042f578063c87b56dd14610467576101a9565b806395d89b41116100d357806395d89b411461037a578063a22cb46514610382578063a4a2d98f14610395578063b88d4fde146103a8576101a9565b806370a082311461034e578063715018a6146103615780638da5cb5b14610369576101a9565b806319f2c0821161016657806342842e0e1161014057806342842e0e1461030a57806342966c681461031d5780635c975abb146103305780636352211e1461033b576101a9565b806319f2c0821461026157806323b872dd146102e45780632f782dda146102f7576101a9565b806301ffc9a7146101ae57806306fdde03146101d6578063081812fc146101eb578063095ea7b3146102165780630c5318e71461022b57806318160ddd1461024b575b600080fd5b6101c16101bc366004611acc565b6104fb565b60405190151581526020015b60405180910390f35b6101de61050e565b6040516101cd9190611c36565b6101fe6101f9366004611b04565b6105a0565b6040516001600160a01b0390911681526020016101cd565b610229610224366004611aa3565b61063a565b005b61023e610239366004611873565b610750565b6040516101cd9190611bf2565b6102536107bc565b6040519081526020016101cd565b6102b361026f366004611aa3565b60096020908152600092835260408084209091529082529020805460019091015463ffffffff80821691640100000000810490911690600160401b900461ffff1684565b6040516101cd949392919093845263ffffffff92831660208501529116604083015261ffff16606082015260800190565b6102296102f2366004611965565b6107cc565b610253610305366004611b1c565b6107fe565b610229610318366004611965565b610819565b61022961032b366004611b04565b610834565b60075460ff166101c1565b6101fe610349366004611b04565b6108ae565b61025361035c366004611873565b610925565b6102296109ac565b6000546001600160a01b03166101fe565b6101de610a50565b610229610390366004611a69565b610a5f565b6102536103a3366004611aa3565b610b31565b6102296103b63660046119a0565b610b62565b6102b36103c9366004611b04565b336000908152600960209081526040808320938352928152908290208251608081018452815480825260019092015463ffffffff808216948301859052640100000000820416948201859052600160401b900461ffff1660609091018190529093919291565b61044e61043d3660046118bf565b63bc197c8160e01b95945050505050565b6040516001600160e01b031990911681526020016101cd565b6101de610475366004611b04565b610b9a565b6101c161048836600461188d565b6001600160a01b03918216600090815260066020908152604080832093909416825291909152205460ff1690565b61044e6104c4366004611a06565b63f23a6e6160e01b95945050505050565b6102296104e3366004611873565b610c82565b6101c16104f6366004611aa3565b610d9c565b600061050682610da8565b90505b919050565b60606001805461051d90611d8c565b80601f016020809104026020016040519081016040528092919081815260200182805461054990611d8c565b80156105965780601f1061056b57610100808354040283529160200191610596565b820191906000526020600020905b81548152906001019060200180831161057957829003601f168201915b5050505050905090565b6000818152600360205260408120546001600160a01b031661061e5760405162461bcd60e51b815260206004820152602c60248201527f4552433732313a20617070726f76656420717565727920666f72206e6f6e657860448201526b34b9ba32b73a103a37b5b2b760a11b60648201526084015b60405180910390fd5b506000908152600560205260409020546001600160a01b031690565b6000610645826108ae565b9050806001600160a01b0316836001600160a01b031614156106b35760405162461bcd60e51b815260206004820152602160248201527f4552433732313a20617070726f76616c20746f2063757272656e74206f776e656044820152603960f91b6064820152608401610615565b336001600160a01b03821614806106cf57506106cf8133610488565b6107415760405162461bcd60e51b815260206004820152603860248201527f4552433732313a20617070726f76652063616c6c6572206973206e6f74206f7760448201527f6e6572206e6f7220617070726f76656420666f7220616c6c00000000000000006064820152608401610615565b61074b8383610dcd565b505050565b6001600160a01b0381166000908152600a60209081526040918290208054835181840281018401909452808452606093928301828280156107b057602002820191906000526020600020905b81548152602001906001019080831161079c575b50505050509050919050565b60006107c760085490565b905090565b6107d7335b82610e3b565b6107f35760405162461bcd60e51b815260040161061590611c9b565b61074b838383610f32565b60008061080e87878787876110dd565b979650505050505050565b61074b83838360405180602001604052806000815250610b62565b61083d336107d1565b6108a25760405162461bcd60e51b815260206004820152603060248201527f4552433732314275726e61626c653a2063616c6c6572206973206e6f74206f7760448201526f1b995c881b9bdc88185c1c1c9bdd995960821b6064820152608401610615565b6108ab81611267565b50565b6000818152600360205260408120546001600160a01b0316806105065760405162461bcd60e51b815260206004820152602960248201527f4552433732313a206f776e657220717565727920666f72206e6f6e657869737460448201526832b73a103a37b5b2b760b91b6064820152608401610615565b60006001600160a01b0382166109905760405162461bcd60e51b815260206004820152602a60248201527f4552433732313a2062616c616e636520717565727920666f7220746865207a65604482015269726f206164647265737360b01b6064820152608401610615565b506001600160a01b031660009081526004602052604090205490565b6000546001600160a01b03163314610a065760405162461bcd60e51b815260206004820181905260248201527f4f776e61626c653a2063616c6c6572206973206e6f7420746865206f776e65726044820152606401610615565b600080546040516001600160a01b03909116907f8be0079c531659141344cd1fd0a4f28419497f9722a3daafe3b4186f6b6457e0908390a3600080546001600160a01b0319169055565b60606002805461051d90611d8c565b6001600160a01b038216331415610ab85760405162461bcd60e51b815260206004820152601960248201527f4552433732313a20617070726f766520746f2063616c6c6572000000000000006044820152606401610615565b3360008181526006602090815260408083206001600160a01b0387168085529252909120805460ff1916841515179055906001600160a01b03167f17307eab39ab6107e8899845ad3d59bd9653f200f220920489ca2b5937696c3183604051610b25911515815260200190565b60405180910390a35050565b600a6020528160005260406000208181548110610b4d57600080fd5b90600052602060002001600091509150505481565b610b6c3383610e3b565b610b885760405162461bcd60e51b815260040161061590611c9b565b610b948484848461130e565b50505050565b6000818152600360205260409020546060906001600160a01b0316610c195760405162461bcd60e51b815260206004820152602f60248201527f4552433732314d657461646174613a2055524920717565727920666f72206e6f60448201526e3732bc34b9ba32b73a103a37b5b2b760891b6064820152608401610615565b6000610c3060408051602081019091526000815290565b90506000815111610c505760405180602001604052806000815250610c7b565b80610c5a84611341565b604051602001610c6b929190611b90565b6040516020818303038152906040525b9392505050565b6000546001600160a01b03163314610cdc5760405162461bcd60e51b815260206004820181905260248201527f4f776e61626c653a2063616c6c6572206973206e6f7420746865206f776e65726044820152606401610615565b6001600160a01b038116610d415760405162461bcd60e51b815260206004820152602660248201527f4f776e61626c653a206e6577206f776e657220697320746865207a65726f206160448201526564647265737360d01b6064820152608401610615565b600080546040516001600160a01b03808516939216917f8be0079c531659141344cd1fd0a4f28419497f9722a3daafe3b4186f6b6457e091a3600080546001600160a01b0319166001600160a01b0392909216919091179055565b6000610c7b8383610e3b565b60006001600160e01b03198216630271189760e51b148061050657506105068261145c565b600081815260056020526040902080546001600160a01b0319166001600160a01b0384169081179091558190610e02826108ae565b6001600160a01b03167f8c5be1e5ebec7d5bd14f71427d1e84f3dd0314c0f7b2291e5b200ac8c7c3b92560405160405180910390a45050565b6000818152600360205260408120546001600160a01b0316610eb45760405162461bcd60e51b815260206004820152602c60248201527f4552433732313a206f70657261746f7220717565727920666f72206e6f6e657860448201526b34b9ba32b73a103a37b5b2b760a11b6064820152608401610615565b6000610ebf836108ae565b9050806001600160a01b0316846001600160a01b03161480610efa5750836001600160a01b0316610eef846105a0565b6001600160a01b0316145b80610f2a57506001600160a01b0380821660009081526006602090815260408083209388168352929052205460ff165b949350505050565b826001600160a01b0316610f45826108ae565b6001600160a01b031614610fad5760405162461bcd60e51b815260206004820152602960248201527f4552433732313a207472616e73666572206f6620746f6b656e2074686174206960448201526839903737ba1037bbb760b91b6064820152608401610615565b6001600160a01b03821661100f5760405162461bcd60e51b8152602060048201526024808201527f4552433732313a207472616e7366657220746f20746865207a65726f206164646044820152637265737360e01b6064820152608401610615565b61101a8383836114ac565b611025600082610dcd565b6001600160a01b038316600090815260046020526040812080546001929061104e908490611d49565b90915550506001600160a01b038216600090815260046020526040812080546001929061107c908490611d1d565b909155505060008181526003602052604080822080546001600160a01b0319166001600160a01b0386811691821790925591518493918716917fddf252ad1be2c89b69c2b068fc378daa952ba7f163c4a11628f55a4df523b3ef91a4505050565b60006110ed600880546001019055565b6040805160808101825287815263ffffffff8088166020808401919091529087168284015261ffff861660608301523360009081526009909152918220909161113560085490565b815260208082019290925260409081016000208351815591830151600190920180549184015160609094015161ffff16600160401b0269ffff00000000000000001963ffffffff9586166401000000000267ffffffffffffffff19909416959094169490941791909117919091169190911790556111bb826111b660085490565b611513565b60085463ffffffff8116146111cf57600080fd5b336000908152600a60205260409020600854815460018101835560009283526020909220909101557f4df9d353e24d45336c180871f471a1c9e897d3f6f978bad7ec1cbe4efc6f7fe28261122260085490565b604080516001600160a01b03909316835260208301919091528101879052606081018690526080810188905260a00160405180910390a16008545b9695505050505050565b6000611272826108ae565b9050611280816000846114ac565b61128b600083610dcd565b6001600160a01b03811660009081526004602052604081208054600192906112b4908490611d49565b909155505060008281526003602052604080822080546001600160a01b0319169055518391906001600160a01b038416907fddf252ad1be2c89b69c2b068fc378daa952ba7f163c4a11628f55a4df523b3ef908390a45050565b611319848484610f32565b61132584848484611661565b610b945760405162461bcd60e51b815260040161061590611c49565b60608161136657506040805180820190915260018152600360fc1b6020820152610509565b8160005b8115611390578061137a81611dc7565b91506113899050600a83611d35565b915061136a565b60008167ffffffffffffffff8111156113b957634e487b7160e01b600052604160045260246000fd5b6040519080825280601f01601f1916602001820160405280156113e3576020820181803683370190505b5090505b8415610f2a576113f8600183611d49565b9150611405600a86611de2565b611410906030611d1d565b60f81b81838151811061143357634e487b7160e01b600052603260045260246000fd5b60200101906001600160f81b031916908160001a905350611455600a86611d35565b94506113e7565b60006001600160e01b031982166380ac58cd60e01b148061148d57506001600160e01b03198216635b5e139f60e01b145b8061050657506301ffc9a760e01b6001600160e01b0319831614610506565b60075460ff161561074b5760405162461bcd60e51b815260206004820152602b60248201527f4552433732315061757361626c653a20746f6b656e207472616e73666572207760448201526a1a1a5b19481c185d5cd95960aa1b6064820152608401610615565b6001600160a01b0382166115695760405162461bcd60e51b815260206004820181905260248201527f4552433732313a206d696e7420746f20746865207a65726f20616464726573736044820152606401610615565b6000818152600360205260409020546001600160a01b0316156115ce5760405162461bcd60e51b815260206004820152601c60248201527f4552433732313a20746f6b656e20616c7265616479206d696e746564000000006044820152606401610615565b6115da600083836114ac565b6001600160a01b0382166000908152600460205260408120805460019290611603908490611d1d565b909155505060008181526003602052604080822080546001600160a01b0319166001600160a01b03861690811790915590518392907fddf252ad1be2c89b69c2b068fc378daa952ba7f163c4a11628f55a4df523b3ef908290a45050565b60006001600160a01b0384163b1561176357604051630a85bd0160e11b81526001600160a01b0385169063150b7a02906116a5903390899088908890600401611bbf565b602060405180830381600087803b1580156116bf57600080fd5b505af19250505080156116ef575060408051601f3d908101601f191682019092526116ec91810190611ae8565b60015b611749573d80801561171d576040519150601f19603f3d011682016040523d82523d6000602084013e611722565b606091505b5080516117415760405162461bcd60e51b815260040161061590611c49565b805181602001fd5b6001600160e01b031916630a85bd0160e11b149050610f2a565b506001949350505050565b80356001600160a01b038116811461050957600080fd5b600082601f830112611795578081fd5b8135602067ffffffffffffffff8211156117b1576117b1611e22565b8160051b6117c0828201611cec565b8381528281019086840183880185018910156117da578687fd5b8693505b858410156117fc5780358352600193909301929184019184016117de565b50979650505050505050565b600082601f830112611818578081fd5b813567ffffffffffffffff81111561183257611832611e22565b611845601f8201601f1916602001611cec565b818152846020838601011115611859578283fd5b816020850160208301379081016020019190915292915050565b600060208284031215611884578081fd5b610c7b8261176e565b6000806040838503121561189f578081fd5b6118a88361176e565b91506118b66020840161176e565b90509250929050565b600080600080600060a086880312156118d6578081fd5b6118df8661176e565b94506118ed6020870161176e565b9350604086013567ffffffffffffffff80821115611909578283fd5b61191589838a01611785565b9450606088013591508082111561192a578283fd5b61193689838a01611785565b9350608088013591508082111561194b578283fd5b5061195888828901611808565b9150509295509295909350565b600080600060608486031215611979578283fd5b6119828461176e565b92506119906020850161176e565b9150604084013590509250925092565b600080600080608085870312156119b5578384fd5b6119be8561176e565b93506119cc6020860161176e565b925060408501359150606085013567ffffffffffffffff8111156119ee578182fd5b6119fa87828801611808565b91505092959194509250565b600080600080600060a08688031215611a1d578081fd5b611a268661176e565b9450611a346020870161176e565b93506040860135925060608601359150608086013567ffffffffffffffff811115611a5d578182fd5b61195888828901611808565b60008060408385031215611a7b578182fd5b611a848361176e565b915060208301358015158114611a98578182fd5b809150509250929050565b60008060408385031215611ab5578182fd5b611abe8361176e565b946020939093013593505050565b600060208284031215611add578081fd5b8135610c7b81611e38565b600060208284031215611af9578081fd5b8151610c7b81611e38565b600060208284031215611b15578081fd5b5035919050565b600080600080600060a08688031215611b33578283fd5b85359450602086013593506040860135925060608601359150611b586080870161176e565b90509295509295909350565b60008151808452611b7c816020860160208601611d60565b601f01601f19169290920160200192915050565b60008351611ba2818460208801611d60565b835190830190611bb6818360208801611d60565b01949350505050565b6001600160a01b038581168252841660208201526040810183905260806060820181905260009061125d90830184611b64565b6020808252825182820181905260009190848201906040850190845b81811015611c2a57835183529284019291840191600101611c0e565b50909695505050505050565b600060208252610c7b6020830184611b64565b60208082526032908201527f4552433732313a207472616e7366657220746f206e6f6e20455243373231526560408201527131b2b4bb32b91034b6b83632b6b2b73a32b960711b606082015260800190565b60208082526031908201527f4552433732313a207472616e736665722063616c6c6572206973206e6f74206f6040820152701ddb995c881b9bdc88185c1c1c9bdd9959607a1b606082015260800190565b604051601f8201601f1916810167ffffffffffffffff81118282101715611d1557611d15611e22565b604052919050565b60008219821115611d3057611d30611df6565b500190565b600082611d4457611d44611e0c565b500490565b600082821015611d5b57611d5b611df6565b500390565b60005b83811015611d7b578181015183820152602001611d63565b83811115610b945750506000910152565b600181811c90821680611da057607f821691505b60208210811415611dc157634e487b7160e01b600052602260045260246000fd5b50919050565b6000600019821415611ddb57611ddb611df6565b5060010190565b600082611df157611df1611e0c565b500690565b634e487b7160e01b600052601160045260246000fd5b634e487b7160e01b600052601260045260246000fd5b634e487b7160e01b600052604160045260246000fd5b6001600160e01b0319811681146108ab57600080fdfea26469706673582212203dfce1353ccff1d54b0cb07bcfb7e626f5fa73d904d56c289c42d86ff9c97eba64736f6c63430008030033",
  "linkReferences": {},
  "deployedLinkReferences": {}
}