{
  "_format": "hh-sol-artifact-1",
  "contractName": "AlienMarketPlace",
  "sourceName": "contracts/AlienMarketPlace.sol",
  "abi": [
    {
      "inputs": [
        {
          "internalType": "address",
          "name": "_AlienERC721",
          "type": "address"
        }
      ],
      "stateMutability": "nonpayable",
      "type": "constructor"
    },
    {
      "anonymous": false,
      "inputs": [
        {
          "indexed": false,
          "internalType": "string",
          "name": "TxType",
          "type": "string"
        },
        {
          "indexed": false,
          "internalType": "address",
          "name": "owner",
          "type": "address"
        },
        {
          "indexed": false,
          "internalType": "uint256",
          "name": "tokenId",
          "type": "uint256"
        }
      ],
      "name": "MarketTransaction",
      "type": "event"
    },
    {
      "anonymous": false,
      "inputs": [
        {
          "indexed": true,
          "internalType": "address",
          "name": "previousOwner",
          "type": "address"
        },
        {
          "indexed": true,
          "internalType": "address",
          "name": "newOwner",
          "type": "address"
        }
      ],
      "name": "OwnershipTransferred",
      "type": "event"
    },
    {
      "inputs": [],
      "name": "IAlienNFT",
      "outputs": [
        {
          "internalType": "address",
          "name": "",
          "type": "address"
        }
      ],
      "stateMutability": "view",
      "type": "function"
    },
    {
      "inputs": [],
      "name": "aln721",
      "outputs": [
        {
          "internalType": "contract IAlienERC721",
          "name": "",
          "type": "address"
        }
      ],
      "stateMutability": "view",
      "type": "function"
    },
    {
      "inputs": [
        {
          "internalType": "uint256",
          "name": "_tokenId",
          "type": "uint256"
        }
      ],
      "name": "buyAlien",
      "outputs": [],
      "stateMutability": "payable",
      "type": "function"
    },
    {
      "inputs": [
        {
          "internalType": "uint256",
          "name": "_tokenId",
          "type": "uint256"
        }
      ],
      "name": "getOffer",
      "outputs": [
        {
          "internalType": "address",
          "name": "seller",
          "type": "address"
        },
        {
          "internalType": "uint256",
          "name": "price",
          "type": "uint256"
        },
        {
          "internalType": "uint256",
          "name": "index",
          "type": "uint256"
        },
        {
          "internalType": "uint256",
          "name": "tokenId",
          "type": "uint256"
        },
        {
          "internalType": "bool",
          "name": "active",
          "type": "bool"
        }
      ],
      "stateMutability": "view",
      "type": "function"
    },
    {
      "inputs": [],
      "name": "owner",
      "outputs": [
        {
          "internalType": "address",
          "name": "",
          "type": "address"
        }
      ],
      "stateMutability": "view",
      "type": "function"
    },
    {
      "inputs": [
        {
          "internalType": "uint256",
          "name": "_tokenId",
          "type": "uint256"
        }
      ],
      "name": "removeOffer",
      "outputs": [],
      "stateMutability": "nonpayable",
      "type": "function"
    },
    {
      "inputs": [],
      "name": "renounceOwnership",
      "outputs": [],
      "stateMutability": "nonpayable",
      "type": "function"
    },
    {
      "inputs": [
        {
          "internalType": "uint256",
          "name": "_price",
          "type": "uint256"
        },
        {
          "internalType": "uint256",
          "name": "_tokenId",
          "type": "uint256"
        }
      ],
      "name": "setOffer",
      "outputs": [],
      "stateMutability": "nonpayable",
      "type": "function"
    },
    {
      "inputs": [],
      "name": "totalOffers",
      "outputs": [
        {
          "internalType": "uint256",
          "name": "",
          "type": "uint256"
        }
      ],
      "stateMutability": "view",
      "type": "function"
    },
    {
      "inputs": [
        {
          "internalType": "address",
          "name": "newOwner",
          "type": "address"
        }
      ],
      "name": "transferOwnership",
      "outputs": [],
      "stateMutability": "nonpayable",
      "type": "function"
    }
  ],
  "bytecode": "0x608060405234801561001057600080fd5b50604051610eb3380380610eb383398101604081905261002f9161009f565b600080546001600160a01b031916339081178255604051909182917f8be0079c531659141344cd1fd0a4f28419497f9722a3daafe3b4186f6b6457e0908290a350600380546001600160a01b039092166001600160a01b03199283168117909155600180549092161790556100cd565b6000602082840312156100b0578081fd5b81516001600160a01b03811681146100c6578182fd5b9392505050565b610dd7806100dc6000396000f3fe6080604052600436106100915760003560e01c806393846ea71161005957806393846ea7146101b6578063941b055b146101c957806395a0f9c7146101e9578063a9fd8ed114610209578063f2fde38b1461022c57610091565b806318e0b13e146100965780634579268a146100d3578063715018a6146101615780638da5cb5b146101785780639134f73c14610196575b600080fd5b3480156100a257600080fd5b506001546100b6906001600160a01b031681565b6040516001600160a01b0390911681526020015b60405180910390f35b3480156100df57600080fd5b5061012d6100ee366004610d50565b600090815260056020526040902080546001820154600283015460038401546004909401546001600160a01b039093169491939092909160ff90911690565b604080516001600160a01b03909616865260208601949094529284019190915260608301521515608082015260a0016100ca565b34801561016d57600080fd5b5061017661024c565b005b34801561018457600080fd5b506000546001600160a01b03166100b6565b3480156101a257600080fd5b506003546100b6906001600160a01b031681565b6101766101c4366004610d50565b6102f5565b3480156101d557600080fd5b506101766101e4366004610d68565b610592565b3480156101f557600080fd5b50610176610204366004610d50565b6109be565b34801561021557600080fd5b5061021e610b70565b6040519081526020016100ca565b34801561023857600080fd5b50610176610247366004610cf1565b610b80565b6000546001600160a01b031633146102ab5760405162461bcd60e51b815260206004820181905260248201527f4f776e61626c653a2063616c6c6572206973206e6f7420746865206f776e657260448201526064015b60405180910390fd5b600080546040516001600160a01b03909116907f8be0079c531659141344cd1fd0a4f28419497f9722a3daafe3b4186f6b6457e0908390a3600080546001600160a01b0319169055565b600081815260056020908152604091829020825160a08101845281546001600160a01b031681526001820154928101839052600282015493810193909352600381015460608401526004015460ff161515608083015234146103b05760405162461bcd60e51b815260206004820152602e60248201527f54686520707269636520616d6f756e74206d757374206265207468652073616d60448201526d652061732074686520707269636560901b60648201526084016102a2565b608081015115156001146103fb5760405162461bcd60e51b81526020600482015260126024820152716e6f206f666665722069732061637469766560701b60448201526064016102a2565b60008281526005602052604080822080546001600160a01b03191681556001810183905560028101839055600381018390556004908101805460ff19169055908301518154811061045c57634e487b7160e01b600052603260045260246000fd5b60009182526020808320600592909202909101600401805460ff1916931515939093179092558251918301516040516001600160a01b03909316926108fc82150292818181858888f193505050501580156104bb573d6000803e3d6000fd5b5060015481516040516323b872dd60e01b81526001600160a01b039182166004820152336024820152604481018590529116906323b872dd90606401600060405180830381600087803b15801561051157600080fd5b505af1158015610525573d6000803e3d6000fd5b505050506105336002610c9a565b60408051606080825260099082015268213abc9020b634b2b760b91b60808201523360208201529081018390527fd99e4fad9ad6313b1feb588fa8e605e3a9873172f2024330c35dd2b4041a43869060a0015b60405180910390a15050565b6001546040516331a9108f60e11b81526004810183905233916001600160a01b031690636352211e9060240160206040518083038186803b1580156105d657600080fd5b505afa1580156105ea573d6000803e3d6000fd5b505050506040513d601f19601f8201168201806040525081019061060e9190610d14565b6001600160a01b0316146106645760405162461bcd60e51b815260206004820152601b60248201527f6f6e6c79206f776e65722063616e2073656c6c20746f6b656e4964000000000060448201526064016102a2565b60008181526005602052604090206004015460ff16156106bd5760405162461bcd60e51b81526020600482015260146024820152736f6666657220616c72656164792065786973747360601b60448201526064016102a2565b60015460405163e985e9c560e01b81523360048201523060248201526001600160a01b039091169063e985e9c59060440160206040518083038186803b15801561070657600080fd5b505afa15801561071a573d6000803e3d6000fd5b505050506040513d601f19601f8201168201806040525081019061073e9190610d30565b61078a5760405162461bcd60e51b815260206004820152601860248201527f636f6e7472616374206973206e6f7420617070726f766564000000000000000060448201526064016102a2565b600082116107e55760405162461bcd60e51b815260206004820152602260248201527f6f66666572207072696365206d7573742062652067726561746572207468616e604482015261020360f41b60648201526084016102a2565b6040805160a0810182523381526020808201858152600480548486019081526060850187815260016080870181815260008a8152600597889052988920885181546001600160a01b03199081166001600160a01b039283161783558851838601558651600280850191909155865160038501558451938901805460ff1990811695151595909517905588548087018a5598909c528a517f8a35acfbc15ff81a39ae7d344fd709f28e8600b4aa8c65c6b64bfe7fe36bd19b98909a029788018054909116999091169890981790975594517f8a35acfbc15ff81a39ae7d344fd709f28e8600b4aa8c65c6b64bfe7fe36bd19c85015591517f8a35acfbc15ff81a39ae7d344fd709f28e8600b4aa8c65c6b64bfe7fe36bd19d840155517f8a35acfbc15ff81a39ae7d344fd709f28e8600b4aa8c65c6b64bfe7fe36bd19e83015591517f8a35acfbc15ff81a39ae7d344fd709f28e8600b4aa8c65c6b64bfe7fe36bd19f909101805490931690151517909155825401909155604080516060808252600c908201526b21b932b0ba329037b33332b960a11b60808201523360208201529081018390527fd99e4fad9ad6313b1feb588fa8e605e3a9873172f2024330c35dd2b4041a43869060a00160405180910390a1505050565b600081815260056020908152604091829020825160a08101845281546001600160a01b0316808252600183015493820193909352600282015493810193909352600381015460608401526004015460ff16151560808301523314610a8a5760405162461bcd60e51b815260206004820152603860248201527f596f752073686f756c64206f776e2074686520616c69656e20746f206265206160448201527f626c6520746f2072656d6f76652074686973206f66666572000000000000000060648201526084016102a2565b60006004826040015181548110610ab157634e487b7160e01b600052603260045260246000fd5b60009182526020808320600460059384029091018101805495151560ff199687161790558684529190526040822080546001600160a01b03191681556001810183905560028082018490556003820193909355018054909216909155610b1690610c9a565b604080516060808252600c908201526b2932b6b7bb329037b33332b960a11b60808201523360208201529081018390527fd99e4fad9ad6313b1feb588fa8e605e3a9873172f2024330c35dd2b4041a43869060a001610586565b6000610b7b60025490565b905090565b6000546001600160a01b03163314610bda5760405162461bcd60e51b815260206004820181905260248201527f4f776e61626c653a2063616c6c6572206973206e6f7420746865206f776e657260448201526064016102a2565b6001600160a01b038116610c3f5760405162461bcd60e51b815260206004820152602660248201527f4f776e61626c653a206e6577206f776e657220697320746865207a65726f206160448201526564647265737360d01b60648201526084016102a2565b600080546040516001600160a01b03808516939216917f8be0079c531659141344cd1fd0a4f28419497f9722a3daafe3b4186f6b6457e091a3600080546001600160a01b0319166001600160a01b0392909216919091179055565b805480610ce95760405162461bcd60e51b815260206004820152601b60248201527f436f756e7465723a2064656372656d656e74206f766572666c6f77000000000060448201526064016102a2565b600019019055565b600060208284031215610d02578081fd5b8135610d0d81610d89565b9392505050565b600060208284031215610d25578081fd5b8151610d0d81610d89565b600060208284031215610d41578081fd5b81518015158114610d0d578182fd5b600060208284031215610d61578081fd5b5035919050565b60008060408385031215610d7a578081fd5b50508035926020909101359150565b6001600160a01b0381168114610d9e57600080fd5b5056fea26469706673582212208783ff63d0792592083fb25db5f30ceb685a1d46b5ca8a04479c7212333092d464736f6c63430008030033",
  "linkReferences": {},
  "deployedLinkReferences": {}
}