{
  "_format": "hh-sol-artifact-1",
  "contractName": "AlienFactory",
  "sourceName": "contracts/AlienFactory.sol",
  "abi": [
    {
      "anonymous": false,
      "inputs": [
        {
          "indexed": false,
          "internalType": "address",
          "name": "owner",
          "type": "address"
        },
        {
          "indexed": false,
          "internalType": "uint256",
          "name": "tokenId",
          "type": "uint256"
        }
      ],
      "name": "AlienDestroyed",
      "type": "event"
    },
    {
      "anonymous": false,
      "inputs": [
        {
          "indexed": false,
          "internalType": "address",
          "name": "owner",
          "type": "address"
        },
        {
          "indexed": false,
          "internalType": "uint256",
          "name": "tokenId",
          "type": "uint256"
        },
        {
          "indexed": false,
          "internalType": "uint256",
          "name": "mumId",
          "type": "uint256"
        },
        {
          "indexed": false,
          "internalType": "uint256",
          "name": "dadId",
          "type": "uint256"
        },
        {
          "indexed": false,
          "internalType": "uint256",
          "name": "genes",
          "type": "uint256"
        }
      ],
      "name": "AlienMinted",
      "type": "event"
    },
    {
      "anonymous": false,
      "inputs": [
        {
          "indexed": true,
          "internalType": "address",
          "name": "owner",
          "type": "address"
        },
        {
          "indexed": true,
          "internalType": "address",
          "name": "approved",
          "type": "address"
        },
        {
          "indexed": true,
          "internalType": "uint256",
          "name": "tokenId",
          "type": "uint256"
        }
      ],
      "name": "Approval",
      "type": "event"
    },
    {
      "anonymous": false,
      "inputs": [
        {
          "indexed": true,
          "internalType": "address",
          "name": "owner",
          "type": "address"
        },
        {
          "indexed": true,
          "internalType": "address",
          "name": "operator",
          "type": "address"
        },
        {
          "indexed": false,
          "internalType": "bool",
          "name": "approved",
          "type": "bool"
        }
      ],
      "name": "ApprovalForAll",
      "type": "event"
    },
    {
      "anonymous": false,
      "inputs": [
        {
          "indexed": true,
          "internalType": "address",
          "name": "previousOwner",
          "type": "address"
        },
        {
          "indexed": true,
          "internalType": "address",
          "name": "newOwner",
          "type": "address"
        }
      ],
      "name": "OwnershipTransferred",
      "type": "event"
    },
    {
      "anonymous": false,
      "inputs": [
        {
          "indexed": true,
          "internalType": "address",
          "name": "from",
          "type": "address"
        },
        {
          "indexed": true,
          "internalType": "address",
          "name": "to",
          "type": "address"
        },
        {
          "indexed": true,
          "internalType": "uint256",
          "name": "tokenId",
          "type": "uint256"
        }
      ],
      "name": "Transfer",
      "type": "event"
    },
    {
      "inputs": [
        {
          "internalType": "address",
          "name": "to",
          "type": "address"
        },
        {
          "internalType": "uint256",
          "name": "tokenId",
          "type": "uint256"
        }
      ],
      "name": "approve",
      "outputs": [],
      "stateMutability": "nonpayable",
      "type": "function"
    },
    {
      "inputs": [
        {
          "internalType": "address",
          "name": "owner",
          "type": "address"
        }
      ],
      "name": "balanceOf",
      "outputs": [
        {
          "internalType": "uint256",
          "name": "",
          "type": "uint256"
        }
      ],
      "stateMutability": "view",
      "type": "function"
    },
    {
      "inputs": [
        {
          "internalType": "uint256",
          "name": "tokenId",
          "type": "uint256"
        }
      ],
      "name": "burn",
      "outputs": [],
      "stateMutability": "nonpayable",
      "type": "function"
    },
    {
      "inputs": [
        {
          "internalType": "uint256",
          "name": "_dadId",
          "type": "uint256"
        },
        {
          "internalType": "uint256",
          "name": "_mumId",
          "type": "uint256"
        }
      ],
      "name": "cloneAlien",
      "outputs": [
        {
          "internalType": "uint256",
          "name": "",
          "type": "uint256"
        }
      ],
      "stateMutability": "nonpayable",
      "type": "function"
    },
    {
      "inputs": [],
      "name": "contractAddress",
      "outputs": [
        {
          "internalType": "address",
          "name": "",
          "type": "address"
        }
      ],
      "stateMutability": "view",
      "type": "function"
    },
    {
      "inputs": [
        {
          "internalType": "uint256",
          "name": "_genes",
          "type": "uint256"
        },
        {
          "internalType": "uint256",
          "name": "_mumId",
          "type": "uint256"
        },
        {
          "internalType": "uint256",
          "name": "_dadId",
          "type": "uint256"
        },
        {
          "internalType": "uint256",
          "name": "_generation",
          "type": "uint256"
        },
        {
          "internalType": "address",
          "name": "_owner",
          "type": "address"
        }
      ],
      "name": "createAlien",
      "outputs": [
        {
          "internalType": "uint256",
          "name": "",
          "type": "uint256"
        }
      ],
      "stateMutability": "nonpayable",
      "type": "function"
    },
    {
      "inputs": [
        {
          "internalType": "uint256",
          "name": "_genes",
          "type": "uint256"
        }
      ],
      "name": "createAlienGen0",
      "outputs": [
        {
          "internalType": "uint256",
          "name": "",
          "type": "uint256"
        }
      ],
      "stateMutability": "nonpayable",
      "type": "function"
    },
    {
      "inputs": [
        {
          "internalType": "uint256",
          "name": "tokenId",
          "type": "uint256"
        }
      ],
      "name": "getAlien",
      "outputs": [
        {
          "internalType": "uint256",
          "name": "_genes",
          "type": "uint256"
        },
        {
          "internalType": "uint64",
          "name": "_birthTime",
          "type": "uint64"
        },
        {
          "internalType": "uint32",
          "name": "_mumId",
          "type": "uint32"
        },
        {
          "internalType": "uint32",
          "name": "_dadId",
          "type": "uint32"
        },
        {
          "internalType": "uint16",
          "name": "_generation",
          "type": "uint16"
        }
      ],
      "stateMutability": "view",
      "type": "function"
    },
    {
      "inputs": [
        {
          "internalType": "address",
          "name": "_owner",
          "type": "address"
        }
      ],
      "name": "getAllAliens",
      "outputs": [
        {
          "internalType": "uint256[]",
          "name": "",
          "type": "uint256[]"
        }
      ],
      "stateMutability": "view",
      "type": "function"
    },
    {
      "inputs": [
        {
          "internalType": "uint256",
          "name": "tokenId",
          "type": "uint256"
        }
      ],
      "name": "getApproved",
      "outputs": [
        {
          "internalType": "address",
          "name": "",
          "type": "address"
        }
      ],
      "stateMutability": "view",
      "type": "function"
    },
    {
      "inputs": [
        {
          "internalType": "address",
          "name": "owner",
          "type": "address"
        },
        {
          "internalType": "address",
          "name": "operator",
          "type": "address"
        }
      ],
      "name": "isApprovedForAll",
      "outputs": [
        {
          "internalType": "bool",
          "name": "",
          "type": "bool"
        }
      ],
      "stateMutability": "view",
      "type": "function"
    },
    {
      "inputs": [
        {
          "internalType": "address",
          "name": "_owner",
          "type": "address"
        },
        {
          "internalType": "uint256",
          "name": "tokenId",
          "type": "uint256"
        }
      ],
      "name": "isApprovedOwner",
      "outputs": [
        {
          "internalType": "bool",
          "name": "",
          "type": "bool"
        }
      ],
      "stateMutability": "view",
      "type": "function"
    },
    {
      "inputs": [],
      "name": "name",
      "outputs": [
        {
          "internalType": "string",
          "name": "",
          "type": "string"
        }
      ],
      "stateMutability": "view",
      "type": "function"
    },
    {
      "inputs": [],
      "name": "owner",
      "outputs": [
        {
          "internalType": "address",
          "name": "",
          "type": "address"
        }
      ],
      "stateMutability": "view",
      "type": "function"
    },
    {
      "inputs": [
        {
          "internalType": "uint256",
          "name": "tokenId",
          "type": "uint256"
        }
      ],
      "name": "ownerOf",
      "outputs": [
        {
          "internalType": "address",
          "name": "",
          "type": "address"
        }
      ],
      "stateMutability": "view",
      "type": "function"
    },
    {
      "inputs": [],
      "name": "renounceOwnership",
      "outputs": [],
      "stateMutability": "nonpayable",
      "type": "function"
    },
    {
      "inputs": [
        {
          "internalType": "address",
          "name": "from",
          "type": "address"
        },
        {
          "internalType": "address",
          "name": "to",
          "type": "address"
        },
        {
          "internalType": "uint256",
          "name": "tokenId",
          "type": "uint256"
        }
      ],
      "name": "safeTransferFrom",
      "outputs": [],
      "stateMutability": "nonpayable",
      "type": "function"
    },
    {
      "inputs": [
        {
          "internalType": "address",
          "name": "from",
          "type": "address"
        },
        {
          "internalType": "address",
          "name": "to",
          "type": "address"
        },
        {
          "internalType": "uint256",
          "name": "tokenId",
          "type": "uint256"
        },
        {
          "internalType": "bytes",
          "name": "_data",
          "type": "bytes"
        }
      ],
      "name": "safeTransferFrom",
      "outputs": [],
      "stateMutability": "nonpayable",
      "type": "function"
    },
    {
      "inputs": [
        {
          "internalType": "address",
          "name": "operator",
          "type": "address"
        },
        {
          "internalType": "bool",
          "name": "approved",
          "type": "bool"
        }
      ],
      "name": "setApprovalForAll",
      "outputs": [],
      "stateMutability": "nonpayable",
      "type": "function"
    },
    {
      "inputs": [
        {
          "internalType": "bytes4",
          "name": "interfaceId",
          "type": "bytes4"
        }
      ],
      "name": "supportsInterface",
      "outputs": [
        {
          "internalType": "bool",
          "name": "",
          "type": "bool"
        }
      ],
      "stateMutability": "view",
      "type": "function"
    },
    {
      "inputs": [],
      "name": "symbol",
      "outputs": [
        {
          "internalType": "string",
          "name": "",
          "type": "string"
        }
      ],
      "stateMutability": "view",
      "type": "function"
    },
    {
      "inputs": [
        {
          "internalType": "uint256",
          "name": "tokenId",
          "type": "uint256"
        }
      ],
      "name": "tokenURI",
      "outputs": [
        {
          "internalType": "string",
          "name": "",
          "type": "string"
        }
      ],
      "stateMutability": "view",
      "type": "function"
    },
    {
      "inputs": [],
      "name": "totalSupply",
      "outputs": [
        {
          "internalType": "uint256",
          "name": "",
          "type": "uint256"
        }
      ],
      "stateMutability": "view",
      "type": "function"
    },
    {
      "inputs": [
        {
          "internalType": "address",
          "name": "_from",
          "type": "address"
        },
        {
          "internalType": "address",
          "name": "_to",
          "type": "address"
        },
        {
          "internalType": "uint256",
          "name": "_tokenId",
          "type": "uint256"
        }
      ],
      "name": "transfer",
      "outputs": [],
      "stateMutability": "nonpayable",
      "type": "function"
    },
    {
      "inputs": [
        {
          "internalType": "address",
          "name": "from",
          "type": "address"
        },
        {
          "internalType": "address",
          "name": "to",
          "type": "address"
        },
        {
          "internalType": "uint256",
          "name": "tokenId",
          "type": "uint256"
        }
      ],
      "name": "transferFrom",
      "outputs": [],
      "stateMutability": "nonpayable",
      "type": "function"
    },
    {
      "inputs": [
        {
          "internalType": "address",
          "name": "newOwner",
          "type": "address"
        }
      ],
      "name": "transferOwnership",
      "outputs": [],
      "stateMutability": "nonpayable",
      "type": "function"
    }
  ],
  "bytecode": "0x60806040523480156200001157600080fd5b506040518060400160405280600c81526020016b43727970746f416c69656e7360a01b8152506040518060400160405280600581526020016420a624a2a760d91b815250600062000067620000f760201b60201c565b600080546001600160a01b0319166001600160a01b0383169081178255604051929350917f8be0079c531659141344cd1fd0a4f28419497f9722a3daafe3b4186f6b6457e0908290a3508151620000c6906001906020850190620000fb565b508051620000dc906002906020840190620000fb565b5050600780546001600160a01b0319163017905550620001de565b3390565b8280546200010990620001a1565b90600052602060002090601f0160209004810192826200012d576000855562000178565b82601f106200014857805160ff191683800117855562000178565b8280016001018555821562000178579182015b82811115620001785782518255916020019190600101906200015b565b50620001869291506200018a565b5090565b5b808211156200018657600081556001016200018b565b600181811c90821680620001b657607f821691505b60208210811415620001d857634e487b7160e01b600052602260045260246000fd5b50919050565b61245c80620001ee6000396000f3fe608060405234801561001057600080fd5b506004361061018e5760003560e01c8063715018a6116100de578063ba26927111610097578063e985e9c511610071578063e985e9c514610398578063f2fde38b146103d4578063f6b4dfb4146103e7578063f8ef871c146103fa5761018e565b8063ba26927114610321578063beabacc814610372578063c87b56dd146103855761018e565b8063715018a6146102c75780638da5cb5b146102cf578063921a7620146102e057806395d89b41146102f3578063a22cb465146102fb578063b88d4fde1461030e5761018e565b806323b872dd1161014b57806342842e0e1161012557806342842e0e1461027b57806342966c681461028e5780636352211e146102a157806370a08231146102b45761018e565b806323b872dd14610242578063242155cb146102555780632f782dda146102685761018e565b806301ffc9a71461019357806306fdde03146101bb578063081812fc146101d0578063095ea7b3146101fb5780630c5318e71461021057806318160ddd14610230575b600080fd5b6101a66101a1366004611ffd565b61040d565b60405190151581526020015b60405180910390f35b6101c3610461565b6040516101b29190612192565b6101e36101de366004612035565b6104f3565b6040516001600160a01b0390911681526020016101b2565b61020e610209366004611fd4565b61058d565b005b61022361021e366004611e3e565b6106a3565b6040516101b2919061214e565b6008545b6040519081526020016101b2565b61020e610250366004611e8a565b610800565b610234610263366004612035565b610832565b61023461027636600461206e565b6108ea565b61020e610289366004611e8a565b610905565b61020e61029c366004612035565b610920565b6101e36102af366004612035565b610a27565b6102346102c2366004611e3e565b610a9e565b61020e610b25565b6000546001600160a01b03166101e3565b6102346102ee36600461204d565b610b99565b6101c3610d77565b61020e610309366004611f9a565b610d86565b61020e61031c366004611ec5565b610e58565b61033461032f366004612035565b610e90565b6040805195865267ffffffffffffffff909416602086015263ffffffff9283169385019390935216606083015261ffff16608082015260a0016101b2565b61020e610380366004611e8a565b610f94565b6101c3610393366004612035565b6110f0565b6101a66103a6366004611e58565b6001600160a01b03918216600090815260066020908152604080832093909416825291909152205460ff1690565b61020e6103e2366004611e3e565b6111d7565b6007546101e3906001600160a01b031681565b6101a6610408366004611fd4565b6112c1565b60006001600160e01b031982166380ac58cd60e01b148061043e57506001600160e01b03198216635b5e139f60e01b145b8061045957506301ffc9a760e01b6001600160e01b03198316145b90505b919050565b6060600180546104709061233f565b80601f016020809104026020016040519081016040528092919081815260200182805461049c9061233f565b80156104e95780601f106104be576101008083540402835291602001916104e9565b820191906000526020600020905b8154815290600101906020018083116104cc57829003601f168201915b5050505050905090565b6000818152600360205260408120546001600160a01b03166105715760405162461bcd60e51b815260206004820152602c60248201527f4552433732313a20617070726f76656420717565727920666f72206e6f6e657860448201526b34b9ba32b73a103a37b5b2b760a11b60648201526084015b60405180910390fd5b506000908152600560205260409020546001600160a01b031690565b600061059882610a27565b9050806001600160a01b0316836001600160a01b031614156106065760405162461bcd60e51b815260206004820152602160248201527f4552433732313a20617070726f76616c20746f2063757272656e74206f776e656044820152603960f91b6064820152608401610568565b336001600160a01b0382161480610622575061062281336103a6565b6106945760405162461bcd60e51b815260206004820152603860248201527f4552433732313a20617070726f76652063616c6c6572206973206e6f74206f7760448201527f6e6572206e6f7220617070726f76656420666f7220616c6c00000000000000006064820152608401610568565b61069e83836112cd565b505050565b60606001600160a01b0382166106fb5760405162461bcd60e51b815260206004820181905260248201527f546f6b656e20717565727920666f7220746865207a65726f20616464726573736044820152606401610568565b600061070683610a9e565b90508061072357505060408051600081526020810190915261045c565b60008167ffffffffffffffff81111561074c57634e487b7160e01b600052604160045260246000fd5b604051908082528060200260200182016040528015610775578160200160208202803683370190505b506008549091506000805b8281116107f5576000818152600a60205260409020546001600160a01b03888116911614156107e357808483815181106107ca57634e487b7160e01b600052603260045260246000fd5b6020908102919091010152816107df8161237a565b9250505b806107ed8161237a565b915050610780565b509195945050505050565b61080b335b8261133b565b6108275760405162461bcd60e51b81526004016105689061222c565b61069e838383611432565b600080546001600160a01b0316331461085d5760405162461bcd60e51b8152600401610568906121f7565b600a610868600c5490565b106108c45760405162461bcd60e51b815260206004820152602660248201527f4d6178696d756d20616d6f756e74206f6620616c69656e732047656e20302072604482015265195858da195960d21b6064820152608401610568565b6108d2600c80546001019055565b60006108e3836000806000336108ea565b9392505050565b6000806108fa87878787876115d2565b979650505050505050565b61069e83838360405180602001604052806000815250610e58565b61092933610805565b61098e5760405162461bcd60e51b815260206004820152603060248201527f4552433732314275726e61626c653a2063616c6c6572206973206e6f74206f7760448201526f1b995c881b9bdc88185c1c1c9bdd995960821b6064820152608401610568565b610997816117ad565b600881815481106109b857634e487b7160e01b600052603260045260246000fd5b600091825260208083206002929092029091019182556001909101805471ffffffffffffffffffffffffffffffffffff19169055604080513381529182018390527f375de7ebcf7d9aedaeea87f94fccc860c3e5afbe038d8a9567ed76e1861c3694910160405180910390a150565b6000818152600360205260408120546001600160a01b0316806104595760405162461bcd60e51b815260206004820152602960248201527f4552433732313a206f776e657220717565727920666f72206e6f6e657869737460448201526832b73a103a37b5b2b760b91b6064820152608401610568565b60006001600160a01b038216610b095760405162461bcd60e51b815260206004820152602a60248201527f4552433732313a2062616c616e636520717565727920666f7220746865207a65604482015269726f206164647265737360b01b6064820152608401610568565b506001600160a01b031660009081526004602052604090205490565b6000546001600160a01b03163314610b4f5760405162461bcd60e51b8152600401610568906121f7565b600080546040516001600160a01b03909116907f8be0079c531659141344cd1fd0a4f28419497f9722a3daafe3b4186f6b6457e0908390a3600080546001600160a01b0319169055565b6000610ba533846112c1565b610bff5760405162461bcd60e51b815260206004820152602560248201527f546865207573657220646f65736e2774206f776e2074686520746f6b656e205f604482015264191859125960da1b6064820152608401610568565b610c0933836112c1565b610c635760405162461bcd60e51b815260206004820152602560248201527f546865207573657220646f65736e2774206f776e2074686520746f6b656e205f6044820152641b5d5b525960da1b6064820152608401610568565b81831415610cb35760405162461bcd60e51b815260206004820152601b60248201527f746f6b656e49642073686f756c6420626520646966666572656e7400000000006044820152606401610568565b600060088481548110610cd657634e487b7160e01b600052603260045260246000fd5b90600052602060002090600202019050600060088481548110610d0957634e487b7160e01b600052603260045260246000fd5b906000526020600020906002020190506000610d2d83600001548360000154611848565b60018085015490840154919250600091610d5a9161ffff600160801b9182900481169291909104166119d9565b90506000610d6b83888a85336108ea565b98975050505050505050565b6060600280546104709061233f565b6001600160a01b038216331415610ddf5760405162461bcd60e51b815260206004820152601960248201527f4552433732313a20617070726f766520746f2063616c6c6572000000000000006044820152606401610568565b3360008181526006602090815260408083206001600160a01b0387168085529252909120805460ff1916841515179055906001600160a01b03167f17307eab39ab6107e8899845ad3d59bd9653f200f220920489ca2b5937696c3183604051610e4c911515815260200190565b60405180910390a35050565b610e62338361133b565b610e7e5760405162461bcd60e51b81526004016105689061222c565b610e8a848484846119f0565b50505050565b6000806000806000600880549050861115610eed5760405162461bcd60e51b815260206004820152601960248201527f4964206f757473696465206f6620746f74616c537570706c79000000000000006044820152606401610568565b600060088781548110610f1057634e487b7160e01b600052603260045260246000fd5b60009182526020918290206040805160a081018252600293909302909101805480845260019091015467ffffffffffffffff8116948401859052600160401b810463ffffffff908116938501849052600160601b82041660608501819052600160801b90910461ffff166080909401849052909b939a509098509650945092505050565b6001600160a01b038216610fea5760405162461bcd60e51b815260206004820152601c60248201527f7472616e7366657220746f20746865207a65726f2061646472657373000000006044820152606401610568565b6001600160a01b0382163014156110375760405162461bcd60e51b815260206004820152601160248201527043616e2774207472616e7366657220746f60781b6044820152606401610568565b6001600160a01b038216600090815260096020526040812080549161105b8361237a565b909155506001600160a01b03808416600081815260096020908152604080832095909555858252600a90529290922080546001600160a01b0319169092179091558316156110e5576001600160a01b03831660009081526009602052604081208054916110c78361230b565b909155506001600160a01b0384166000908152600960205260409020555b61069e838383610905565b6000818152600360205260409020546060906001600160a01b031661116f5760405162461bcd60e51b815260206004820152602f60248201527f4552433732314d657461646174613a2055524920717565727920666f72206e6f60448201526e3732bc34b9ba32b73a103a37b5b2b760891b6064820152608401610568565b600061118660408051602081019091526000815290565b905060008151116111a657604051806020016040528060008152506108e3565b806111b084611a23565b6040516020016111c19291906120e2565b6040516020818303038152906040529392505050565b6000546001600160a01b031633146112015760405162461bcd60e51b8152600401610568906121f7565b6001600160a01b0381166112665760405162461bcd60e51b815260206004820152602660248201527f4f776e61626c653a206e6577206f776e657220697320746865207a65726f206160448201526564647265737360d01b6064820152608401610568565b600080546040516001600160a01b03808516939216917f8be0079c531659141344cd1fd0a4f28419497f9722a3daafe3b4186f6b6457e091a3600080546001600160a01b0319166001600160a01b0392909216919091179055565b60006108e3838361133b565b600081815260056020526040902080546001600160a01b0319166001600160a01b038416908117909155819061130282610a27565b6001600160a01b03167f8c5be1e5ebec7d5bd14f71427d1e84f3dd0314c0f7b2291e5b200ac8c7c3b92560405160405180910390a45050565b6000818152600360205260408120546001600160a01b03166113b45760405162461bcd60e51b815260206004820152602c60248201527f4552433732313a206f70657261746f7220717565727920666f72206e6f6e657860448201526b34b9ba32b73a103a37b5b2b760a11b6064820152608401610568565b60006113bf83610a27565b9050806001600160a01b0316846001600160a01b031614806113fa5750836001600160a01b03166113ef846104f3565b6001600160a01b0316145b8061142a57506001600160a01b0380821660009081526006602090815260408083209388168352929052205460ff165b949350505050565b826001600160a01b031661144582610a27565b6001600160a01b0316146114ad5760405162461bcd60e51b815260206004820152602960248201527f4552433732313a207472616e73666572206f6620746f6b656e2074686174206960448201526839903737ba1037bbb760b91b6064820152608401610568565b6001600160a01b03821661150f5760405162461bcd60e51b8152602060048201526024808201527f4552433732313a207472616e7366657220746f20746865207a65726f206164646044820152637265737360e01b6064820152608401610568565b61151a6000826112cd565b6001600160a01b03831660009081526004602052604081208054600192906115439084906122c8565b90915550506001600160a01b038216600090815260046020526040812080546001929061157190849061227d565b909155505060008181526003602052604080822080546001600160a01b0319166001600160a01b0386811691821790925591518493918716917fddf252ad1be2c89b69c2b068fc378daa952ba7f163c4a11628f55a4df523b3ef91a4505050565b6040805160a08101825286815267ffffffffffffffff4281166020830190815263ffffffff8089169484019485528781166060850190815261ffff80891660808701908152600880546001818101835560008381528a5160029093027ff3f7a9fe364faab93b216da50a3214154f22a0a2b415b23a84c8169e8b636ee381019390935597517ff3f7a9fe364faab93b216da50a3214154f22a0a2b415b23a84c8169e8b636ee490920180549b5196519451909516600160801b0261ffff60801b19948816600160601b029490941665ffffffffffff60601b19968816600160401b026bffffffffffffffffffffffff19909c169290991691909117999099179390931695909517949094179093559154909384926116f2929190611b3e16565b90506116fe8482611b4a565b6000818152600a6020908152604080832080546001600160a01b0319163390811790915583526009909152902054611737906001611b68565b336000908152600960209081526040918290209290925580516001600160a01b0387168152918201839052810188905260608101879052608081018990527f4df9d353e24d45336c180871f471a1c9e897d3f6f978bad7ec1cbe4efc6f7fe29060a00160405180910390a1979650505050505050565b60006117b882610a27565b90506117c56000836112cd565b6001600160a01b03811660009081526004602052604081208054600192906117ee9084906122c8565b909155505060008281526003602052604080822080546001600160a01b0319169055518391906001600160a01b038416907fddf252ad1be2c89b69c2b068fc378daa952ba7f163c4a11628f55a4df523b3ef908390a45050565b6000611852611e08565b600061185c611b74565b9050600760015b608081116119215782811660ff16156118b157611881606488612395565b60ff16848360ff16600881106118a757634e487b7160e01b600052603260045260246000fd5b60200201526118e8565b6118bc606487612395565b60ff16848360ff16600881106118e257634e487b7160e01b600052603260045260246000fd5b60200201525b6118f3606488612295565b9650611900606487612295565b95508161190c81612322565b50915061191a8160026122a9565b9050611863565b50600061192f6007846123a9565b905061193c6063846123a9565b60ff16848260ff166008811061196257634e487b7160e01b600052603260045260246000fd5b60200201526000805b60088110156119cd5785816008811061199457634e487b7160e01b600052603260045260246000fd5b60200201516119a3908361227d565b9150806007146119bb576119b88260646122a9565b91505b6119c681600161227d565b905061196b565b50979650505050505050565b6000818310156119e957816108e3565b5090919050565b6119fb848484611432565b611a0784848484611b86565b610e8a5760405162461bcd60e51b8152600401610568906121a5565b606081611a4857506040805180820190915260018152600360fc1b602082015261045c565b8160005b8115611a725780611a5c8161237a565b9150611a6b9050600a83612295565b9150611a4c565b60008167ffffffffffffffff811115611a9b57634e487b7160e01b600052604160045260246000fd5b6040519080825280601f01601f191660200182016040528015611ac5576020820181803683370190505b5090505b841561142a57611ada6001836122c8565b9150611ae7600a86612395565b611af290603061227d565b60f81b818381518110611b1557634e487b7160e01b600052603260045260246000fd5b60200101906001600160f81b031916908160001a905350611b37600a86612295565b9450611ac9565b60006108e382846122c8565b611b64828260405180602001604052806000815250611c93565b5050565b60006108e3828461227d565b6000611b8160ff42612395565b905090565b60006001600160a01b0384163b15611c8857604051630a85bd0160e11b81526001600160a01b0385169063150b7a0290611bca903390899088908890600401612111565b602060405180830381600087803b158015611be457600080fd5b505af1925050508015611c14575060408051601f3d908101601f19168201909252611c1191810190612019565b60015b611c6e573d808015611c42576040519150601f19603f3d011682016040523d82523d6000602084013e611c47565b606091505b508051611c665760405162461bcd60e51b8152600401610568906121a5565b805181602001fd5b6001600160e01b031916630a85bd0160e11b14905061142a565b506001949350505050565b611c9d8383611cc6565b611caa6000848484611b86565b61069e5760405162461bcd60e51b8152600401610568906121a5565b6001600160a01b038216611d1c5760405162461bcd60e51b815260206004820181905260248201527f4552433732313a206d696e7420746f20746865207a65726f20616464726573736044820152606401610568565b6000818152600360205260409020546001600160a01b031615611d815760405162461bcd60e51b815260206004820152601c60248201527f4552433732313a20746f6b656e20616c7265616479206d696e746564000000006044820152606401610568565b6001600160a01b0382166000908152600460205260408120805460019290611daa90849061227d565b909155505060008181526003602052604080822080546001600160a01b0319166001600160a01b03861690811790915590518392907fddf252ad1be2c89b69c2b068fc378daa952ba7f163c4a11628f55a4df523b3ef908290a45050565b6040518061010001604052806008906020820280368337509192915050565b80356001600160a01b038116811461045c57600080fd5b600060208284031215611e4f578081fd5b6108e382611e27565b60008060408385031215611e6a578081fd5b611e7383611e27565b9150611e8160208401611e27565b90509250929050565b600080600060608486031215611e9e578081fd5b611ea784611e27565b9250611eb560208501611e27565b9150604084013590509250925092565b60008060008060808587031215611eda578081fd5b611ee385611e27565b9350611ef160208601611e27565b925060408501359150606085013567ffffffffffffffff80821115611f14578283fd5b818701915087601f830112611f27578283fd5b813581811115611f3957611f396123f7565b604051601f8201601f19908116603f01168101908382118183101715611f6157611f616123f7565b816040528281528a6020848701011115611f79578586fd5b82602086016020830137918201602001949094529598949750929550505050565b60008060408385031215611fac578182fd5b611fb583611e27565b915060208301358015158114611fc9578182fd5b809150509250929050565b60008060408385031215611fe6578182fd5b611fef83611e27565b946020939093013593505050565b60006020828403121561200e578081fd5b81356108e38161240d565b60006020828403121561202a578081fd5b81516108e38161240d565b600060208284031215612046578081fd5b5035919050565b6000806040838503121561205f578182fd5b50508035926020909101359150565b600080600080600060a08688031215612085578081fd5b853594506020860135935060408601359250606086013591506120aa60808701611e27565b90509295509295909350565b600081518084526120ce8160208601602086016122df565b601f01601f19169290920160200192915050565b600083516120f48184602088016122df565b8351908301906121088183602088016122df565b01949350505050565b6001600160a01b0385811682528416602082015260408101839052608060608201819052600090612144908301846120b6565b9695505050505050565b6020808252825182820181905260009190848201906040850190845b818110156121865783518352928401929184019160010161216a565b50909695505050505050565b6000602082526108e360208301846120b6565b60208082526032908201527f4552433732313a207472616e7366657220746f206e6f6e20455243373231526560408201527131b2b4bb32b91034b6b83632b6b2b73a32b960711b606082015260800190565b6020808252818101527f4f776e61626c653a2063616c6c6572206973206e6f7420746865206f776e6572604082015260600190565b60208082526031908201527f4552433732313a207472616e736665722063616c6c6572206973206e6f74206f6040820152701ddb995c881b9bdc88185c1c1c9bdd9959607a1b606082015260800190565b60008219821115612290576122906123cb565b500190565b6000826122a4576122a46123e1565b500490565b60008160001904831182151516156122c3576122c36123cb565b500290565b6000828210156122da576122da6123cb565b500390565b60005b838110156122fa5781810151838201526020016122e2565b83811115610e8a5750506000910152565b60008161231a5761231a6123cb565b506000190190565b600060ff821680612335576123356123cb565b6000190192915050565b600181811c9082168061235357607f821691505b6020821081141561237457634e487b7160e01b600052602260045260246000fd5b50919050565b600060001982141561238e5761238e6123cb565b5060010190565b6000826123a4576123a46123e1565b500690565b600060ff8316806123bc576123bc6123e1565b8060ff84160691505092915050565b634e487b7160e01b600052601160045260246000fd5b634e487b7160e01b600052601260045260246000fd5b634e487b7160e01b600052604160045260246000fd5b6001600160e01b03198116811461242357600080fd5b5056fea264697066735822122099d48209a01183fbca5944c41661df507f0d4401073137b210b40fa99eb4d80864736f6c63430008030033",
  "linkReferences": {},
  "deployedLinkReferences": {}
}