{
  "address": "0xAF3677129Dceb13DB5Cb6115C9fD69beEfF4cA48",
  "abi": [
    {
      "inputs": [
        {
          "internalType": "address",
          "name": "_alienToken",
          "type": "address"
        }
      ],
      "stateMutability": "nonpayable",
      "type": "constructor"
    },
    {
      "anonymous": false,
      "inputs": [
        {
          "indexed": false,
          "internalType": "address",
          "name": "owner",
          "type": "address"
        },
        {
          "indexed": false,
          "internalType": "uint256",
          "name": "tokenId",
          "type": "uint256"
        }
      ],
      "name": "AlienDestroyed",
      "type": "event"
    },
    {
      "anonymous": false,
      "inputs": [
        {
          "indexed": false,
          "internalType": "address",
          "name": "owner",
          "type": "address"
        },
        {
          "indexed": false,
          "internalType": "uint256",
          "name": "tokenId",
          "type": "uint256"
        },
        {
          "indexed": false,
          "internalType": "uint256",
          "name": "mumId",
          "type": "uint256"
        },
        {
          "indexed": false,
          "internalType": "uint256",
          "name": "dadId",
          "type": "uint256"
        },
        {
          "indexed": false,
          "internalType": "uint256",
          "name": "genes",
          "type": "uint256"
        }
      ],
      "name": "AlienMinted",
      "type": "event"
    },
    {
      "anonymous": false,
      "inputs": [
        {
          "indexed": true,
          "internalType": "address",
          "name": "owner",
          "type": "address"
        },
        {
          "indexed": true,
          "internalType": "address",
          "name": "approved",
          "type": "address"
        },
        {
          "indexed": true,
          "internalType": "uint256",
          "name": "tokenId",
          "type": "uint256"
        }
      ],
      "name": "Approval",
      "type": "event"
    },
    {
      "anonymous": false,
      "inputs": [
        {
          "indexed": true,
          "internalType": "address",
          "name": "owner",
          "type": "address"
        },
        {
          "indexed": true,
          "internalType": "address",
          "name": "operator",
          "type": "address"
        },
        {
          "indexed": false,
          "internalType": "bool",
          "name": "approved",
          "type": "bool"
        }
      ],
      "name": "ApprovalForAll",
      "type": "event"
    },
    {
      "anonymous": false,
      "inputs": [
        {
          "indexed": true,
          "internalType": "address",
          "name": "previousOwner",
          "type": "address"
        },
        {
          "indexed": true,
          "internalType": "address",
          "name": "newOwner",
          "type": "address"
        }
      ],
      "name": "OwnershipTransferred",
      "type": "event"
    },
    {
      "anonymous": false,
      "inputs": [
        {
          "indexed": false,
          "internalType": "address",
          "name": "account",
          "type": "address"
        }
      ],
      "name": "Paused",
      "type": "event"
    },
    {
      "anonymous": false,
      "inputs": [
        {
          "indexed": true,
          "internalType": "address",
          "name": "from",
          "type": "address"
        },
        {
          "indexed": true,
          "internalType": "address",
          "name": "to",
          "type": "address"
        },
        {
          "indexed": true,
          "internalType": "uint256",
          "name": "tokenId",
          "type": "uint256"
        }
      ],
      "name": "Transfer",
      "type": "event"
    },
    {
      "anonymous": false,
      "inputs": [
        {
          "indexed": false,
          "internalType": "address",
          "name": "account",
          "type": "address"
        }
      ],
      "name": "Unpaused",
      "type": "event"
    },
    {
      "inputs": [],
      "name": "alienToken",
      "outputs": [
        {
          "internalType": "contract IERC20",
          "name": "",
          "type": "address"
        }
      ],
      "stateMutability": "view",
      "type": "function"
    },
    {
      "inputs": [
        {
          "internalType": "address",
          "name": "to",
          "type": "address"
        },
        {
          "internalType": "uint256",
          "name": "tokenId",
          "type": "uint256"
        }
      ],
      "name": "approve",
      "outputs": [],
      "stateMutability": "nonpayable",
      "type": "function"
    },
    {
      "inputs": [
        {
          "internalType": "address",
          "name": "owner",
          "type": "address"
        }
      ],
      "name": "balanceOf",
      "outputs": [
        {
          "internalType": "uint256",
          "name": "",
          "type": "uint256"
        }
      ],
      "stateMutability": "view",
      "type": "function"
    },
    {
      "inputs": [
        {
          "internalType": "uint256",
          "name": "tokenId",
          "type": "uint256"
        }
      ],
      "name": "burn",
      "outputs": [],
      "stateMutability": "nonpayable",
      "type": "function"
    },
    {
      "inputs": [
        {
          "internalType": "uint256",
          "name": "_dadId",
          "type": "uint256"
        },
        {
          "internalType": "uint256",
          "name": "_mumId",
          "type": "uint256"
        }
      ],
      "name": "cloneAlien",
      "outputs": [
        {
          "internalType": "uint256",
          "name": "",
          "type": "uint256"
        }
      ],
      "stateMutability": "nonpayable",
      "type": "function"
    },
    {
      "inputs": [
        {
          "internalType": "uint256",
          "name": "_genes",
          "type": "uint256"
        },
        {
          "internalType": "uint256",
          "name": "_mumId",
          "type": "uint256"
        },
        {
          "internalType": "uint256",
          "name": "_dadId",
          "type": "uint256"
        },
        {
          "internalType": "uint256",
          "name": "_generation",
          "type": "uint256"
        },
        {
          "internalType": "address",
          "name": "_owner",
          "type": "address"
        }
      ],
      "name": "createAlien",
      "outputs": [
        {
          "internalType": "uint256",
          "name": "",
          "type": "uint256"
        }
      ],
      "stateMutability": "nonpayable",
      "type": "function"
    },
    {
      "inputs": [
        {
          "internalType": "uint256",
          "name": "_genes",
          "type": "uint256"
        }
      ],
      "name": "createAlienGen0",
      "outputs": [
        {
          "internalType": "uint256",
          "name": "",
          "type": "uint256"
        }
      ],
      "stateMutability": "nonpayable",
      "type": "function"
    },
    {
      "inputs": [
        {
          "internalType": "uint256",
          "name": "tokenId",
          "type": "uint256"
        }
      ],
      "name": "getAlien",
      "outputs": [
        {
          "internalType": "uint256",
          "name": "_genes",
          "type": "uint256"
        },
        {
          "internalType": "uint64",
          "name": "_birthTime",
          "type": "uint64"
        },
        {
          "internalType": "uint32",
          "name": "_mumId",
          "type": "uint32"
        },
        {
          "internalType": "uint32",
          "name": "_dadId",
          "type": "uint32"
        },
        {
          "internalType": "uint16",
          "name": "_generation",
          "type": "uint16"
        }
      ],
      "stateMutability": "view",
      "type": "function"
    },
    {
      "inputs": [
        {
          "internalType": "address",
          "name": "_owner",
          "type": "address"
        }
      ],
      "name": "getAllAliens",
      "outputs": [
        {
          "internalType": "uint256[]",
          "name": "",
          "type": "uint256[]"
        }
      ],
      "stateMutability": "view",
      "type": "function"
    },
    {
      "inputs": [
        {
          "internalType": "uint256",
          "name": "tokenId",
          "type": "uint256"
        }
      ],
      "name": "getApproved",
      "outputs": [
        {
          "internalType": "address",
          "name": "",
          "type": "address"
        }
      ],
      "stateMutability": "view",
      "type": "function"
    },
    {
      "inputs": [
        {
          "internalType": "address",
          "name": "owner",
          "type": "address"
        },
        {
          "internalType": "address",
          "name": "operator",
          "type": "address"
        }
      ],
      "name": "isApprovedForAll",
      "outputs": [
        {
          "internalType": "bool",
          "name": "",
          "type": "bool"
        }
      ],
      "stateMutability": "view",
      "type": "function"
    },
    {
      "inputs": [
        {
          "internalType": "address",
          "name": "_owner",
          "type": "address"
        },
        {
          "internalType": "uint256",
          "name": "tokenId",
          "type": "uint256"
        }
      ],
      "name": "isApprovedOwner",
      "outputs": [
        {
          "internalType": "bool",
          "name": "",
          "type": "bool"
        }
      ],
      "stateMutability": "view",
      "type": "function"
    },
    {
      "inputs": [],
      "name": "name",
      "outputs": [
        {
          "internalType": "string",
          "name": "",
          "type": "string"
        }
      ],
      "stateMutability": "view",
      "type": "function"
    },
    {
      "inputs": [],
      "name": "owner",
      "outputs": [
        {
          "internalType": "address",
          "name": "",
          "type": "address"
        }
      ],
      "stateMutability": "view",
      "type": "function"
    },
    {
      "inputs": [
        {
          "internalType": "uint256",
          "name": "tokenId",
          "type": "uint256"
        }
      ],
      "name": "ownerOf",
      "outputs": [
        {
          "internalType": "address",
          "name": "",
          "type": "address"
        }
      ],
      "stateMutability": "view",
      "type": "function"
    },
    {
      "inputs": [],
      "name": "pauseContract",
      "outputs": [],
      "stateMutability": "nonpayable",
      "type": "function"
    },
    {
      "inputs": [],
      "name": "paused",
      "outputs": [
        {
          "internalType": "bool",
          "name": "",
          "type": "bool"
        }
      ],
      "stateMutability": "view",
      "type": "function"
    },
    {
      "inputs": [],
      "name": "renounceOwnership",
      "outputs": [],
      "stateMutability": "nonpayable",
      "type": "function"
    },
    {
      "inputs": [
        {
          "internalType": "address",
          "name": "from",
          "type": "address"
        },
        {
          "internalType": "address",
          "name": "to",
          "type": "address"
        },
        {
          "internalType": "uint256",
          "name": "tokenId",
          "type": "uint256"
        }
      ],
      "name": "safeTransferFrom",
      "outputs": [],
      "stateMutability": "nonpayable",
      "type": "function"
    },
    {
      "inputs": [
        {
          "internalType": "address",
          "name": "from",
          "type": "address"
        },
        {
          "internalType": "address",
          "name": "to",
          "type": "address"
        },
        {
          "internalType": "uint256",
          "name": "tokenId",
          "type": "uint256"
        },
        {
          "internalType": "bytes",
          "name": "_data",
          "type": "bytes"
        }
      ],
      "name": "safeTransferFrom",
      "outputs": [],
      "stateMutability": "nonpayable",
      "type": "function"
    },
    {
      "inputs": [
        {
          "internalType": "address",
          "name": "operator",
          "type": "address"
        },
        {
          "internalType": "bool",
          "name": "approved",
          "type": "bool"
        }
      ],
      "name": "setApprovalForAll",
      "outputs": [],
      "stateMutability": "nonpayable",
      "type": "function"
    },
    {
      "inputs": [
        {
          "internalType": "bytes4",
          "name": "interfaceId",
          "type": "bytes4"
        }
      ],
      "name": "supportsInterface",
      "outputs": [
        {
          "internalType": "bool",
          "name": "",
          "type": "bool"
        }
      ],
      "stateMutability": "view",
      "type": "function"
    },
    {
      "inputs": [],
      "name": "symbol",
      "outputs": [
        {
          "internalType": "string",
          "name": "",
          "type": "string"
        }
      ],
      "stateMutability": "view",
      "type": "function"
    },
    {
      "inputs": [
        {
          "internalType": "uint256",
          "name": "index",
          "type": "uint256"
        }
      ],
      "name": "tokenByIndex",
      "outputs": [
        {
          "internalType": "uint256",
          "name": "",
          "type": "uint256"
        }
      ],
      "stateMutability": "view",
      "type": "function"
    },
    {
      "inputs": [
        {
          "internalType": "address",
          "name": "owner",
          "type": "address"
        },
        {
          "internalType": "uint256",
          "name": "index",
          "type": "uint256"
        }
      ],
      "name": "tokenOfOwnerByIndex",
      "outputs": [
        {
          "internalType": "uint256",
          "name": "",
          "type": "uint256"
        }
      ],
      "stateMutability": "view",
      "type": "function"
    },
    {
      "inputs": [
        {
          "internalType": "uint256",
          "name": "tokenId",
          "type": "uint256"
        }
      ],
      "name": "tokenURI",
      "outputs": [
        {
          "internalType": "string",
          "name": "",
          "type": "string"
        }
      ],
      "stateMutability": "view",
      "type": "function"
    },
    {
      "inputs": [],
      "name": "totalSupply",
      "outputs": [
        {
          "internalType": "uint256",
          "name": "",
          "type": "uint256"
        }
      ],
      "stateMutability": "view",
      "type": "function"
    },
    {
      "inputs": [
        {
          "internalType": "address",
          "name": "_from",
          "type": "address"
        },
        {
          "internalType": "address",
          "name": "_to",
          "type": "address"
        },
        {
          "internalType": "uint256",
          "name": "_tokenId",
          "type": "uint256"
        }
      ],
      "name": "transfer",
      "outputs": [],
      "stateMutability": "nonpayable",
      "type": "function"
    },
    {
      "inputs": [
        {
          "internalType": "address",
          "name": "from",
          "type": "address"
        },
        {
          "internalType": "address",
          "name": "to",
          "type": "address"
        },
        {
          "internalType": "uint256",
          "name": "tokenId",
          "type": "uint256"
        }
      ],
      "name": "transferFrom",
      "outputs": [],
      "stateMutability": "nonpayable",
      "type": "function"
    },
    {
      "inputs": [
        {
          "internalType": "address",
          "name": "newOwner",
          "type": "address"
        }
      ],
      "name": "transferOwnership",
      "outputs": [],
      "stateMutability": "nonpayable",
      "type": "function"
    },
    {
      "inputs": [],
      "name": "unpauseContract",
      "outputs": [],
      "stateMutability": "nonpayable",
      "type": "function"
    }
  ],
  "transactionHash": "0x688482b72ac6e726af2c840a177ec7c54e6f0fc917521555ac0e309bee091811",
  "args": [
    "0x7DE6d04EaEEF8989171d3686573938B47D0B1c84"
  ],
  "solcInputHash": "306a28a0fffa97793efa595e0f040a89",
  "bytecode": "0x60806040526002600c553480156200001657600080fd5b5060405162002f7b38038062002f7b8339810160408190526200003991620001f4565b604080518082018252600c81526b43727970746f416c69656e7360a01b60208083019182528351808501909452600584526420a624a2a760d91b908401528151849391839183916200008f91600091906200014e565b508051620000a59060019060208401906200014e565b505050620000c2620000bc620000f860201b60201c565b620000fc565b5050600a805460ff60a01b19169055600b80546001600160a01b0319166001600160a01b03929092169190911790555062000261565b3390565b600a80546001600160a01b038381166001600160a01b0319831681179093556040519116919082907f8be0079c531659141344cd1fd0a4f28419497f9722a3daafe3b4186f6b6457e090600090a35050565b8280546200015c9062000224565b90600052602060002090601f016020900481019282620001805760008555620001cb565b82601f106200019b57805160ff1916838001178555620001cb565b82800160010185558215620001cb579182015b82811115620001cb578251825591602001919060010190620001ae565b50620001d9929150620001dd565b5090565b5b80821115620001d95760008155600101620001de565b60006020828403121562000206578081fd5b81516001600160a01b03811681146200021d578182fd5b9392505050565b600181811c908216806200023957607f821691505b602082108114156200025b57634e487b7160e01b600052602260045260246000fd5b50919050565b612d0a80620002716000396000f3fe608060405234801561001057600080fd5b50600436106101e55760003560e01c80635c975abb1161010f578063b33712c5116100a2578063c87b56dd11610071578063c87b56dd14610437578063e985e9c51461044a578063f2fde38b14610486578063f8ef871c1461049957600080fd5b8063b33712c5146103b8578063b88d4fde146103c0578063ba269271146103d3578063beabacc81461042457600080fd5b80638da5cb5b116100de5780638da5cb5b14610379578063921a76201461038a57806395d89b411461039d578063a22cb465146103a557600080fd5b80635c975abb146103395780636352211e1461034b57806370a082311461035e578063715018a61461037157600080fd5b806323b872dd1161018757806342842e0e1161015657806342842e0e146102f857806342966c681461030b578063439766ce1461031e5780634f6ccce71461032657600080fd5b806323b872dd146102ac578063242155cb146102bf5780632f745c59146102d25780632f782dda146102e557600080fd5b8063095ea7b3116101c3578063095ea7b3146102525780630c5318e71461026757806318160ddd146102875780631958e58a1461029957600080fd5b806301ffc9a7146101ea57806306fdde0314610212578063081812fc14610227575b600080fd5b6101fd6101f8366004612875565b6104ac565b60405190151581526020015b60405180910390f35b61021a6104d7565b6040516102099190612a22565b61023a6102353660046128ad565b610569565b6040516001600160a01b039091168152602001610209565b610265610260366004612830565b610603565b005b61027a61027536600461269e565b610719565b60405161020991906129de565b6008545b604051908152602001610209565b600b5461023a906001600160a01b031681565b6102656102ba3660046126ea565b610844565b61028b6102cd3660046128ad565b610876565b61028b6102e0366004612830565b61095c565b61028b6102f33660046128fe565b6109f2565b6102656103063660046126ea565b610c98565b6102656103193660046128ad565b610cb3565b610265610de4565b61028b6103343660046128ad565b610e42565b600a54600160a01b900460ff166101fd565b61023a6103593660046128ad565b610ee3565b61028b61036c36600461269e565b610f5a565b610265610fe1565b600a546001600160a01b031661023a565b61028b6103983660046128dd565b611015565b61021a61121f565b6102656103b33660046127fa565b61122e565b6102656112f3565b6102656103ce366004612725565b611375565b6103e66103e13660046128ad565b6113ad565b6040805195865267ffffffffffffffff909416602086015263ffffffff9283169385019390935216606083015261ffff16608082015260a001610209565b6102656104323660046126ea565b6114b4565b61021a6104453660046128ad565b61158c565b6101fd6104583660046126b8565b6001600160a01b03918216600090815260056020908152604080832093909416825291909152205460ff1690565b61026561049436600461269e565b611674565b6101fd6104a7366004612830565b61170f565b60006001600160e01b0319821663780e9d6360e01b14806104d157506104d18261171b565b92915050565b6060600080546104e690612be2565b80601f016020809104026020016040519081016040528092919081815260200182805461051290612be2565b801561055f5780601f106105345761010080835404028352916020019161055f565b820191906000526020600020905b81548152906001019060200180831161054257829003601f168201915b5050505050905090565b6000818152600260205260408120546001600160a01b03166105e75760405162461bcd60e51b815260206004820152602c60248201527f4552433732313a20617070726f76656420717565727920666f72206e6f6e657860448201526b34b9ba32b73a103a37b5b2b760a11b60648201526084015b60405180910390fd5b506000908152600460205260409020546001600160a01b031690565b600061060e82610ee3565b9050806001600160a01b0316836001600160a01b0316141561067c5760405162461bcd60e51b815260206004820152602160248201527f4552433732313a20617070726f76616c20746f2063757272656e74206f776e656044820152603960f91b60648201526084016105de565b336001600160a01b038216148061069857506106988133610458565b61070a5760405162461bcd60e51b815260206004820152603860248201527f4552433732313a20617070726f76652063616c6c6572206973206e6f74206f7760448201527f6e6572206e6f7220617070726f76656420666f7220616c6c000000000000000060648201526084016105de565b610714838361176b565b505050565b60606001600160a01b0382166107715760405162461bcd60e51b815260206004820181905260248201527f546f6b656e20717565727920666f7220746865207a65726f206164647265737360448201526064016105de565b600061077c83610f5a565b90508061079d5760408051600080825260208201909252905b509392505050565b60008167ffffffffffffffff8111156107c657634e487b7160e01b600052604160045260246000fd5b6040519080825280602002602001820160405280156107ef578160200160208202803683370190505b50905060005b8281101561079557610807858261095c565b82828151811061082757634e487b7160e01b600052603260045260246000fd5b60209081029190910101528061083c81612c1d565b9150506107f5565b61084f335b826117d9565b61086b5760405162461bcd60e51b81526004016105de90612ae6565b6107148383836118d0565b600a546000906001600160a01b031633146108a35760405162461bcd60e51b81526004016105de90612ab1565b600a54600160a01b900460ff16156108cd5760405162461bcd60e51b81526004016105de90612a87565b600a6108d8600e5490565b106109345760405162461bcd60e51b815260206004820152602660248201527f4d6178696d756d20616d6f756e74206f6620616c69656e732047656e20302072604482015265195858da195960d21b60648201526084016105de565b610942600e80546001019055565b6000610953836000806000336109f2565b9150505b919050565b600061096783610f5a565b82106109c95760405162461bcd60e51b815260206004820152602b60248201527f455243373231456e756d657261626c653a206f776e657220696e646578206f7560448201526a74206f6620626f756e647360a81b60648201526084016105de565b506001600160a01b03919091166000908152600660209081526040808320938352929052205490565b600c54600b546040516370a0823160e01b81526001600160a01b0384811660048301526000939216906370a082319060240160206040518083038186803b158015610a3c57600080fd5b505afa158015610a50573d6000803e3d6000fd5b505050506040513d601f19601f82011682018060405250810190610a7491906128c5565b1015610ace5760405162461bcd60e51b815260206004820152602360248201527f6e6f7420656e6f7567682062616c616e636520666f72206372656174696f6e2060448201526266656560e81b60648201526084016105de565b600b546040516370a0823160e01b81523060048201526000916001600160a01b0316906370a082319060240160206040518083038186803b158015610b1257600080fd5b505afa158015610b26573d6000803e3d6000fd5b505050506040513d601f19601f82011682018060405250810190610b4a91906128c5565b600b54600c546040516323b872dd60e01b815233600482015230602482015260448101919091529192506001600160a01b0316906323b872dd90606401602060405180830381600087803b158015610ba157600080fd5b505af1158015610bb5573d6000803e3d6000fd5b505050506040513d601f19601f82011682018060405250810190610bd99190612859565b50600c54610be79082612b37565b600b546040516370a0823160e01b81523060048201526001600160a01b03909116906370a082319060240160206040518083038186803b158015610c2a57600080fd5b505afa158015610c3e573d6000803e3d6000fd5b505050506040513d601f19601f82011682018060405250810190610c6291906128c5565b14610c7d57634e487b7160e01b600052600160045260246000fd5b6000610c8c8888888888611a7b565b98975050505050505050565b61071483838360405180602001604052806000815250611375565b600a54600160a01b900460ff1615610cdd5760405162461bcd60e51b81526004016105de90612a87565b610ce633610849565b610d4b5760405162461bcd60e51b815260206004820152603060248201527f4552433732314275726e61626c653a2063616c6c6572206973206e6f74206f7760448201526f1b995c881b9bdc88185c1c1c9bdd995960821b60648201526084016105de565b610d5481611c38565b600d8181548110610d7557634e487b7160e01b600052603260045260246000fd5b600091825260208083206002929092029091019182556001909101805471ffffffffffffffffffffffffffffffffffff19169055604080513381529182018390527f375de7ebcf7d9aedaeea87f94fccc860c3e5afbe038d8a9567ed76e1861c3694910160405180910390a150565b600a546001600160a01b03163314610e0e5760405162461bcd60e51b81526004016105de90612ab1565b600a54600160a01b900460ff1615610e385760405162461bcd60e51b81526004016105de90612a87565b610e40611cdf565b565b6000610e4d60085490565b8210610eb05760405162461bcd60e51b815260206004820152602c60248201527f455243373231456e756d657261626c653a20676c6f62616c20696e646578206f60448201526b7574206f6620626f756e647360a01b60648201526084016105de565b60088281548110610ed157634e487b7160e01b600052603260045260246000fd5b90600052602060002001549050919050565b6000818152600260205260408120546001600160a01b0316806104d15760405162461bcd60e51b815260206004820152602960248201527f4552433732313a206f776e657220717565727920666f72206e6f6e657869737460448201526832b73a103a37b5b2b760b91b60648201526084016105de565b60006001600160a01b038216610fc55760405162461bcd60e51b815260206004820152602a60248201527f4552433732313a2062616c616e636520717565727920666f7220746865207a65604482015269726f206164647265737360b01b60648201526084016105de565b506001600160a01b031660009081526003602052604090205490565b600a546001600160a01b0316331461100b5760405162461bcd60e51b81526004016105de90612ab1565b610e406000611d61565b600a54600090600160a01b900460ff16156110425760405162461bcd60e51b81526004016105de90612a87565b61104c338461170f565b6110a65760405162461bcd60e51b815260206004820152602560248201527f546865207573657220646f65736e2774206f776e2074686520746f6b656e205f604482015264191859125960da1b60648201526084016105de565b6110b0338361170f565b61110a5760405162461bcd60e51b815260206004820152602560248201527f546865207573657220646f65736e2774206f776e2074686520746f6b656e205f6044820152641b5d5b525960da1b60648201526084016105de565b8183141561115a5760405162461bcd60e51b815260206004820152601b60248201527f746f6b656e49642073686f756c6420626520646966666572656e74000000000060448201526064016105de565b6000600d848154811061117d57634e487b7160e01b600052603260045260246000fd5b906000526020600020906002020190506000600d84815481106111b057634e487b7160e01b600052603260045260246000fd5b9060005260206000209060020201905060006111d483600001548360000154611db3565b600180850154908401549192506000916112019161ffff600160801b918290048116929190910416611f45565b905061120e816001612b37565b90506000610c8c83888a85336109f2565b6060600180546104e690612be2565b6001600160a01b0382163314156112875760405162461bcd60e51b815260206004820152601960248201527f4552433732313a20617070726f766520746f2063616c6c65720000000000000060448201526064016105de565b3360008181526005602090815260408083206001600160a01b03871680855290835292819020805460ff191686151590811790915590519081529192917f17307eab39ab6107e8899845ad3d59bd9653f200f220920489ca2b5937696c31910160405180910390a35050565b600a546001600160a01b0316331461131d5760405162461bcd60e51b81526004016105de90612ab1565b600a54600160a01b900460ff1661136d5760405162461bcd60e51b815260206004820152601460248201527314185d5cd8589b194e881b9bdd081c185d5cd95960621b60448201526064016105de565b610e40611f5c565b61137f33836117d9565b61139b5760405162461bcd60e51b81526004016105de90612ae6565b6113a784848484611fe0565b50505050565b60008060008060006113be60085490565b86111561140d5760405162461bcd60e51b815260206004820152601960248201527f4964206f757473696465206f6620746f74616c537570706c790000000000000060448201526064016105de565b6000600d878154811061143057634e487b7160e01b600052603260045260246000fd5b60009182526020918290206040805160a081018252600293909302909101805480845260019091015467ffffffffffffffff8116948401859052600160401b810463ffffffff908116938501849052600160601b82041660608501819052600160801b90910461ffff166080909401849052909b939a509098509650945092505050565b600a54600160a01b900460ff16156114de5760405162461bcd60e51b81526004016105de90612a87565b6001600160a01b0382166115345760405162461bcd60e51b815260206004820152601c60248201527f7472616e7366657220746f20746865207a65726f20616464726573730000000060448201526064016105de565b6001600160a01b0382163014156115815760405162461bcd60e51b815260206004820152601160248201527043616e2774207472616e7366657220746f60781b60448201526064016105de565b610714838383610c98565b6000818152600260205260409020546060906001600160a01b031661160b5760405162461bcd60e51b815260206004820152602f60248201527f4552433732314d657461646174613a2055524920717565727920666f72206e6f60448201526e3732bc34b9ba32b73a103a37b5b2b760891b60648201526084016105de565b600061162260408051602081019091526000815290565b90506000815111611642576040518060200160405280600081525061166d565b8061164c84612013565b60405160200161165d929190612972565b6040516020818303038152906040525b9392505050565b600a546001600160a01b0316331461169e5760405162461bcd60e51b81526004016105de90612ab1565b6001600160a01b0381166117035760405162461bcd60e51b815260206004820152602660248201527f4f776e61626c653a206e6577206f776e657220697320746865207a65726f206160448201526564647265737360d01b60648201526084016105de565b61170c81611d61565b50565b600061166d83836117d9565b60006001600160e01b031982166380ac58cd60e01b148061174c57506001600160e01b03198216635b5e139f60e01b145b806104d157506301ffc9a760e01b6001600160e01b03198316146104d1565b600081815260046020526040902080546001600160a01b0319166001600160a01b03841690811790915581906117a082610ee3565b6001600160a01b03167f8c5be1e5ebec7d5bd14f71427d1e84f3dd0314c0f7b2291e5b200ac8c7c3b92560405160405180910390a45050565b6000818152600260205260408120546001600160a01b03166118525760405162461bcd60e51b815260206004820152602c60248201527f4552433732313a206f70657261746f7220717565727920666f72206e6f6e657860448201526b34b9ba32b73a103a37b5b2b760a11b60648201526084016105de565b600061185d83610ee3565b9050806001600160a01b0316846001600160a01b031614806118985750836001600160a01b031661188d84610569565b6001600160a01b0316145b806118c857506001600160a01b0380821660009081526005602090815260408083209388168352929052205460ff165b949350505050565b826001600160a01b03166118e382610ee3565b6001600160a01b03161461194b5760405162461bcd60e51b815260206004820152602960248201527f4552433732313a207472616e73666572206f6620746f6b656e2074686174206960448201526839903737ba1037bbb760b91b60648201526084016105de565b6001600160a01b0382166119ad5760405162461bcd60e51b8152602060048201526024808201527f4552433732313a207472616e7366657220746f20746865207a65726f206164646044820152637265737360e01b60648201526084016105de565b6119b883838361212d565b6119c360008261176b565b6001600160a01b03831660009081526003602052604081208054600192906119ec908490612b82565b90915550506001600160a01b0382166000908152600360205260408120805460019290611a1a908490612b37565b909155505060008181526002602052604080822080546001600160a01b0319166001600160a01b0386811691821790925591518493918716917fddf252ad1be2c89b69c2b068fc378daa952ba7f163c4a11628f55a4df523b3ef91a4505050565b600a54600090600160a01b900460ff1615611aa85760405162461bcd60e51b81526004016105de90612a87565b6040805160a08101825287815267ffffffffffffffff4281166020830190815263ffffffff808a169484019485528881166060850190815261ffff808a1660808701908152600d80546001818101835560008381528a5160029093027fd7b6990105719101dabeb77144f2a3385c8033acd3af97e9423a695e81ad1eb581019390935597517fd7b6990105719101dabeb77144f2a3385c8033acd3af97e9423a695e81ad1eb690920180549b5196519451909516600160801b0261ffff60801b19948816600160601b029490941665ffffffffffff60601b19968816600160401b026bffffffffffffffffffffffff19909c16929099169190911799909917939093169590951794909417909355915492939092611bc9929091906121e516565b9050611bd584826121f1565b604080516001600160a01b03861681526020810183905290810188905260608101879052608081018990527f4df9d353e24d45336c180871f471a1c9e897d3f6f978bad7ec1cbe4efc6f7fe29060a00160405180910390a1979650505050505050565b6000611c4382610ee3565b9050611c518160008461212d565b611c5c60008361176b565b6001600160a01b0381166000908152600360205260408120805460019290611c85908490612b82565b909155505060008281526002602052604080822080546001600160a01b0319169055518391906001600160a01b038416907fddf252ad1be2c89b69c2b068fc378daa952ba7f163c4a11628f55a4df523b3ef908390a45050565b600a54600160a01b900460ff1615611d095760405162461bcd60e51b81526004016105de90612a87565b600a805460ff60a01b1916600160a01b1790557f62e78cea01bee320cd4e420270b5ea74000d11b0c9f74754ebdbfc544b05a258611d443390565b6040516001600160a01b03909116815260200160405180910390a1565b600a80546001600160a01b038381166001600160a01b0319831681179093556040519116919082907f8be0079c531659141344cd1fd0a4f28419497f9722a3daafe3b4186f6b6457e090600090a35050565b6000611dbd612669565b6000611dc761220f565b9050600560015b60108111611e8d5782811660ff1615611e1c57611dec606488612c38565b60ff16848360ff1660068110611e1257634e487b7160e01b600052603260045260246000fd5b6020020152611e53565b611e27606487612c38565b60ff16848360ff1660068110611e4d57634e487b7160e01b600052603260045260246000fd5b60200201525b611e5e606488612b4f565b9650611e6b606487612b4f565b955081611e7781612bc5565b9250611e869050816002612b63565b9050611dce565b506000611e9b600584612c4c565b9050611ea8606384612c4c565b60ff16848260ff1660068110611ece57634e487b7160e01b600052603260045260246000fd5b60200201526000805b6006811015611f3957858160068110611f0057634e487b7160e01b600052603260045260246000fd5b6020020151611f0f9083612b37565b915080600514611f2757611f24826064612b63565b91505b611f32816001612b37565b9050611ed7565b50979650505050505050565b600081831015611f55578161166d565b5090919050565b600a54600160a01b900460ff16611fac5760405162461bcd60e51b815260206004820152601460248201527314185d5cd8589b194e881b9bdd081c185d5cd95960621b60448201526064016105de565b600a805460ff60a01b191690557f5db9ee0a495bf2e6ff9c91a7834c1ba4fdd244a5e8aa4e537bd38aeae4b073aa33611d44565b611feb8484846118d0565b611ff784848484612221565b6113a75760405162461bcd60e51b81526004016105de90612a35565b6060816120375750506040805180820190915260018152600360fc1b602082015290565b8160005b8115612061578061204b81612c1d565b915061205a9050600a83612b4f565b915061203b565b60008167ffffffffffffffff81111561208a57634e487b7160e01b600052604160045260246000fd5b6040519080825280601f01601f1916602001820160405280156120b4576020820181803683370190505b5090505b84156118c8576120c9600183612b82565b91506120d6600a86612c38565b6120e1906030612b37565b60f81b81838151811061210457634e487b7160e01b600052603260045260246000fd5b60200101906001600160f81b031916908160001a905350612126600a86612b4f565b94506120b8565b6001600160a01b0383166121885761218381600880546000838152600960205260408120829055600182018355919091527ff3f7a9fe364faab93b216da50a3214154f22a0a2b415b23a84c8169e8b636ee30155565b6121ab565b816001600160a01b0316836001600160a01b0316146121ab576121ab838261232e565b6001600160a01b0382166121c257610714816123cb565b826001600160a01b0316826001600160a01b0316146107145761071482826124a4565b600061166d8284612b82565b61220b8282604051806020016040528060008152506124e8565b5050565b600061221c60ff42612c38565b905090565b60006001600160a01b0384163b1561232357604051630a85bd0160e11b81526001600160a01b0385169063150b7a02906122659033908990889088906004016129a1565b602060405180830381600087803b15801561227f57600080fd5b505af19250505080156122af575060408051601f3d908101601f191682019092526122ac91810190612891565b60015b612309573d8080156122dd576040519150601f19603f3d011682016040523d82523d6000602084013e6122e2565b606091505b5080516123015760405162461bcd60e51b81526004016105de90612a35565b805181602001fd5b6001600160e01b031916630a85bd0160e11b1490506118c8565b506001949350505050565b6000600161233b84610f5a565b6123459190612b82565b600083815260076020526040902054909150808214612398576001600160a01b03841660009081526006602090815260408083208584528252808320548484528184208190558352600790915290208190555b5060009182526007602090815260408084208490556001600160a01b039094168352600681528383209183525290812055565b6008546000906123dd90600190612b82565b6000838152600960205260408120546008805493945090928490811061241357634e487b7160e01b600052603260045260246000fd5b90600052602060002001549050806008838154811061244257634e487b7160e01b600052603260045260246000fd5b600091825260208083209091019290925582815260099091526040808220849055858252812055600880548061248857634e487b7160e01b600052603160045260246000fd5b6001900381819060005260206000200160009055905550505050565b60006124af83610f5a565b6001600160a01b039093166000908152600660209081526040808320868452825280832085905593825260079052919091209190915550565b6124f2838361251b565b6124ff6000848484612221565b6107145760405162461bcd60e51b81526004016105de90612a35565b6001600160a01b0382166125715760405162461bcd60e51b815260206004820181905260248201527f4552433732313a206d696e7420746f20746865207a65726f206164647265737360448201526064016105de565b6000818152600260205260409020546001600160a01b0316156125d65760405162461bcd60e51b815260206004820152601c60248201527f4552433732313a20746f6b656e20616c7265616479206d696e7465640000000060448201526064016105de565b6125e26000838361212d565b6001600160a01b038216600090815260036020526040812080546001929061260b908490612b37565b909155505060008181526002602052604080822080546001600160a01b0319166001600160a01b03861690811790915590518392907fddf252ad1be2c89b69c2b068fc378daa952ba7f163c4a11628f55a4df523b3ef908290a45050565b6040518060c001604052806006906020820280368337509192915050565b80356001600160a01b038116811461095757600080fd5b6000602082840312156126af578081fd5b61166d82612687565b600080604083850312156126ca578081fd5b6126d383612687565b91506126e160208401612687565b90509250929050565b6000806000606084860312156126fe578081fd5b61270784612687565b925061271560208501612687565b9150604084013590509250925092565b6000806000806080858703121561273a578081fd5b61274385612687565b935061275160208601612687565b925060408501359150606085013567ffffffffffffffff80821115612774578283fd5b818701915087601f830112612787578283fd5b81358181111561279957612799612c9a565b604051601f8201601f19908116603f011681019083821181831017156127c1576127c1612c9a565b816040528281528a60208487010111156127d9578586fd5b82602086016020830137918201602001949094529598949750929550505050565b6000806040838503121561280c578182fd5b61281583612687565b9150602083013561282581612cb0565b809150509250929050565b60008060408385031215612842578182fd5b61284b83612687565b946020939093013593505050565b60006020828403121561286a578081fd5b815161166d81612cb0565b600060208284031215612886578081fd5b813561166d81612cbe565b6000602082840312156128a2578081fd5b815161166d81612cbe565b6000602082840312156128be578081fd5b5035919050565b6000602082840312156128d6578081fd5b5051919050565b600080604083850312156128ef578182fd5b50508035926020909101359150565b600080600080600060a08688031215612915578081fd5b8535945060208601359350604086013592506060860135915061293a60808701612687565b90509295509295909350565b6000815180845261295e816020860160208601612b99565b601f01601f19169290920160200192915050565b60008351612984818460208801612b99565b835190830190612998818360208801612b99565b01949350505050565b6001600160a01b03858116825284166020820152604081018390526080606082018190526000906129d490830184612946565b9695505050505050565b6020808252825182820181905260009190848201906040850190845b81811015612a16578351835292840192918401916001016129fa565b50909695505050505050565b60208152600061166d6020830184612946565b60208082526032908201527f4552433732313a207472616e7366657220746f206e6f6e20455243373231526560408201527131b2b4bb32b91034b6b83632b6b2b73a32b960711b606082015260800190565b60208082526010908201526f14185d5cd8589b194e881c185d5cd95960821b604082015260600190565b6020808252818101527f4f776e61626c653a2063616c6c6572206973206e6f7420746865206f776e6572604082015260600190565b60208082526031908201527f4552433732313a207472616e736665722063616c6c6572206973206e6f74206f6040820152701ddb995c881b9bdc88185c1c1c9bdd9959607a1b606082015260800190565b60008219821115612b4a57612b4a612c6e565b500190565b600082612b5e57612b5e612c84565b500490565b6000816000190483118215151615612b7d57612b7d612c6e565b500290565b600082821015612b9457612b94612c6e565b500390565b60005b83811015612bb4578181015183820152602001612b9c565b838111156113a75750506000910152565b600060ff821680612bd857612bd8612c6e565b6000190192915050565b600181811c90821680612bf657607f821691505b60208210811415612c1757634e487b7160e01b600052602260045260246000fd5b50919050565b6000600019821415612c3157612c31612c6e565b5060010190565b600082612c4757612c47612c84565b500690565b600060ff831680612c5f57612c5f612c84565b8060ff84160691505092915050565b634e487b7160e01b600052601160045260246000fd5b634e487b7160e01b600052601260045260246000fd5b634e487b7160e01b600052604160045260246000fd5b801515811461170c57600080fd5b6001600160e01b03198116811461170c57600080fdfea2646970667358221220ffeec72c172739d509c80d6daf0cf20da9e415d35e32a595337ea155db2ab02364736f6c63430008040033",
  "devdoc": {
    "author": "Carlos Zambrano - thecil",
    "details": "This contract handles cloning aliens and createGen0This contract is split in the following way:      - AlienCore: This provides the methods required for basic non-fungible token",
    "kind": "dev",
    "methods": {
      "approve(address,uint256)": {
        "details": "See {IERC721-approve}."
      },
      "balanceOf(address)": {
        "details": "See {IERC721-balanceOf}."
      },
      "burn(uint256)": {
        "details": "Burns `tokenId`. See {ERC721-_burn}. Requirements: - The caller must own `tokenId` or be an approved operator. emits Event {AlienDestroyed}"
      },
      "cloneAlien(uint256,uint256)": {
        "params": {
          "_dadId": "the id of the dad",
          "_mumId": "the id of the mom"
        }
      },
      "createAlien(uint256,uint256,uint256,uint256,address)": {
        "details": "public function to createAliens see: {_createAlien}",
        "params": {
          "_dadId": "The dad of the alien (0 for gen0)",
          "_generation": "The generation number of this alien, must be computed by caller",
          "_genes": "The generic code, must me computed by the caller",
          "_mumId": "The mother of the alien (0 for gen0)",
          "_owner": "The initial owner, must me non-zero Requirements: - msg.sender will pay the creation Fee for creation"
        }
      },
      "getAlien(uint256)": {
        "details": "Returns an alien object based on its ID. Requirements: - The ID must be lower than totalSupply."
      },
      "getAllAliens(address)": {
        "details": "Returns an array of IDs owned by the address. Requirements: - The ID must be lower than totalSupply."
      },
      "getApproved(uint256)": {
        "details": "See {IERC721-getApproved}."
      },
      "isApprovedForAll(address,address)": {
        "details": "See {IERC721-isApprovedForAll}."
      },
      "isApprovedOwner(address,uint256)": {
        "details": "Returns whether `spender` is allowed to manage `tokenId`. Requirements: - `tokenId` must exist."
      },
      "name()": {
        "details": "See {IERC721Metadata-name}."
      },
      "owner()": {
        "details": "Returns the address of the current owner."
      },
      "ownerOf(uint256)": {
        "details": "See {IERC721-ownerOf}."
      },
      "pauseContract()": {
        "details": "Returns to normal state. Requirements: - The contract must be paused."
      },
      "paused()": {
        "details": "Returns true if the contract is paused, and false otherwise."
      },
      "renounceOwnership()": {
        "details": "Leaves the contract without owner. It will not be possible to call `onlyOwner` functions anymore. Can only be called by the current owner. NOTE: Renouncing ownership will leave the contract without an owner, thereby removing any functionality that is only available to the owner."
      },
      "safeTransferFrom(address,address,uint256)": {
        "details": "See {IERC721-safeTransferFrom}."
      },
      "safeTransferFrom(address,address,uint256,bytes)": {
        "details": "See {IERC721-safeTransferFrom}."
      },
      "setApprovalForAll(address,bool)": {
        "details": "See {IERC721-setApprovalForAll}."
      },
      "supportsInterface(bytes4)": {
        "details": "See {IERC165-supportsInterface}."
      },
      "symbol()": {
        "details": "See {IERC721Metadata-symbol}."
      },
      "tokenByIndex(uint256)": {
        "details": "See {IERC721Enumerable-tokenByIndex}."
      },
      "tokenOfOwnerByIndex(address,uint256)": {
        "details": "See {IERC721Enumerable-tokenOfOwnerByIndex}."
      },
      "tokenURI(uint256)": {
        "details": "See {IERC721Metadata-tokenURI}."
      },
      "totalSupply()": {
        "details": "See {IERC721Enumerable-totalSupply}."
      },
      "transfer(address,address,uint256)": {
        "details": "Assign ownership of a specific alien to an address.This poses no restriction on msg.sender",
        "params": {
          "_from": "The address from who to transfer from, can be 0 for creation of a alien",
          "_to": "The address to who to transfer to, cannot be 0 address",
          "_tokenId": "The id of the transfering alien,"
        }
      },
      "transferFrom(address,address,uint256)": {
        "details": "See {IERC721-transferFrom}."
      },
      "transferOwnership(address)": {
        "details": "Transfers ownership of the contract to a new account (`newOwner`). Can only be called by the current owner."
      },
      "unpauseContract()": {
        "details": "Returns to normal state. Requirements: - The contract must be paused."
      }
    },
    "title": "The AlienFactory contract.",
    "version": 1
  },
  "userdoc": {
    "kind": "user",
    "methods": {
      "cloneAlien(uint256,uint256)": {
        "notice": "Clone a new alien based on a mom and dad"
      }
    },
    "version": 1
  },
  "storageLayout": {
    "storage": [
      {
        "astId": 870,
        "contract": "contracts/AlienFactory.sol:AlienFactory",
        "label": "_name",
        "offset": 0,
        "slot": "0",
        "type": "t_string_storage"
      },
      {
        "astId": 872,
        "contract": "contracts/AlienFactory.sol:AlienFactory",
        "label": "_symbol",
        "offset": 0,
        "slot": "1",
        "type": "t_string_storage"
      },
      {
        "astId": 876,
        "contract": "contracts/AlienFactory.sol:AlienFactory",
        "label": "_owners",
        "offset": 0,
        "slot": "2",
        "type": "t_mapping(t_uint256,t_address)"
      },
      {
        "astId": 880,
        "contract": "contracts/AlienFactory.sol:AlienFactory",
        "label": "_balances",
        "offset": 0,
        "slot": "3",
        "type": "t_mapping(t_address,t_uint256)"
      },
      {
        "astId": 884,
        "contract": "contracts/AlienFactory.sol:AlienFactory",
        "label": "_tokenApprovals",
        "offset": 0,
        "slot": "4",
        "type": "t_mapping(t_uint256,t_address)"
      },
      {
        "astId": 890,
        "contract": "contracts/AlienFactory.sol:AlienFactory",
        "label": "_operatorApprovals",
        "offset": 0,
        "slot": "5",
        "type": "t_mapping(t_address,t_mapping(t_address,t_bool))"
      },
      {
        "astId": 1809,
        "contract": "contracts/AlienFactory.sol:AlienFactory",
        "label": "_ownedTokens",
        "offset": 0,
        "slot": "6",
        "type": "t_mapping(t_address,t_mapping(t_uint256,t_uint256))"
      },
      {
        "astId": 1813,
        "contract": "contracts/AlienFactory.sol:AlienFactory",
        "label": "_ownedTokensIndex",
        "offset": 0,
        "slot": "7",
        "type": "t_mapping(t_uint256,t_uint256)"
      },
      {
        "astId": 1816,
        "contract": "contracts/AlienFactory.sol:AlienFactory",
        "label": "_allTokens",
        "offset": 0,
        "slot": "8",
        "type": "t_array(t_uint256)dyn_storage"
      },
      {
        "astId": 1820,
        "contract": "contracts/AlienFactory.sol:AlienFactory",
        "label": "_allTokensIndex",
        "offset": 0,
        "slot": "9",
        "type": "t_mapping(t_uint256,t_uint256)"
      },
      {
        "astId": 7,
        "contract": "contracts/AlienFactory.sol:AlienFactory",
        "label": "_owner",
        "offset": 0,
        "slot": "10",
        "type": "t_address"
      },
      {
        "astId": 121,
        "contract": "contracts/AlienFactory.sol:AlienFactory",
        "label": "_paused",
        "offset": 20,
        "slot": "10",
        "type": "t_bool"
      },
      {
        "astId": 3154,
        "contract": "contracts/AlienFactory.sol:AlienFactory",
        "label": "alienToken",
        "offset": 0,
        "slot": "11",
        "type": "t_contract(IERC20)819"
      },
      {
        "astId": 3157,
        "contract": "contracts/AlienFactory.sol:AlienFactory",
        "label": "_creationFee",
        "offset": 0,
        "slot": "12",
        "type": "t_uint256"
      },
      {
        "astId": 3173,
        "contract": "contracts/AlienFactory.sol:AlienFactory",
        "label": "_aliens",
        "offset": 0,
        "slot": "13",
        "type": "t_array(t_struct(AlienObj)3168_storage)dyn_storage"
      },
      {
        "astId": 3642,
        "contract": "contracts/AlienFactory.sol:AlienFactory",
        "label": "gen0Counter",
        "offset": 0,
        "slot": "14",
        "type": "t_struct(Counter)2515_storage"
      }
    ],
    "types": {
      "t_address": {
        "encoding": "inplace",
        "label": "address",
        "numberOfBytes": "20"
      },
      "t_array(t_struct(AlienObj)3168_storage)dyn_storage": {
        "base": "t_struct(AlienObj)3168_storage",
        "encoding": "dynamic_array",
        "label": "struct AlienCore.AlienObj[]",
        "numberOfBytes": "32"
      },
      "t_array(t_uint256)dyn_storage": {
        "base": "t_uint256",
        "encoding": "dynamic_array",
        "label": "uint256[]",
        "numberOfBytes": "32"
      },
      "t_bool": {
        "encoding": "inplace",
        "label": "bool",
        "numberOfBytes": "1"
      },
      "t_contract(IERC20)819": {
        "encoding": "inplace",
        "label": "contract IERC20",
        "numberOfBytes": "20"
      },
      "t_mapping(t_address,t_bool)": {
        "encoding": "mapping",
        "key": "t_address",
        "label": "mapping(address => bool)",
        "numberOfBytes": "32",
        "value": "t_bool"
      },
      "t_mapping(t_address,t_mapping(t_address,t_bool))": {
        "encoding": "mapping",
        "key": "t_address",
        "label": "mapping(address => mapping(address => bool))",
        "numberOfBytes": "32",
        "value": "t_mapping(t_address,t_bool)"
      },
      "t_mapping(t_address,t_mapping(t_uint256,t_uint256))": {
        "encoding": "mapping",
        "key": "t_address",
        "label": "mapping(address => mapping(uint256 => uint256))",
        "numberOfBytes": "32",
        "value": "t_mapping(t_uint256,t_uint256)"
      },
      "t_mapping(t_address,t_uint256)": {
        "encoding": "mapping",
        "key": "t_address",
        "label": "mapping(address => uint256)",
        "numberOfBytes": "32",
        "value": "t_uint256"
      },
      "t_mapping(t_uint256,t_address)": {
        "encoding": "mapping",
        "key": "t_uint256",
        "label": "mapping(uint256 => address)",
        "numberOfBytes": "32",
        "value": "t_address"
      },
      "t_mapping(t_uint256,t_uint256)": {
        "encoding": "mapping",
        "key": "t_uint256",
        "label": "mapping(uint256 => uint256)",
        "numberOfBytes": "32",
        "value": "t_uint256"
      },
      "t_string_storage": {
        "encoding": "bytes",
        "label": "string",
        "numberOfBytes": "32"
      },
      "t_struct(AlienObj)3168_storage": {
        "encoding": "inplace",
        "label": "struct AlienCore.AlienObj",
        "members": [
          {
            "astId": 3159,
            "contract": "contracts/AlienFactory.sol:AlienFactory",
            "label": "genes",
            "offset": 0,
            "slot": "0",
            "type": "t_uint256"
          },
          {
            "astId": 3161,
            "contract": "contracts/AlienFactory.sol:AlienFactory",
            "label": "birthTime",
            "offset": 0,
            "slot": "1",
            "type": "t_uint64"
          },
          {
            "astId": 3163,
            "contract": "contracts/AlienFactory.sol:AlienFactory",
            "label": "mumId",
            "offset": 8,
            "slot": "1",
            "type": "t_uint32"
          },
          {
            "astId": 3165,
            "contract": "contracts/AlienFactory.sol:AlienFactory",
            "label": "dadId",
            "offset": 12,
            "slot": "1",
            "type": "t_uint32"
          },
          {
            "astId": 3167,
            "contract": "contracts/AlienFactory.sol:AlienFactory",
            "label": "generation",
            "offset": 16,
            "slot": "1",
            "type": "t_uint16"
          }
        ],
        "numberOfBytes": "64"
      },
      "t_struct(Counter)2515_storage": {
        "encoding": "inplace",
        "label": "struct Counters.Counter",
        "members": [
          {
            "astId": 2514,
            "contract": "contracts/AlienFactory.sol:AlienFactory",
            "label": "_value",
            "offset": 0,
            "slot": "0",
            "type": "t_uint256"
          }
        ],
        "numberOfBytes": "32"
      },
      "t_uint16": {
        "encoding": "inplace",
        "label": "uint16",
        "numberOfBytes": "2"
      },
      "t_uint256": {
        "encoding": "inplace",
        "label": "uint256",
        "numberOfBytes": "32"
      },
      "t_uint32": {
        "encoding": "inplace",
        "label": "uint32",
        "numberOfBytes": "4"
      },
      "t_uint64": {
        "encoding": "inplace",
        "label": "uint64",
        "numberOfBytes": "8"
      }
    }
  }
}