{
  "address": "0xC7Bdf1b7dcb806b9aFD5b83C8BC2b0c4aDf2BcB7",
  "abi": [
    {
      "inputs": [
        {
          "internalType": "address",
          "name": "_AlienERC721",
          "type": "address"
        }
      ],
      "stateMutability": "nonpayable",
      "type": "constructor"
    },
    {
      "anonymous": false,
      "inputs": [
        {
          "indexed": false,
          "internalType": "string",
          "name": "TxType",
          "type": "string"
        },
        {
          "indexed": false,
          "internalType": "address",
          "name": "owner",
          "type": "address"
        },
        {
          "indexed": false,
          "internalType": "uint256",
          "name": "tokenId",
          "type": "uint256"
        }
      ],
      "name": "MarketTransaction",
      "type": "event"
    },
    {
      "anonymous": false,
      "inputs": [
        {
          "indexed": true,
          "internalType": "address",
          "name": "previousOwner",
          "type": "address"
        },
        {
          "indexed": true,
          "internalType": "address",
          "name": "newOwner",
          "type": "address"
        }
      ],
      "name": "OwnershipTransferred",
      "type": "event"
    },
    {
      "inputs": [],
      "name": "IAlienNFT",
      "outputs": [
        {
          "internalType": "address",
          "name": "",
          "type": "address"
        }
      ],
      "stateMutability": "view",
      "type": "function"
    },
    {
      "inputs": [],
      "name": "IAlienNft",
      "outputs": [
        {
          "internalType": "contract IAlienCore",
          "name": "",
          "type": "address"
        }
      ],
      "stateMutability": "view",
      "type": "function"
    },
    {
      "inputs": [
        {
          "internalType": "uint256",
          "name": "_tokenId",
          "type": "uint256"
        }
      ],
      "name": "buyAlien",
      "outputs": [],
      "stateMutability": "payable",
      "type": "function"
    },
    {
      "inputs": [],
      "name": "getAllTokenOnSale",
      "outputs": [
        {
          "components": [
            {
              "internalType": "address payable",
              "name": "seller",
              "type": "address"
            },
            {
              "internalType": "uint256",
              "name": "price",
              "type": "uint256"
            },
            {
              "internalType": "uint256",
              "name": "index",
              "type": "uint256"
            },
            {
              "internalType": "uint256",
              "name": "tokenId",
              "type": "uint256"
            },
            {
              "internalType": "bool",
              "name": "active",
              "type": "bool"
            }
          ],
          "internalType": "struct AlienMarketPlace.Offer[]",
          "name": "",
          "type": "tuple[]"
        }
      ],
      "stateMutability": "view",
      "type": "function"
    },
    {
      "inputs": [
        {
          "internalType": "uint256",
          "name": "_tokenId",
          "type": "uint256"
        }
      ],
      "name": "getOffer",
      "outputs": [
        {
          "internalType": "address",
          "name": "seller",
          "type": "address"
        },
        {
          "internalType": "uint256",
          "name": "price",
          "type": "uint256"
        },
        {
          "internalType": "uint256",
          "name": "index",
          "type": "uint256"
        },
        {
          "internalType": "uint256",
          "name": "tokenId",
          "type": "uint256"
        },
        {
          "internalType": "bool",
          "name": "active",
          "type": "bool"
        }
      ],
      "stateMutability": "view",
      "type": "function"
    },
    {
      "inputs": [],
      "name": "owner",
      "outputs": [
        {
          "internalType": "address",
          "name": "",
          "type": "address"
        }
      ],
      "stateMutability": "view",
      "type": "function"
    },
    {
      "inputs": [
        {
          "internalType": "uint256",
          "name": "_tokenId",
          "type": "uint256"
        }
      ],
      "name": "removeOffer",
      "outputs": [],
      "stateMutability": "nonpayable",
      "type": "function"
    },
    {
      "inputs": [],
      "name": "renounceOwnership",
      "outputs": [],
      "stateMutability": "nonpayable",
      "type": "function"
    },
    {
      "inputs": [
        {
          "internalType": "uint256",
          "name": "_price",
          "type": "uint256"
        },
        {
          "internalType": "uint256",
          "name": "_tokenId",
          "type": "uint256"
        }
      ],
      "name": "setOffer",
      "outputs": [],
      "stateMutability": "nonpayable",
      "type": "function"
    },
    {
      "inputs": [
        {
          "internalType": "address",
          "name": "newOwner",
          "type": "address"
        }
      ],
      "name": "transferOwnership",
      "outputs": [],
      "stateMutability": "nonpayable",
      "type": "function"
    }
  ],
  "transactionHash": "0xfbfca93c89f60433a34415bbaec80d042fe8acf0b8f8a87e423fda47487ed478",
  "args": [
    "0xAF3677129Dceb13DB5Cb6115C9fD69beEfF4cA48"
  ],
  "solcInputHash": "306a28a0fffa97793efa595e0f040a89",
  "bytecode": "0x608060405234801561001057600080fd5b50604051610fbd380380610fbd83398101604081905261002f916100b7565b61003833610067565b600280546001600160a01b039092166001600160a01b03199283168117909155600180549092161790556100e5565b600080546001600160a01b038381166001600160a01b0319831681178455604051919092169283917f8be0079c531659141344cd1fd0a4f28419497f9722a3daafe3b4186f6b6457e09190a35050565b6000602082840312156100c8578081fd5b81516001600160a01b03811681146100de578182fd5b9392505050565b610ec9806100f46000396000f3fe6080604052600436106100915760003560e01c806393846ea71161005957806393846ea7146101b2578063941b055b146101c557806395a0f9c7146101e5578063c078d7c214610205578063f2fde38b1461022557600080fd5b80634579268a1461009657806349b3709f14610127578063715018a6146101495780638da5cb5b146101605780639134f73c14610192575b600080fd5b3480156100a257600080fd5b506100ee6100b1366004610da9565b6000908152600460208190526040909120805460018201546002830154600384015493909401546001600160a01b03909216949093929160ff1690565b604080516001600160a01b03909616865260208601949094529284019190915260608301521515608082015260a0015b60405180910390f35b34801561013357600080fd5b5061013c610245565b60405161011e9190610de2565b34801561015557600080fd5b5061015e6102de565b005b34801561016c57600080fd5b506000546001600160a01b03165b6040516001600160a01b03909116815260200161011e565b34801561019e57600080fd5b5060025461017a906001600160a01b031681565b61015e6101c0366004610da9565b610349565b3480156101d157600080fd5b5061015e6101e0366004610dc1565b61051e565b3480156101f157600080fd5b5061015e610200366004610da9565b610956565b34801561021157600080fd5b5060015461017a906001600160a01b031681565b34801561023157600080fd5b5061015e610240366004610d4a565b610a4f565b60606003805480602002602001604051908101604052809291908181526020016000905b828210156102d55760008481526020908190206040805160a0810182526005860290920180546001600160a01b0316835260018082015484860152600282015492840192909252600381015460608401526004015460ff16151560808301529083529092019101610269565b50505050905090565b6000546001600160a01b0316331461033d5760405162461bcd60e51b815260206004820181905260248201527f4f776e61626c653a2063616c6c6572206973206e6f7420746865206f776e657260448201526064015b60405180910390fd5b6103476000610b1a565b565b600081815260046020818152604092839020835160a08101855281546001600160a01b031681526001820154928101839052600282015494810194909452600381015460608501529091015460ff161515608083015234146104045760405162461bcd60e51b815260206004820152602e60248201527f54686520707269636520616d6f756e74206d757374206265207468652073616d60448201526d652061732074686520707269636560901b6064820152608401610334565b61040d82610b6a565b805160208201516040516001600160a01b039092169181156108fc0291906000818181858888f1935050505015801561044a573d6000803e3d6000fd5b50600154815160608301516040516323b872dd60e01b81526001600160a01b03928316600482015233602482015260448101919091529116906323b872dd90606401600060405180830381600087803b1580156104a657600080fd5b505af11580156104ba573d6000803e3d6000fd5b505060408051606080825260099082015268213abc9020b634b2b760b91b60808201523360208201529081018590527fd99e4fad9ad6313b1feb588fa8e605e3a9873172f2024330c35dd2b4041a4386925060a00190505b60405180910390a15050565b6001546040516331a9108f60e11b81526004810183905233916001600160a01b031690636352211e9060240160206040518083038186803b15801561056257600080fd5b505afa158015610576573d6000803e3d6000fd5b505050506040513d601f19601f8201168201806040525081019061059a9190610d6d565b6001600160a01b0316146105f05760405162461bcd60e51b815260206004820152601b60248201527f6f6e6c79206f776e65722063616e2073656c6c20746f6b656e496400000000006044820152606401610334565b6000818152600460208190526040909120015460ff161561064a5760405162461bcd60e51b81526020600482015260146024820152736f6666657220616c72656164792065786973747360601b6044820152606401610334565b60015460405163e985e9c560e01b81523360048201523060248201526001600160a01b039091169063e985e9c59060440160206040518083038186803b15801561069357600080fd5b505afa1580156106a7573d6000803e3d6000fd5b505050506040513d601f19601f820116820180604052508101906106cb9190610d89565b6107175760405162461bcd60e51b815260206004820152601860248201527f636f6e7472616374206973206e6f7420617070726f76656400000000000000006044820152606401610334565b600082116107725760405162461bcd60e51b815260206004820152602260248201527f6f66666572207072696365206d7573742062652067726561746572207468616e604482015261020360f41b6064820152608401610334565b6040805160a081018252338082526020808301868152600380548587019081526060860188815260016080880181815260008b81526004978890528a81208a5181546001600160a01b039182166001600160a01b0319918216178355895183870155875160028401558651838a0155845192909a01805492151560ff199384161790558754948501885596909152895160059093027fc2575a0e9e593c00f959f8c92f12db2869c3395a3b0502d05e2516446f71f85b8101805494909716939098169290921790945593517fc2575a0e9e593c00f959f8c92f12db2869c3395a3b0502d05e2516446f71f85c86015590517fc2575a0e9e593c00f959f8c92f12db2869c3395a3b0502d05e2516446f71f85d850155517fc2575a0e9e593c00f959f8c92f12db2869c3395a3b0502d05e2516446f71f85e840155517fc2575a0e9e593c00f959f8c92f12db2869c3395a3b0502d05e2516446f71f85f909201805492151592909116919091179055915190917fd99e4fad9ad6313b1feb588fa8e605e3a9873172f2024330c35dd2b4041a438691610949919085906060808252600c908201526b21b932b0ba329037b33332b960a11b60808201526001600160a01b03929092166020830152604082015260a00190565b60405180910390a1505050565b600081815260046020818152604092839020835160a08101855281546001600160a01b0316808252600183015493820193909352600282015494810194909452600381015460608501529091015460ff161515608083015233146109ec5760405162461bcd60e51b815260206004820152600d60248201526c2737ba103a34329037bbb732b960991b6044820152606401610334565b6109f582610b6a565b604080516060808252600c908201526b2932b6b7bb329037b33332b960a11b60808201523360208201529081018390527fd99e4fad9ad6313b1feb588fa8e605e3a9873172f2024330c35dd2b4041a43869060a001610512565b6000546001600160a01b03163314610aa95760405162461bcd60e51b815260206004820181905260248201527f4f776e61626c653a2063616c6c6572206973206e6f7420746865206f776e65726044820152606401610334565b6001600160a01b038116610b0e5760405162461bcd60e51b815260206004820152602660248201527f4f776e61626c653a206e6577206f776e657220697320746865207a65726f206160448201526564647265737360d01b6064820152608401610334565b610b1781610b1a565b50565b600080546001600160a01b038381166001600160a01b0319831681178455604051919092169283917f8be0079c531659141344cd1fd0a4f28419497f9722a3daafe3b4186f6b6457e09190a35050565b600380546000838152600460205260408120600201549192610b8d600185610e5b565b81548110610bab57634e487b7160e01b600052603260045260246000fd5b60009182526020918290206040805160a081018252600590930290910180546001600160a01b03168352600181015493830193909352600283015490820152600380830154606083015260049092015460ff1615156080820152815490925082919084908110610c2b57634e487b7160e01b600052603260045260246000fd5b6000918252602080832084516005939093020180546001600160a01b0319166001600160a01b0390931692909217825583810151600183015560408085015160028085019190915560608601516003808601919091556080909601516004948501805460ff19169115159190911790558682015185529290915290912001839055805480610cc957634e487b7160e01b600052603160045260246000fd5b6000828152602080822060056000199094019384020180546001600160a01b031990811682556001828101859055600280840186905560038085018790556004948501805460ff19908116909155979098559a85529282905260408420998a0184905589541689559088018290559287015594018054909416909355505050565b600060208284031215610d5b578081fd5b8135610d6681610e7e565b9392505050565b600060208284031215610d7e578081fd5b8151610d6681610e7e565b600060208284031215610d9a578081fd5b81518015158114610d66578182fd5b600060208284031215610dba578081fd5b5035919050565b60008060408385031215610dd3578081fd5b50508035926020909101359150565b602080825282518282018190526000919060409081850190868401855b82811015610e4e57815180516001600160a01b03168552868101518786015285810151868601526060808201519086015260809081015115159085015260a09093019290850190600101610dff565b5091979650505050505050565b600082821015610e7957634e487b7160e01b81526011600452602481fd5b500390565b6001600160a01b0381168114610b1757600080fdfea2646970667358221220a59e42dacc6cfb4c8022922d7a27bfe28b492264ba930015486882c3d66665ef64736f6c63430008040033",
  "devdoc": {
    "author": "Carlos Zambrano - thecil",
    "details": "It takes ownership of the alien for the duration that it is on the marketplace",
    "kind": "dev",
    "methods": {
      "getOffer(uint256)": {
        "params": {
          "_tokenId": "the id of the token to get the offer from return the offer"
        }
      },
      "owner()": {
        "details": "Returns the address of the current owner."
      },
      "removeOffer(uint256)": {
        "details": "see _removeOffer"
      },
      "renounceOwnership()": {
        "details": "Leaves the contract without owner. It will not be possible to call `onlyOwner` functions anymore. Can only be called by the current owner. NOTE: Renouncing ownership will leave the contract without an owner, thereby removing any functionality that is only available to the owner."
      },
      "setOffer(uint256,uint256)": {
        "params": {
          "_price": "the ethereum price in wei",
          "_tokenId": "the token ID to set offer for "
        }
      },
      "transferOwnership(address)": {
        "details": "Transfers ownership of the contract to a new account (`newOwner`). Can only be called by the current owner."
      }
    },
    "title": "The MarketPlace contract.",
    "version": 1
  },
  "userdoc": {
    "kind": "user",
    "methods": {
      "getOffer(uint256)": {
        "notice": "Get the details about a offer for _tokenId. Throws an error if there is no active offer for _tokenId."
      },
      "removeOffer(uint256)": {
        "notice": "Removes an existing offer."
      },
      "setOffer(uint256,uint256)": {
        "notice": "Creates a new offer for _tokenId for the price _price."
      }
    },
    "version": 1
  },
  "storageLayout": {
    "storage": [
      {
        "astId": 7,
        "contract": "contracts/AlienMarketPlace.sol:AlienMarketPlace",
        "label": "_owner",
        "offset": 0,
        "slot": "0",
        "type": "t_address"
      },
      {
        "astId": 3966,
        "contract": "contracts/AlienMarketPlace.sol:AlienMarketPlace",
        "label": "IAlienNft",
        "offset": 0,
        "slot": "1",
        "type": "t_contract(IAlienCore)4483"
      },
      {
        "astId": 3968,
        "contract": "contracts/AlienMarketPlace.sol:AlienMarketPlace",
        "label": "IAlienNFT",
        "offset": 0,
        "slot": "2",
        "type": "t_address"
      },
      {
        "astId": 3999,
        "contract": "contracts/AlienMarketPlace.sol:AlienMarketPlace",
        "label": "_offers",
        "offset": 0,
        "slot": "3",
        "type": "t_array(t_struct(Offer)3995_storage)dyn_storage"
      },
      {
        "astId": 4012,
        "contract": "contracts/AlienMarketPlace.sol:AlienMarketPlace",
        "label": "_tokenIdToOffer",
        "offset": 0,
        "slot": "4",
        "type": "t_mapping(t_uint256,t_struct(Offer)3995_storage)"
      }
    ],
    "types": {
      "t_address": {
        "encoding": "inplace",
        "label": "address",
        "numberOfBytes": "20"
      },
      "t_address_payable": {
        "encoding": "inplace",
        "label": "address payable",
        "numberOfBytes": "20"
      },
      "t_array(t_struct(Offer)3995_storage)dyn_storage": {
        "base": "t_struct(Offer)3995_storage",
        "encoding": "dynamic_array",
        "label": "struct AlienMarketPlace.Offer[]",
        "numberOfBytes": "32"
      },
      "t_bool": {
        "encoding": "inplace",
        "label": "bool",
        "numberOfBytes": "1"
      },
      "t_contract(IAlienCore)4483": {
        "encoding": "inplace",
        "label": "contract IAlienCore",
        "numberOfBytes": "20"
      },
      "t_mapping(t_uint256,t_struct(Offer)3995_storage)": {
        "encoding": "mapping",
        "key": "t_uint256",
        "label": "mapping(uint256 => struct AlienMarketPlace.Offer)",
        "numberOfBytes": "32",
        "value": "t_struct(Offer)3995_storage"
      },
      "t_struct(Offer)3995_storage": {
        "encoding": "inplace",
        "label": "struct AlienMarketPlace.Offer",
        "members": [
          {
            "astId": 3986,
            "contract": "contracts/AlienMarketPlace.sol:AlienMarketPlace",
            "label": "seller",
            "offset": 0,
            "slot": "0",
            "type": "t_address_payable"
          },
          {
            "astId": 3988,
            "contract": "contracts/AlienMarketPlace.sol:AlienMarketPlace",
            "label": "price",
            "offset": 0,
            "slot": "1",
            "type": "t_uint256"
          },
          {
            "astId": 3990,
            "contract": "contracts/AlienMarketPlace.sol:AlienMarketPlace",
            "label": "index",
            "offset": 0,
            "slot": "2",
            "type": "t_uint256"
          },
          {
            "astId": 3992,
            "contract": "contracts/AlienMarketPlace.sol:AlienMarketPlace",
            "label": "tokenId",
            "offset": 0,
            "slot": "3",
            "type": "t_uint256"
          },
          {
            "astId": 3994,
            "contract": "contracts/AlienMarketPlace.sol:AlienMarketPlace",
            "label": "active",
            "offset": 0,
            "slot": "4",
            "type": "t_bool"
          }
        ],
        "numberOfBytes": "160"
      },
      "t_uint256": {
        "encoding": "inplace",
        "label": "uint256",
        "numberOfBytes": "32"
      }
    }
  }
}